:020000040800F2
:1000000000000220795800086119000863190008EF
:100010006519000867190008691900080000000048
:100020000000000000000000000000001155000862
:100030006B19000800000000B15500086D19000898
:10004000C9580008C9580008C9580008C95800080C
:10005000C9580008C9580008C9580008C9580008FC
:10006000C9580008C9580008C9580008C9580008EC
:10007000C9580008C9580008C9580008C9580008DC
:10008000C9580008C9580008C958000800000000F5
:10009000000000000000000000000000C958000837
:1000A000C9580008C9580008C9580008C9580008AC
:1000B000C9580008C9580008C9580008C95800089C
:1000C000C9580008C9580008C9580008C95800088C
:1000D000C9580008C9580008C958000800000000A5
:1000E000C9580008C9580008C95800080000000095
:1000F000000000000000000000000000C9580008D7
:1001000000000000C9580008C9580008C958000874
:1001100000000000000000000000000000000000DF
:10012000C9580008C9580008C9580008C95800082B
:10013000C958000800000000000000000000000096
:10014000000000000000000000000000C958000886
:10015000C9580008C9580008C9580008C9580008FB
:10016000C9580008C958000800000000000000003D
:10017000000000000000000000000000000000007F
:1001800000000000C9580008000000000000000046
:08019000C9580008C958000815
:1001A00010B5054C237833B9044B13B10448AFF3B1
:1001B00000800123237010BD7400002000000000A7
:1001C000C870000808B5034B1BB103490348AFF3DF
:1001D000008008BD0000000078000020C870000802
:1001E00001F0FF01102A2BDB10F0070F08D010F8E8
:1001F000013B013A8B422DD010F0070F42B3F6D1EC
:10020000F0B441EA012141EA014122F007047FF004
:1002100000070023F0E80256083C85EA010586EA5B
:10022000010685FA47F5A3FA87F586FA47F6A5FA97
:1002300087F68EB9EED1F0BC01F0FF0102F00702A3
:1002400032B110F8013B013A83EA010313B1F8D14E
:100250000020704701387047002D06BF354603382F
:10026000073815F0010F07D1013015F4807F02BF68
:10027000013015F4C03F0130F0BC0138704700BFB9
:1002800081F0004102E000BF83F0004330B54FEA47
:1002900041044FEA430594EA050F08BF90EA020FB4
:1002A0001FBF54EA000C55EA020C7FEA645C7FEA47
:1002B000655C00F0E2804FEA5454D4EB5555B8BF6A
:1002C0006D420CDD2C4480EA020281EA030382EADB
:1002D000000083EA010180EA020281EA0303362D6D
:1002E00088BF30BD11F0004F4FEA01314FF4801C40
:1002F0004CEA113102D0404261EB410113F0004F52
:100300004FEA03334CEA133302D0524263EB430308
:1003100094EA050F00F0A780A4F10104D5F1200EA6
:100320000DDB02FA0EFC22FA05F2801841F1000101
:1003300003FA0EF2801843FA05F359410EE0A5F1D5
:1003400020050EF1200E012A03FA0EFC28BF4CF006
:10035000020C43FA05F3C01851EBE37101F00045BC
:1003600007D54FF0000EDCF1000C7EEB00006EEBC9
:100370000101B1F5801F1BD3B1F5001F0CD3490853
:100380005FEA30004FEA3C0C04F101044FEA4452AA
:1003900012F5800F80F09A80BCF1004F08BF5FEA31
:1003A000500C50F1000041EB045141EA050130BD11
:1003B0005FEA4C0C404141EB0101013C28BFB1F523
:1003C000801FE9D291F0000F04BF01460020B1FA6E
:1003D00081F308BF2033A3F10B03B3F120020CDA41
:1003E0000C3208DD02F1140CC2F10C0201FA0CF01F
:1003F00021FA02F10CE002F11402D8BFC2F1200C84
:1004000001FA02F120FA0CFCDCBF41EA0C01904039
:10041000E41AA2BF01EB0451294330BD6FEA040482
:100420001F3C1CDA0C340EDC04F11404C4F120026D
:1004300020FA04F001FA02F340EA030021FA04F37F
:1004400045EA030130BDC4F10C04C4F1200220FAD6
:1004500002F001FA04F340EA0300294630BD21FA14
:1004600004F0294630BD94F0000F83F4801306BFDA
:1004700081F480110134013D4EE77FEA645C18BFCE
:100480007FEA655C29D094EA050F08BF90EA020F65
:1004900005D054EA000C04BF1946104630BD91EA5D
:1004A000030F1EBF0021002030BD5FEA545C05D160
:1004B0004000494128BF41F0004130BD14F580049F
:1004C0003CBF01F5801130BD01F0004545F0FE4113
:1004D00041F470014FF0000030BD7FEA645C1ABF48
:1004E000194610467FEA655C1CBF0B46024650EA7F
:1004F000013406BF52EA033591EA030F41F40021AB
:1005000030BD00BF90F0000F04BF0021704730B530
:100510004FF4806404F132044FF000054FF0000105
:1005200050E700BF90F0000F04BF0021704730B5C6
:100530004FF4806404F1320410F0004548BF40429B
:100540004FF000013EE700BF42004FEAE2014FEAF0
:1005500031014FEA02701FBF12F07F4393F07F4FCB
:1005600081F06051704732F07F4208BF704793F0CE
:100570007F4F04BF41F40021704730B54FF46074E1
:1005800001F0004521F000411CE700BF50EA0102E4
:1005900008BF704730B54FF000050AE050EA01028D
:1005A00008BF704730B511F0004502D5404261EBFD
:1005B00041014FF4806404F132045FEA915C3FF43E
:1005C000D8AE4FF003025FEADC0C18BF03325FEADB
:1005D000DC0C18BF033202EBDC02C2F1200300FA8C
:1005E00003FC20FA02F001FA03FE40EA0E0021FAB1
:1005F00002F11444BDE600BF70B54FF0FF0C4CF49F
:10060000E06C1CEA11541DBF1CEA135594EA0C0F50
:1006100095EA0C0F00F0DEF82C4481EA030621EA8B
:100620004C5123EA4C5350EA013518BF52EA0335C6
:1006300041F4801143F4801338D0A0FB02CE4FF078
:100640000005E1FB02E506F00042E0FB03E54FF0A8
:100650000006E1FB03569CF0000F18BF4EF0010EA0
:10066000A4F1FF04B6F5007F64F5407404D25FEA9C
:100670004E0E6D4146EB060642EAC62141EA55514F
:100680004FEAC52040EA5E504FEACE2EB4F1FD0C91
:1006900088BFBCF5E06F1ED8BEF1004F08BF5FEA0F
:1006A000500E50F1000041EB045170BD06F00046C1
:1006B00046EA010140EA020081EA0301B4EB5C046E
:1006C000C2BFD4EB0C0541EA045170BD41F4801166
:1006D0004FF0000E013C00F3AB8014F1360FDEBF8B
:1006E000002001F0004170BDC4F10004203C35DA67
:1006F0000C341BDC04F11404C4F1200500FA05F3EA
:1007000020FA04F001FA05F240EA020001F000428A
:1007100021F0004110EBD37021FA04F642EB060100
:100720005EEA430E08BF20EAD37070BDC4F10C042A
:10073000C4F1200500FA04F320FA05F001FA04F2EE
:1007400040EA020001F0004110EBD37041F10001DA
:100750005EEA430E08BF20EAD37070BDC4F12005E5
:1007600000FA05F24EEA020E20FA04F301FA05F24D
:1007700043EA020321FA04F001F0004121FA04F2F5
:1007800020EA020000EBD3705EEA430E08BF20EAC5
:10079000D37070BD94F0000F0FD101F000464000FF
:1007A00041EB010111F4801F08BF013CF7D041EA81
:1007B000060195F0000F18BF704703F00046520085
:1007C00043EB030313F4801F08BF013DF7D043EA56
:1007D0000603704794EA0C0F0CEA135518BF95EA0C
:1007E0000C0F0CD050EA410618BF52EA4306D1D193
:1007F00081EA030101F000414FF0000070BD50EAB2
:10080000410606BF1046194652EA430619D094EA3B
:100810000C0F02D150EA013613D195EA0C0F05D125
:1008200052EA03361CBF104619460AD181EA030179
:1008300001F0004141F0FE4141F470014FF0000031
:1008400070BD41F0FE4141F4780170BD70B54FF0CC
:10085000FF0C4CF4E06C1CEA11541DBF1CEA13554C
:1008600094EA0C0F95EA0C0F00F0A7F8A4EB05042E
:1008700081EA030E52EA03354FEA013100F0888025
:100880004FEA03334FF0805545EA131343EA1263EE
:100890004FEA022245EA111545EA10654FEA0026A3
:1008A0000EF000419D4208BF964244F1FD0404F55C
:1008B000407402D25B084FEA3202B61A65EB0305B8
:1008C0005B084FEA32024FF480104FF4002CB6EB75
:1008D000020E75EB030E22BFB61A754640EA0C00F5
:1008E0005B084FEA3202B6EB020E75EB030E22BF35
:1008F000B61A754640EA5C005B084FEA3202B6EB76
:10090000020E75EB030E22BFB61A754640EA9C0034
:100910005B084FEA3202B6EB020E75EB030E22BF04
:10092000B61A754640EADC0055EA060E18D04FEAC2
:10093000051545EA16754FEA06164FEAC30343EA62
:1009400052734FEAC2025FEA1C1CC0D111F4801F2F
:100950000BD141EA00014FF000004FF0004CB6E728
:1009600011F4801F04BF01430020B4F1FD0C88BFC7
:10097000BCF5E06F3FF6AFAEB5EB030C04BFB6EBD2
:10098000020C5FEA500C50F1000041EB045170BDC5
:100990000EF0004E4EEA113114EB5C04C2BFD4EBF2
:1009A0000C0541EA045170BD41F480114FF0000E76
:1009B000013C90E645EA060E8DE60CEA135594EAF2
:1009C0000C0F08BF95EA0C0F3FF43BAF94EA0C0FF5
:1009D0000AD150EA01347FF434AF95EA0C0F7FF46A
:1009E00025AF104619462CE795EA0C0F06D152EABE
:1009F00003353FF4FDAE1046194622E750EA4106A2
:100A000018BF52EA43067FF4C5AE50EA41047FF4B2
:100A10000DAF52EA43057FF4EBAE12E74FF0FF3C17
:100A200006E000BF4FF0010C02E000BF4FF0010CE8
:100A30004DF804CD4FEA410C7FEA6C5C4FEA430C61
:100A400018BF7FEA6C5C1BD001B050EA410C0CBFB0
:100A500052EA430C91EA030F02BF90EA020F002012
:100A6000704710F1000F91EA030F58BF994208BF79
:100A700090422CBFD8176FEAE37040F00100704736
:100A80004FEA410C7FEA6C5C02D150EA013C07D18D
:100A90004FEA430C7FEA6C5CD6D152EA033CD3D0D8
:100AA0005DF8040B704700BF8446104662468C46D2
:100AB0001946634600E000BF01B5FFF7B7FF002805
:100AC00048BF10F1000F01BD4DF808EDFFF7F4FF2E
:100AD0000CBF012000205DF808FB00BF4DF808EDB9
:100AE000FFF7EAFF34BF012000205DF808FB00BFDC
:100AF0004DF808EDFFF7E0FF94BF012000205DF8FE
:100B000008FB00BF4DF808EDFFF7CEFF94BF0120B2
:100B100000205DF808FB00BF4DF808EDFFF7C4FFAB
:100B200034BF012000205DF808FB00BF4FEA410CF4
:100B30007FEA6C5C02D150EA013C0AD14FEA430CD7
:100B40007FEA6C5C02D152EA033C02D14FF0000014
:100B500070474FF0010070474FEA410212F5001252
:100B600015D211D56FF47873B3EB625212D94FEAF4
:100B7000C12343F0004343EA505311F0004F23FADE
:100B800002F018BF404270474FF00000704750EA33
:100B9000013005D111F0004008BF6FF000407047F0
:100BA0004FF00000704700BF4FEA4102B2F1E0434E
:100BB00024BFB3F5001CDCF1FE5C0DD901F0004C44
:100BC0004FEAC0024CEA5070B2F1004F40EB830094
:100BD00008BF20F00100704711F0804F21D113F1C0
:100BE0003872BCBF01F00040704741F480114FEAF9
:100BF0005252C2F11802C2F1200C10FA0CF320FA82
:100C000002F018BF40F001004FEAC1234FEAD3239E
:100C100003FA0CFC40EA0C0023FA02F34FEA430308
:100C2000CCE77FEA625307D150EA01331EBF4FF091
:100C3000FE4040F44000704701F0004040F0FE40AC
:100C400040F40000704700BF53B94AB9002908BFFB
:100C500000281CBF4FF0FF314FF0FF3000F074B997
:100C6000ADF1080C6DE904CE00F006F8DDF804E003
:100C7000DDE9022304B070472DE9F047089D0446E2
:100C80008E46002B4DD18A42944669D9B2FA82F23F
:100C900052B101FA02F3C2F1200120FA01F10CFA7B
:100CA00002FC41EA030E94404FEA1C48210CBEFBB3
:100CB000F8F61FFA8CF708FB16E341EA034306FB3C
:100CC00007F199420AD91CEB030306F1FF3080F0CB
:100CD0001F81994240F21C81023E63445B1AA4B218
:100CE000B3FBF8F008FB103344EA034400FB07F7BA
:100CF000A7420AD91CEB040400F1FF3380F00A81FB
:100D0000A74240F207816444023840EA0640E41BEF
:100D100000261DB1D4400023C5E900433146BDE89B
:100D2000F0878B4209D9002D00F0EF800026C5E93D
:100D3000000130463146BDE8F087B3FA83F6002E55
:100D40004AD18B4202D3824200F2F980841A61EBCD
:100D5000030301209E46002DE0D0C5E9004EDDE7EB
:100D600002B9FFDEB2FA82F2002A40F09280A1EBD3
:100D70000C014FEA1C471FFA8CFE0126200CB1FB28
:100D8000F7F307FB131140EA01410EFB03F0884221
:100D900008D91CEB010103F1FF3802D2884200F2AE
:100DA000CB804346091AA4B2B1FBF7F007FB101140
:100DB00044EA01440EFB00FEA64508D91CEB0404DE
:100DC00000F1FF3102D2A64500F2BB800846A4EB39
:100DD0000E0440EA03409CE7C6F12007B34022FA24
:100DE00007FC4CEA030C20FA07F401FA06F31C4353
:100DF000F9404FEA1C4900FA06F3B1FBF9F8200C60
:100E00001FFA8CFE09FB181140EA014108FB0EF0A5
:100E1000884202FA06F20BD91CEB010108F1FF3AF5
:100E200080F08880884240F28580A8F10208614401
:100E3000091AA4B2B1FBF9F009FB101144EA01410F
:100E400000FB0EFE8E4508D91CEB010100F1FF34BA
:100E50006CD28E456AD90238614440EA0840A0FB52
:100E60000294A1EB0E01A142C846A64656D353D028
:100E70005DB1B3EB080261EB0E0101FA07F722FA4C
:100E800006F3F1401F43C5E9007100263146BDE875
:100E9000F087C2F12003D8400CFA02FC21FA03F3D8
:100EA000914001434FEA1C471FFA8CFEB3FBF7F059
:100EB00007FB10360B0C43EA064300FB0EF69E427E
:100EC00004FA02F408D91CEB030300F1FF382FD217
:100ED0009E422DD9023863449B1B89B2B3FBF7F6BF
:100EE00007FB163341EA034106FB0EF38B4208D998
:100EF0001CEB010106F1FF3816D28B4214D9023ED9
:100F00006144C91A46EA004638E72E46284605E7F6
:100F10000646E3E61846F8E64B45A9D2B9EB0208C7
:100F200064EB0C0E0138A3E74646EAE7204694E757
:100F30004046D1E7D0467BE7023B614432E730468A
:100F400009E76444023842E7704700BF30B58BB010
:100F50000024059406940794089409940194224B64
:100F60001A6B42F004021A631A6B02F00402019237
:100F7000019A02941A6B42F080021A631A6B02F013
:100F800080020292029A03941A6B42F001021A63E1
:100F90001A6B02F001020392039A04941A6B42F056
:100FA00002021A631B6B03F002030493049B0F4DB0
:100FB00022462021284601F0FEFB4FF40053059302
:100FC0004FF404130693079405A9094801F00CFB9C
:100FD00020230593012306930794089405A9284626
:100FE00001F002FB0BB030BD0038024000000240AF
:100FF0000008024010B52DED028B164C0021204652
:1010000002F07EFB0421204602F07AFB08212046F4
:1010100002F076FB0C21204602F072FB9FED0E8A57
:10102000B3EE011AF3EE030AB0EE480A00F0E4FB57
:1010300041F2883003F01CFDB3EE011AF3EE030A0F
:10104000B0EE480A00F032FC41F2883003F010FDA7
:10105000FEE700BF8C0100200000B44270B582B0F2
:101060000C46079D0195069E009603F0F8FA0128AC
:1010700006D02146074804F069FC012002B070BD8B
:10108000286803F0D9FB0146034804F05FFC002008
:10109000F4E700BFF0700008E070000810B50446E7
:1010A000006803F011FB206803F0C6FB014603480B
:1010B00004F04CFC0023236010BD00BF0871000841
:1010C00008B54FF0FF3307220249034802F0F9FC4C
:1010D00008BD00BF1C7100081C02002008B54FF4B9
:1010E0000051054801F060FB0028F8D1FFF7E8FF48
:1010F000C82003F0BDFCF2E70008024000B583B051
:1011000001904FF6FF73012201A9034802F0D9FCB8
:10111000019803B05DF804FB1C02002072B6FEE7E4
:1011200008B50A480A4B03600A4B436000238360FA
:10113000C3604FF48042026143618361C361036213
:1011400001F004FC00B908BDFFF7E8FF980000209B
:1011500000580040A086010008B50B480B4B036007
:101160004FF40073436000238360C36003614FF456
:10117000FA5242618361C3610123036201F0C4FC3E
:1011800000B908BDFFF7CAFFEC000020003C00409A
:1011900008B50D480D4B03604FF482734360002384
:1011A0008360C360036143614FF400728261C36175
:1011B0000362436283620A23C36201F0A3FF00B9A2
:1011C00008BDFFF7ABFF00BF34010020003800402E
:1011D00000B58FB000230A930B930C930D930893E3
:1011E0000993019302930393049305930693079342
:1011F0002C482D4A0260B3224260836042F20F7293
:10120000C2600361836102F0E7F8002839D14FF42E
:1012100080530A930AA9234802F0E3F9002832D147
:10122000204802F005F900282FD1002308930993E4
:1012300008A91C4802F0DCFA48BB60230193002295
:1012400002920392059201A9164802F04FF900BBE1
:1012500004220DEB0201134802F048F9D8B9082224
:1012600001A9104802F042F9B8B90C2201A90D48B1
:1012700002F03CF998B90B4800F0F4FC0FB05DF8AF
:1012800004FBFFF74BFFFFF749FFFFF747FFFFF7AF
:1012900045FFFFF743FFFFF741FFFFF73FFFFFF772
:1012A0003DFF00BF8C0100200004004000B58FB05E
:1012B00000230A930B930C930D93089309930193C6
:1012C0000293039304930593069307932248234ABA
:1012D0000260B3224260836042F20F72C260036117
:1012E000836102F079F858BB4FF480530A930AA93E
:1012F000194802F076F928BB174802F099F818BB94
:1013000000230893099308A9134802F071FAE8B979
:1013100060230193002202920392059201A90E48D4
:1013200002F0E4F8A0B904220DEB02010A4802F031
:10133000DDF878B9084800F095FC0FB05DF804FBC3
:10134000FFF7ECFEFFF7EAFEFFF7E8FEFFF7E6FE29
:10135000FFF7E4FEFFF7E2FED401002000080040A2
:1013600008B50A480A4B03604FF4E1334360002399
:101370008360C36003610C2242618361C36102F038
:1013800070FB00B908BDFFF7C9FE00BF1C020020BA
:101390000044004000B595B03022002108A804F0B8
:1013A000CDFA0023039304930593069307930193C7
:1013B0001E4A116C41F080511164126C02F080528F
:1013C0000192019A02931A4A116841F44041116056
:1013D000126802F440420292029A0221089101220C
:1013E0000B9210220C920E910F9310924FF4A8734F
:1013F000119304231293139308A800F0C7FC80B93B
:101400000F23039302210491002305934FF480528C
:101410000692079303A800F01FFF20B915B05DF8EE
:1014200004FBFFF77BFEFFF779FE00BF00380240A8
:101430000070004000B583B001F048FAFFF7AAFF42
:10144000FFF784FDFFF76CFEFFF786FEFFF7A0FEB7
:10145000FFF7BEFEFFF72AFFFFF782FF0F4804F0F9
:10146000FBFA0F4B01930823009300234FF4007203
:101470000C490D48FFF7F2FD0C4B01930723009335
:1014800000234FF400720A490A48FFF7E7FD0A48B3
:1014900004F0E2FA03F074F9FEE700BF24710008DB
:1014A0009400002030710008F50F00089000002023
:1014B00038710008DD1000084871000810B5B42824
:1014C0001DD8014607EE900AF8EEE77A9FED117AF3
:1014D00067EE877A9FED107A77EE877AFDEEE77AEE
:1014E00017EE904AA4F1C80240F2B6339A420BD8E4
:1014F00017EE902A094804F029FAA0B210BD084856
:1015000004F0AAFA0020F9E7064804F0A5FA002042
:10151000F4E700BF8EE3A84000004843B071000824
:10152000647100088C71000838B52DED028BB0EEA7
:10153000408A21EE011A60EEA00A71EE207A17EEC1
:10154000900AFFF701F841EC100B05F037FA51EC67
:10155000100BFFF729FB08EE900A68EEA87A17EE49
:10156000900AFEF7F1FF04460D4602460B4645A1E0
:10157000D1E90001FEF788FE00223B4BFFF766F938
:1015800041EC100B05F0E6F951EC100B2EA3D3E95A
:101590000023FFF731F8FFF7DFFA344B18602246DB
:1015A0002B462BA1D1E90001FEF76EFE2AA3D3E959
:1015B0000023FFF74BF941EC100B05F0CBF951EC90
:1015C000100BFFF7C9FAFEF7ADFF1FA3D3E9002305
:1015D000FFF712F8FFF7C0FA254B18600022254BE1
:1015E00020462946FEF752FE1DA3D3E90023FEF74D
:1015F0004BFE04460D4618EE900AFEF7A5FF0022AA
:101600001D4BFEF7F9FF02460B4620462946FFF721
:101610001DF941EC100B05F09DF951EC100BFFF793
:101620009BFAFEF77FFF08A3D3E90023FEF7E4FF50
:10163000FFF792FA114B1860BDEEC88A104B83ED8C
:10164000008ABDEC028B38BDF8C1631ADCA54C40A2
:101650000000000000A0784000000000006078401A
:101660000000000000206C400080764070020020E6
:101670007402002000006240000038406C0200202C
:10168000680200200000000000107740F8B52DED42
:10169000028B07460D46164607EE902AB8EE677A8B
:1016A000DFED1B7A87EE278A00240BE0042D22D081
:1016B000082D25D03B68174A12681A64142001F0DF
:1016C00031F90134322C20D807EE904AF8EE677ACF
:1016D00067EE887AFCEEE77A17EE901A31440D4BEC
:1016E00019600D4804F032F9002DDFD13B68094A3A
:1016F00012685A63E2E73B68064A12689A63DDE7BC
:101700003B68044A1268DA63D8E7BDEC028BF8BD87
:10171000000048427C020020D471000810B51B4C28
:10172000C82200212046FFF7B1FFC822042120462D
:10173000FFF7ACFF5A20FFF7C1FE0246002120460A
:10174000FFF7A4FF4FF47A7001F0ECF81920FFF7CF
:10175000B5FE024600212046FFF798FF4FF47A704D
:1017600001F0E0F841F2883003F082F90020FFF741
:10177000A5FE024600212046FFF788FF4FF47A704D
:1017800001F0D0F80248FFF789FC10BDD401002019
:101790007802002010B55A20FFF790FE0246144C44
:1017A00000212046FFF772FF4FF47A7001F0BAF87B
:1017B0000020FFF783FE024600212046FFF766FF68
:1017C0004FF47A7001F0AEF841F2883003F050F92E
:1017D0001E20FFF773FE024600212046FFF756FF4A
:1017E0004FF47A7001F09EF80248FFF757FC10BDE5
:1017F000D40100206402002030B583B0FFF794FECE
:10180000224B1878FFF75AFE0246214C0021204651
:10181000FFF73CFF4FF47A7001F084F81D4B019301
:101820000825009500234FF400721B491B48FFF761
:1018300015FC4FF47A7003F01BF9194B1878FFF779
:101840003DFE024604212046FFF720FF4FF47A7048
:1018500001F068F8134B1878FFF730FE024629466E
:101860002046FFF713FF4FF47A7001F05BF80E4B40
:101870001878FFF723FE02460C212046FFF706FFEB
:101880004FF47A7001F04EF803B030BD68020020CA
:101890008C01002078020020EC7100081D17000860
:1018A0006C020020700200207402002010B582B08B
:1018B000FFF73AFE224B1878FFF700FE0246214C54
:1018C00000212046FFF7E2FE4FF47A7001F02AF87B
:1018D0001D4B01930923009300234FF400721B4911
:1018E0001B48FFF7BBFB4FF47A7003F0C1F8194BAC
:1018F0001878FFF7E3FD024604212046FFF7C6FEF5
:101900004FF47A7001F00EF8134B1878FFF7D6FDFC
:10191000024608212046FFF7B9FE4FF47A7001F025
:1019200001F80E4B1878FFF7C9FD02460C2120463E
:10193000FFF7ACFE4FF47A7000F0F4FF02B010BD78
:10194000680200208C01002064020020F47100086D
:10195000951700086C02002070020020740200201D
:10196000FEE7FEE7FEE7FEE7FEE7704708B500F09A
:10197000C7FF03F0BBF9012800D108BD03F04AFE00
:10198000FBE7000000B583B0002200920D4B596CBC
:1019900041F480415964596C01F4804100910099EF
:1019A0000192196C41F0805119641B6C03F0805353
:1019B0000193019B0F216FF0010000F015FF03B0B0
:1019C0005DF804FB003802402DE9F04188B00023A7
:1019D0000393049305930693079302681C4B9A4262
:1019E00002D008B0BDE8F08100250195194C236BA9
:1019F00043F002032363236B03F002030193019B73
:101A00004FF4806303934FF01208CDF81080032742
:101A1000069704230793104E03A9304600F0E4FD17
:101A20004FF400730393CDF81080059506970923B2
:101A3000079303A9304600F0D7FD0295236C43F4C9
:101A400080032364236C03F480030293029BC8E7A2
:101A50000058004000380240000402402DE9F041E7
:101A600090B000230B930C930D930E930F9305935B
:101A700006930793089309930A930268384B9A4296
:101A800002D010B0BDE8F08101230593C023079375
:101A9000102306930223089305A800F0B3FC002846
:101AA0005AD1002401942F4B1A6C42F400421A645C
:101AB0001A6C02F400420192019A02941A6B42F0ED
:101AC00001021A631A6B02F001020292029A039455
:101AD0001A6B42F002021A631A6B02F002020392BE
:101AE000039A04941A6B42F004021A631B6B03F00E
:101AF00004030493049B10230B9302250C950D946F
:101B00000E9406270F970BA9174800F06DFD4FF4B0
:101B10008058CDF82C800C950D940E9407230F93CC
:101B20000BA9124800F060FD4FF400630B930C9575
:101B30000D940E9405230F930D4E0BA9304600F023
:101B400053FDCDF82C800C950D940E940F970BA996
:101B5000304600F049FD94E7FFF7E0FAA1E700BF47
:101B6000003C0040003802400000024000040240F7
:101B700000080240F0B589B0002303930493059355
:101B80000693079302681F4B9A4201D009B0F0BD3B
:101B90000024009403F500331A6C42F480421A6466
:101BA0001A6C02F480420092009A01941A6B42F07F
:101BB00004021A631A6B02F004020192019A029461
:101BC0001A6B42F002021A631B6B03F002030293CA
:101BD000029B0823039302270497032606960525F4
:101BE000079503A9084800F0FFFC4FF40053039346
:101BF000049705940696079503A9044800F0F4FCA1
:101C0000C4E700BF00380040000802400004024062
:101C100082B00368104A934204D0104A93420ED017
:101C200002B07047002300930D4B1A6C42F0020281
:101C30001A641B6C03F002030093009BF0E700237F
:101C40000193074B1A6C42F004021A641B6C03F0F8
:101C500004030193019BE3E70004004000080040F7
:101C60000038024030B589B00023039304930593F4
:101C7000069307930368244A934204D0234A93426D
:101C80002BD009B030BD00250095214B1A6B42F0D6
:101C900001021A631A6B02F001020092009A019588
:101CA0001A6B42F002021A631B6B03F002030193EA
:101CB000019BC023039302240494079403A91548AD
:101CC00000F092FC03230393049405950695079472
:101CD00003A9114800F088FCD3E7002302930C4BC2
:101CE0001A6B42F002021A631B6B03F002030293A9
:101CF000029BC023039302230493079303A906487E
:101D000000F072FCBDE700BF000400400008004086
:101D100000380240000002400004024000B589B0D3
:101D20000023039304930593069307930268154BCE
:101D30009A4202D009B05DF804FB0021019103F53D
:101D4000FA331A6C42F400321A641A6C02F400324C
:101D50000192019A02911A6B42F001021A631B6B05
:101D600003F001030293029B0C23039302230493C9
:101D7000032306930723079303A9034800F034FCC9
:101D8000D8E700BF0044004000000240002800F0F7
:101D9000E08170B582B00446036813F0010F3BD0B8
:101DA0009F4B9B6803F00C03042B2CD09C4B9B682F
:101DB00003F00C03082B21D06368B3F5803F4FD0AC
:101DC000B3F5A02F52D0964B1A6822F480321A60D5
:101DD0001A6822F480221A606368002B50D000F049
:101DE0009BFD05468E4B1B6813F4003F14D100F099
:101DF00093FD401B6428F5D90320B1E1884B5B6853
:101E000013F4800FD8D0864B1B6813F4003F03D027
:101E10006368002B00F09F81236813F0020F54D0F9
:101E20007F4B9B6813F00C0F3ED07D4B9B6803F0FB
:101E30000C03082B33D0E368002B68D0794B0122C8
:101E40001A6000F069FD0546754B1B6813F0020F20
:101E500054D100F061FD401B0228F5D903207FE139
:101E60006F4A136843F480331360B5E76C4B1A680C
:101E700042F480221A601A6842F480321A60ABE79A
:101E800000F04AFD0546664B1B6813F4003FC3D0C3
:101E900000F042FD401B6428F5D9032060E1604B4F
:101EA0005B6813F4800FC6D15D4B1B6813F0020F03
:101EB00003D0E368012B40F05081594A136823F0A6
:101EC000F803216943EAC1031360236813F0080F84
:101ED00042D063696BB3534B0122C3F8802E00F0EC
:101EE0001BFD05464E4B5B6F13F0020F34D100F023
:101EF00013FD401B0228F5D9032031E1484A13683D
:101F000023F0F803216943EAC1031360DDE7454B81
:101F100000221A6000F000FD0546414B1B6813F0DB
:101F2000020FD2D000F0F8FC401B0228F5D90320A4
:101F300016E13C4B0022C3F8802E00F0EDFC054674
:101F4000374B5B6F13F0020F06D000F0E5FC401B2F
:101F50000228F5D9032003E1236813F0040F77D09A
:101F60002F4B1B6C13F0805F33D1002301932C4B5C
:101F70001A6C42F080521A641B6C03F08053019378
:101F8000019B0125284B1B6813F4807F23D0A36895
:101F9000012B34D0052B38D0214B1A6F22F00102CF
:101FA0001A671A6F22F004021A67A368002B3DD04B
:101FB00000F0B2FC06461A4B1B6F13F0020F46D11D
:101FC00000F0AAFC801B41F288339842F3D9032029
:101FD000C6E00025D6E7144A136843F48073136003
:101FE00000F09AFC0646104B1B6813F4807FCED19C
:101FF00000F092FC801B0228F5D90320B0E0084ACB
:10200000136F43F001031367CFE7054B1A6F42F0DC
:1020100004021A671A6F42F001021A67C5E700BF8F
:1020200000380240000047420070004000F074FC9D
:102030000646524B1B6F13F0020F08D000F06CFCE9
:10204000801B41F288339842F3D9032088E0EDB930
:10205000A369002B00F08380484A926802F00C02CA
:10206000082A51D0022B17D0454B00221A6600F0E7
:1020700053FC0446414B1B6813F0007F42D000F034
:102080004BFC001B0228F5D9032069E03B4A136C86
:1020900023F080531364DBE7394B00221A6600F00B
:1020A0003BFC0546354B1B6813F0007F06D000F063
:1020B00033FC401B0228F5D9032051E0E369226A72
:1020C0001343626A43EA8213A26A5208013A43EA5E
:1020D0000243E26A43EA0263284A5360284B012222
:1020E0001A6600F019FC0446244B1B6813F0007FAD
:1020F00006D100F011FC001B0228F5D903202FE0C7
:1021000000202DE000202BE0012B2BD01B4B5B6827
:1021100003F48001E269914226D103F03F02216A73
:102120008A4223D1616A47F6C0721A40B2EB811F1E
:102130001ED103F44031A26A5208013AB1EB024FBA
:1021400018D103F07063E26AB3EB026F14D1002080
:1021500006E001207047012002E0012000E000209D
:1021600002B070BD0120FBE70120F9E70120F7E78D
:102170000120F5E70120F3E70120F1E700380240F4
:102180000000474208B5314B9B6803F00C03042B59
:1021900057D0082B57D12D4B5A6802F03F025B688D
:1021A00013F4800F2AD0294B5968C1F3881C4FEAD9
:1021B0004C11B1EB0C006EEB0E0E4FEA8E1343EA9E
:1021C00090638101091A63EB0E03DB0043EA51734C
:1021D000C90011EB0C0C43F10003590200234FEA34
:1021E0004C2041EADC51FEF72FFD184B5B68C3F32E
:1021F000014301335B00B0FBF3F025E0134B59685A
:10220000C1F3881C4FEA4C11B1EB0C006EEB0E0EC3
:102210004FEA8E1343EA90638101091A63EB0E03C0
:10222000DB0043EA5173C90011EB0C0C43F10003CE
:10223000990200234FEA8C2041EA9C51FEF704FDED
:10224000D3E7034800E0034808BD00BF0038024060
:1022500000127A000024F400002800F09B8070B582
:102260000D4604464F4B1B6803F007038B4208D210
:10227000CBB24C4A1370136803F007038B4240F053
:102280008B80236813F0020F17D013F0040F04D0D3
:10229000454A936843F4E0539360236813F0080FB2
:1022A00004D0414A936843F4604393603E4A936884
:1022B00023F0F003A1680B439360236813F0010F30
:1022C00032D06368012B21D09A1E012A25D9364AC3
:1022D000126812F0020F61D033498A6822F00302BB
:1022E00013438B6000F018FB06462F4B9B6803F0EE
:1022F0000C036268B3EB820F16D000F00DFB801B5D
:1023000041F288339842F0D9032042E0264A12680D
:1023100012F4003FE0D101203BE0234A126812F0A2
:10232000007FD9D1012034E01E4B1B6803F0070366
:10233000AB4207D9EAB21B4B1A701B6803F00703C4
:10234000AB422DD1236813F0040F06D0164A9368D0
:1023500023F4E053E1680B439360236813F0080F04
:1023600007D0114A936823F46043216943EAC1030B
:102370009360FFF707FF0C4B9B68C3F303130B4AF3
:10238000D35CD8400A4B18600A4B186800F078FA02
:10239000002070BD012070470120FAE70120F8E716
:1023A0000120F6E7003C024000380240FC710008C2
:1023B0000800002004000020014B1868704700BF8F
:1023C0000800002008B5FFF7F7FF044B9B68C3F334
:1023D0008223034AD35CD84008BD00BF00380240C6
:1023E0000C72000808B5FFF7E7FF044B9B68C3F3C6
:1023F0004233034AD35CD84008BD00BF00380240D6
:102400000C72000830B583B00446036813F0050F62
:102410000ED1236813F0020F38D1236813F0080F90
:1024200000F09D80227D4F4BC3F8E021002097E013
:102430004D4B00229A6600F06FFA05464B4B1B6825
:1024400013F0006F06D000F067FA431B022BF5D99A
:10245000032085E06368A26843EA8213E26843EAE6
:102460000273424AC2F884303F4B01229A6600F060
:1024700053FA05463D4B1B6813F0006FC9D100F0BD
:102480004BFA401B0228F5D9032069E00023019391
:10249000364B1A6C42F080521A641B6C03F0805366
:1024A0000193019B324A136843F48073136000F078
:1024B00033FA05462E4B1B6813F4807F06D100F0DB
:1024C0002BFA431B022BF5D9032049E0274B1B6F46
:1024D00013F4407314D0226902F440729A420FD070
:1024E000224B1A6F22F440721F490120C1F8400E9E
:1024F0000020C1F8400E1A671B6F13F0010F12D1B4
:10250000236903F44072B2F5407F1DD0174A9368E7
:1025100023F4F813936015490B6F2269C2F30B0281
:1025200013430B6779E700F0F7F905460F4B1B6F74
:1025300013F0020FE4D100F0EFF9401B41F28833B1
:102540009842F3D903200BE008498A6822F4F81274
:1025500023F0704323F4407313438B60DBE70020C8
:1025600003B030BD0010474200004742003802402F
:1025700000700040012801D000207047164B9B6876
:1025800013F4000302D02BB314487047124B5B685E
:1025900013F4800F15D0104BD3F8843003F03F03B1
:1025A0000F48B0FBF3F30C4AD2F88400C0F3881054
:1025B00003FB00F0D2F88430C3F30273B0FBF3F0F6
:1025C0007047054BD3F8843003F03F030548B0FB58
:1025D000F3F3E8E700207047003802400080BB00BA
:1025E00000127A000024F40000230F2B00F2D280A6
:1025F00070B582B060E085685E000324B44025EACF
:102600000405CC68B4402C438460456825EA020583
:102610004C68C4F300129A402A4342605AE0DC0836
:10262000083450F8246003F0070295000F22AA40F6
:1026300026EA020E0A69AA4042EA0E0240F8242065
:102640005CE0042200E0002202FA0EF22A43023487
:10265000514D45F82420514A94686FEA0C0224EA4F
:102660000C054E6816F4801F01D04CEA04054B4C53
:10267000A560E46802EA04054E6816F4001F01D064
:102680004CEA0405454CE560646802EA04054E68BE
:1026900016F4003F01D04CEA0405404C6560246804
:1026A00022404D6815F4803F01D04CEA04023B4CB7
:1026B000226001330F2B6BD801229A400C6804EA88
:1026C000020C32EA0404F4D14C6804F00304013C27
:1026D000012C90D94A6802F00302032A09D0C46889
:1026E0005D000322AA4024EA02048A68AA40224329
:1026F000C2604A6802F00302022A90D004684FEADE
:10270000430E032202FA0EF224EA02044A6802F09F
:10271000030202FA0EF2224302604A6812F4403FBA
:10272000C7D0002201921E4A546C44F48044546481
:10273000526C02F480420192019A9C08A51C164A30
:1027400052F8255003F003024FEA820E0F2202FADC
:102750000EF225EA0205134A90423FF474AF02F5E7
:10276000806290420ED002F5806290420CD002F559
:10277000806290420AD002F5806290423FF461AFDD
:10278000072261E701225FE702225DE703225BE7A0
:1027900002B070BD704700BF00380140003C0140EE
:1027A00000380240000002400369194201D00120B4
:1027B0007047002070470AB1816170470904816148
:1027C00070470000074AD36823F4E0631B041B0C26
:1027D000000200F4E060034343F0BF6343F40033BE
:1027E000D360704700ED00E000B5194BDB68C3F320
:1027F0000223C3F1070CBCF1040F28BF4FF0040CF7
:1028000003F1040EBEF1060F18D9033B4FF0FF3E53
:102810000EFA0CFC21EA0C0199400EFA03F322EAAD
:102820000303194300280BDB0901C9B200F1604022
:1028300000F5614080F800135DF804FB0023E5E734
:1028400000F00F000901C9B2024B1954F4E700BFB0
:1028500000ED00E014ED00E00138B0F1807F0BD214
:102860004FF0E0235861054AF02182F82310002040
:10287000986107221A6170470120704700ED00E05F
:1028800010B504460E4B18784FF47A73B3FBF0F38F
:102890000C4A1068B0FBF3F0FFF7DEFF68B90F2CAD
:1028A00001D901200AE0002221464FF0FF30FFF756
:1028B0009BFF054B1C60002000E0012010BD00BF05
:1028C00000000020080000200400002008B50B4B89
:1028D0001A6842F400721A601A6842F480621A6040
:1028E0001A6842F480721A600320FFF76BFF0F2012
:1028F000FFF7C6FFFFF746F8002008BD003C024086
:10290000034A1168034B1B780B441360704700BFE8
:102910008002002000000020014B1868704700BFB3
:102920008002002038B50446FFF7F6FF0546B4F1F3
:10293000FF3F02D0044B1B781C44FFF7EDFF401B08
:10294000A042FAD338BD00BF00000020002800F0EC
:10295000CC8070B5044690F83D30002B77D024230E
:1029600084F83D302268136823F001031360226865
:10297000136843F4004313602268136823F4004390
:102980001360FFF71FFD62685A4B9A4264D85A4B96
:1029900098428CBF00230123002B40F0A8805749A8
:1029A000A1FB00318B0C25686A6822F03F0242EAE5
:1029B00091426A6021680A6A22F03F0266684D4DC2
:1029C000AE424FD8013313430B622168CA6922F427
:1029D0004F4222F0FF026668464B9E424CD8431E8F
:1029E0007600B3FBF6F3013340F6FC70034278D077
:1029F000C3F30B031343CB6121680B6823F0C003BF
:102A0000E269206A024313430B6021688B6823F458
:102A1000034323F0FF032269E068024313438B6002
:102A20002168CB6823F0FF036269A0690243134366
:102A3000CB602268136843F0010313600020206418
:102A4000202384F83D30206384F83E0070BD80F878
:102A50003C30FEF7B9FF82E7294B98428CBF002338
:102A6000012399E74FF4967505FB03F3254DA5FB6C
:102A700003539B090133A6E7A368BBB9451E06EBC8
:102A8000460CB5FBFCF50135C5F30B05B5FA85F52C
:102A90006D0945BBC3B9013806EB4603B0FBF3F340
:102AA0000133C3F30B0343F40043A3E7451E06EBD6
:102AB000860C0CEB8C0CB5FBFCF50135C5F30B0556
:102AC000B5FA85F56D09E4E7013806EB860303EBFB
:102AD0008303B0FBF3F30133C3F30B0343F440432D
:102AE00088E7042386E7012384E70120704701205B
:102AF000ACE700BFA08601007F841E0083DE1B437D
:102B0000FF083D00D34D6210002800F0BF8038B5AB
:102B1000044690F84130002B51D0022284F8412025
:102B20002168CB6923F47B6323F00F03CB61236817
:102B30001A626369934263D0E368002B46D1102583
:102B4000A368202B00D86D000120FFF713FD236937
:102B5000B3F5007F3CD0B0FBF5F000EB8000430004
:102B60006069B3FBF0F30533494AA2FB0323C3F3C7
:102B7000C002C2EBD3035B0811029A1EFD2A41D8A2
:102B800022690A43216813430B622168CB6923F44D
:102B90007B6323F00F036268A0680243E06802438E
:102BA000A0690243134343F40063CB61236A012B02
:102BB0002ED000206064012384F8413038BD80F8B5
:102BC0004030344B4363FEF749FFA6E72025B7E7C3
:102BD000E36853B1AD00B0FBF5F000EB80004300BB
:102BE0006069B3FBF0F30533BEE7ED00B0FBF5F031
:102BF00000EB800043006069B3FBF0F30533B3E7FB
:102C00000021BAE7636C43F0100363640120D5E749
:102C1000214B63632268214B9A421FD04FF0402220
:102C2000D36923F47B6323F00F03D36122681B4B2A
:102C30009A4215D04FF0402302221A622268174BA5
:102C40009A4210D04FF04025EB699BB26268B2F512
:102C5000007F0AD0C2B94FF4807008E0104ADFE765
:102C6000A3F58063E8E70E4DEEE74FF48070B4F80B
:102C700008C0A189228B40EA0C0001430A43134398
:102C800043F40063EB6194E70020F0E70120704714
:102C9000CDCCCCCC1B2D00082D2F000800380040D7
:102CA00000340040704708B5426A03681288DA6051
:102CB000436A02334362438D9BB2013B9BB243851F
:102CC000438D9BB203B108BD0268536823F0A00393
:102CD0005360012380F84130FFF7E4FFF3E77047CA
:102CE00008B50368DA68C36A1A80C36A0233C3622C
:102CF000438E9BB2013B9BB24386438E9BB203B192
:102D000008BD0268536823F060035360012380F814
:102D10004130FFF7E4FFF3E7704710B584B0044695
:102D200002689368039390F84130DBB2042B06D01D
:102D300094F84130DBB2032B2CD004B010BD039BC0
:102D400013F0010F03D0536813F0400F1FD1039B02
:102D500013F0400FECD023685A6812F0200FE7D030
:102D60005A6822F060025A60002301932368DA68EF
:102D700001929B680193019B012384F84130636CAD
:102D800043F0020363642046FFF7C6FFD0E7FFF776
:102D9000A7FFDCE7039B13F0020F04D023685B68F6
:102DA00013F0800F1DD1039B13F0080FC5D02368CB
:102DB0005A6812F0200FC0D05A6822F0A0025A6060
:102DC0000023029323689B680293029B012384F8EB
:102DD0004130636C43F0040363642046FFF79CFFBB
:102DE000ABE72046FFF75FFFDDE7704708B5436AB2
:102DF0009A1C426202681B88D360438D9BB2013BE0
:102E00009BB24385438D9BB23BB90268536823F064
:102E1000A0035360438E9BB203B108BD012380F829
:102E20004130FFF7E2FFF8E708B50268154B9A4218
:102E30001CD04FF04023DA68C36A991CC1621A8023
:102E4000438E9BB2013B9BB24386438E9BB263B9D8
:102E500002680C4B9A420CD04FF04022536823F08A
:102E600060035360438D9BB22BB108BDA3F5806313
:102E7000E1E7054AF2E7012380F84130FFF7B5FFAB
:102E8000F3E700BF003800400034004008B5436A53
:102E90009A1C42621A880168134B994218D04FF06D
:102EA0004023DA60438D9BB2013B9BB24385438D47
:102EB0009BB263B902680C4B9A420CD04FF040228F
:102EC000536823F0A0035360438E9BB22BB108BD1F
:102ED000A3F58063E5E7054AF2E7012380F8413076
:102EE000FFF783FFF3E700BF0038004000340040E5
:102EF00008B50368DA68C36A991CC1621A80438EF8
:102F00009BB2013B9BB24386438E9BB23BB90268A6
:102F1000536823F060035360438D9BB203B108BD37
:102F2000012380F84130FFF760FFF8E710B586B065
:102F3000044603689A680592704A93426FD04FF036
:102F40004022916804915B6803935368029363681D
:102F5000B3F5007F01D0002B70D1059B13F0020F59
:102F600003D0039B13F0800F5CD1049B13F0010F7F
:102F700003D0029B13F0400F58D1049B13F0400F75
:102F800024D0029B13F0200F20D022685B4B9A4282
:102F900050D04FF04022536823F060035360226802
:102FA000536823F0A0035360002300932368DA687A
:102FB00000929B680093009B012384F84130636C6E
:102FC00043F0020363642046FFF7A6FE059B13F05F
:102FD000080F22D0039B13F0200F1ED022685368E5
:102FE00023F0A00353602268444B9A4224D04FF050
:102FF0004022536823F06003536000230193236849
:103000009B680193019B012384F84130636C43F07A
:10301000040363642046FFF77FFE06B010BDA2F5EF
:1030200080628EE72046FFF7E1FE9EE72046FFF72D
:10303000FBFEA2E7324AAEE7314ADAE7049B13F01F
:10304000020F03D0029B13F0800F4AD1059B13F0AF
:10305000010F03D0039B13F0400F46D1059B13F0E3
:10306000400F1CD0039B13F0200F18D02268536828
:1030700023F0600353602268204B9A4239D04FF00E
:103080004022536823F0A0035360012384F84130A9
:10309000636C43F0020363642046FFF73DFE049B2C
:1030A00013F0080FB9D0029B13F0200FB5D022689F
:1030B000124B9A421FD04FF04022536823F0A003D6
:1030C00053602268536823F060035360012384F83F
:1030D0004130636C43F0040363642046FFF71CFE39
:1030E0009BE72046FFF7D2FEB0E72046FFF700FF40
:1030F000B4E7034AC5E7024ADFE700BF00380040F3
:103100000034004000285AD010B50446436A33B951
:103110004368B3F5827F05D00023C36102E000233A
:10312000036143610023A36294F85130002B40D027
:10313000022384F851302268136823F0400313609F
:10314000636803F48273A26802F404421343E268E2
:1031500002F400621343226902F00202134362691F
:1031600002F001021343A26902F400721343E26900
:1031700002F038021343226A02F080021343A26A6B
:1031800002F40052216813430B60638B03F00403C5
:10319000626A02F01002216813434B602268D3690F
:1031A00023F40063D36100206065012384F851306B
:1031B00010BD84F850302046FEF7DCFCB8E7012053
:1031C0007047000070B4036A026A22F001020262D2
:1031D0004668826922F073020C6844EA020523F013
:1031E00002028B6813430D4CA04209D00B4CA04245
:1031F0000DD0466085614A684263036270BC7047C7
:1032000023F00803CA68134323F00403EEE726F40F
:1032100040764A6932438E691643EAE7000001406E
:1032200030B4036A026A22F4807202624568C2699D
:1032300022F073020C68224323F400738C6843EA83
:1032400004230F4CA04209D00D4CA0420ED0456083
:10325000C2614A68C263036230BC704723F40063F2
:10326000CC6843EA042323F48063EDE725F440555A
:103270004C6945EA04158C6945EA0415E7E700BF87
:103280000000014030B4036A026A22F480520262F4
:103290004468C26922F4E6420D6842EA052223F43A
:1032A00000538D6843EA0533074DA84206D04460B9
:1032B000C2614A680264036230BC704724F48044EF
:1032C0004D6944EA8514F2E70000014010B4036A36
:1032D000046A24F001040462846924F0F00C4CEACE
:1032E000021223F00A030B43826103625DF8044B70
:1032F000704710B4036A046A24F0100404628469FD
:1033000024F4704C4CEA023223F0A00343EA011388
:10331000826103625DF8044B7047836823F0700399
:103320000B4343F007038360704770470368294AE3
:1033300090420ED0B0F1804F0BD0A2F57C4290426B
:1033400007D002F58062904203D002F5806290427D
:1033500003D123F070034A6813431E4A90421AD0E7
:10336000B0F1804F17D0A2F57C42904213D002F505
:10337000806290420FD002F5806290420BD002F53D
:103380009A32904207D002F58062904203D002F553
:103390008062904203D123F44073CA68134323F040
:1033A00080034A69134303608B68C3620B688362BE
:1033B000084B98420AD001234361036913F0010FBF
:1033C00003D0036923F00103036170470B690363B2
:1033D000F1E700BF0000014040B310B5044690F88B
:1033E0003D30F3B1022384F83D30214651F8040BFF
:1033F000FFF79CFF012384F8463084F83E3084F8C0
:103400003F3084F8403084F8413084F8423084F80A
:10341000433084F8443084F8453084F83D3000204F
:1034200010BD80F83C30FEF7F3FBDBE7012070476E
:1034300040B310B5044690F83D30F3B1022384F850
:103440003D30214651F8040BFFF770FF012384F84B
:10345000463084F83E3084F83F3084F8403084F8B9
:10346000413084F8423084F8433084F8443084F8A2
:10347000453084F83D30002010BD80F83C30FFF727
:1034800054FFDBE70120704730B4036A026A22F080
:10349000100202624468826922F4E6420D6842EA40
:1034A000052223F020038D6843EA05130E4DA84240
:1034B00009D00D4DA8420ED0446082614A688263F3
:1034C000036230BC704723F08003CD6843EA0513E4
:1034D00023F04003EDE724F440644D6944EA850499
:1034E0008D6944EA8504E7E70000014038B590F8AB
:1034F0003C30012B66D004460D46012380F83C3059
:103500000C2A5AD8DFE802F0075959591B59595962
:103510003059595944000068FFF754FE22689369F6
:1035200043F0080393612268936923F004039361D5
:103530002268936929690B43936100203EE000688B
:10354000FFF7A2FF2268936943F400639361226846
:10355000936923F48063936122689369296943EA3C
:1035600001239361002029E00068FFF759FE2268DB
:10357000D36943F00803D3612268D36923F00403BD
:10358000D3612268D36929690B43D361002015E018
:103590000068FFF777FE2268D36943F40063D361C4
:1035A0002268D36923F48063D3612268D3692969CF
:1035B00043EA0123D361002000E00120002384F8C6
:1035C0003C3038BD0220FCE710B4846824F47F4C02
:1035D00042EA03220A4342EA0C0282605DF8044B8D
:1035E000704790F83C30012B78D010B50446012389
:1035F00080F83C30022380F83D300268936823F461
:103600007F4323F0770393600B68602B4CD029D85D
:10361000402B54D00CD9502B22D1CA68496800687D
:10362000FFF754FE50212068FFF777FE002005E0E9
:10363000202B0DD009D9302B0AD00120012384F88A
:103640003D30002384F83C3010BD0BB1102B05D168
:1036500019462068FFF761FE0020EFE70120EDE743
:103660000120EBE7B3F5805F34D0B3F5005F0CD1F8
:10367000CB684A6889680068FFF7A6FF22689368EC
:1036800043F4804393600020D8E7702B24D1CB68AB
:103690004A6889680068FFF797FF2268936843F0DB
:1036A000770393600020C9E7CA6849680068FFF79C
:1036B00020FE60212068FFF730FE0020BEE7CA68C8
:1036C00049680068FFF702FE40212068FFF725FEE9
:1036D0000020B3E70020B1E70120AFE702207047E8
:1036E00001F01F01012303FA01FC036A23EA0C0322
:1036F0000362036A02FA01F10B43036270470000A0
:1037000010B504460846002932D194F83E30DBB2A9
:10371000013B18BF0123002B63D1002841D10223B4
:1037200084F83E30012201462068FFF7D9FF236864
:103730002E4A934245D023682C4A934246D0B3F197
:10374000804F43D0A2F57C4293423FD002F5806285
:1037500093423BD002F58062934237D002F59A3211
:10376000934233D01A6842F001021A60002037E019
:10377000042908D008290DD094F84130DBB2013B70
:1037800018BF0123C7E794F83F30DBB2013B18BFF5
:103790000123C0E794F84030DBB2013B18BF01239E
:1037A000B9E7042805D0082807D0022384F841305F
:1037B000B8E7022384F83F30B4E7022384F84030AE
:1037C000B0E75A6C42F400425A64B4E79A6802F0D7
:1037D0000702062A07D01A6842F001021A60002088
:1037E00010BD0120FCE70020FAE700BF0000014007
:1037F00090F83C30012B35D010B4012380F83C30D8
:10380000022380F83D3003685A689C6822F0700CEF
:103810000A6842EA0C025A600368134A934212D0C3
:10382000B3F1804F0FD0A2F57C4293420BD002F54A
:103830008062934207D002F58062934203D002F582
:103840009A32934204D124F080044A6814439C6065
:10385000012380F83D30002380F83C3018465DF8A5
:10386000044B70470220704700000140026802F1DB
:103870000C0353E8003F23F490730C3242E800310C
:103880000029F3D1026802F1140353E8003F23F04A
:103890000103143242E800310029F3D1036B012BFC
:1038A00005D0202380F8423000230363704702686C
:1038B00002F10C0353E8003F23F010030C3242E8FE
:1038C00000310029F3D1ECE738B5044602681369EA
:1038D00023F44053C1680B431361836802691343A7
:1038E00042691343C2691A430168CB6823F4164343
:1038F00023F00C031343CB600268536923F4407335
:1039000081690B4353610368314A934206D002F543
:103910008062934202D0FEF755FD01E0FEF762FDA2
:10392000E369B3F5004F29D00021031849411B1862
:1039300041F10001C90041EA5371DB0018186368C6
:103940004FEA83024FEA937341F10001FDF77CF9DE
:10395000204DA5FB00325109642303FB11031B0119
:103960003233A5FB03235B0903F0F00202EB0112E3
:1039700003F00F03216813448B6038BD0023021845
:1039800043EB0301121841F10001C90041EA5271F1
:10399000D200101841F10001626892185B41FDF7F6
:1039A00053F90C4DA5FB00325109642303FB1103AD
:1039B000DB003233A5FB03235B095A0002F4F872E3
:1039C00002EB011203F00703216813448B60D4E774
:1039D000001001401F85EB512DE9F04383B00546EF
:1039E0000E4617469946DDF828802C68246836EA8A
:1039F00004030CBF4FF0010C4FF0000CBC4528D164
:103A0000B8F1FF3FF1D0FEF787FFA0EB090040457A
:103A100023D8B8F1000F22D02B68DA6812F0040F17
:103A2000E3D0802EE1D0402EDFD01A6812F0080FCC
:103A3000DBD0002401941A6801925B680193019B1A
:103A40002846FFF713FF08236B6485F840400120E8
:103A500000E0002003B0BDE8F0830320FAE7032074
:103A6000F8E760B310B5044690F8413013B324234F
:103A700084F841302268D36823F40053D360204691
:103A8000FFF722FF2268136923F490431361226831
:103A9000536923F02A0353612268D36843F4005327
:103AA000D36000206064202384F8413084F84230E1
:103AB000606310BD80F84030FEF730F9D7E7012091
:103AC00070472DE9F04182B01E4690F84130DBB2DC
:103AD000202B56D104460D469046002955D00AB9F0
:103AE00001204FE000234364212380F84130FEF79A
:103AF00013FF0746A4F82480A4F82680A368B3F532
:103B0000805F02D04FF0000814E023692BB34FF020
:103B100000080FE0202384F84130032032E038F819
:103B2000023B2268C3F308035360E28C92B2013A6D
:103B300092B2E284E38C9BB293B100963B460022A2
:103B400080212046FFF748FF0028E3D1002DE6D072
:103B500015F8012B23685A60E7E7A8460025E9E736
:103B600000963B46002240212046FFF735FF18B95A
:103B7000202384F8413005E0202384F841300320DD
:103B800000E0022002B0BDE8F0810120FAE7000069
:103B9000034AD2F8883043F47003C2F88830704783
:103BA00000ED00E000F1080343604FF0FF32826057
:103BB000C360036100230360704700230361704703
:103BC00043684B609A688A60516099600861036835
:103BD00001330360704730B40D68B5F1FF3F11D079
:103BE00000F108031C465B681A68AA42FAD96368A8
:103BF0004B6099608C606160086103680133036009
:103C000030BC70470469F2E70369416882688A60E2
:103C1000416851605A68824206D0002202611A68E7
:103C2000013A1A601868704782685A60F5E710B563
:103C3000044601F07FFCA26BE36B9A4204D000249F
:103C400001F09AFC204610BD0124F9E710B50446A6
:103C500001F070FCA36B23B9012401F08DFC204618
:103C600010BD0024F9E770B504461546866B026C5A
:103C70005AB903681BB100200136A66370BD806885
:103C800001F044F80023A360F6E76DB9406801F045
:103C900047FE226C636813446360A268934219D3A1
:103CA000236863602846E7E7C06801F039FE226CAC
:103CB0005142E3689B1AE3602268934202D2A368F0
:103CC0000B44E360022D01D00020D5E726B1013E70
:103CD0000020D1E72846CFE70020CDE70346026C5D
:103CE0006AB110B50846D9681144D9609C68A142F0
:103CF00001D31968D960D96801F012FE10BD704770
:103D000038B5054601F016FC95F8454064B201E06F
:103D1000013C64B2002C0ADD6B6A43B105F124005A
:103D200000F04AFF0028F3D000F0DAFFF0E7FF23AD
:103D300085F8453001F020FC01F0FCFB95F844408B
:103D400064B201E0013C64B2002C0ADD2B6943B18E
:103D500005F1100000F030FF0028F3D000F0C0FFA4
:103D6000F0E7FF2385F8443001F006FC38BD38B594
:103D7000E0B10D46044601F0DDFB2368E26B216CE7
:103D800001FB0230A0600020A0636360013A02FBE7
:103D90000133E360FF2384F8443084F84530FDB9F3
:103DA000236963B901F0E8FB012038BD4FF05003EF
:103DB00083F31188BFF36F8FBFF34F8FFEE704F1DA
:103DC000100000F0F9FE0028ECD04FF0E0234FF097
:103DD0008052C3F8042DBFF34F8FBFF36F8FE1E71D
:103DE00004F11000FFF7DEFE04F12400FFF7DAFE15
:103DF000D8E738B51D46049C0B4649B92460E063FA
:103E0000236401212046FFF7B2FF84F84C5038BDEF
:103E10002260F4E740B94FF0500383F31188BFF3F9
:103E20006F8FBFF34F8FFEE710B584B01C468446FA
:103E300053B192B189B94FF0500383F31188BFF3A6
:103E40006F8FBFF34F8FFEE74FF0500383F311885E
:103E5000BFF36F8FBFF34F8FFEE76AB15023039319
:103E6000039B502B13D04FF0500383F31188BFF303
:103E70006F8FBFF34F8FFEE70029EFD04FF0500355
:103E800083F31188BFF36F8FBFF34F8FFEE7039B60
:103E9000012384F8463000949DF818306046FFF7FF
:103EA000A8FF204604B010BDF0B585B0019288B1DE
:103EB0000F461D460446B1B1022D20D1E36B012B04
:103EC0001DD04FF0500383F31188BFF36F8FBFF302
:103ED0004F8FFEE74FF0500383F31188BFF36F8FCE
:103EE000BFF34F8FFEE7036C002BE5D04FF050037C
:103EF00083F31188BFF36F8FBFF34F8FFEE700F09E
:103F0000F5FE064658B9019B002B48D04FF05003F0
:103F100083F31188BFF36F8FBFF34F8FFEE7002647
:103F20003DE02A4639462046FFF79DFE636A7BB98D
:103F300048B14FF0E0234FF08052C3F8042DBFF397
:103F40004F8FBFF36F8F01F017FB012005B0F0BD5D
:103F500004F1240000F030FE0028F4D04FF0E023FC
:103F60004FF08052C3F8042DBFF34F8FBFF36F8F14
:103F7000E9E701F001FB0020E8E702A800F062FE9B
:103F8000012619E0002384F8443021E0002384F85E
:103F9000453023E02046FFF7B3FE00F0EDFC01F0D2
:103FA000C9FAA26BE36B9A42BBD3022DB9D0019B35
:103FB000002BDED0002EE0D001F0DEFA00F02EFC67
:103FC00001F0B8FA94F8442052B2B2F1FF3FD9D0D0
:103FD00094F8452052B2B2F1FF3FD7D001F0CCFAAD
:103FE00001A902A800F03AFED8B92046FFF71FFE4B
:103FF0000028CFD0019904F1100000F0A9FD20465F
:10400000FFF77EFE00F0B8FC0028C8D14FF0E02397
:104010004FF08052C3F8042DBFF34F8FBFF36F8F63
:10402000BDE72046FFF76CFE00F0A6FC00208DE700
:104030002DE9F84390B10F4616461C460546B1B12E
:10404000022C20D1EB6B012B1DD04FF0500383F3DA
:104050001188BFF36F8FBFF34F8FFEE74FF0500310
:1040600083F31188BFF36F8FBFF34F8FFEE7036CAD
:10407000002BE5D04FF0500383F31188BFF36F8F0F
:10408000BFF34F8FFEE701F07BFBEFF311894FF099
:10409000500383F31188BFF36F8FBFF34F8FAA6B69
:1040A000EB6B9A4206D3022C04D0002089F31188CE
:1040B000BDE8F88395F845804FFA88F8AB6B224647
:1040C00039462846FFF7CFFDB8F1FF3F06D008F18B
:1040D00001035BB285F845300120E7E76B6A0BB955
:1040E0000120E3E705F1240000F066FD18B126B1D8
:1040F00001203060DAE70120D8E70120D6E7F0B5EB
:1041000085B0019290B10F460446C1B100F0EEFDBA
:10411000064600BB019B002B5ED04FF0500383F39B
:104120001188BFF36F8FBFF34F8FFEE74FF050033F
:1041300083F31188BFF36F8FBFF34F8FFEE7036CDC
:10414000002BE3D04FF0500383F31188BFF36F8F40
:10415000BFF34F8FFEE700263EE039462046FFF7CB
:10416000BDFD013DA563236923B901F005FA0120D6
:1041700005B0F0BD04F1100000F01EFD0028F4D0E1
:104180004FF0E0234FF08052C3F8042DBFF34F8F60
:10419000BFF36F8FE9E701F0EFF90020E8E702A82D
:1041A00000F050FD012621E0002384F8443029E08E
:1041B000002384F845302BE02046FFF7A1FD00F0F6
:1041C000DBFB09E02046FFF79BFD00F0D5FB204616
:1041D000FFF73CFD00283FD101F0ACF9A56B002DA5
:1041E000BBD1019B002BD6D0002ED8D001F0C4F952
:1041F00000F014FB01F09EF994F844305BB2B3F187
:10420000FF3FD1D094F845305BB2B3F1FF3FCFD040
:1042100001F0B2F901A902A800F020FD0028D1D1D7
:104220002046FFF713FD0028C6D0019904F12400B1
:1042300000F08EFC2046FFF763FD00F09DFB002898
:10424000CAD14FF0E0234FF08052C3F8042DBFF3E2
:104250004F8FBFF36F8FBFE7002089E70023072B45
:104260000CD8074A52F833200AB10133F7E7044A61
:1042700042F8331002EBC30358607047704700BF29
:104280008402002070B504460D46164601F052F92E
:1042900094F844305BB2B3F1FF3F0DD094F8453051
:1042A0005BB2B3F1FF3F0BD001F066F9A36B5BB1DA
:1042B0002046FFF725FD70BD002384F84430EDE76C
:1042C000002384F84530EFE73246294604F1240004
:1042D00000F056FCECE70000084B1B681B6823B994
:1042E000074B4FF0FF321A607047044B1B68DB68C6
:1042F000DB685A68024B1A60704700BFC802002092
:10430000700700202DE9F04780460D461746994674
:10431000089EDDF824A00A9C9200A521206B01F0E4
:104320000DFB236B07F18042013A03EB820727F074
:104330000707B5B34FF0000CBCF10F0F0BD815F801
:104340000C2004EB0C0383F8342015F80C3013B167
:104350000CF1010CF0E7002384F84330372E00D92C
:104360003726E662E66400252565201DFFF725FC5B
:1043700004F11800FFF721FC2461C6F13806A6619C
:104380006462656584F858504A464146384601F0F3
:10439000A5F82060BAF1000F01D0CAF80040BDE8CE
:1043A000F087002384F83430D8E7000038B50024C3
:1043B00007E004EB840293000E481844FFF7F2FB79
:1043C0000134372CF5D90C4D2846FFF7EBFB0B4C8D
:1043D0002046FFF7E7FB0A48FFF7E4FB0948FFF731
:1043E000E1FB0948FFF7DEFB084B1D60084B1C6032
:1043F00038BD00BFD002002044070020580700202D
:104400007C070020A807002094070020C802002095
:10441000CC02002010B5044601F08CF8224A136843
:1044200001331360214B1B685BB1214B1B686BB9D7
:104430001E4B1B68DA6AE36A9A4207D81B4B1C6062
:1044400004E01A4B1C601368012B29D0194A136829
:10445000013313606364E06A174B1B68984201D90B
:10446000154B186000EB8000211D144B03EB8000FE
:10447000FFF7A6FB01F080F80D4B1B687BB10B4BDF
:104480001B68DA6AE36A9A4209D24FF0E0234FF0E0
:104490008052C3F8042DBFF34F8FBFF36F8F10BD51
:1044A000FFF784FFD2E700BF30070020C4020020DE
:1044B000900700203C07002040070020D002002089
:1044C00010B5044690F8593063B1012B11D0022B7E
:1044D0000ED04FF0500383F31188BFF36F8FBFF3FB
:1044E0004F8FFEE7006B00F07DFF204600F07AFF63
:1044F00010BD00F077FFFBE70F4B1B68D3B110B581
:1045000001F018F80D4BDB68DC68201DFFF77CFB21
:104510000B4A1368013B1360074A1368013B1360A1
:1045200001F02AF82046FFF7CBFF034B1B68002B56
:10453000E6D110BD704700BF34070020A807002057
:104540003007002008B5FFF7D7FF074B1B68012B8A
:10455000F9D94FF0E0234FF08052C3F8042DBFF398
:104560004F8FBFF36F8FEEE7D002002070B5044687
:104570000D46174B1E68174B18680430FFF744FBB5
:10458000B4F1FF3F0DD03444124B1B685C60A6426F
:1045900010D9114B18680F4B19680431FFF71BFB3A
:1045A00070BD002DEFD00B4B196804310B48FFF79D
:1045B00007FBF5E70A4B1868064B19680431FFF74B
:1045C0000AFB084B1B68A342EAD9064B1C60E7E7CD
:1045D000BC070020C4020020CC0200209407002069
:1045E000C80200207007002030B587B00B9C7CB15A
:1045F0000C9DB5B15C250495049D5C2D1AD04FF03F
:10460000500383F31188BFF36F8FBFF34F8FFEE723
:104610004FF0500383F31188BFF36F8FBFF34F8FB9
:10462000FEE74FF0500383F31188BFF36F8FBFF3A2
:104630004F8FFEE7049D0C9D2C63022485F85940A2
:1046400000240394029505AC01940A9C0094FFF7A2
:1046500059FE0C98FFF7DEFE059807B030BD2DE936
:10466000F04385B00746884614461E46900000F089
:104670003BFE00B381465C2000F036FE0546B0B13B
:10468000C0F83090E5B1002385F8593003930295C6
:104690000D9B01930C9B00933346224641463846BE
:1046A000FFF730FE2846FFF7B5FE012005E048463B
:1046B00000F098FEE6E74FF0FF3005B0BDE8F0836C
:1046C0004FF0FF30F9E7000038B5044600F032FF44
:1046D00024B3251D2846FFF797FAA36A1BB104F1FE
:1046E0001800FFF791FA1F4A1368013313601E4B3D
:1046F0001B68A34215D01D4A1368013B1360204676
:10470000FFF7DEFEFFF7E8FD00F036FF184B1B68F1
:104710001BB1154B1B68A3420CD038BD124B1C6853
:10472000D7E729461348FFF74BFA134A13680133BA
:104730001360E9E7114B1B6843B14FF0500383F35B
:104740001188BFF36F8FBFF34F8FFEE74FF0E02369
:104750004FF08052C3F8042DBFF34F8FBFF36F8F1C
:10476000DBE700BF3C070020C40200203007002028
:1047700090070020A80700203407002038070020F9
:1047800010B588B000240594069407AA06A905A8C8
:1047900000F02EFD059B0293069B01930094234697
:1047A000079A18491848FFF71FFF184B186040B1C7
:1047B00000F060FB012806D0B0F1FF3F18D008B030
:1047C00010BD0020F6E74FF0500383F31188BFF3CC
:1047D0006F8FBFF34F8F0E4B4FF0FF321A600D4BB0
:1047E00001221A600C4B00221A6000F03DFFE6E740
:1047F0004FF0500383F31188BFF36F8FBFF34F8FD8
:10480000FEE700BF14720008454500086C07002051
:104810007007002090070020BC070020024A1368A0
:1048200001331360704700BF38070020014B186840
:10483000704700BFBC070020034618B12BB103F13D
:1048400034007047054B1B68F8E74FF0500383F3C3
:104850001188BFF36F8FBFF34F8FFEE7C4020020B4
:10486000F8B53A4B1B68002B69D1394B1D680135EF
:104870001D60C5B9374B1B681B6843B14FF050032F
:1048800083F31188BFF36F8FBFF34F8FFEE7314A79
:104890001168314B186810601960304A1368013391
:1048A0001360FFF719FD2E4B1B68AB423DD9002763
:1048B0002C4B1B68DB6A03EB83039A002A4B9B5843
:1048C000012B00D90127294B1B68002B3CD0012765
:1048D0003AE001271F4B1B681B6843B31D4B1B6845
:1048E000DB68DC6863689D4226D3261D3046FFF7EF
:1048F0008BF9A36A1BB104F11800FFF785F9E36A8D
:104900001B4A1268934201D9194A136003EB8303CF
:104910009A00314614481044FFF752F9E26A114BED
:104920001B68DB6A9A42D4D2D4E70027D2E70C4B4B
:104930004FF0FF321A60BBE7094A1360B8E70D4A2F
:1049400013680133136000273846F8BD380700208C
:10495000BC070020C8020020CC0200207407002001
:1049600070070020C4020020D0020020C0070020F1
:10497000400700207807002038B5354B1B6843B945
:104980004FF0500383F31188BFF36F8FBFF34F8F46
:10499000FEE700F0CFFD2E4B1A68013A1A601B6843
:1049A000002B4FD12B4B1B680BB900244BE000248C
:1049B000294B1B681BB3284BDB68DC6804F118002B
:1049C000FFF722F9251D2846FFF71EF9E06A234B61
:1049D0001B68984201D9214B186000EB80002946E2
:1049E0001F4B03EB8000FFF7EBF8E26A1D4B1B68DF
:1049F000DB6A9A42DCD31C4B01221A60D8E70CB167
:104A0000FFF76AFC194B1C6884B9174B1C68D4B1BA
:104A10004FF0E0234FF08052C3F8042DBFF34F8FC7
:104A2000BFF36F8F01240EE0013C07D0FFF718FFA2
:104A30000028F9D00C4B01221A60F5E70B4B00223D
:104A40001A60E2E7002400F097FD204638BD00BF61
:104A500038070020300700207C0700204007002096
:104A6000D0020020C4020020C007002078070020E8
:104A700010B5A8B10446104B1B6843B14FF050036A
:104A800083F31188BFF36F8FBFF34F8FFEE7FFF7FC
:104A9000C5FE00212046FFF769FDFFF76DFF48B90D
:104AA0004FF0E0234FF08052C3F8042DBFF34F8F37
:104AB000BFF36F8F10BD00BF380700201F4B1B686E
:104AC0001BB11F4B01221A6070471D4B00221A6058
:104AD0001C4B1B6803EB83018A001B498A585AB997
:104AE0000BB1013BF6E74FF0500383F31188BFF39E
:104AF0006F8FBFF34F8FFEE703EB830082000A4402
:104B000050684068506003EB830C4FEA8C02083217
:104B1000114488420BD003EB830291000A4A0A44F5
:104B20005268D168094A1160064A136070474068AC
:104B300062469100044A0A445060ECE738070020BE
:104B4000C007002040070020D0020020C40200203F
:104B500058B110B50C46094A11681831FFF73BF8F7
:104B600001212046FFF702FD10BD4FF0500383F3F3
:104B70001188BFF36F8FBFF34F8FFEE7C402002091
:104B800038B570B10D4614460A4A11681831FFF75E
:104B900017F80CB14FF0FF3521462846FFF7E6FC29
:104BA00038BD4FF0500383F31188BFF36F8FBFF30D
:104BB0004F8FFEE7C402002038B5C368DC6824B319
:104BC00004F118052846FFF71FF8184B1B682BBB8C
:104BD000251D2846FFF718F8E06A154B1B68984218
:104BE00001D9134B186000EB80002946114B03EBF1
:104BF0008000FEF7E5FFE26A0F4B1B68DB6A9A4212
:104C000011D901200D4B186038BD4FF0500383F3CC
:104C10001188BFF36F8FBFF34F8FFEE72946084817
:104C2000FEF7CEFFE7E70020EEE700BF38070020E1
:104C300040070020D0020020C4020020C00700204E
:104C40007C070020034B1B680360034B1B68436019
:104C5000704700BF74070020BC070020F8B5C8B13A
:104C60000C460546F9B100F065FC1B4B19686B68F2
:104C7000C81A2268B2F1FF3F26D0184E36682F6856
:104C8000B74201D08B4224D9824215D80023236039
:104C900001241AE04FF0500383F31188BFF36F8FA4
:104CA000BFF34F8FFEE74FF0500383F31188BFF33C
:104CB0006F8FBFF34F8FFEE75B1A134423602846C4
:104CC000FFF7C0FF002400E0002400F055FC204660
:104CD000F8BD0124F9E700BFBC07002074070020DD
:104CE000014B01221A607047C0070020054B1B686A
:104CF00033B1054B1B680BB1002070470220704791
:104D000001207047900700203807002000283BD082
:104D100038B504461E4B1B68834208D04FF0500341
:104D200083F31188BFF36F8FBFF34F8FFEE7036DDF
:104D300043B94FF0500383F31188BFF36F8FBFF374
:104D40004F8FFEE7013B0365C16AC26C91421DD0E3
:104D50000BB1002038BD051D2846FEF755FFE06C5D
:104D6000E062C0F13803A3610A4B1B68984201D985
:104D7000084B186000EB80002946074B03EB8000CE
:104D8000FEF71EFF0120E5E7002070470020E1E765
:104D9000C402002040070020D0020020064B1A6801
:104DA00013682BB90123036023B9D36818687047CF
:104DB0000023F8E700207047C407002008B54160D1
:104DC000006191420CD8D21A83699A4201D3012022
:104DD00008BD011D094B1868FEF7FDFE0020F7E72E
:104DE0009A4201D2994206D2011D054B1868FEF77E
:104DF000F2FE0020ECE70120EAE700BFC807002030
:104E0000C407002030B583B000F094FB114B1B6841
:104E10001BB100F0B1FB03B030BD0F4D2846FEF7CB
:104E2000C1FE0E4C2046FEF7BDFE0D4B1D600D4B26
:104E30001C60002300930C4B0C4A10210A20FEF743
:104E4000E9FF044B18600028E3D00949FFF706FA90
:104E5000DFE700BFE80800206C0800208008002081
:104E6000C4070020C807002098080020CC070020B5
:104E70001C72000810B588B0FFF7C4FF124B1B6806
:104E8000CBB100240594069407AA06A905A800F052
:104E9000BBF9059B0293069B0193022300932346D3
:104EA000079A0A490A48FFF79FFB0A4B186010B19E
:104EB000012008B010BD4FF0500383F31188BFF3F9
:104EC0006F8FBFF34F8FFEE7E808002024720008C1
:104ED000D9510008EC080020B8B19C460346184898
:104EE000006858B300B585B000910192029305297E
:104EF0001CDCFFF7FBFE022810D000231A4669468F
:104F00000F480068FEF7D0FF15E04FF0500383F321
:104F10001188BFF36F8FBFF34F8FFEE70023069A10
:104F2000694607480068FEF7BFFF04E000236246B9
:104F30006946FFF77DF805B05DF804FB0020704777
:104F4000E808002070B582B01B4B1B681A6862B37A
:104F5000DB681E68DC68251D2846FEF755FE236ABF
:104F60002046984794F8283013F0040FECD0A3693A
:104F700033449E4207D26360246129460E4B186871
:104F8000FEF729FEE0E7002100910B46324620465D
:104F9000FFF7A2FF0028D7D14FF0500383F3118809
:104FA000BFF36F8FBFF34F8FFEE7044A10680249CB
:104FB0000860136002B070BDC4070020C80700205D
:104FC00038B50546FFF732FC0446074B1B688342A1
:104FD00005D800232B60044B1C60204638BDFFF72A
:104FE000B1FF01232B60F6E79408002070B582B072
:104FF00006460D4617490968C968CC68201DFEF7AA
:1050000003FE94F828C01CF0040F08D12CF0010C0A
:1050100084F828C0236A2046984702B070BDA16971
:1050200033462A4631442046FFF7C8FE0028F1D017
:10503000002100910B4632462046FFF74DFF002825
:10504000E8D14FF0500383F31188BFF36F8FBFF3A4
:105050004F8FFEE7C407002070B582B006460C46AD
:10506000FFF7DCFB01A8FFF7ABFF019B33BB054655
:105070000CB9B04219D224B1124A12681268DAB9D6
:1050800001242246711B104B1868FFF7FBF8FFF74D
:1050900073FCA8B94FF0E0234FF08052C3F8042D01
:1050A000BFF34F8FBFF36F8F0AE0FFF765FC294610
:1050B0003046FFF79BFF03E01C46E2E7FFF75CFC8E
:1050C00002B070BDC8070020E808002010B588B005
:1050D00002E0049B002B0FDA002204A93D4B186864
:1050E000FFF70DF8002873D0049B002BF1DA079925
:1050F0000698059B9847ECE7069C636913B1201D51
:10510000FEF782FD03A8FFF75BFF049B092BE3D8A2
:10511000DFE803F00505053037500505303794F812
:10512000283043F0010384F82830059BA16902462A
:1051300019442046FFF742FE0028CDD0236A2046BE
:10514000984794F8283013F0040FC5D0A2690021C5
:1051500000910B46059802442046FFF7BDFE00284B
:10516000BAD14FF0500383F31188BFF36F8FBFF3B1
:105170004F8FFEE794F8283023F0010384F828309D
:10518000AAE794F8283043F0010384F82830059901
:10519000A16131B10346024601442046FFF70EFEED
:1051A0009AE74FF0500383F31188BFF36F8FBFF37B
:1051B0004F8FFEE794F8283013F0020F04D023F04D
:1051C000010384F8283087E7204600F00BF983E7D5
:1051D00008B010BDE808002000B583B001A8FFF7B3
:1051E000DDFD0199FFF738FFFFF770FFF6E70000DC
:1051F000034B0360034B0B6080231360704700BFB9
:10520000F00A0020F0080020034B0360034B0B6002
:105210004FF48073136070474C0F00204C0B00203C
:10522000124A12F0070F1ED0D11D21F00701C1F55F
:10523000705313440A460E48026000214160134433
:10524000083B23F007030B48036059601960991A63
:1052500051601360084B1960084B1960084B4FF000
:1052600000421A6070474FF47053E4E7AC0F00201F
:10527000C04B0020A80F0020B44B0020B04B0020F2
:10528000AC4B0020164B1A461B688342FBD3516877
:1052900002EB010C844509D0416800EB010C634529
:1052A00009D00360904219D01060704740680144F3
:1052B00051601046F0E710B40A4C2468A3420BD0AA
:1052C0005B681944416013681B680360904200D01A
:1052D00010605DF8044B70470460F7E7704700BF4B
:1052E000C04B0020A80F002070B50546FFF796FAC6
:1052F000364B1B68A3B1364B1B681D424ED135B1EE
:10530000083515F0070F02D025F007050835002DE8
:1053100046D0304B1B68AB4251D32F4A146804E08F
:10532000FFF77EFFE7E722461C466368AB4202D2E6
:105330002368002BF7D1254B1B68A34241D0166888
:1053400008362368136063685B1B102B10D9601943
:1053500010F0070F08D04FF0500383F31188BFF30C
:105360006F8FBFF34F8FFEE743606560FFF78AFFE3
:10537000626818490B689B1A0B60184909688B42D0
:1053800001D216490B60124B1B6813436360002364
:105390002360134A13680133136002E0002600E023
:1053A0000026FFF7E9FA16F0070F0CD04FF0500374
:1053B00083F31188BFF36F8FBFF34F8FFEE7002693
:1053C000EFE70026EDE7304670BD00BFA80F0020D4
:1053D000AC4B0020B04B0020C04B0020B44B002051
:1053E000B84B0020002834D038B50446A0F1080599
:1053F00050F8043C174A1268134208D14FF050038A
:1054000083F31188BFF36F8FBFF34F8FFEE750F820
:10541000081C41B14FF0500383F31188BFF36F8F25
:10542000BFF34F8FFEE723EA020340F8043CFFF787
:10543000F5F954F8041C084A13680B441360284615
:10544000FFF720FF054A136801331360FFF794FA52
:1054500038BD7047AC4B0020B04B0020BC4B002047
:1054600082B0002301930D4B1B68B3F1FF3F08D0BE
:105470004FF0500383F31188BFF36F8FBFF34F8F4B
:10548000FEE74FF0500383F31188BFF36F8FBFF334
:105490004F8F019B002BFCD002B070470C00002006
:1054A00008480068006880F308884FF0000080F327
:1054B000148862B661B6BFF34F8FBFF36F8F00DF02
:1054C00000BF000008ED00E0DFF80C00016841F4C7
:1054D000700101607047000088ED00E04FF08073BC
:1054E00040F8043C21F0010140F8081C054B40F84D
:1054F0000C3C40F8202C6FF0020340F8243C443868
:10550000704700BF61540008000000000000000068
:10551000074B19680868B0E8F04F80F30988BFF3BB
:105520006F8F4FF0000080F311887047AFF3008059
:10553000C40200204FF0500383F31188BFF36F8F34
:10554000BFF34F8F0B4A136801331360012B00D058
:1055500070474FF0E023D3F8043D13F0FF0FF7D06E
:105560004FF0500383F31188BFF36F8FBFF34F8F5A
:10557000FEE700BF0C000020094B1B6843B94FF049
:10558000500383F31188BFF36F8FBFF34F8FFEE794
:10559000013B034A13600BB983F31188704700BFC6
:1055A0000C000020000000000000000000000000CF
:1055B000EFF30980BFF36F8F154B1A681EF0100FC1
:1055C00008BF20ED108A20E9F04F10602DE9090096
:1055D0004FF0500080F31188BFF34F8FBFF36F8FF0
:1055E000FFF76CFA4FF0000080F3118809BC1968CE
:1055F0000868B0E8F04F1EF0100F08BFB0EC108A3A
:1056000080F30988BFF36F8F704700BFAFF300804E
:10561000C402002008B54FF0500383F31188BFF394
:105620006F8FBFF34F8FFFF71BF928B14FF0E023C7
:105630004FF08052C3F8042D002383F3118808BD76
:105640004FF0E022002313619361054B1B6805496D
:10565000A1FB03139B09013B5361072313617047AF
:1056600008000020D34D62104FF0E023D3F8002D46
:105670003D4B9A421CD04FF0E023D3F8002D3B4B1A
:105680009A421ED030B583B0394B1A78D2B201920B
:10569000FF221A701B78DBB28DF803309DF80330BF
:1056A00003F05003334A1370334B07221A601BE098
:1056B0004FF0500383F31188BFF36F8FBFF34F8F09
:1056C000FEE74FF0500383F31188BFF36F8FBFF3F2
:1056D0004F8FFEE7284A1368013B13609DF80330A3
:1056E0005B00DBB28DF803309DF8033013F0800FC0
:1056F000F0D1214B1B68032B08D04FF0500383F3EC
:105700001188BFF36F8FBFF34F8FFEE71B021A4A5A
:10571000136003F4E0631360019BDBB2144A13705F
:105720004FF0E024D4F8203D43F47003C4F8203D4A
:10573000D4F8203D43F07043C4F8203DFFF780FFCC
:1057400000250E4B1D60FFF7BFFED4F8343F43F039
:105750004043C4F8343FFFF7A3FEFFF7AFF9FFF76C
:105760007FFE284603B030BD71C20F4170C20F41A9
:1057700000E400E0C84B0020CC4B00200C000020CF
:10578000EFF305830F2B0FD9114A9B5CDBB2114A53
:1057900012789A4208D94FF0500383F31188BFF36F
:1057A0006F8FBFF34F8FFEE74FF0E023D3F80C3D30
:1057B00003F4E063084A1268934208D94FF050039B
:1057C00083F31188BFF36F8FBFF34F8FFEE77047EE
:1057D000F0E300E0C84B0020CC4B002010B503469E
:1057E0000C4A0D490D48006840B10C48006803445C
:1057F000521A934206D8094A136010BD0748084C54
:105800000460F2E700F062F80C2303604FF0FF3011
:10581000F3E700BF0000022000040000D04B00208E
:10582000E84B002070B50C461646002506E0AFF3A5
:105830000080214601F8010B01350C46B542F6DB2C
:10584000304670BD70B50C461646002504E014F8CD
:10585000010BFBF753FC0135B542F8DB304670BD58
:105860004FF0FF3070474FF400534B6000207047FB
:105870000120704700207047DFF834D0FEF788F928
:105880000C480D490D4A002302E0D458C45004339B
:10589000C4188C42F9D30A4A0A4C002301E0136071
:1058A0000432A242FBD300F017F8FBF7C3FD7047A8
:1058B000000002200000002074000020D4720008C4
:1058C00074000020E44B0020FEE70000014B186844
:1058D000704700BF1000002070B50D4D0D4C641BCB
:1058E000A4100026A64209D10B4D0C4C01F0ECFB94
:1058F000641BA4100026A64205D170BD55F8043BD8
:1059000098470136EEE755F8043B98470136F2E731
:10591000CC720008CC720008CC720008D07200086B
:105920000A44914200F1FF3300D1704710B511F8DD
:10593000014B03F8014F9142F9D110BD02440346D7
:10594000934200D1704703F8011BF9E70FB40A4BEB
:1059500013B51C6824B1A36913B9204600F05EFAA0
:1059600005AB049AA1680193204600F067FC02B0E1
:10597000BDE8104004B070471000002070B50E461E
:10598000054618B183690BB900F048FAAB69AC68F9
:1059900013B9284600F042FA2C4B9C4220D16C6887
:1059A000636EDB0705D4A389980502D4A06D00F0CF
:1059B000D3FAA38919071DD52369DBB1013EA3687A
:1059C00016F8011F013BA36039BB002B38DA2246D1
:1059D0000A21284600F048F8013011D00A2511E0CC
:1059E0001B4B9C4201D1AC68DAE71A4B9C4208BFC2
:1059F000EC68D5E72146284600F088F80028DDD07D
:105A00004FF0FF35636EDA0705D4A3899B0502D4F6
:105A1000A06D00F0A2FA284670BD002B04DAA2693E
:105A20009A4206DC0A2904D023685A1C22601970A5
:105A3000C5E72246284600F017F80130BFD1DFE75E
:105A400023680A255A1C22601D70DBE7507200088B
:105A50007072000830720008024B01461868FFF7A8
:105A60008DBF00BF10000020F8B50E461446054655
:105A700018B183690BB900F0D1F9214B9C422BD1AD
:105A80006C68A369A360A3891A072FD523696BB338
:105A900023692068C01A6369F6B28342374604DC82
:105AA0002146284600F026F930BBA368013BA360DD
:105AB00023685A1C22601E7063690130834204D03F
:105AC000A389DB0706D50A2E04D12146284600F01B
:105AD00011F988B93846F8BD0A4B9C4201D1AC682F
