:020000040800F2
:10000000000002208954000845180008471800081D
:10001000491800084B1800084D180008000000009F
:100020000000000000000000000000002151000856
:100030004F18000800000000C1510008E34D0008FF
:10004000D9540008D9540008D9540008D9540008DC
:10005000D9540008D9540008D9540008D9540008CC
:10006000D9540008D9540008D9540008D9540008BC
:10007000D9540008D9540008D9540008D9540008AC
:10008000D9540008D9540008511800080000000095
:10009000000000000000000000000000D95400082B
:1000A000D9540008D954000861180008D954000830
:1000B000D9540008D9540008D9540008D95400086C
:1000C000D9540008D9540008D9540008D95400085C
:1000D000D9540008D9540008D95400080000000081
:1000E00071180008D9540008D95400080000000015
:1000F000000000000000000000000000D9540008CB
:1001000000000000D9540008D9540008D954000850
:1001100000000000000000000000000000000000DF
:100120007D180008D9540008D9540008D954000893
:10013000D95400080000000000000000000000008A
:10014000000000000000000000000000D95400087A
:10015000D9540008D9540008D9540008D9540008CB
:10016000D9540008D9540008000000000000000025
:10017000000000000000000000000000000000007F
:1001800000000000D954000800000000000000003A
:08019000D9540008D9540008FD
:1001A00010B5054C237833B9044B13B10448AFF3B1
:1001B00000800123237010BD7400002000000000A7
:1001C000D86C000808B5034B1BB103490348AFF3D3
:1001D000008008BD0000000078000020D86C0008F6
:1001E00001F0FF01102A2BDB10F0070F08D010F8E8
:1001F000013B013A8B422DD010F0070F42B3F6D1EC
:10020000F0B441EA012141EA014122F007047FF004
:1002100000070023F0E80256083C85EA010586EA5B
:10022000010685FA47F5A3FA87F586FA47F6A5FA97
:1002300087F68EB9EED1F0BC01F0FF0102F00702A3
:1002400032B110F8013B013A83EA010313B1F8D14E
:100250000020704701387047002D06BF354603382F
:10026000073815F0010F07D1013015F4807F02BF68
:10027000013015F4C03F0130F0BC0138704700BFB9
:1002800081F0004102E000BF83F0004330B54FEA47
:1002900041044FEA430594EA050F08BF90EA020FB4
:1002A0001FBF54EA000C55EA020C7FEA645C7FEA47
:1002B000655C00F0E2804FEA5454D4EB5555B8BF6A
:1002C0006D420CDD2C4480EA020281EA030382EADB
:1002D000000083EA010180EA020281EA0303362D6D
:1002E00088BF30BD11F0004F4FEA01314FF4801C40
:1002F0004CEA113102D0404261EB410113F0004F52
:100300004FEA03334CEA133302D0524263EB430308
:1003100094EA050F00F0A780A4F10104D5F1200EA6
:100320000DDB02FA0EFC22FA05F2801841F1000101
:1003300003FA0EF2801843FA05F359410EE0A5F1D5
:1003400020050EF1200E012A03FA0EFC28BF4CF006
:10035000020C43FA05F3C01851EBE37101F00045BC
:1003600007D54FF0000EDCF1000C7EEB00006EEBC9
:100370000101B1F5801F1BD3B1F5001F0CD3490853
:100380005FEA30004FEA3C0C04F101044FEA4452AA
:1003900012F5800F80F09A80BCF1004F08BF5FEA31
:1003A000500C50F1000041EB045141EA050130BD11
:1003B0005FEA4C0C404141EB0101013C28BFB1F523
:1003C000801FE9D291F0000F04BF01460020B1FA6E
:1003D00081F308BF2033A3F10B03B3F120020CDA41
:1003E0000C3208DD02F1140CC2F10C0201FA0CF01F
:1003F00021FA02F10CE002F11402D8BFC2F1200C84
:1004000001FA02F120FA0CFCDCBF41EA0C01904039
:10041000E41AA2BF01EB0451294330BD6FEA040482
:100420001F3C1CDA0C340EDC04F11404C4F120026D
:1004300020FA04F001FA02F340EA030021FA04F37F
:1004400045EA030130BDC4F10C04C4F1200220FAD6
:1004500002F001FA04F340EA0300294630BD21FA14
:1004600004F0294630BD94F0000F83F4801306BFDA
:1004700081F480110134013D4EE77FEA645C18BFCE
:100480007FEA655C29D094EA050F08BF90EA020F65
:1004900005D054EA000C04BF1946104630BD91EA5D
:1004A000030F1EBF0021002030BD5FEA545C05D160
:1004B0004000494128BF41F0004130BD14F580049F
:1004C0003CBF01F5801130BD01F0004545F0FE4113
:1004D00041F470014FF0000030BD7FEA645C1ABF48
:1004E000194610467FEA655C1CBF0B46024650EA7F
:1004F000013406BF52EA033591EA030F41F40021AB
:1005000030BD00BF90F0000F04BF0021704730B530
:100510004FF4806404F132044FF000054FF0000105
:1005200050E700BF90F0000F04BF0021704730B5C6
:100530004FF4806404F1320410F0004548BF40429B
:100540004FF000013EE700BF42004FEAE2014FEAF0
:1005500031014FEA02701FBF12F07F4393F07F4FCB
:1005600081F06051704732F07F4208BF704793F0CE
:100570007F4F04BF41F40021704730B54FF46074E1
:1005800001F0004521F000411CE700BF50EA0102E4
:1005900008BF704730B54FF000050AE050EA01028D
:1005A00008BF704730B511F0004502D5404261EBFD
:1005B00041014FF4806404F132045FEA915C3FF43E
:1005C000D8AE4FF003025FEADC0C18BF03325FEADB
:1005D000DC0C18BF033202EBDC02C2F1200300FA8C
:1005E00003FC20FA02F001FA03FE40EA0E0021FAB1
:1005F00002F11444BDE600BF70B54FF0FF0C4CF49F
:10060000E06C1CEA11541DBF1CEA135594EA0C0F50
:1006100095EA0C0F00F0DEF82C4481EA030621EA8B
:100620004C5123EA4C5350EA013518BF52EA0335C6
:1006300041F4801143F4801338D0A0FB02CE4FF078
:100640000005E1FB02E506F00042E0FB03E54FF0A8
:100650000006E1FB03569CF0000F18BF4EF0010EA0
:10066000A4F1FF04B6F5007F64F5407404D25FEA9C
:100670004E0E6D4146EB060642EAC62141EA55514F
:100680004FEAC52040EA5E504FEACE2EB4F1FD0C91
:1006900088BFBCF5E06F1ED8BEF1004F08BF5FEA0F
:1006A000500E50F1000041EB045170BD06F00046C1
:1006B00046EA010140EA020081EA0301B4EB5C046E
:1006C000C2BFD4EB0C0541EA045170BD41F4801166
:1006D0004FF0000E013C00F3AB8014F1360FDEBF8B
:1006E000002001F0004170BDC4F10004203C35DA67
:1006F0000C341BDC04F11404C4F1200500FA05F3EA
:1007000020FA04F001FA05F240EA020001F000428A
:1007100021F0004110EBD37021FA04F642EB060100
:100720005EEA430E08BF20EAD37070BDC4F10C042A
:10073000C4F1200500FA04F320FA05F001FA04F2EE
:1007400040EA020001F0004110EBD37041F10001DA
:100750005EEA430E08BF20EAD37070BDC4F12005E5
:1007600000FA05F24EEA020E20FA04F301FA05F24D
:1007700043EA020321FA04F001F0004121FA04F2F5
:1007800020EA020000EBD3705EEA430E08BF20EAC5
:10079000D37070BD94F0000F0FD101F000464000FF
:1007A00041EB010111F4801F08BF013CF7D041EA81
:1007B000060195F0000F18BF704703F00046520085
:1007C00043EB030313F4801F08BF013DF7D043EA56
:1007D0000603704794EA0C0F0CEA135518BF95EA0C
:1007E0000C0F0CD050EA410618BF52EA4306D1D193
:1007F00081EA030101F000414FF0000070BD50EAB2
:10080000410606BF1046194652EA430619D094EA3B
:100810000C0F02D150EA013613D195EA0C0F05D125
:1008200052EA03361CBF104619460AD181EA030179
:1008300001F0004141F0FE4141F470014FF0000031
:1008400070BD41F0FE4141F4780170BD70B54FF0CC
:10085000FF0C4CF4E06C1CEA11541DBF1CEA13554C
:1008600094EA0C0F95EA0C0F00F0A7F8A4EB05042E
:1008700081EA030E52EA03354FEA013100F0888025
:100880004FEA03334FF0805545EA131343EA1263EE
:100890004FEA022245EA111545EA10654FEA0026A3
:1008A0000EF000419D4208BF964244F1FD0404F55C
:1008B000407402D25B084FEA3202B61A65EB0305B8
:1008C0005B084FEA32024FF480104FF4002CB6EB75
:1008D000020E75EB030E22BFB61A754640EA0C00F5
:1008E0005B084FEA3202B6EB020E75EB030E22BF35
:1008F000B61A754640EA5C005B084FEA3202B6EB76
:10090000020E75EB030E22BFB61A754640EA9C0034
:100910005B084FEA3202B6EB020E75EB030E22BF04
:10092000B61A754640EADC0055EA060E18D04FEAC2
:10093000051545EA16754FEA06164FEAC30343EA62
:1009400052734FEAC2025FEA1C1CC0D111F4801F2F
:100950000BD141EA00014FF000004FF0004CB6E728
:1009600011F4801F04BF01430020B4F1FD0C88BFC7
:10097000BCF5E06F3FF6AFAEB5EB030C04BFB6EBD2
:10098000020C5FEA500C50F1000041EB045170BDC5
:100990000EF0004E4EEA113114EB5C04C2BFD4EBF2
:1009A0000C0541EA045170BD41F480114FF0000E76
:1009B000013C90E645EA060E8DE60CEA135594EAF2
:1009C0000C0F08BF95EA0C0F3FF43BAF94EA0C0FF5
:1009D0000AD150EA01347FF434AF95EA0C0F7FF46A
:1009E00025AF104619462CE795EA0C0F06D152EABE
:1009F00003353FF4FDAE1046194622E750EA4106A2
:100A000018BF52EA43067FF4C5AE50EA41047FF4B2
:100A10000DAF52EA43057FF4EBAE12E74FF0FF3C17
:100A200006E000BF4FF0010C02E000BF4FF0010CE8
:100A30004DF804CD4FEA410C7FEA6C5C4FEA430C61
:100A400018BF7FEA6C5C1BD001B050EA410C0CBFB0
:100A500052EA430C91EA030F02BF90EA020F002012
:100A6000704710F1000F91EA030F58BF994208BF79
:100A700090422CBFD8176FEAE37040F00100704736
:100A80004FEA410C7FEA6C5C02D150EA013C07D18D
:100A90004FEA430C7FEA6C5CD6D152EA033CD3D0D8
:100AA0005DF8040B704700BF8446104662468C46D2
:100AB0001946634600E000BF01B5FFF7B7FF002805
:100AC00048BF10F1000F01BD4DF808EDFFF7F4FF2E
:100AD0000CBF012000205DF808FB00BF4DF808EDB9
:100AE000FFF7EAFF34BF012000205DF808FB00BFDC
:100AF0004DF808EDFFF7E0FF94BF012000205DF8FE
:100B000008FB00BF4DF808EDFFF7CEFF94BF0120B2
:100B100000205DF808FB00BF4DF808EDFFF7C4FFAB
:100B200034BF012000205DF808FB00BF4FEA410CF4
:100B30007FEA6C5C02D150EA013C0AD14FEA430CD7
:100B40007FEA6C5C02D152EA033C02D14FF0000014
:100B500070474FF0010070474FEA410212F5001252
:100B600015D211D56FF47873B3EB625212D94FEAF4
:100B7000C12343F0004343EA505311F0004F23FADE
:100B800002F018BF404270474FF00000704750EA33
:100B9000013005D111F0004008BF6FF000407047F0
:100BA0004FF00000704700BF4FEA4102B2F1E0434E
:100BB00024BFB3F5001CDCF1FE5C0DD901F0004C44
:100BC0004FEAC0024CEA5070B2F1004F40EB830094
:100BD00008BF20F00100704711F0804F21D113F1C0
:100BE0003872BCBF01F00040704741F480114FEAF9
:100BF0005252C2F11802C2F1200C10FA0CF320FA82
:100C000002F018BF40F001004FEAC1234FEAD3239E
:100C100003FA0CFC40EA0C0023FA02F34FEA430308
:100C2000CCE77FEA625307D150EA01331EBF4FF091
:100C3000FE4040F44000704701F0004040F0FE40AC
:100C400040F40000704700BF53B94AB9002908BFFB
:100C500000281CBF4FF0FF314FF0FF3000F074B997
:100C6000ADF1080C6DE904CE00F006F8DDF804E003
:100C7000DDE9022304B070472DE9F047089D0446E2
:100C80008E46002B4DD18A42944669D9B2FA82F23F
:100C900052B101FA02F3C2F1200120FA01F10CFA7B
:100CA00002FC41EA030E94404FEA1C48210CBEFBB3
:100CB000F8F61FFA8CF708FB16E341EA034306FB3C
:100CC00007F199420AD91CEB030306F1FF3080F0CB
:100CD0001F81994240F21C81023E63445B1AA4B218
:100CE000B3FBF8F008FB103344EA034400FB07F7BA
:100CF000A7420AD91CEB040400F1FF3380F00A81FB
:100D0000A74240F207816444023840EA0640E41BEF
:100D100000261DB1D4400023C5E900433146BDE89B
:100D2000F0878B4209D9002D00F0EF800026C5E93D
:100D3000000130463146BDE8F087B3FA83F6002E55
:100D40004AD18B4202D3824200F2F980841A61EBCD
:100D5000030301209E46002DE0D0C5E9004EDDE7EB
:100D600002B9FFDEB2FA82F2002A40F09280A1EBD3
:100D70000C014FEA1C471FFA8CFE0126200CB1FB28
:100D8000F7F307FB131140EA01410EFB03F0884221
:100D900008D91CEB010103F1FF3802D2884200F2AE
:100DA000CB804346091AA4B2B1FBF7F007FB101140
:100DB00044EA01440EFB00FEA64508D91CEB0404DE
:100DC00000F1FF3102D2A64500F2BB800846A4EB39
:100DD0000E0440EA03409CE7C6F12007B34022FA24
:100DE00007FC4CEA030C20FA07F401FA06F31C4353
:100DF000F9404FEA1C4900FA06F3B1FBF9F8200C60
:100E00001FFA8CFE09FB181140EA014108FB0EF0A5
:100E1000884202FA06F20BD91CEB010108F1FF3AF5
:100E200080F08880884240F28580A8F10208614401
:100E3000091AA4B2B1FBF9F009FB101144EA01410F
:100E400000FB0EFE8E4508D91CEB010100F1FF34BA
:100E50006CD28E456AD90238614440EA0840A0FB52
:100E60000294A1EB0E01A142C846A64656D353D028
:100E70005DB1B3EB080261EB0E0101FA07F722FA4C
:100E800006F3F1401F43C5E9007100263146BDE875
:100E9000F087C2F12003D8400CFA02FC21FA03F3D8
:100EA000914001434FEA1C471FFA8CFEB3FBF7F059
:100EB00007FB10360B0C43EA064300FB0EF69E427E
:100EC00004FA02F408D91CEB030300F1FF382FD217
:100ED0009E422DD9023863449B1B89B2B3FBF7F6BF
:100EE00007FB163341EA034106FB0EF38B4208D998
:100EF0001CEB010106F1FF3816D28B4214D9023ED9
:100F00006144C91A46EA004638E72E46284605E7F6
:100F10000646E3E61846F8E64B45A9D2B9EB0208C7
:100F200064EB0C0E0138A3E74646EAE7204694E757
:100F30004046D1E7D0467BE7023B614432E730468A
:100F400009E76444023842E7704700BF30B58BB010
:100F50000024059406940794089409940194264B60
:100F60001A6B42F004021A631A6B02F00402019237
:100F7000019A02941A6B42F080021A631A6B02F013
:100F800080020292029A03941A6B42F001021A63E1
:100F90001A6B02F001020392039A04941A6B42F056
:100FA00002021A631B6B03F002030493049B134DAC
:100FB00022462021284601F0FEFB4FF40053059302
:100FC0004FF404130693079405A90D4801F00CFB98
:100FD00020230593012306930794089405A9284626
:100FE00001F002FB22460521282001F0C9FD28203E
:100FF00001F0FEFD0BB030BD0038024000000240A1
:101000000008024000B583B000220192094B196B21
:1010100041F4800119631B6B03F480030193019B6E
:101020000521382001F0ACFD382001F0E1FD03B0CE
:101030005DF804FB0038024010B50F4C0421204637
:1010400000F068FA0821204600F064FA04210B48F9
:1010500000F060FA00210A4800F05CFAB2EE0E1AC5
:10106000F2EE080A9FED070A00F04CFB4FF47A708D
:1010700003F0F8FAF2E700BF4001002088010020E9
:10108000D00100200000344270B582B00C46079DAC
:101090000195069E009603F038F9012806D02146F6
:1010A000074804F05BFA012002B070BD286803F025
:1010B000BDF90146034804F051FA0020F4E700BFEF
:1010C000006D0008F06C000808B54FF0FF330722F0
:1010D0000249034802F04BFB08BD00BF186D000831
:1010E0001802002008B54FF40051054801F05CFBE0
:1010F0000028F8D1FFF7E8FFC82003F0B3FAF2E7C1
:101100000008024000B583B001904FF6FF73012242
:1011100001A9034802F02BFB019803B05DF804FB22
:10112000180200207047704708B50268034B9A42C6
:1011300000D008BD01F084FDFBE700BF004801407E
:1011400072B6FEE700B585B00023009301930293C9
:1011500003931448144A02604FF480324260836063
:101160000361037680F82030C362104A8262C36054
:101170000122C26180F83030426100F035FD60B973
:10118000012300930193002302936946054800F070
:10119000F9FD20B905B05DF804FBFFF7D1FFFFF7BB
:1011A000CFFF00BF98000020002001400100000F89
:1011B00008B50A480A4B03604FF4E133436000234B
:1011C0008360C36003610C2242618361C36102F0EA
:1011D0009EFA00B908BDFFF7B3FF00BF1802002058
:1011E0000044004000B58FB000230A930B930C938A
:1011F0000D9308930993019302930393049305932A
:101200000693079323484FF0804202604360836057
:101210004FF0FF32C2600361836101F031FF60BBB8
:101220004FF480530A930AA91A4802F02EF830BBF3
:10123000184801F051FF20BB00230893099308A927
:10124000144802F029F9F0B96023019300230293B6
:101250000393059304220DEB02010E4801F09AFF5F
:1012600098B9082201A90B4801F094FF78B9094800
:1012700000F02EFB0FB05DF804FBFFF761FFFFF7F6
:101280005FFFFFF75DFFFFF75BFFFFF759FFFFF71A
:1012900057FF00BF4001002000B58FB000230A9324
:1012A0000B930C930D93089309930193029303936B
:1012B00004930593069307932248234A02604360F0
:1012C00083604FF6FF72C2600361836101F0D8FE54
:1012D00058BB4FF480530A930AA91A4801F0D5FF6E
:1012E00028BB184801F0F8FE18BB002308930993A7
:1012F00008A9144802F0D0F8E8B96023019300224D
:1013000002920392059201A90E4801F043FFA0B991
:1013100004220DEB02010B4801F03CFF78B90948AB
:1013200000F0D6FA0FB05DF804FBFFF709FFFFF7F6
:1013300007FFFFF705FFFFF703FFFFF701FFFFF7C9
:10134000FFFE00BF880100200004004000B58FB000
:1013500000230A930B930C930D9308930993019325
:101360000293039304930593069307931D481E4A23
:101370000260436083604FF6FF72C2600361836165
:1013800001F07EFE20BB4FF480530A930AA9154852
:1013900001F07BFFF0B9134801F09EFEE0B9002395
:1013A0000893099308A90F4802F076F8B0B96023B2
:1013B0000193002202920392059201A9094801F0CB
:1013C000E9FE68B9074800F083FA0FB05DF804FB46
:1013D000FFF7B6FEFFF7B4FEFFF7B2FEFFF7B0FE71
:1013E000FFF7AEFED00100200008004000B595B028
:1013F0003022002108A804F0A9F8002303930493E5
:1014000005930693079301931E4A116C41F0805196
:101410001164126C02F080520192019A02931A4AEE
:10142000116841F440411160126802F44042029296
:10143000029A0221089101220B9210220C920E9125
:101440000F9310924FF4A8731193042312931393E4
:1014500008A800F06FFD80B90F23039302210491C7
:10146000002305934FF480520692079303A800F0DF
:10147000C7FF20B915B05DF804FBFFF761FEFFF769
:101480005FFE00BF003802400070004000B583B02E
:1014900001F0BCFBFFF7AAFFFFF758FDFFF7B2FD15
:1014A000FFF750FEFFF784FEFFF79CFEFFF7F4FE08
:1014B000FFF74CFF0F4804F0D7F80F4B01930823B8
:1014C000009300234FF400720C490D48FFF7DCFD38
:1014D0000C4B01930723009300234FF400720A4939
:1014E0000A48FFF7D1FD0A4804F0BEF802F042FFB7
:1014F000FEE700BF206D0008940000202C6D00085E
:101500003910000890000020346D0008E510000834
:10151000446D000808B5044B186089B2034B19806C
:1015200001F042FF08BD00BF6002002074020020ED
:1015300010B5B4281DD8014607EE900AF8EEE77AF8
:101540009FED117A67EE877A9FED107A77EE877AB2
:10155000FDEEE77A17EE904AA4F1C80240F2B633E6
:101560009A420BD817EE902A094803F0F7FFA0B271
:1015700010BD084804F078F80020F9E7064804F0A8
:1015800073F80020F4E700BF8EE3A8400000484352
:10159000AC6D0008606D0008886D00080000000058
:1015A00038B52DED028BB0EE408A21EE011A60EEC7
:1015B000A00A71EE207A17EE900AFEF7C5FF41EC03
:1015C000100B05F003F851EC100BFFF7EDFA08EEE5
:1015D000900A68EEA87A17EE900AFEF7B5FF044667
:1015E0000D4602460B4645A1D1E90001FEF74CFE2F
:1015F00000223B4BFFF72AF941EC100B04F0B2FF3D
:1016000051EC100B2EA3D3E90023FEF7F5FFFFF7F3
:10161000A3FA344B186022462B462BA1D1E90001D6
:10162000FEF732FE2AA3D3E90023FFF70FF941ECBE
:10163000100B04F097FF51EC100BFFF78DFAFEF73B
:1016400071FF1FA3D3E90023FEF7D6FFFFF784FA4B
:10165000254B18600022254B20462946FEF716FE32
:101660001DA3D3E90023FEF70FFE04460D4618EE36
:10167000900AFEF769FF00221D4BFEF7BDFF0246F0
:101680000B4620462946FFF7E1F841EC100B04F029
:1016900069FF51EC100BFFF75FFAFEF743FF08A359
:1016A000D3E90023FEF7A8FFFFF756FA114B1860A5
:1016B000BDEEC88A104B83ED008ABDEC028B38BDAD
:1016C000F8C1631ADCA54C400000000000A078407F
:1016D00000000000006078400000000000206C4026
:1016E000008076406C020020700200200000624002
:1016F0000000384068020020640200200000000062
:1017000000107740F8B5FFF74BFF484B1878FFF70C
:101710000FFF0746464B1878FFF70AFF0646454B72
:101720001878FFF705FF0546434B1878FFF700FFD1
:101730000446424B1B88002B2CD1414B1B681B6875
:101740005F634FF47A7001F08DFA3C4B1B88002BDD
:1017500033D13B4B1B681B685E634FF47A7001F01A
:1017600081FA364B1B88002B3AD1354B1B681B681E
:101770005D634FF47A7001F075FA304B1B88002BD3
:1017800041D12F4B1B681B685C634FF47A7001F0EA
:1017900069FAF8BD042B06D0082B09D0284B1B682A
:1017A0001B681F64CDE7264B1B681B689F63C8E757
:1017B000234B1B681B68DF63C3E7042B06D0082B91
:1017C00009D01F4B1B681B681E64C6E71C4B1B68B7
:1017D0001B689E63C1E71A4B1B681B68DE63BCE78E
:1017E000042B06D0082B09D0154B1B681B681D6401
:1017F000BFE7134B1B681B689D63BAE7104B1B6860
:101800001B68DD63B5E7042B06D0082B09D00C4B11
:101810001B681B681C64B8E7094B1B681B689C634A
:10182000B3E7074B1B681B68DC63AEE7640200206C
:10183000680200206C020020700200207402002068
:1018400060020020FEE7FEE7FEE7FEE7FEE77047E6
:1018500008B5024800F0F5F908BD00BF9800002067
:1018600008B5024801F007FB08BD00BF7802002060
:1018700008B54FF4005000F0A5FF08BD08B50248B8
:1018800001F07EF808BD00BFE000002000B583B085
:10189000002200920D4B596C41F480415964596CFF
:1018A00001F48041009100990192196C41F080513E
:1018B00019641B6C03F080530193019B0F216FF09F
:1018C000010001F05DF903B05DF804FB003802404F
:1018D00000B587B00023019302930393049305930B
:1018E0000368B3F1804F02D007B05DF804FB00231A
:1018F00000930A4B1A6B42F001021A631B6B03F050
:1019000001030093009B022301930293012305939B
:1019100001A9034800F068FEE6E700BF0038024076
:101920000000024002681D4B9A4200D0704710B57B
:1019300082B0044600230193194A516C41F480712E
:101940005164526C02F480720192019A1548164A51
:10195000026043608360C3604FF4806202614FF4B1
:10196000006242614FF4005282614FF48072C261A2
:101970000362436200F09EFF60B90A4BA3639C635D
:1019800000220521122001F0FBF8122001F030F9AD
:1019900002B010BDFFF7D4FBEFE700BF002001400D
:1019A00000380240E00000201064024000B589B019
:1019B0000023039304930593069307930268154B42
:1019C0009A4202D009B05DF804FB0021019103F5B1
:1019D000FA331A6C42F400321A641A6C02F40032C0
:1019E0000192019A02911A6B42F001021A631B6B79
:1019F00003F001030293029B0C230393022304933D
:101A0000032306930723079303A9034800F0ECFD83
:101A1000D8E700BF004400400000024030B589B064
:101A20000546002401941E4B5A6C42F480225A64ED
:101A30005B6C03F480230193019B02A903A800F0CF
:101A4000B5FD00F0A3FD03461648A0FB03239B0C45
:101A5000013B1548154A026040F2E732C26043601C
:101A600004618460846101F00BFB044610B12046E0
:101A700009B030BD0C4801F0BDF904460028F6D18C
:101A80001A2001F0B5F80F2D01D90124EFE700224B
:101A900029461A2001F074F8054B1D60E7E700BFE6
:101AA0000038024083DE1B437802002000480140DA
:101AB000040000204A4B5A6822F440325A605A68A7
:101AC00041680A435A600268536823F48073536084
:101AD00002685368016943EA01235360026853684E
:101AE00023F0407353600268536881680B4353606E
:101AF0000268936823F40063936002689368C16886
:101B00000B439360826A374B9A4257D002689368BE
:101B100023F07063936002689368816A0B4393605B
:101B20000268936823F04053936002689368C16A27
:101B30000B4393600268936823F00203936002688A
:101B40009368017E43EA4103936090F82030002BB4
:101B50003FD00268536843F40063536002685368DF
:101B600023F46043536001684B68426A013A43EAD8
:101B700042334B600268D36A23F47003D362016876
:101B8000CB6AC269013A43EA0253CB6202689368A6
:101B900023F4007393600268936890F8301043EA6E
:101BA000412393600268936823F480639360026822
:101BB0009368416943EA81239360704702689368A0
:101BC00023F0706393600268936823F0405393603E
:101BD000B0E70268536823F400635360CAE700BFAC
:101BE000002301400100000F38B310B50446036C18
:101BF00043B1236C13F0100F0BD00120002384F8A5
:101C00003C3010BDFFF78EFE0023636484F83C3047
:101C1000EFE7236C23F4885323F0020343F002031D
:101C200023642046FFF746FF00206064236C23F006
:101C3000030343F001032364E0E70120704770478A
:101C4000704770B5044603681E685D6816F0020FA1
:101C50002FD005F0200262B3026C12F0100F03D1F6
:101C6000026C42F4007202649A6812F0405F19D16B
:101C7000227EBAB9DA6A12F4700F03D09A6812F4AD
:101C8000806F0FD15A6822F020025A60236C23F42F
:101C900080732364236C13F4805F03D1236C43F0BF
:101CA000010323642046FFF73EFA23686FF0120217
:101CB0001A6005F0800316F0040F37D0002B35D0E2
:101CC000236C13F0100F03D1236C43F400532364EF
:101CD00023689A6812F4401F21D19A6B12F4401FB6
:101CE00003D09A6812F4806F19D15A6812F4806F89
:101CF00015D19A6812F0405F11D1227E7AB95A68E4
:101D000022F080025A60236C23F480532364236CF6
:101D100013F4807F03D1236C43F001032364204636
:101D200000F006F923686FF00C021A6005F040031A
:101D300016F0010F05D023B123681B6813F0010FC3
:101D400006D105F0806516F0200F00D065B970BD92
:101D5000236C43F4803323642046FFF770FF23682D
:101D60006FF001021A60ECE7636C43F002036364F6
:101D700023686FF020051D602046FFF761FF236890
:101D80001D60E4E730B482B00023019390F83C304A
:101D9000012B00F0C080012380F83C300B68092B38
:101DA00041D90468E2689BB203EB43031E3B4FF04A
:101DB000070C0CFA03F322EA0303E3600468E26809
:101DC0000B8803EB43031E3B8D6805FA03F31343B3
:101DD000E3604B68062B3DD80468626B03EB83031A
:101DE000053B4FF01F0C0CFA03F322EA0303636375
:101DF0000468626B4B6803EB8303053BB1F800C0DA
:101E00000CFA03F3134363630268444B9A4251D0C4
:101E10000268424B9A425AD0002380F83C30184660
:101E200002B030BC7047046822699BB203EB4303E5
:101E30004FF0070C0CFA03F322EA03032361046852
:101E400022690B8803EB43038D6805FA03F3134300
:101E50002361BEE70C2B16D805682A6B03EB8303BE
:101E6000233B1F2404FA03F322EA03032B630568D0
:101E70002A6B4B6803EB8303233B0C8804FA03F3C0
:101E800013432B63C0E70568EA6A03EB8303413B16
:101E90001F2404FA03F322EA0303EB620568EA6AEB
:101EA0004B6803EB8303413B0C8804FA03F31343B1
:101EB000EB62A9E70B68122BAAD1194B5A6822F4DE
:101EC00000025A605A6842F480025A60A0E70B6828
:101ED000144A934201D0112B9ED1114B5A6822F41F
:101EE00080025A605A6842F400025A600A680D4B38
:101EF0009A4291D10C4B1B680C4AA2FB03239B0C0A
:101F000003EB83035B000193019B002B84D0019BB7
:101F1000013B0193F8E7022082E700BF0020014067
:101F200000230140120000100800002083DE1B4344
:101F300070470000002800F0E08170B582B00446D0
:101F4000036813F0010F3BD09F4B9B6803F00C0319
:101F5000042B2CD09C4B9B6803F00C03082B21D046
:101F60006368B3F5803F4FD0B3F5A02F52D0964BA6
:101F70001A6822F480321A601A6822F480221A60E9
:101F80006368002B50D000F067FE05468E4B1B683F
:101F900013F4003F14D100F05FFE401B6428F5D914
:101FA0000320B1E1884B5B6813F4800FD8D0864BD7
:101FB0001B6813F4003F03D06368002B00F09F817F
:101FC000236813F0020F54D07F4B9B6813F00C0F63
:101FD0003ED07D4B9B6803F00C03082B33D0E368A5
:101FE000002B68D0794B01221A6000F035FE0546BF
:101FF000754B1B6813F0020F54D100F02DFE401BEF
:102000000228F5D903207FE16F4A136843F4803337
:102010001360B5E76C4B1A6842F480221A601A68A4
:1020200042F480321A60ABE700F016FE0546664BBC
:102030001B6813F4003FC3D000F00EFE401B642861
:10204000F5D9032060E1604B5B6813F4800FC6D1C3
:102050005D4B1B6813F0020F03D0E368012B40F0C7
:102060005081594A136823F0F803216943EAC103F8
:102070001360236813F0080F42D063696BB3534BAE
:102080000122C3F8802E00F0E7FD05464E4B5B6F42
:1020900013F0020F34D100F0DFFD401B0228F5D908
:1020A000032031E1484A136823F0F803216943EA29
:1020B000C1031360DDE7454B00221A6000F0CCFD40
:1020C0000546414B1B6813F0020FD2D000F0C4FD4F
:1020D000401B0228F5D9032016E13C4B0022C3F82F
:1020E000802E00F0B9FD0546374B5B6F13F0020FF1
:1020F00006D000F0B1FD401B0228F5D9032003E112
:10210000236813F0040F77D02F4B1B6C13F0805F04
:1021100033D1002301932C4B1A6C42F080521A6485
:102120001B6C03F080530193019B0125284B1B6816
:1021300013F4807F23D0A368012B34D0052B38D033
:10214000214B1A6F22F001021A671A6F22F0040263
:102150001A67A368002B3DD000F07EFD06461A4B9F
:102160001B6F13F0020F46D100F076FD801B41F289
:1021700088339842F3D90320C6E00025D6E7144AF5
:10218000136843F48073136000F066FD0646104B3D
:102190001B6813F4807FCED100F05EFD801B022807
:1021A000F5D90320B0E0084A136F43F00103136729
:1021B000CFE7054B1A6F42F004021A671A6F42F01C
:1021C00001021A67C5E700BF00380240000047421D
:1021D0000070004000F040FD0646524B1B6F13F0AC
:1021E000020F08D000F038FD801B41F2883398427E
:1021F000F3D9032088E0EDB9A369002B00F08380B8
:10220000484A926802F00C02082A51D0022B17D0DB
:10221000454B00221A6600F01FFD0446414B1B6827
:1022200013F0007F42D000F017FD001B0228F5D903
:10223000032069E03B4A136C23F080531364DBE70F
:10224000394B00221A6600F007FD0546354B1B6826
:1022500013F0007F06D000F0FFFC401B0228F5D9E8
:10226000032051E0E369226A1343626A43EA82135E
:10227000A26A5208013A43EA0243E26A43EA02636D
:10228000284A5360284B01221A6600F0E5FC0446F8
:10229000244B1B6813F0007F06D100F0DDFC001B0F
:1022A0000228F5D903202FE000202DE000202BE0AC
:1022B000012B2BD01B4B5B6803F48001E269914238
:1022C00026D103F03F02216A8A4223D1616A47F690
:1022D000C0721A40B2EB811F1ED103F44031A26AD2
:1022E0005208013AB1EB024F18D103F07063E26A71
:1022F000B3EB026F14D1002006E0012070470120EB
:1023000002E0012000E0002002B070BD0120FBE7E8
:102310000120F9E70120F7E70120F5E70120F3E7C5
:102320000120F1E7003802400000474208B5314B78
:102330009B6803F00C03042B57D0082B57D12D4B6F
:102340005A6802F03F025B6813F4800F2AD0294BD1
:102350005968C1F3881C4FEA4C11B1EB0C006EEBCD
:102360000E0E4FEA8E1343EA90638101091A63EB64
:102370000E03DB0043EA5173C90011EB0C0C43F16F
:102380000003590200234FEA4C2041EADC51FEF7DA
:102390005BFC184B5B68C3F3014301335B00B0FB8C
:1023A000F3F025E0134B5968C1F3881C4FEA4C1138
:1023B000B1EB0C006EEB0E0E4FEA8E1343EA906306
:1023C0008101091A63EB0E03DB0043EA5173C90074
:1023D00011EB0C0C43F10003990200234FEA8C200F
:1023E00041EA9C51FEF730FCD3E7034800E0034884
:1023F00008BD00BF0038024000127A000024F4003B
:10240000002800F09B8070B50D4604464F4B1B68BA
:1024100003F007038B4208D2CBB24C4A1370136807
:1024200003F007038B4240F08B80236813F0020F08
:1024300017D013F0040F04D0454A936843F4E053D7
:102440009360236813F0080F04D0414A936843F463
:10245000604393603E4A936823F0F003A1680B4306
:102460009360236813F0010F32D06368012B21D0F1
:102470009A1E012A25D9364A126812F0020F61D03D
:1024800033498A6822F0030213438B6000F0E4FBB7
:1024900006462F4B9B6803F00C036268B3EB820F78
:1024A00016D000F0D9FB801B41F288339842F0D956
:1024B000032042E0264A126812F4003FE0D10120D6
:1024C0003BE0234A126812F0007FD9D1012034E0AA
:1024D0001E4B1B6803F00703AB4207D9EAB21B4B44
:1024E0001A701B6803F00703AB422DD1236813F069
:1024F000040F06D0164A936823F4E053E1680B43B7
:102500009360236813F0080F07D0114A936823F4EF
:102510006043216943EAC1039360FFF707FF0C4B57
:102520009B68C3F303130B4AD35CD8400A4B186073
:102530000A4B1868FFF772FA002070BD012070473F
:102540000120FAE70120F8E70120F6E7003C02400D
:1025500000380240D86D0008080000200400002068
:10256000014B1868704700BF0800002008B5FFF74E
:10257000F7FF044B9B68C3F38223034AD35CD84024
:1025800008BD00BF00380240E86D000808B5FFF73D
:10259000E7FF044B9B68C3F34233034AD35CD84044
:1025A00008BD00BF00380240E86D00080F2303603B
:1025B0000B4B9A6802F0030242609A6802F0F00244
:1025C00082609A6802F4E052C2609B68DB0803F400
:1025D000E0530361034B1B6803F007030B60704774
:1025E00000380240003C024000230F2B00F2D28052
:1025F00070B582B060E085685E000324B44025EACF
:102600000405CC68B4402C438460456825EA020583
:102610004C68C4F300129A402A4342605AE0DC0836
:10262000083450F8246003F0070295000F22AA40F6
:1026300026EA020E0A69AA4042EA0E0240F8242065
:102640005CE0042200E0002202FA0EF22A43023487
:10265000514D45F82420514A94686FEA0C0224EA4F
:102660000C054E6816F4801F01D04CEA04054B4C53
:10267000A560E46802EA04054E6816F4001F01D064
:102680004CEA0405454CE560646802EA04054E68BE
:1026900016F4003F01D04CEA0405404C6560246804
:1026A00022404D6815F4803F01D04CEA04023B4CB7
:1026B000226001330F2B6BD801229A400C6804EA88
:1026C000020C32EA0404F4D14C6804F00304013C27
:1026D000012C90D94A6802F00302032A09D0C46889
:1026E0005D000322AA4024EA02048A68AA40224329
:1026F000C2604A6802F00302022A90D004684FEADE
:10270000430E032202FA0EF224EA02044A6802F09F
:10271000030202FA0EF2224302604A6812F4403FBA
:10272000C7D0002201921E4A546C44F48044546481
:10273000526C02F480420192019A9C08A51C164A30
:1027400052F8255003F003024FEA820E0F2202FADC
:102750000EF225EA0205134A90423FF474AF02F5E7
:10276000806290420ED002F5806290420CD002F559
:10277000806290420AD002F5806290423FF461AFDD
:10278000072261E701225FE702225DE703225BE7A0
:1027900002B070BD704700BF00380140003C0140EE
:1027A00000380240000002400369194201D00120B4
:1027B0007047002070470AB1816170470904816148
:1027C0007047000008B5054B5B69034200D108BDA6
:1027D000024B5861FEF7A6FCF9E700BF003C014040
:1027E00010B40368D9B210390C4AA2FB0142120995
:1027F0000B4CA25CC2655F2909D923F47F7323F0D7
:10280000030304338365806D5DF8044B704723F444
:102810007F7323F003038365F5E700BFABAAAAAA81
:10282000D06D0008836A826992B9012B0AD0022B0D
:1028300002D00BB100207047C36A13F0807F28D10B
:1028400000207047C36AB3F1C07F24D000207047D6
:10285000B2F5005F09D0022B25D9032B25D1C36A1D
:1028600013F0807F23D100207047032B03D8DFE8CB
:1028700003F01404140A00207047C36A13F0807F29
:102880000DD100207047C36AB3F1C07F09D000208A
:1028900070470120704701207047012070470120D8
:1028A00070470120704701207047002070470120C9
:1028B0007047000070B5044600F0CEF9002C5BD0E4
:1028C0000546022384F83530002384F8343022682A
:1028D000136823F00103136023681A6812F0010FD4
:1028E0000AD000F0B9F9431B052BF5D92023636505
:1028F000032084F8350070BD1A68204810406168D4
:10290000A2680A43E1680A4321690A4361690A43EC
:10291000A1690A43E1690A43216A0A430243616AE1
:1029200004291ED01A602668756925F00705636AB8
:102930001D43042B07D1A36A1D43E36A1BB1204644
:10294000FFF770FF90B975612046FFF749FFE26D10
:102950003F239340836000206065012384F8353075
:10296000C9E7E16A206B01430A43DBE74023636563
:10297000012084F83500BEE70120BCE73F8010F05D
:10298000F0B583B0044600230193724B1D68724B6F
:10299000A3FB0535AD0A876D3E68C26D08239340E1
:1029A000334210D003681A6812F0040F0BD01A6873
:1029B00022F004021A60C26D08239340BB60436D8D
:1029C00043F001034365E26D01239340334209D094
:1029D0002268526912F0800F04D0BB60636D43F02F
:1029E00002036365E26D04239340334209D02268F9
:1029F000126812F0020F04D0BB60636D43F0040351
:102A00006365E26D10239340334224D0226812683C
:102A100012F0080F1FD0BB6023681A6812F4802FD1
:102A20000DD01B6813F4002F04D1236C9BB12046FA
:102A3000984710E0A36C73B1204698470BE01A68E2
:102A400012F4807F03D11A6822F008021A60236C06
:102A50000BB120469847E26D20239340334255D076
:102A60002268126812F0100F50D0BB6094F8353015
:102A7000DBB2052B0ED023681A6812F4802F33D0F6
:102A80001B6813F4002F2AD1636C002B3ED0204624
:102A900098473BE02268136823F01603136022680E
:102AA000536923F080035361236CA3B12268136838
:102AB00023F008031360E26D3F239340BB600123C2
:102AC00084F83530002384F83430236D002B3FD058
:102AD000204698473CE0A36C002BE7D1EBE7E36B83
:102AE000A3B12046984711E01A6812F4807F09D1FB
:102AF0001A6822F010021A60012384F8353000238E
:102B000084F83430E36B0BB120469847636DFBB11A
:102B1000636D13F0010F17D0052384F83530226858
:102B2000136823F001031360019B01330193AB424F
:102B300004D823681B6813F0010FF5D1012384F832
:102B40003530002384F83430E36C0BB120469847CD
:102B500003B0F0BD08000020B5814E1B074AD368C2
:102B600023F4E0631B041B0C000200F4E060034349
:102B700043F0BF6343F40033D360704700ED00E0DF
:102B800000B5194BDB68C3F30223C3F1070CBCF19A
:102B9000040F28BF4FF0040C03F1040EBEF1060F22
:102BA00018D9033B4FF0FF3E0EFA0CFC21EA0C0152
:102BB00099400EFA03F322EA0303194300280BDBC2
:102BC0000901C9B200F1604000F5614080F80013CE
:102BD0005DF804FB0023E5E700F00F000901C9B22E
:102BE000024B1954F4E700BF00ED00E014ED00E0E3
:102BF000002807DB00F01F02400901239340024A2E
:102C000042F82030704700BF00E100E008B50B4BF0
:102C10001A6842F400721A601A6842F480621A60FC
:102C20001A6842F480721A600320FFF797FF0F20A2
:102C3000FEF7F4FEFEF72AFE002008BD003C02402D
:102C4000034A1168034B1B780B441360704700BFA5
:102C5000C002002000000020014B1868704700BF30
:102C6000C002002038B50446FFF7F6FF0546B4F170
:102C7000FF3F02D0044B1B781C44FFF7EDFF401BC5
:102C8000A042FAD338BD00BF0000002070B4036A30
:102C9000026A22F0010202624668826922F073022F
:102CA0000C6844EA020523F002028B6813430D4CC2
:102CB000A04209D00B4CA0420DD0466085614A6805
:102CC0004263036270BC704723F00803CA68134371
:102CD00023F00403EEE726F440764A6932438E6916
:102CE0001643EAE70000014030B4036A026A22F4A6
:102CF000807202624568C26922F073020C68224346
:102D000023F400738C6843EA04230F4CA04209D0DB
:102D10000D4CA0420ED04560C2614A68C263036296
:102D200030BC704723F40063CC6843EA042323F4E7
:102D30008063EDE725F440554C6945EA04158C693C
:102D400045EA0415E7E700BF0000014030B4036A1C
:102D5000026A22F4805202624468C26922F4E642A6
:102D60000D6842EA052223F400538D6843EA0533D7
:102D7000074DA84206D04460C2614A6802640362FB
:102D800030BC704724F480444D6944EA8514F2E76E
:102D90000000014010B4036A046A24F001040462D4
:102DA000846924F0F00C4CEA021223F00A030B436E
:102DB000826103625DF8044B704710B4036A046AD1
:102DC00024F010040462846924F4704C4CEA02324A
:102DD00023F0A00343EA0113826103625DF8044B10
:102DE0007047836823F070030B4343F0070383604D
:102DF0007047704790F83D30DBB2012B2FD1022392
:102E000080F83D300268D36843F00103D360036863
:102E1000154A934218D0B3F1804F15D0A2F57C42E9
:102E2000934211D002F5806293420DD002F5806288
:102E3000934209D002F59A32934205D01A6842F0C3
:102E400001021A60002070479A6802F00702062A01
:102E500007D01A6842F001021A6000207047012072
:102E600070470020704700BF000001407047704766
:102E700070477047704770B504460368DE681D6987
:102E800015F0020F10D016F0020F0DD06FF00202F5
:102E90001A610123037703689B6913F0030F5ED067
:102EA000FFF7E6FF0023237715F0040F12D016F08A
:102EB000040F0FD023686FF004021A6102232377F6
:102EC00023689B6913F4407F4FD02046FFF7D0FF63
:102ED0000023237715F0080F12D016F0080F0FD03B
:102EE00023686FF008021A61042323772368DB69E3
:102EF00013F0030F40D02046FFF7BAFF00232377DB
:102F000015F0100F12D016F0100F0FD023686FF0CD
:102F100010021A61082323772368DB6913F4407FCA
:102F200031D02046FFF7A4FF0023237715F0010FCF
:102F300002D016F0010F2DD115F0800F02D016F03F
:102F4000800F2FD115F0400F02D016F0400F31D175
:102F500015F0200F02D016F0200F33D170BDFFF70F
:102F600086FF2046FFF785FF9CE72046FFF77FFF9F
:102F70002046FFF77EFFABE72046FFF778FF2046AD
:102F8000FFF777FFBAE72046FFF771FF2046FFF70C
:102F900070FFC9E723686FF001021A612046FEF74F
:102FA000C3F8C9E723686FF080021A61204600F079
:102FB000B2FAC7E723686FF040021A612046FFF7B4
:102FC00059FFC5E723686FF020021A61204600F020
:102FD000A1FAC3E70368294A90420ED0B0F1804FAE
:102FE0000BD0A2F57C42904207D002F5806290425D
:102FF00003D002F58062904203D123F070034A6847
:1030000013431E4A90421AD0B0F1804F17D0A2F558
:103010007C42904213D002F5806290420FD002F5BC
:10302000806290420BD002F59A32904207D002F5AE
:103030008062904203D002F58062904203D123F473
:103040004073CA68134323F080034A691343036043
:103050008B68C3620B688362084B98420AD00123D5
:103060004361036913F0010F03D0036923F00103E7
:10307000036170470B690363F1E700BF0000014083
:1030800040B310B5044690F83D30F3B1022384F804
:103090003D30214651F8040BFFF79CFF012384F8D3
:1030A000463084F83E3084F83F3084F8403084F86D
:1030B000413084F8423084F8433084F8443084F856
:1030C000453084F83D30002010BD80F83C30FFF7DB
:1030D00090FEDBE70120704740B310B5044690F83E
:1030E0003D30F3B1022384F83D30214651F8040B02
:1030F000FFF770FF012384F8463084F83E3084F8EF
:103100003F3084F8403084F8413084F8423084F80D
:10311000433084F8443084F8453084F83D30002052
:1031200010BD80F83C30FFF7A1FEDBE701207047BF
:1031300030B4036A026A22F01002026244688269B3
:1031400022F4E6420D6842EA052223F020038D684E
:1031500043EA05130E4DA84209D00D4DA8420ED0EA
:10316000446082614A688263036230BC704723F026
:103170008003CD6843EA051323F04003EDE724F410
:1031800040644D6944EA85048D6944EA8504E7E7B3
:103190000000014038B590F83C30012B66D0044661
:1031A0000D46012380F83C300C2A5AD8DFE802F0A3
:1031B000075959591B5959593059595944000068F0
:1031C000FFF764FD2268936943F008039361226866
:1031D000936923F0040393612268936929690B437F
:1031E000936100203EE00068FFF7A2FF2268936928
:1031F00043F4006393612268936923F480639361CD
:1032000022689369296943EA01239361002029E038
:103210000068FFF769FD2268D36943F00803D361B2
:103220002268D36923F00403D3612268D369296932
:103230000B43D361002015E00068FFF787FD22688B
:10324000D36943F40063D3612268D36923F48063B4
:10325000D3612268D369296943EA0123D36100203D
:1032600000E00120002384F83C3038BD0220FCE758
:1032700010B4846824F47F4C42EA03220A4342EAF1
:103280000C0282605DF8044B704790F83C30012BD3
:1032900078D010B50446012380F83C30022380F832
:1032A0003D300268936823F47F4323F077039360F3
:1032B0000B68602B4CD029D8402B54D00CD9502B04
:1032C00022D1CA6849680068FFF764FD5021206870
:1032D000FFF787FD002005E0202B0DD009D9302B0A
:1032E0000AD00120012384F83D30002384F83C30CB
:1032F00010BD0BB1102B05D119462068FFF771FDE9
:103300000020EFE70120EDE70120EBE7B3F5805F58
:1033100034D0B3F5005F0CD1CB684A688968006887
:10332000FFF7A6FF2268936843F480439360002070
:10333000D8E7702B24D1CB684A6889680068FFF70A
:1033400097FF2268936843F0770393600020C9E7F2
:10335000CA6849680068FFF730FD60212068FFF700
:1033600040FD0020BEE7CA6849680068FFF712FD0B
:1033700040212068FFF735FD0020B3E70020B1E7CA
:103380000120AFE70220704701F01F01012303FA7B
:1033900001FC036A23EA0C030362036A02FA01F1E7
:1033A0000B4303627047000010B50446084600292D
:1033B00032D194F83E30DBB2013B18BF0123002B21
:1033C00063D1002841D1022384F83E300122014616
:1033D0002068FFF7D9FF23682E4A934245D023681F
:1033E0002C4A934246D0B3F1804F43D0A2F57C42A1
:1033F00093423FD002F5806293423BD002F5806257
:10340000934237D002F59A32934233D01A6842F091
:1034100001021A60002037E0042908D008290DD0E5
:1034200094F84130DBB2013B18BF0123C7E794F8A1
:103430003F30DBB2013B18BF0123C0E794F84030B6
:10344000DBB2013B18BF0123B9E7042805D00828E7
:1034500007D0022384F84130B8E7022384F83F30D4
:10346000B4E7022384F84030B0E75A6C42F40042DB
:103470005A64B4E79A6802F00702062A07D01A686D
:1034800042F001021A60002010BD0120FCE700207C
:10349000FAE700BF0000014090F83C30012B35D026
:1034A00010B4012380F83C30022380F83D300368DB
:1034B0005A689C6822F0700C0A6842EA0C025A6052
:1034C0000368134A934212D0B3F1804F0FD0A2F594
:1034D0007C4293420BD002F58062934207D002F502
:1034E0008062934203D002F59A32934204D124F0D1
:1034F00080044A6814439C60012380F83D30002317
:1035000080F83C3018465DF8044B70470220704745
:103510000000014070477047026802F10C0353E855
:10352000003F23F490730C3242E800310029F3D1BC
:10353000026802F1140353E8003F23F00103143240
:1035400042E800310029F3D1036B012B05D0202381
:1035500080F84230002303637047026802F10C03D5
:1035600053E8003F23F010030C3242E800310029F9
:10357000F3D1ECE738B504460268136923F44053ED
:10358000C1680B43136183680269134342691343A3
:10359000C2691A430168CB6823F4164323F00C0375
:1035A0001343CB600268536923F4407381690B4372
:1035B00053610368314A934206D002F58062934218
:1035C00002D0FEF7D3FF01E0FEF7E0FFE369B3F5B9
:1035D000004F29D00021031849411B1841F1000177
:1035E000C90041EA5371DB00181863684FEA83028F
:1035F0004FEA937341F10001FDF726FB204DA5FB37
:1036000000325109642303FB11031B013233A5FB74
:1036100003235B0903F0F00202EB011203F00F0336
:10362000216813448B6038BD0023021843EB03016B
:10363000121841F10001C90041EA5271D20010187C
:1036400041F10001626892185B41FDF7FDFA0C4DF3
:10365000A5FB00325109642303FB1103DB00323365
:10366000A5FB03235B095A0002F4F87202EB011276
:1036700003F00703216813448B60D4E70010014076
:103680001F85EB512DE9F04383B005460E461746E2
:103690009946DDF828802C68246836EA04030CBFBC
:1036A0004FF0010C4FF0000CBC4528D1B8F1FF3FA2
:1036B000F1D0FFF7D1FAA0EB0900404523D8B8F1CB
:1036C000000F22D02B68DA6812F0040FE3D0802EAE
:1036D000E1D0402EDFD01A6812F0080FDBD00024B2
:1036E00001941A6801925B680193019B2846FFF7D9
:1036F00013FF08236B6485F84040012000E00020A0
:1037000003B0BDE8F0830320FAE70320F8E760B3D5
:1037100010B5044690F8413013B3242384F84130A7
:103720002268D36823F40053D3602046FFF722FFBA
:103730002268136923F4904313612268536923F0CC
:103740002A0353612268D36843F40053D3600020F6
:103750006064202384F8413084F84230606310BDF7
:1037600080F84030FEF722F9D7E7012070472DE9B5
:10377000F04182B01E4690F84130DBB2202B56D18A
:1037800004460D469046002955D00AB901204FE065
:1037900000234364212380F84130FFF75DFA074698
:1037A000A4F82480A4F82680A368B3F5805F02D033
:1037B0004FF0000814E023692BB34FF000080FE02E
:1037C000202384F84130032032E038F8023B22689D
:1037D000C3F308035360E28C92B2013A92B2E284DE
:1037E000E38C9BB293B100963B4600228021204699
:1037F000FFF748FF0028E3D1002DE6D015F8012B94
:1038000023685A60E7E7A8460025E9E700963B46AB
:10381000002240212046FFF735FF18B9202384F805
:10382000413005E0202384F84130032000E00220ED
:1038300002B0BDE8F0810120FAE70000034AD2F8A7
:10384000883043F47003C2F88830704700ED00E020
:1038500000F1080343604FF0FF328260C3600361F0
:1038600000230360704700230361704743684B6087
:103870009A688A6051609960086103680133036047
:10388000704730B40D68B5F1FF3F11D000F1080367
:103890001C465B681A68AA42FAD963684B60996053
:1038A0008C606160086103680133036030BC70475D
:1038B0000469F2E70369416882688A60416851607F
:1038C0005A68824206D0002202611A68013A1A60E0
:1038D0001868704782685A60F5E710B5044601F031
:1038E00031FCA26BE36B9A4204D0002401F04CFC43
:1038F000204610BD0124F9E710B5044601F022FC72
:10390000A36B23B9012401F03FFC204610BD002425
:10391000F9E770B504461546866B026C5AB9036820
:103920001BB100200136A66370BD806800F0E8FF7F
:103930000023A360F6E76DB9406801F0F9FD226C41
:10394000636813446360A268934219D32368636079
:103950002846E7E7C06801F0EBFD226C5142E368BE
:103960009B1AE3602268934202D2A3680B44E3608F
:10397000022D01D00020D5E726B1013E0020D1E77D
:103980002846CFE70020CDE70346026C6AB110B5A8
:103990000846D9681144D9609C68A14201D31968CE
:1039A000D960D96801F0C4FD10BD704738B505462F
:1039B00001F0C8FB95F8454064B201E0013C64B2F7
:1039C000002C0ADD6B6A43B105F1240000F0EEFE25
:1039D0000028F3D000F07EFFF0E7FF2385F84530A4
:1039E00001F0D2FB01F0AEFB95F8444064B201E077
:1039F000013C64B2002C0ADD2B6943B105F11000D3
:103A000000F0D4FE0028F3D000F064FFF0E7FF23BD
:103A100085F8443001F0B8FB38BD38B5E0B10D464B
:103A2000044601F08FFB2368E26B216C01FB02303E
:103A3000A0600020A0636360013A02FB0133E360F1
:103A4000FF2384F8443084F84530FDB9236963B915
:103A500001F09AFB012038BD4FF0500383F3118829
:103A6000BFF36F8FBFF34F8FFEE704F1100000F03C
:103A70009DFE0028ECD04FF0E0234FF08052C3F8B9
:103A8000042DBFF34F8FBFF36F8FE1E704F11000F8
:103A9000FFF7DEFE04F12400FFF7DAFED8E738B5C1
:103AA0001D46049C0B4649B92460E0632364012150
:103AB0002046FFF7B2FF84F84C5038BD2260F4E78F
:103AC00040B94FF0500383F31188BFF36F8FBFF3FA
:103AD0004F8FFEE710B584B01C46844653B192B1B7
:103AE00089B94FF0500383F31188BFF36F8FBFF391
:103AF0004F8FFEE74FF0500383F31188BFF36F8FB2
:103B0000BFF34F8FFEE76AB150230393039B502B03
:103B100013D04FF0500383F31188BFF36F8FBFF3BF
:103B20004F8FFEE70029EFD04FF0500383F3118849
:103B3000BFF36F8FBFF34F8FFEE7039B012384F822
:103B4000463000949DF818306046FFF7A8FF2046E5
:103B500004B010BDF0B585B0019288B10F461D4686
:103B60000446B1B1022D20D1E36B012B1DD04FF0E3
:103B7000500383F31188BFF36F8FBFF34F8FFEE7BE
:103B80004FF0500383F31188BFF36F8FBFF34F8F54
:103B9000FEE7036C002BE5D04FF0500383F3118850
:103BA000BFF36F8FBFF34F8FFEE700F099FE06461D
:103BB00058B9019B002B48D04FF0500383F3118874
:103BC000BFF36F8FBFF34F8FFEE700263DE02A461D
:103BD00039462046FFF79DFE636A7BB948B14FF036
:103BE000E0234FF08052C3F8042DBFF34F8FBFF393
:103BF0006F8F01F0C9FA012005B0F0BD04F1240077
:103C000000F0D4FD0028F4D04FF0E0234FF08052B4
:103C1000C3F8042DBFF34F8FBFF36F8FE9E701F0B7
:103C2000B3FA0020E8E702A800F006FE012619E03A
:103C3000002384F8443021E0002384F8453023E059
:103C40002046FFF7B3FE00F091FC01F07BFAA26B77
:103C5000E36B9A42BBD3022DB9D0019B002BDED07F
:103C6000002EE0D001F090FA00F0D2FB01F06AFAE9
:103C700094F8442052B2B2F1FF3FD9D094F84520D5
:103C800052B2B2F1FF3FD7D001F07EFA01A902A8EB
:103C900000F0DEFDD8B92046FFF71FFE0028CFD088
:103CA000019904F1100000F04DFD2046FFF77EFE63
:103CB00000F05CFC0028C8D14FF0E0234FF08052A8
:103CC000C3F8042DBFF34F8FBFF36F8FBDE72046BE
:103CD000FFF76CFE00F04AFC00208DE72DE9F84369
:103CE00090B10F4616461C460546B1B1022C20D1B4
:103CF000EB6B012B1DD04FF0500383F31188BFF302
:103D00006F8FBFF34F8FFEE74FF0500383F311889F
:103D1000BFF36F8FBFF34F8FFEE7036C002BE5D02F
:103D20004FF0500383F31188BFF36F8FBFF34F8FB2
:103D3000FEE701F02DFBEFF311894FF0500383F301
:103D40001188BFF36F8FBFF34F8FAA6BEB6B9A4253
:103D500006D3022C04D0002089F31188BDE8F88333
:103D600095F845804FFA88F8AB6B224639462846CD
:103D7000FFF7CFFDB8F1FF3F06D008F101035BB2BA
:103D800085F845300120E7E76B6A0BB90120E3E7CE
:103D900005F1240000F00AFD18B126B101203060C1
:103DA000DAE70120D8E70120D6E7F0B585B0019227
:103DB00090B10F460446C1B100F092FD064600BB2B
:103DC000019B002B5ED04FF0500383F31188BFF3AB
:103DD0006F8FBFF34F8FFEE74FF0500383F31188CF
:103DE000BFF36F8FBFF34F8FFEE7036C002BE3D061
:103DF0004FF0500383F31188BFF36F8FBFF34F8FE2
:103E0000FEE700263EE039462046FFF7BDFD013DB6
:103E1000A563236923B901F0B7F9012005B0F0BD0E
:103E200004F1100000F0C2FC0028F4D04FF0E023B1
:103E30004FF08052C3F8042DBFF34F8FBFF36F8F45
:103E4000E9E701F0A1F90020E8E702A800F0F4FC9E
:103E5000012621E0002384F8443029E0002384F87F
:103E600045302BE02046FFF7A1FD00F07FFB09E085
:103E70002046FFF79BFD00F079FB2046FFF73CFD55
:103E800000283FD101F05EF9A56B002DBBD1019B4D
:103E9000002BD6D0002ED8D001F076F900F0B8FA79
:103EA00001F050F994F844305BB2B3F1FF3FD1D048
:103EB00094F845305BB2B3F1FF3FCFD001F064F925
:103EC00001A902A800F0C4FC0028D1D12046FFF7C8
:103ED00013FD0028C6D0019904F1240000F032FC43
:103EE0002046FFF763FD00F041FB0028CAD14FF0E8
:103EF000E0234FF08052C3F8042DBFF34F8FBFF380
:103F00006F8FBFE7002089E70023072B0CD8074AF3
:103F100052F833200AB10133F7E7044A42F833106C
:103F200002EBC30358607047704700BFC402002013
:103F300070B504460D46164601F004F994F8443075
:103F40005BB2B3F1FF3F0DD094F845305BB2B3F1F3
:103F5000FF3F0BD001F018F9A36B5BB12046FFF7D0
:103F600025FD70BD002384F84430EDE7002384F87C
:103F70004530EFE73246294604F1240000F0FAFB11
:103F8000ECE70000084B1B681B6823B9074B4FF098
:103F9000FF321A607047044B1B68DB68DB685A68A5
:103FA000024B1A60704700BF08030020B0070020D2
:103FB0002DE9F04780460D4617469946089EDDF8E4
:103FC00024A00A9C9200A521206B01F0BFFA236B6C
:103FD00007F18042013A03EB820727F00707B5B3E8
:103FE0004FF0000CBCF10F0F0BD815F80C2004EBB0
:103FF0000C0383F8342015F80C3013B10CF1010CCC
:10400000F0E7002384F84330372E00D93726E662E4
:10401000E66400252565201DFFF725FC04F1180046
:10402000FFF721FC2461C6F13806A661646265656C
:1040300084F858504A464146384601F055F8206009
:10404000BAF1000F01D0CAF80040BDE8F0870023A4
:1040500084F83430D8E7000038B5002407E004EBDA
:10406000840293000E481844FFF7F2FB0134372C0A
:10407000F5D90C4D2846FFF7EBFB0B4C2046FFF71C
:10408000E7FB0A48FFF7E4FB0948FFF7E1FB0948B3
:10409000FFF7DEFB084B1D60084B1C6038BD00BFFE
:1040A000100300208407002098070020BC07002090
:1040B000E8070020D4070020080300200C0300209C
:1040C00010B5044601F03EF8224A1368013313602C
:1040D000214B1B685BB1214B1B686BB91E4B1B68E6
:1040E000DA6AE36A9A4207D81B4B1C6004E01A4B59
:1040F0001C601368012B29D0194A1368013313601F
:104100006364E06A174B1B68984201D9154B18602D
:1041100000EB8000211D144B03EB8000FFF7A6FB92
:1041200001F032F80D4B1B687BB10B4B1B68DA6A50
:10413000E36A9A4209D24FF0E0234FF08052C3F86D
:10414000042DBFF34F8FBFF36F8F10BDFFF784FFB8
:10415000D2E700BF7007002004030020D007002032
:104160007C070020800700201003002010B50446C3
:1041700090F8593063B1012B11D0022B0ED04FF0C3
:10418000500383F31188BFF36F8FBFF34F8FFEE7A8
:10419000006B00F02DFF204600F02AFF10BD00F05C
:1041A00027FFFBE70F4B1B68D3B110B500F0CAFF28
:1041B0000D4BDB68DC68201DFFF77CFB0B4A1368A6
:1041C000013B1360074A1368013B136000F0DCFFFA
:1041D0002046FFF7CBFF034B1B68002BE6D110BD39
:1041E000704700BF74070020E80700207007002018
:1041F00008B5FFF7D7FF074B1B68012BF9D94FF024
:10420000E0234FF08052C3F8042DBFF34F8FBFF36C
:104210006F8FEEE71003002070B504460D46174B74
:104220001E68174B18680430FFF744FBB4F1FF3FDA
:104230000DD03444124B1B685C60A64210D9114B60
:1042400018680F4B19680431FFF71BFB70BD002D78
:10425000EFD00B4B196804310B48FFF707FBF5E76C
:104260000A4B1868064B19680431FFF70AFB084B24
:104270001B68A342EAD9064B1C60E7E7FC07002055
:10428000040300200C030020D407002008030020B2
:10429000B007002030B587B00B9C7CB10C9DB5B148
:1042A0005C250495049D5C2D1AD04FF0500383F3D8
:1042B0001188BFF36F8FBFF34F8FFEE74FF05003AE
:1042C00083F31188BFF36F8FBFF34F8FFEE74FF07B
:1042D000500383F31188BFF36F8FBFF34F8FFEE757
:1042E000049D0C9D2C63022485F8594000240394FE
:1042F000029505AC01940A9C0094FFF759FE0C98B6
:10430000FFF7DEFE059807B030BD2DE9F04385B01C
:104310000746884614461E46900000F0EBFD00B3A9
:1043200081465C2000F0E6FD0546B0B1C0F8309053
:10433000E5B1002385F85930039302950D9B019355
:104340000C9B00933346224641463846FFF730FE29
:104350002846FFF7B5FE012005E0484600F048FE7C
:10436000E6E74FF0FF3005B0BDE8F0834FF0FF30D7
:10437000F9E7000010B588B000240594069407AA58
:1043800006A905A800F03AFD059B0293069B019340
:1043900000942346079A18491848FFF77BFF184BEB
:1043A000186040B100F060FB012806D0B0F1FF3F7B
:1043B00018D008B010BD0020F6E74FF0500383F38B
:1043C0001188BFF36F8FBFF34F8F0E4B4FF0FF324B
:1043D0001A600D4B01221A600C4B00221A6000F08B
:1043E0004BFFE6E74FF0500383F31188BFF36F8F65
:1043F000BFF34F8FFEE700BFF06D0008F1410008EA
:10440000AC070020B0070020D0070020FC070020E8
:10441000024A136801331360704700BF7807002019
:10442000014B1868704700BFFC070020034618B115
:104430002BB103F134007047054B1B68F8E74FF0D0
:10444000500383F31188BFF36F8FBFF34F8FFEE7E5
:1044500004030020F8B53A4B1B68002B69D1394B97
:104460001D6801351D60C5B9374B1B681B6843B11A
:104470004FF0500383F31188BFF36F8FBFF34F8F5B
:10448000FEE7314A1168314B186810601960304AF4
:10449000136801331360FFF775FD2E4B1B68AB42A9
:1044A0003DD900272C4B1B68DB6A03EB83039A0082
:1044B0002A4B9B58012B00D90127294B1B68002B45
:1044C0003CD001273AE001271F4B1B681B6843B310
:1044D0001D4B1B68DB68DC6863689D4226D3261D84
:1044E0003046FFF7E7F9A36A1BB104F11800FFF7A4
:1044F000E1F9E36A1B4A1268934201D9194A136031
:1045000003EB83039A00314614481044FFF7AEF9D9
:10451000E26A114B1B68DB6A9A42D4D2D4E70027C7
:10452000D2E70C4B4FF0FF321A60BBE7094A136029
:10453000B8E70D4A13680133136000273846F8BD09
:1045400078070020FC070020080300200C0300204F
:10455000B4070020B007002004030020100300204F
:104560000008002080070020B807002038B5354B30
:104570001B6843B94FF0500383F31188BFF36F8F6B
:10458000BFF34F8FFEE700F0DDFD2E4B1A68013AB6
:104590001A601B68002B4FD12B4B1B680BB90024F2
:1045A0004BE00024294B1B681BB3284BDB68DC68FD
:1045B00004F11800FFF77EF9251D2846FFF77AF968
:1045C000E06A234B1B68984201D9214B186000EB2D
:1045D000800029461F4B03EB8000FFF747F9E26A92
:1045E0001D4B1B68DB6A9A42DCD31C4B01221A600C
:1045F000D8E70CB1FFF7C6FC194B1C6884B9174B00
:104600001C68D4B14FF0E0234FF08052C3F8042D62
:10461000BFF34F8FBFF36F8F01240EE0013C07D033
:10462000FFF718FF0028F9D00C4B01221A60F5E7BC
:104630000B4B00221A60E2E7002400F0A5FD2046A3
:1046400038BD00BF7807002070070020BC0700209D
:104650008007002010030020040300200008002031
:10466000B807002010B5A8B10446104B1B6843B131
:104670004FF0500383F31188BFF36F8FBFF34F8F59
:10468000FEE7FFF7C5FE00212046FFF7C5FDFFF757
:104690006DFF48B94FF0E0234FF08052C3F8042D6E
:1046A000BFF34F8FBFF36F8F10BD00BF780700209F
:1046B0001F4B1B681BB11F4B01221A6070471D4B1B
:1046C00000221A601C4B1B6803EB83018A001B4904
:1046D0008A585AB90BB1013BF6E74FF0500383F308
:1046E0001188BFF36F8FBFF34F8FFEE703EB83009B
:1046F00082000A4450684068506003EB830C4FEA24
:104700008C020832114488420BD003EB83029100E3
:104710000A4A0A445268D168094A1160064A13607D
:104720007047406862469100044A0A445060ECE7D2
:1047300078070020000800208007002010030020D8
:104740000403002058B110B50C46094A116818310D
:10475000FFF797F801212046FFF75EFD10BD4FF0EF
:10476000500383F31188BFF36F8FBFF34F8FFEE7C2
:104770000403002038B570B10D4614460A4A11688A
:104780001831FFF773F80CB14FF0FF35214628467A
:10479000FFF742FD38BD4FF0500383F31188BFF39C
:1047A0006F8FBFF34F8FFEE70403002038B5C36857
:1047B000DC6824B304F118052846FFF77BF8184B92
:1047C0001B682BBB251D2846FFF774F8E06A154BC4
:1047D0001B68984201D9134B186000EB80002946F2
:1047E000114B03EB8000FFF741F8E26A0F4B1B68A7
:1047F000DB6A9A4211D901200D4B186038BD4FF089
:10480000500383F31188BFF36F8FBFF34F8FFEE721
:1048100029460848FFF72AF8E7E70020EEE700BF3F
:1048200078070020800700201003002004030020E8
:1048300000080020BC070020034B1B680360034BEB
:104840001B684360704700BFB4070020FC070020CE
:10485000F8B5C8B10C460546F9B100F073FC1B4B26
:1048600019686B68C81A2268B2F1FF3F26D0184E4B
:1048700036682F68B74201D08B4224D9824215D8BE
:104880000023236001241AE04FF0500383F31188C2
:10489000BFF36F8FBFF34F8FFEE74FF0500383F3EB
:1048A0001188BFF36F8FBFF34F8FFEE75B1A13447E
:1048B00023602846FFF7C0FF002400E0002400F03A
:1048C00063FC2046F8BD0124F9E700BFFC07002087
:1048D000B4070020014B01221A6070470008002035
:1048E000054B1B6833B1054B1B680BB100207047AB
:1048F0000220704701207047D00700207807002071
:1049000000283BD038B504461E4B1B68834208D0B4
:104910004FF0500383F31188BFF36F8FBFF34F8FB6
:10492000FEE7036D43B94FF0500383F31188BFF3E3
:104930006F8FBFF34F8FFEE7013B0365C16AC26C07
:1049400091421DD00BB1002038BD051D2846FEF751
:10495000B1FFE06CE062C0F13803A3610A4B1B6851
:10496000984201D9084B186000EB80002946074B9C
:1049700003EB8000FEF77AFF0120E5E70020704797
:104980000020E1E70403002080070020100300203E
:10499000064B1A6813682BB90123036023B9D36847
:1049A000186870470023F8E70020704704080020CB
:1049B00008B54160006191420CD8D21A83699A42CD
:1049C00001D3012008BD011D094B1868FEF759FFEE
:1049D0000020F7E79A4201D2994206D2011D054B09
:1049E0001868FEF74EFF0020ECE70120EAE700BF61
:1049F000080800200408002030B583B000F0A2FBB6
:104A0000114B1B681BB100F0BFFB03B030BD0F4D55
:104A10002846FEF71DFF0E4C2046FEF719FF0D4BF2
:104A20001D600D4B1C60002300930C4B0C4A1021A1
:104A30000A20FFF745F8044B18600028E3D0094925
:104A4000FFF762FADFE700BF28090020AC0800206A
:104A5000C00800200408002008080020D808002012
:104A60000C080020F86D000810B588B0FFF7C4FFEF
:104A7000124B1B68CBB100240594069407AA06A923
:104A800005A800F0C7F9059B0293069B019302233A
:104A900000932346079A0A490A48FFF7FBFB0A4B93
:104AA000186010B1012008B010BD4FF0500383F31F
:104AB0001188BFF36F8FBFF34F8FFEE728090020E7
:104AC000006E0008CD4D00082C090020B8B19C46AE
:104AD00003461848006858B300B585B000910192AC
:104AE000029305291CDCFFF7FBFE022810D00023EF
:104AF0001A4669460F480068FFF72CF815E04FF09A
:104B0000500383F31188BFF36F8FBFF34F8FFEE71E
:104B10000023069A694607480068FFF71BF804E07F
:104B2000002362466946FFF7D9F805B05DF804FB3B
:104B3000002070472809002070B582B01B4B1B680D
:104B40001A6862B3DB681E68DC68251D2846FEF71C
:104B5000B1FE236A2046984794F8283013F0040FDA
:104B6000ECD0A36933449E4207D263602461294696
:104B70000E4B1868FEF785FEE0E7002100910B461A
:104B800032462046FFF7A2FF0028D7D14FF050034E
:104B900083F31188BFF36F8FBFF34F8FFEE7044A93
:104BA000106802490860136002B070BD040800205C
:104BB0000808002038B50546FFF732FC0446074BCD
:104BC0001B68834205D800232B60044B1C602046E1
:104BD00038BDFFF7B1FF01232B60F6E7D4080020B2
:104BE00070B582B006460D4617490968C968CC6899
:104BF000201DFEF75FFE94F828C01CF0040F08D1BA
:104C00002CF0010C84F828C0236A2046984702B093
:104C100070BDA16933462A4631442046FFF7C8FEDD
:104C20000028F1D0002100910B4632462046FFF7C4
:104C30004DFF0028E8D14FF0500383F31188BFF3F4
:104C40006F8FBFF34F8FFEE70408002070B582B06E
:104C500006460C46FFF7DCFB01A8FFF7ABFF019B04
:104C600033BB05460CB9B04219D224B1124A1268BE
:104C70001268DAB901242246711B104B1868FFF73D
:104C800057F9FFF773FCA8B94FF0E0234FF08052BB
:104C9000C3F8042DBFF34F8FBFF36F8F0AE0FFF708
:104CA00065FC29463046FFF79BFF03E01C46E2E720
:104CB000FFF75CFC02B070BD080800202809002046
:104CC00010B588B002E0049B002B0FDA002204A983
:104CD0003D4B1868FFF769F8002873D0049B002B40
:104CE000F1DA07990698059B9847ECE7069C6369FB
:104CF00013B1201DFEF7DEFD03A8FFF75BFF049B49
:104D0000092BE3D8DFE803F005050530375005052A
:104D1000303794F8283043F0010384F82830059B9D
:104D2000A169024619442046FFF742FE0028CDD073
:104D3000236A2046984794F8283013F0040FC5D012
:104D4000A269002100910B46059802442046FFF716
:104D5000BDFE0028BAD14FF0500383F31188BFF392
:104D60006F8FBFF34F8FFEE794F8283023F00103D5
:104D700084F82830AAE794F8283043F0010384F837
:104D800028300599A16131B103460246014420460D
:104D9000FFF70EFE9AE74FF0500383F31188BFF33D
:104DA0006F8FBFF34F8FFEE794F8283013F0020F98
:104DB00004D023F0010384F8283087E7204600F070
:104DC00017F983E708B010BD2809002000B583B0AB
:104DD00001A8FFF7DDFD0199FFF738FFFFF770FF2E
:104DE000F6E708B54FF0E0231B69FFF779FD0128CE
:104DF00000D108BD00F016FAFBE70000034B03608A
:104E0000034B0B6080231360704700BF300B002002
:104E100030090020034B0360034B0B604FF4807399
:104E2000136070478C0F00208C0B0020124A12F088
:104E3000070F1ED0D11D21F00701C1F57053134497
:104E40000A460E480260002141601344083B23F0EB
:104E500007030B48036059601960991A5160136089
:104E6000084B1960084B1960084B4FF000421A605C
:104E700070474FF47053E4E7EC0F0020004C002023
:104E8000E80F0020F44B0020F04B0020EC4B0020FA
:104E9000164B1A461B688342FBD3516802EB010C88
:104EA000844509D0416800EB010C634509D00360DB
:104EB000904219D01060704740680144516010461C
:104EC000F0E710B40A4C2468A3420BD05B68194485
:104ED000416013681B680360904200D010605DF869
:104EE000044B70470460F7E7704700BF004C002098
:104EF000E80F002070B50546FFF78AFA364B1B68AD
:104F0000A3B1364B1B681D424ED135B1083515F0A3
:104F1000070F02D025F007050835002D46D0304B8D
:104F20001B68AB4251D32F4A146804E0FFF77EFFA1
:104F3000E7E722461C466368AB4202D22368002B97
:104F4000F7D1254B1B68A34241D016680836236869
:104F5000136063685B1B102B10D9601910F0070FEA
:104F600008D04FF0500383F31188BFF36F8FBFF366
:104F70004F8FFEE743606560FFF78AFF626818495C
:104F80000B689B1A0B60184909688B4201D21649BD
:104F90000B60124B1B681343636000232360134AAA
:104FA00013680133136002E0002600E00026FFF7DB
:104FB000DDFA16F0070F0CD04FF0500383F3118881
:104FC000BFF36F8FBFF34F8FFEE70026EFE700269A
:104FD000EDE7304670BD00BFE80F0020EC4B00202D
:104FE000F04B0020004C0020F44B0020F84B002038
:104FF000002834D038B50446A0F1080550F8043C28
:10500000174A1268134208D14FF0500383F31188F6
:10501000BFF36F8FBFF34F8FFEE750F8081C41B10D
:105020004FF0500383F31188BFF36F8FBFF34F8F9F
:10503000FEE723EA020340F8043CFFF7E9F954F8DD
:10504000041C084A13680B4413602846FFF720FF2E
:10505000054A136801331360FFF788FA38BD7047BB
:10506000EC4B0020F04B0020FC4B002082B00023D2
:1050700001930D4B1B68B3F1FF3F08D04FF0500375
:1050800083F31188BFF36F8FBFF34F8FFEE74FF0AD
:10509000500383F31188BFF36F8FBFF34F8F019BD2
:1050A000002BFCD002B070470C00002008480068BC
:1050B000006880F308884FF0000080F3148862B61F
:1050C00061B6BFF34F8FBFF36F8F00DF00BF0000EB
:1050D00008ED00E0DFF80C00016841F470010160A8
:1050E0007047000088ED00E04FF0807340F8043C0A
:1050F00021F0010140F8081C054B40F80C3C40F839
:10510000202C6FF0020340F8243C4438704700BF65
:105110006D500008000000000000000000000000CA
:10512000074B19680868B0E8F04F80F30988BFF3AF
:105130006F8F4FF0000080F311887047AFF300804D
:10514000040300204FF0500383F31188BFF36F8FE7
:10515000BFF34F8F0B4A136801331360012B00D04C
:1051600070474FF0E023D3F8043D13F0FF0FF7D062
:105170004FF0500383F31188BFF36F8FBFF34F8F4E
:10518000FEE700BF0C000020094B1B6843B94FF03D
:10519000500383F31188BFF36F8FBFF34F8FFEE788
:1051A000013B034A13600BB983F31188704700BFBA
:1051B0000C000020000000000000000000000000C3
:1051C000EFF30980BFF36F8F154B1A681EF0100FB5
:1051D00008BF20ED108A20E9F04F10602DE909008A
:1051E0004FF0500080F31188BFF34F8FBFF36F8FE4
:1051F000FFF75EFA4FF0000080F3118809BC1968D0
:105200000868B0E8F04F1EF0100F08BFB0EC108A2D
:1052100080F30988BFF36F8F704700BFAFF3008042
:105220000403002008B54FF0500383F31188BFF347
:105230006F8FBFF34F8FFFF70DF928B14FF0E023C9
:105240004FF08052C3F8042D002383F3118808BD6A
:105250004FF0E022002313619361054B1B68054961
:10526000A1FB03139B09013B5361072313617047A3
:1052700008000020D34D62104FF0E023D3F8002D3A
:105280003D4B9A421CD04FF0E023D3F8002D3B4B0E
:105290009A421ED030B583B0394B1A78D2B20192FF
:1052A000FF221A701B78DBB28DF803309DF80330B3
:1052B00003F05003334A1370334B07221A601BE08C
:1052C0004FF0500383F31188BFF36F8FBFF34F8FFD
:1052D000FEE74FF0500383F31188BFF36F8FBFF3E6
:1052E0004F8FFEE7284A1368013B13609DF8033097
:1052F0005B00DBB28DF803309DF8033013F0800FB4
:10530000F0D1214B1B68032B08D04FF0500383F3DF
:105310001188BFF36F8FBFF34F8FFEE71B021A4A4E
:10532000136003F4E0631360019BDBB2144A137053
:105330004FF0E024D4F8203D43F47003C4F8203D3E
:10534000D4F8203D43F07043C4F8203DFFF780FFC0
:1053500000250E4B1D60FFF7BDFED4F8343F43F02F
:105360004043C4F8343FFFF7A1FEFFF7A1F9FFF770
:105370007DFE284603B030BD71C20F4170C20F419F
:1053800000E400E0084C00200C4C00200C00002041
:10539000EFF305830F2B0FD9114A9B5CDBB2114A47
:1053A00012789A4208D94FF0500383F31188BFF363
:1053B0006F8FBFF34F8FFEE74FF0E023D3F80C3D24
:1053C00003F4E063084A1268934208D94FF050038F
:1053D00083F31188BFF36F8FBFF34F8FFEE77047E2
:1053E000F0E300E0084C00200C4C002010B5034610
:1053F0000C4A0D490D48006840B10C480068034450
:10540000521A934206D8094A136010BD0748084C47
:105410000460F2E700F062F80C2303604FF0FF3005
:10542000F3E700BF0000022000040000104C002041
:10543000284C002070B50C461646002506E0AFF358
:105440000080214601F8010B01350C46B542F6DB20
:10545000304670BD70B50C461646002504E014F8C1
:10546000010BFBF74FFE0135B542F8DB304670BD4E
:105470004FF0FF3070474FF400534B6000207047EF
:105480000120704700207047DFF834D0FEF7D6F9CE
:105490000C480D490D4A002302E0D458C45004338F
:1054A000C4188C42F9D30A4A0A4C002301E0136065
:1054B0000432A242FBD300F017F8FBF7E7FF704776
:1054C000000002200000002074000020B06E0008E0
:1054D00074000020244C0020FEE70000014B1868F7
:1054E000704700BF1000002070B50D4D0D4C641BBF
:1054F000A4100026A64209D10B4D0C4C01F0ECFB88
:10550000641BA4100026A64205D170BD55F8043BCB
:1055100098470136EEE755F8043B98470136F2E725
:10552000A86E0008A86E0008A86E0008AC6E0008FF
:105530000A44914200F1FF3300D1704710B511F8D1
:10554000014B03F8014F9142F9D110BD02440346CB
:10555000934200D1704703F8011BF9E70FB40A4BDF
:1055600013B51C6824B1A36913B9204600F05EFA94
:1055700005AB049AA1680193204600F067FC02B0D5
:10558000BDE8104004B070471000002070B50E4612
:10559000054618B183690BB900F048FAAB69AC68ED
:1055A00013B9284600F042FA2C4B9C4220D16C687B
:1055B000636EDB0705D4A389980502D4A06D00F0C3
:1055C000D3FAA38919071DD52369DBB1013EA3686E
:1055D00016F8011F013BA36039BB002B38DA2246C5
:1055E0000A21284600F048F8013011D00A2511E0C0
:1055F0001B4B9C4201D1AC68DAE71A4B9C4208BFB6
:10560000EC68D5E72146284600F088F80028DDD070
:105610004FF0FF35636EDA0705D4A3899B0502D4EA
:10562000A06D00F0A2FA284670BD002B04DAA26932
:105630009A4206DC0A2904D023685A1C2260197099
:10564000C5E72246284600F017F80130BFD1DFE752
:1056500023680A255A1C22601D70DBE72C6E0008A7
:105660004C6E00080C6E0008024B01461868FFF7EC
:105670008DBF00BF10000020F8B50E461446054649
:1056800018B183690BB900F0D1F9214B9C422BD1A1
:105690006C68A369A360A3891A072FD523696BB32C
:1056A00023692068C01A6369F6B28342374604DC76
:1056B0002146284600F026F930BBA368013BA360D1
:1056C00023685A1C22601E7063690130834204D033
:1056D000A389DB0706D50A2E04D12146284600F00F
:1056E00011F988B93846F8BD0A4B9C4201D1AC6823
:1056F000CFE7094B9C4208BFEC68CAE72146284621
:1057000000F00CF80028CBD04FF0FF37EAE700BFDD
:105710002C6E00084C6E00080C6E0008324B70B501
:105720001D6806460C4625B1AB6913B9284600F042
:105730007DF92E4B9C420FD16C68A389B4F90C20E3
:1057400019072CD4DD0611D40923336042F040033D
:10575000A3814FF0FF303EE0254B9C4201D1AC6865
:10576000EBE7244B9C4208BFEC68E6E7580712D5EC
:10577000616B41B104F14403994202D0304600F01C
:105780005BFA00236363A38923F02403A38100232E
:10579000636023692360A38943F00803A38123691D
:1057A0004BB9A38903F42073B3F5007F03D02146DE
:1057B000304600F001FAA089B4F90C2010F0010382
:1057C0000AD00023A36063695B42A361236943B9E4
:1057D00010F08000BAD170BD810758BF6369A36023
:1057E000F4E70020F7E700BF100000202C6E00084F
:1057F0004C6E00080C6E00088A892DE9F0410546C0
:1058000010070C4658D44B68002B05DC0B6C002BA2
:1058100002DC0020BDE8F081E66A002EF9D000230A
:1058200012F480522F682B6032D0606DA3895A0722
:1058300005D56368C01A636B0BB1236CC01A0023D3
:105840000246E66A216A2846B047431CA38906D16E
:1058500029681D292CD82A4ACA40D60728D50022F3
:105860006260D9042269226004D5421C01D12B68F0
:1058700003B96065616B2F600029CAD004F144034D
:10588000994202D0284600F0D7F900206063C1E7B2
:10589000216A01232846B047411CC7D12B68002B41
:1058A000C4D01D2B01D0162B01D12F60B1E7A389E5
:1058B00043F04003A381ADE70F69002FA9D0930700
:1058C0000E6808BF4B690F6018BF0023A6EB0708DE
:1058D0008B60B8F1000F9CDD216AA66A43463A4608
:1058E0002846B047002806DCA38943F04003A38183
:1058F0004FF0FF308EE70744A8EB0008E9E700BF50
:105900000100402038B50B6905460C4613B9002547
:10591000284638BD18B183690BB900F087F8144BDD
:105920009C421BD16C68B4F90C30002BEFD0626E36
:10593000D00704D4990502D4A06D00F015F92846CB
:105940002146FFF759FF636EDA070546E0D4A389C5
:105950009B05DDD4A06D00F008F9D9E7054B9C420A
:1059600001D1AC68DFE7044B9C4208BFEC68DAE782
:105970002C6E00084C6E00080C6E0008002310B559
:105980000446C0E90033C0E9043383608181436683
:10599000C2818361194608225C30FFF7D7FD054BB1
:1059A0006362054BA362054BE362054B24622363EC
:1059B00010BD00BFF5630008176400084F640008BD
:1059C00073640008014900F0AFB800BF0559000832
:1059D00070B568224D1E55430E4605F1740100F066
:1059E00097F9044640B10021C0E900160C30A060D0
:1059F00005F16802FFF7AAFD204670BD014800F0DE
:105A0000B3B800BF154C0020014800F0AEB800BF8D
:105A1000154C0020014800F0A7B800BF164C00202C
:105A2000014800F0A2B800BF164C002010B5044693
:105A3000FFF7F0FFA3691BB1BDE81040FFF7F0BF0F
:105A4000C4E912332365134B134A1B68A262A342B5
:105A500004BF0123A361204600F020F860602046C7
:105A600000F01CF8A060204600F018F80022E0606A
:105A700004216068FFF782FFA06801220921FFF777
:105A80007DFFE06802221221FFF778FF0123A36166
:105A9000D2E700BF086E0008C5590008F8B50746F0
:105AA000FFF7ACFF1E4B1E68B36913B93046FFF712
:105AB000BDFF4836D6E90134013B03D533680BB34B
:105AC0003668F7E7B4F90C50D5B9164BE36004F12A
:105AD0005800656600F047F8FFF796FFC4E90155E6
