:020000040800F2
:1000000000C00020A94A0008A90C0008AB0C000899
:10001000AD0C0008AF0C0008B10C00080000000097
:100020000000000000000000000000004147000840
:10003000B30C000800000000E1470008B50C000800
:10004000F94A0008F94A0008F94A0008F94A000884
:10005000F94A0008F94A0008F94A0008F94A000874
:10006000F94A0008F94A0008F94A0008F94A000864
:10007000F94A0008F94A0008F94A0008F94A000854
:10008000F94A0008F94A0008F94A0008F94A000844
:10009000F94A0008F94A0008F94A0008F94A000834
:1000A000F94A0008F94A0008F94A0008F94A000824
:1000B000F94A00080000000000000000F94A0008AA
:1000C000F94A00080000000000000000F94A00089A
:1000D00000000000F94A0008F94A0008000000008A
:1000E000F94A0008F94A000800000000000000007A
:1000F0000000000000000000000000000000000000
:10010000000000000000000000000000F94A0008A4
:100110000000000000000000F94A0008F94A000849
:10012000F94A0008F94A0008F94A0008F94A0008A3
:10013000F94A000800000000000000000000000074
:10014000F94A0008F94A0008F94A0008F94A000883
:10015000F94A0008F94A0008F94A0008F94A000873
:10016000F94A0008F94A0008F94A000800000000AE
:10017000F94A0008F94A00080000000000000000E9
:10018000F94A0008F94A0008F94A0008000000008E
:1001900010B5054C237833B9044B13B10448AFF3C1
:1001A00000800123237010BD7800002000000000B3
:1001B000845B000808B5034B1BB103490348AFF348
:1001C000008008BD000000007C000020845B000867
:1001D00001F0FF01102A2BDB10F0070F08D010F8F8
:1001E000013B013A8B422DD010F0070F42B3F6D1FC
:1001F000F0B441EA012141EA014122F007047FF015
:1002000000070023F0E80256083C85EA010586EA6B
:10021000010685FA47F5A3FA87F586FA47F6A5FAA7
:1002200087F68EB9EED1F0BC01F0FF0102F00702B3
:1002300032B110F8013B013A83EA010313B1F8D15E
:100240000020704701387047002D06BF354603383F
:10025000073815F0010F07D1013015F4807F02BF78
:10026000013015F4C03F0130F0BC0138704700BFC9
:1002700053B94AB9002908BF00281CBF4FF0FF310D
:100280004FF0FF3000F074B9ADF1080C6DE904CE09
:1002900000F006F8DDF804E0DDE9022304B0704761
:1002A0002DE9F047089D04468E46002B4DD18A4229
:1002B000944669D9B2FA82F252B101FA02F3C2F15C
:1002C000200120FA01F10CFA02FC41EA030E9440ED
:1002D0004FEA1C48210CBEFBF8F61FFA8CF708FB0E
:1002E00016E341EA034306FB07F199420AD91CEBE6
:1002F000030306F1FF3080F01F81994240F21C8118
:10030000023E63445B1AA4B2B3FBF8F008FB10335F
:1003100044EA034400FB07F7A7420AD91CEB040494
:1003200000F1FF3380F00A81A74240F20781644464
:10033000023840EA0640E41B00261DB1D4400023E9
:10034000C5E900433146BDE8F0878B4209D9002D4D
:1003500000F0EF800026C5E9000130463146BDE8D7
:10036000F087B3FA83F6002E4AD18B4202D3824241
:1003700000F2F980841A61EB030301209E46002DF0
:10038000E0D0C5E9004EDDE702B9FFDEB2FA82F245
:10039000002A40F09280A1EB0C014FEA1C471FFAA3
:1003A0008CFE0126200CB1FBF7F307FB131140EA8A
:1003B00001410EFB03F0884208D91CEB010103F157
:1003C000FF3802D2884200F2CB804346091AA4B219
:1003D000B1FBF7F007FB101144EA01440EFB00FEED
:1003E000A64508D91CEB040400F1FF3102D2A64552
:1003F00000F2BB800846A4EB0E0440EA03409CE7F1
:10040000C6F12007B34022FA07FC4CEA030C20FA9D
:1004100007F401FA06F31C43F9404FEA1C4900FABD
:1004200006F3B1FBF9F8200C1FFA8CFE09FB18113A
:1004300040EA014108FB0EF0884202FA06F20BD9AD
:100440001CEB010108F1FF3A80F08880884240F2FD
:100450008580A8F102086144091AA4B2B1FBF9F041
:1004600009FB101144EA014100FB0EFE8E4508D93C
:100470001CEB010100F1FF346CD28E456AD90238C1
:10048000614440EA0840A0FB0294A1EB0E01A142A6
:10049000C846A64656D353D05DB1B3EB080261EB14
:1004A0000E0101FA07F722FA06F3F1401F43C5E9EE
:1004B000007100263146BDE8F087C2F12003D84024
:1004C0000CFA02FC21FA03F3914001434FEA1C4766
:1004D0001FFA8CFEB3FBF7F007FB10360B0C43EA58
:1004E000064300FB0EF69E4204FA02F408D91CEB08
:1004F000030300F1FF382FD29E422DD90238634406
:100500009B1B89B2B3FBF7F607FB163341EA0341A5
:1005100006FB0EF38B4208D91CEB010106F1FF38F4
:1005200016D28B4214D9023E6144C91A46EA0046EB
:1005300038E72E46284605E70646E3E61846F8E67D
:100540004B45A9D2B9EB020864EB0C0E0138A3E7C6
:100550004646EAE7204694E74046D1E7D0467BE7A7
:10056000023B614432E7304609E76444023842E71F
:10057000704700BF70B588B00024039404940594BC
:1005800006940794284BDA6C42F00402DA64DA6CC1
:1005900002F004020092009ADA6C42F00102DA647E
:1005A000DA6C02F001020192019ADA6C42F0020266
:1005B000DA64DB6C03F002030293029B224641F2F1
:1005C000D0014FF0904001F0A8FC184D22462B219D
:1005D000284601F0A2FC082303930494059403A980
:1005E0004FF0904001F0BAFB41F2D0030393012693
:1005F00004960594069403A94FF0904001F0AEFBD9
:100600002B23039304960594069403A9284601F02E
:10061000A5FBD02303930494059603A9284601F073
:100620009DFB08B070BD00BF0010024000040048F0
:1006300008B50A4804F028FB094801F05BFE0022D7
:100640002021084801F069FC00F024FA00F0BEFA0D
:100650004FF47A7003F020FBF6E700BFA05B0008C0
:10066000E40000200004004870B582B00C46079DED
:100670000195069E009603F062F9012806D02146F6
:10068000074804F07BFA012002B070BD286803F02F
:10069000E7F90146034804F071FA0020F4E700BFCF
:1006A000C05B0008B05B000800B583B001904FF656
:1006B000FF73012201A9034802F0E2FA019803B096
:1006C0005DF804FBB801002072B6FEE710B59AB0E1
:1006D0000024169417941894199413941494159450
:1006E0000C940D940E940F941094119412942C2247
:1006F000214601A804F03AFA3148324B0360B32393
:100700004360846042F20F73C3600461446184619A
:1007100001F064FE002845D14FF48053169316A9CA
:10072000274801F0A1FF00283ED1254801F086FEB0
:1007300000283BD1002313931493159313A9204849
:1007400002F012F8002833D160230C9300220D929E
:100750000E920F921092119212920CA9184801F069
:10076000D9FE38BB0C220CA9154801F0D3FE18BBEA
:100770000023019302930393049305934FF40052D3
:100780000692079308934FF0007209920A930B9315
:1007900001A90B4802F020F880B9094800F0DCFA02
:1007A0001AB010BDFFF790FFFFF78EFFFFF78CFF29
:1007B000FFF78AFFFFF788FFFFF786FFFFF784FF49
:1007C00098000020002C014000B585B00023019363
:1007D000029303930D480E4A0260472242608360F1
:1007E0004FF6FF72C260836101F0F8FD50B900233B
:1007F0000193039301A9054801F0B6FF20B905B0A4
:100800005DF804FBFFF760FFFFF75EFFE4000020E8
:100810000010004008B50B480B4B03604FF4E13368
:10082000436000238360C36003610C2242618361E3
:10083000C3610362436202F0EAFA00B908BDFFF740
:1008400043FF00BF300100200038014008B50B48CD
:100850000B4B03604FF4E133436000238360C360BC
:1008600003610C2242618361C3610362436202F04F
:10087000CEFA00B908BDFFF727FF00BFB80100207E
:100880000044004000B597B04422002105A804F0C0
:100890006DF90023009301930293039304934FF4A3
:1008A000007001F04FFB002831D101F03BFB1B4AE7
:1008B000D2F8903023F01803C2F890301423059337
:1008C000012307930B9300220C9260220D920222C7
:1008D0000F921093119324231293072313931492CE
:1008E000159205A800F0E4FB98B90F2300930323A9
:1008F000019300230293039304930421684600F0BC
:100900000DFF40B901F022FA17B05DF804FBFFF7C4
:10091000DBFEFFF7D9FEFFF7D7FE00BF0010024055
:1009200000B583B000F0ECFAFFF7ACFFFFF722FE52
:10093000FFF7CCFEFFF748FFFFF76CFFFFF786FFDE
:10094000094804F0A1F9094B019305230093002302
:100950004FF4007206490748FFF786FE064804F088
:1009600093F903F021F8FEE7D85B0008940000201B
:10097000E45B000831060008EC5B000808B50F488E
:1009800004F082F9002201210D4801F0C6FA00228C
:1009900080214FF0904001F0C0FA002240214FF03A
:1009A000904001F0BAFA002210214FF0904001F07F
:1009B000B4FA044B00221A7008BD00BF085C00089E
:1009C000000400484002002008B50F4804F05CF91C
:1009D000012211460D4801F0A0FA002280214FF0BB
:1009E000904001F09AFA012240214FF0904001F02E
:1009F00094FA002210214FF0904001F08EFA044B3F
:100A000001221A7008BD00BF185C000800040048ED
:100A10004002002008B50D4804F036F900220121FB
:100A20000B4801F07AFA002280214FF0904001F04B
:100A300074FA012240214FF0904001F06EFA00223A
:100A400010214FF0904001F068FA08BD305C0008BA
:100A50000004004808B50D4804F016F901221146BB
:100A60000B4801F05AFA002280214FF0904001F02B
:100A700054FA002240214FF0904001F04EFA00223B
:100A800010214FF0904001F048FA08BD445C000886
:100A90000004004810B51E4804F0F6F81D4B1B7802
:100AA00003B110BD10211C4801F030FA044600B11A
:100AB00001248021184801F029FA034600B10123DE
:100AC000012C0ED0012C01D0012B12D0012C01D110
:100AD000012B14D0114804F0D7F80E4B03221A70E2
:100AE000DFE7012BEED00E4804F0CEF8FFF7B2FF9F
:100AF000D7E70C4804F0C8F8FFF78CFFD1E70A48A5
:100B000004F0C2F8FFF760FF024B00221A70C8E73A
:100B1000585C00084102002000040048A05C000866
:100B20006C5C00087C5C00088C5C0008024B1B6855
:100B300058631864704700BF9800002008B50E483D
:100B400004F0A2F80D4B42F20F721A8008E0FFF792
:100B5000EDFF012000F0F6F9084A13880A331380EC
:100B6000064B188842F20F739842F0D9FFF72CFF1A
:100B7000034B01221A7008BDB05C00080000002081
:100B80004002002008B50E4804F07EF80D4B42F2FA
:100B90000F721A8008E0FFF7C9FF012000F0D2F9B8
:100BA000084A13880A3B1380064B188842F20E73DA
:100BB0009842F0D8FFF7E2FE034B00221A7008BDFE
:100BC000C45C0008000000204002002010B50A218B
:100BD0002F4803F0D3FF2F4B1B78032B50D8DFE8AF
:100BE00003F00D020E182C4804F04EF800220221EA
:100BF0002A4801F092F9274B02221A7010BD4FF4D7
:100C0000FA6000F09FF9FFF799FF224B00221A705B
:100C1000F4E7FFF7B7FF4FF4FA6000F093F9204BC9
:100C20001B78BBB908214FF0904001F06FF9012803
:100C300003D0184B03221A70E0E7194B01221A70F7
:100C4000FFF77CFF40F2DC5000F07CF9114B0022F2
:100C50001A70D3E708214FF0904001F057F918B10E
:100C60000C4B03221A70C9E700240D4B1C70FFF7D0
:100C700065FF40F2DC5000F065F9064B1C70BDE7E3
:100C8000084804F001F8034B00221A70B6E700BFD1
:100C9000D45C000841020020FC5C0008000400480D
:100CA00042020020205D0008FEE7FEE7FEE7FEE7C7
:100CB000FEE7704708B500F033F903F02BF901287F
:100CC00000D108BD03F0BEFDFBE7000000B583B016
:100CD0000D4B1A6E42F001021A661A6E02F0010202
:100CE0000092009A9A6D42F080529A659B6D03F0D3
:100CF00080530193019B00220F216FF0010001F04E
:100D00007BF903B05DF804FB0010024082B0036879
:100D10000E4A934204D00E4A93420CD002B0704760
:100D20000C4B1A6E42F400621A661B6E03F40063E9
:100D30000093009BF2E7074B9A6D42F010029A6510
:100D40009B6D03F010030193019BE7E7002C01402A
:100D5000001000400010024000B587B0002301934E
:100D6000029303930493059302680F4B9A4202D0B7
:100D700007B05DF804FB03F56443DA6C42F001024E
:100D8000DA64DB6C03F001030093009B4FF4106303
:100D90000193022302930123059301A94FF0904090
:100DA00000F0DCFFE4E700BF002C014070B59EB00E
:100DB0000446002119911A911B911C911D915422F6
:100DC00004A803F0D3FE2368364A934204D0364A7F
:100DD00093422ED01EB070BD0123049304A800F0EE
:100DE00041FE18BB314B1A6E42F480421A661A6EED
:100DF00002F480420092009ADA6C42F00102DA6456
:100E0000DB6C03F001030193019B4FF4C063199362
:100E100002231A9300231B9303231C9307231D9380
:100E200019A94FF0904000F099FFD3E7FFF74CFC71
:100E3000D8E70223049304A800F014FE00282ED162
:100E40001A4B9A6D42F400329A659A6D02F40032A0
:100E50000292029ADA6C42F00102DA64DB6C03F06F
:100E600001030393039B0423199302261A9600257A
:100E70001B9503241C9407231D9319A94FF0904040
:100E800000F06CFF4FF4004319931A961B951C94C5
:100E90001D9419A94FF0904000F060FF9AE7FFF70A
:100EA00013FCCDE700380140004400400010024030
:100EB000104B1B780BB90120704710B504464FF456
:100EC0007A70B0FBF3F30C4A1068B0FBF3F001F05A
:100ED000CBF868B90F2C01D901200AE00022214685
:100EE0004FF0FF3001F088F8044B1C60002000E058
:100EF000012010BD02000020080000200400002096
:100F000010B5032001F066F80F20FFF7D1FF10B1F4
:100F10000124204610BD0446FFF7D8FEF9E7000083
:100F2000034B1B78034A11680B441360704700BFE2
:100F30000200002044020020014B1868704700BFE7
:100F40004402002038B50446FFF7F6FF0546B4F129
:100F5000FF3F02D0044B1B781C44FFF7EDFF401B02
:100F6000A042FAD338BD00BF0200002030B583B0E4
:100F70000446204B9B6D13F0805F0BD000F0DAFF2E
:100F8000B0F5007F17D0802C1FD82DD0702C2DD01D
:100F900000211BE0174DAB6D43F08053AB65AB6D8B
:100FA00003F080530193019B00F0C4FFAB6D23F06D
:100FB0008053AB65E4E7802C03D9A02C03D9022130
:100FC00004E0002102E0012100E003210A4A136845
:100FD00023F007030B431360136803F007038B42EE
:100FE00006D1002003B030BD0221EFE70121EDE77B
:100FF0000120F7E70010024000200240284A9368D1
:10100000D26802F0030213F00C030AD00C2B06D0B6
:10101000042B1FD0082B20D00020024610E0012A0C
:10102000F6D11F4A126812F0080F0CD11C4AD2F8F0
:101030009420C2F303221B4951F8222043B100201F
:101040000C2B0DD07047164A1268C2F30312F2E758
:101050001046F5E714480022F2E714480022EFE7B3
:101060000F4BDB6803F00303022B16D0032B00D1D8
:101070000E4A0B49C868C0F30210431CC868C0F38D
:10108000062002FB00F0B0FBF3F0CB68C3F3416332
:1010900001335B00B0FBF3F0D4E7034AE9E700BF9C
:1010A00000100240545D00080024F40000127A0091
:1010B000002800F01C83F0B583B00446964B9D6871
:1010C00005F00C05DE6806F00306036813F0100F48
:1010D0005AD0E5B10C2D18D0A369002B00F0BB80CD
:1010E0008D4A136843F001031360FFF725FF07469D
:1010F000894B1B6813F0020F40F09A80FFF71CFF2A
:10110000C01B0228F4D90320FCE2012EE4D1824B5B
:101110001B6813F0020F03D0A369002B00F0E982D3
:10112000206A7D4B1B6813F0080F5BD07A4B1B685D
:1011300003F0F00398425CD8774B1A6842F008023B
:101140001A601A6822F0F002216A0A431A605A688B
:1011500022F47F42E16942EA01225A60002D60D008
:10116000FFF74CFF6C4B9B68C3F303136B4AD35CD4
:1011700003F01F03D8406A4B18606A4B1868FFF7EA
:1011800097FE002840F0BE82236813F0010F00F0A4
:101190008180082D75D00C2D71D06368B3F5803F28
:1011A00000F09780B3F5A02F00F099805A4B1A6891
:1011B00022F480321A601A6822F480221A6063686E
:1011C000002B00F09980FFF7B7FE0746524B1B68D3
:1011D00013F4003F5ED1FFF7AFFEC01B6428F5D9C2
:1011E00003208FE24C4BD3F894301B0903F0F0033B
:1011F000A0E7FFF7BBFE002840F07D82464B1A684F
:1012000042F008021A601A6822F0F002216A0A43CA
:101210001A605A6822F47F42E16942EA01225A6068
:101220009EE7206AFFF7A2FE002899D0012069E21C
:10123000394B1A6842F008021A601A6822F0F0026C
:10124000216A0A431A605A6822F47F42E16942EA3D
:1012500001225A6098E7304A136823F001031360B3
:10126000FFF76AFE07462C4B1B6813F0020F8BD06A
:10127000FFF762FEC01B0228F5D9032042E2032ECD
:101280008BD1254B1B6813F4003F03D06368002B00
:1012900000F03382236813F0020F58D0042D45D09C
:1012A0000C2D41D0E368002B77D01B4A136843F420
:1012B00080731360FFF740FE0646174B1B6813F45C
:1012C000806F61D1FFF738FE801B0228F5D903201B
:1012D00018E2114A136843F4803313606FE703F197
:1012E0008043A3F53C331A6842F480221A601A68DE
:1012F00042F480321A6062E7FFF71EFE0746064B93
:101300001B6813F4003FC5D0FFF716FEC01B64280E
:10131000F5D90320F6E100BF001002403C5D000853
:101320000800002004000020022EBBD1A44B1B6843
:1013300013F4806F03D0E368002B00F0E081A04A33
:10134000536823F0F853216943EA0163536023682B
:1013500013F0080F4CD063699BB3994AD2F89430CC
:1013600043F00103C2F89430FFF7E6FD0646944BC4
:10137000D3F8943013F0020F3AD1FFF7DDFD801B54
:101380000228F4D90320BDE18D4A536823F0F853B5
:10139000216943EA01635360D9E7894A136823F45A
:1013A00080731360FFF7C8FD0646854B1B6813F476
:1013B000806FCCD0FFF7C0FD801B0228F5D9032039
:1013C000A0E17F4AD2F8943023F00103C2F89430B0
:1013D000FFF7B2FD06467A4BD3F8943013F0020FB4
:1013E00006D0FFF7A9FD801B0228F4D9032089E16C
:1013F000236813F0040F7AD0714B9B6D13F0805F5C
:1014000036D16F4B9A6D42F080529A659B6D03F016
:1014100080530193019B01266A4B1B6813F4807F64
:1014200028D0A368012B39D0052B3FD0644BD3F8CB
:10143000902022F00102C3F89020D3F8902022F0EF
:101440000402C3F89020A368002B3DD0FFF774FD81
:1014500007465B4BD3F8903013F0020F46D1FFF7ED
:101460006BFDC01B41F288339842F2D9032049E159
:101470000026D1E7534A136843F480731360FFF7E3
:101480005BFD07464F4B1B6813F4807FC9D1FFF704
:1014900053FDC01B0228F5D9032033E1484AD2F896
:1014A000903043F00103C2F89030CCE7444BD3F8BE
:1014B000902042F00402C3F89020D3F8902042F02C
:1014C0000102C3F89020BEE7FFF736FD07463C4B0C
:1014D000D3F8903013F0020F08D0FFF72DFDC01B9A
:1014E00041F288339842F2D903200BE1E6B9236830
:1014F00013F0200F35D0636AE3B1314AD2F8983047
:1015000043F00103C2F89830FFF716FD06462C4B56
:10151000D3F8983013F0020F23D1FFF70DFD801B95
:101520000228F4D90320EDE0254A936D23F080537F
:101530009365DCE7224AD2F8983023F00103C2F821
:101540009830FFF7F9FC06461D4BD3F8983013F09E
:10155000020F06D0FFF7F0FC801B0228F4D903200D
:10156000D0E0A36A002B00F0CC80022B17D00C2D0A
:1015700000F0CC80124A136823F080731360FFF7E9
:10158000DBFC04460E4B1B6813F0007F00F0A880C4
:10159000FFF7D2FC001B0228F4D90320B2E0084B6D
:1015A000DB6803F00301E26A91420DD00C2D00F0DC
:1015B000AB80034B1B6813F0806F2FD00120A1E09C
:1015C000001002400070004003F07002216B0139EE
:1015D000B2EB011FEAD103F4FE42616BB2EB012FC3
:1015E000E4D103F07842A16BB2EBC16FDED103F41A
:1015F000C001E26B5208013AB1EB425FD6D103F071
:10160000C063226C5208013AB3EB426FCED1404B1B
:101610001B6813F0007F49D0002073E03C4A136838
:1016200023F080731360FFF787FC0546384B1B6877
:1016300013F0007F06D0FFF77FFC401B0228F5D98E
:1016400003205FE0324AD36832491940E36A206BD5
:10165000013843EA0013606B43EA0023E06B400863
:10166000013843EA4053206C4008013843EA4063A4
:10167000A06B43EAC0630B43D360136843F08073ED
:101680001360D36843F08073D360FFF755FC0446C2
:101690001F4B1B6813F0007F06D1FFF74DFC001BAA
:1016A0000228F5D903202DE000202BE0184B1A6802
:1016B00042F080721A60DA6842F08072DA60FFF7F6
:1016C0003BFC0446124B1B6813F0007F06D1FFF76A
:1016D00033FC031B022BF5D9032013E0002011E09B
:1016E0000B4AD1680C4B0B40D36000200AE001206C
:1016F0007047012006E0012004E0012002E0012003
:1017000000E0002003B0F0BD0120FBE70120F9E775
:10171000001002408C809D01FCFFEEFE002800F0CE
:10172000AF8070B50D460446594B1B6803F00703A4
:101730008B420BD2564A136823F007030B43136006
:10174000136803F007038B4240F09C80236813F07A
:10175000020F0CD0A2684F4B9B6803F0F0039A4233
:1017600005D94C498B6823F0F0031A438A6023683B
:1017700013F0010F39D06368032B09D0022B26D058
:1017800063BB444A126812F0020F06D1012076E0D2
:10179000404A126812F0007F76D03E498A6822F0F3
:1017A000030213438B60FFF7C7FB0646394B9B6868
:1017B00003F00C036268B3EB820F16D0FFF7BCFB9B
:1017C000801B41F288339842F0D9032057E0314A18
:1017D000126812F4003FE0D1012050E02D4A126857
:1017E00012F4806FD9D1012049E0236813F0020F71
:1017F0000CD0A268274B9B6803F0F0039A4205D2F5
:1018000024498B6823F0F0031A438A60204B1B683D
:1018100003F00703AB420AD91D4A136823F00703FC
:101820002B431360136803F00703AB422ED12368E8
:1018300013F0040F06D0174A936823F4E063E168BD
:101840000B439360236813F0080F07D0114A936885
:1018500023F46053216943EAC1039360FFF7CEFB91
:101860000C4B9B68C3F303130B4AD35C03F01F03B9
:10187000D8400A4B18600A4B1868FFF719FB70BD77
:10188000012070470120FAE70120F8E70120F6E780
:1018900000200240001002403C5D000808000020CB
:1018A00004000020014B1868704700BF08000020AA
:1018B00008B5FFF7F7FF054B9B68C3F30223044A03
:1018C000D35C03F01F03D84008BD00BF00100240E6
:1018D0004C5D000808B5FFF7E5FF054B9B68C3F3B7
:1018E000C223044AD35C03F01F03D84008BD00BFE5
:1018F000001002404C5D0008F8B504460F46584BF6
:10190000DB6813F0030F18D0554BDB6803F00303BB
:101910000268934202D001252846F8BD002A00F053
:101920009D804F4BDB68C3F302130133426893423F
:1019300001D00125F0E7002509E00368022B56D00D
:10194000032B5BD0012B41D00125002DE4D1444A6B
:10195000136823F080631360FFF7EEFA0646404BEE
:101960001B6813F0006F05D0FFF7E6FA831B022B0C
:10197000F5D90325002DCFD1002F4DD138490B6962
:1019800023F0784323F4FE43A068E268D20642EADB
:10199000002213430B61324A136843F080631360E3
:1019A000FFF7CAFA06462E4B1B6813F0006F05D1ED
:1019B000FFF7C2FA831B022BF5D90325002DABD10B
:1019C000274A1369A1690B431361A5E7244A1268EA
:1019D00012F0020F1ED02248C26822F07302616822
:1019E000013943EA01131343C3600025ADE71C4AE4
:1019F000126812F4806FEED10125A6E7184A12682A
:101A000012F4003FE7D1164A126812F4802FE2D197
:101A100001259AE7012598E7012F0FD010480269A8
:101A200022F0C06222F4FE42A16863695B08013BB8
:101A30005B0643EA012313430361ACE708480269EC
:101A400022F4C00222F4FE42A16823695B08013B34
:101A50005B0543EA0123134303619CE701255BE730
:101A6000001002402DE9F04182B00446036813F4EF
:101A7000006F25D0C36BB3F5000F06D0B3F5400F50
:101A800012D04BB1012637461CE0AE4AD36843F46E
:101A90008033D360002708E000210430FFF72CFFDB
:101AA000074610B106460DE00027A64AD2F8883056
:101AB00023F44003E16B0B43C2F88830002601E0B9
:101AC00000263746236813F4003F6BD09D4B9B6D77
:101AD00013F0805F4CD19B4B9A6D42F080529A6517
:101AE0009B6D03F080530193019B4FF00108964AD0
:101AF000136843F480731360FFF71EFA0546924B98
:101B00001B6813F4807F05D1FFF716FA401B0228EB
:101B1000F5D90327002F40D18A4BD3F8903013F426
:101B2000407315D0226D9A4212D0864AD2F8903076
:101B300023F44073D2F8901041F48031C2F8901031
:101B4000D2F8901021F48031C2F89010C2F8903091
:101B500013F0010F0FD1002F40F0C980794AD2F85D
:101B6000903023F44073216D0B43C2F8903015E0A0
:101B70004FF00008BBE7FFF7DFF90546714BD3F8DC
:101B8000903013F0020FE6D1FFF7D6F9401B41F277
:101B900088339842F2D90327DDE73E46B8F1000FBB
:101BA00040F0A780236813F0010F08D0654AD2F8EF
:101BB000883023F00303216A0B43C2F8883023687E
:101BC00013F0020F08D05F4AD2F8883023F00C03DC
:101BD000616A0B43C2F88830236813F0200F08D0E5
:101BE000584AD2F8883023F44063A16A0B43C2F804
:101BF0008830236813F4007F08D0524AD2F8883026
:101C000023F44023616B0B43C2F88830236813F43C
:101C1000806F08D04B4AD2F8883023F44013A16B70
:101C20000B43C2F88830236813F0400F08D0454AB0
:101C3000D2F8883023F44053E16A0B43C2F888306D
:101C4000236813F4807F08D03E4AD2F8883023F40A
:101C50004033216B0B43C2F88830236813F4005FD4
:101C60000FD0384AD2F8883023F04063216C0B4300
:101C7000C2F88830236CB3F1006F40D0B3F1806FAD
:101C800042D0236813F4802F0FD02E4AD2F8883028
:101C900023F04063616C0B43C2F88830636CB3F18E
:101CA000006F39D0B3F1806F3BD0236813F4804FBD
:101CB0000CD0244AD2F8883023F04053A16C0B4357
:101CC000C2F88830A36CB3F1805F32D0236813F47C
:101CD000004F08D01B4AD2F8883023F08043E16CD3
:101CE0000B43C2F88830304602B0BDE8F0813E4672
:101CF00054E7144A936D23F08053936552E7D368F9
:101D000043F48013D360BCE70121201DFFF7F4FDED
:101D10000028B6D00646B4E7D36843F48013D360F6
:101D2000C3E70121201DFFF7E7FD0028BDD00646CF
:101D3000BBE70221201DFFF7DFFD0028C6D00646C5
:101D4000C4E700BF0010024000700040024A136860
:101D500043F004031360704700100240F0B583B0F5
:101D6000002362E085685E000324B44025EA040590
:101D7000CC68B4402C438460446824EA0C0C4C6862
:101D8000C4F300149C4044EA0C0444605EE0DD08A7
:101D9000083550F8256003F007044FEA840C0F243F
:101DA00004FA0CF426EA040E0C6904FA0CF444EA72
:101DB0000E0440F8254060E0022400E0002404FA0C
:101DC0000EF42C430CF1020C4C4D45F82C404C4CBD
:101DD000A568D44325EA02064F6817F4801F01D096
:101DE00042EA0506464DAE60ED6804EA05064F6816
:101DF00017F4001F01D042EA0506414DEE606D6800
:101E000004EA05064F6817F4003F01D042EA0506D0
:101E10003B4D6E602D682C404E6816F4803F01D01B
:101E200042EA0504364A146001330A6832FA03F4C0
:101E300062D04FF0010C0CFA03FC1CEA0202F3D052
:101E40004C6804F00304013C012C8BD94C6804F06D
:101E50000304032C0CD0C4685D004FF0030C0CFA93
:101E600005FC24EA0C0C8C68AC4044EA0C04C46009
:101E70004C6804F00304022C89D004684FEA430E36
:101E80004FF0030C0CFA0EFC24EA0C0C4C6804F026
:101E9000030404FA0EF444EA0C0404604C6814F4DD
:101EA000403FC1D0174C256E45F001052566246ED4
:101EB00004F001040194019C4FEA930C0CF102051B
:101EC0000E4C54F8255003F003044FEA840E0F24FF
:101ED00004FA0EF425EA0405B0F1904F3FF46EAF1A
:101EE000094CA04206D004F58064A0423FF464AFE0
:101EF000072464E7012462E703B0F0BD000001405D
:101F00000004014000100240000400480369194227
:101F100001D001207047002070470AB181617047ED
:101F200081627047024A136843F4807313607047FC
:101F300000700040024B186800F4C060704700BF9A
:101F400000700040B0F5007F0FD01F4B1B6803F4FA
:101F5000C063B3F5806F34D01B4A136823F4C063A9
:101F600043F48063136000207047174B1B6803F431
:101F7000C063B3F5007F20D0134A136823F4C06315
:101F800043F400731360114B1B68322202FB03F30E
:101F90000F4AA2FB03239B0C013300E0013B0A4ADA
:101FA000526912F4806F01D0002BF7D1064B5B69A8
:101FB00013F4806F03D10020704700207047032086
:101FC00070470020704700BF0070004008000020EC
:101FD00083DE1B43074AD36823F4E0631B041B0C16
:101FE000000200F4E060034343F0BF6343F40033B6
:101FF000D360704700ED00E000B5194BDB68C3F318
:102000000223C3F1070CBCF1040F28BF4FF0040CEE
:1020100003F1040EBEF1060F18D9033B4FF0FF3E4B
:102020000EFA0CFC21EA0C0199400EFA03F322EAA5
:102030000303194300280BDB0901C9B200F160401A
:1020400000F5614080F800135DF804FB0023E5E72C
:1020500000F00F000901C9B2024B1954F4E700BFA8
:1020600000ED00E014ED00E00138B0F1807F0BD20C
:102070004FF0E0235861054AF02182F82310002038
:10208000986107221A6170470120704700ED00E057
:1020900030B4036A026A22F0010202624568826972
:1020A00022F4803222F073020C68224323F00203F0
:1020B0008C682343154CA04207D004F5A054A042DD
:1020C00003D004F58064A04205D123F00803CC6856
:1020D000234323F004030D4CA04207D004F5A05481
:1020E000A04203D004F58064A04207D125F4407CCF
:1020F0004C6944EA0C0C8D6945EA0C054560826127
:102100004A684263036230BC704700BF002C014044
:1021100030B4036A026A22F4807202624468C269BF
:1021200022F4803222F073020D682A4323F40073F4
:102130008D6843EA0523124DA84219D0104DA842DC
:1021400007D005F5A055A84203D005F58065A84243
:1021500007D124F440544D6944EA05148D6944EADA
:1021600005144460C2614A68C263036230BC7047B0
:1021700023F40063CD6843EA052323F48063DDE79D
:10218000002C014030B4026A036A23F480530362D6
:102190004468C36923F0807323F4E6430D6843EA7F
:1021A000052322F400528D6842EA05320B4DA84205
:1021B00007D005F5A055A84203D005F58065A842D3
:1021C00004D124F480444D6944EA85144460C36119
:1021D0004B680364026230BC704700BF002C0140B2
:1021E00030B4036A026A22F4803202624468426DAB
:1021F00022F4803222F070020D682A4323F4003367
:102200008D6843EA05430B4DA84207D005F5A0555C
:10221000A84203D005F58065A84204D124F4803497
:102220004D6944EA0524446042654A688265036258
:1022300030BC7047002C014030B4026A036A23F4BA
:10224000801303624468436D23F0807323F4E043FA
:102250000D6843EA052322F400128D6842EA055214
:102260000B4DA84207D005F5A055A84203D005F5AF
:102270008065A84204D124F480244D6944EA852471
:10228000446043654B68C365026230BC704700BF61
:10229000002C014010B4036A046A24F001040462B3
:1022A000846924F0F00C4CEA021223F00A030B4379
:1022B000826103625DF8044B704710B4036A046ADC
:1022C00024F010040462846924F4704C4CEA023255
:1022D00023F0A00343EA0113826103625DF8044B1B
:1022E0007047836823F070030B4343F00703836058
:1022F0007047000090F83D30DBB2012B21D1022362
:1023000080F83D300368124A93420CD0B3F1804FFD
:1023100009D002F5A052934205D01A6842F001029A
:102320001A600020704799680A4A0A40062A0AD0B3
:10233000B2F5803F09D01A6842F001021A6000200D
:10234000704701207047002070470020704700BF91
:10235000002C0140070001007047000003681E4A7E
:10236000904202D0B0F1804F03D123F070034A684D
:102370001343194A90420AD0B0F1804F07D002F5BA
:10238000A052904203D002F58062904203D123F420
:102390004073CA68134323F080034A691343036000
:1023A0008B68C3620B6883620B4B984207D003F5BE
:1023B000A053984203D003F58063984201D10B6982
:1023C000036301234361036913F0010F03D0036921
:1023D00023F0010303617047002C014060B310B586
:1023E000044690F83D3013B3022384F83D30214673
:1023F00051F8040BFFF7B2FF012384F8483084F84A
:102400003E3084F83F3084F8403084F8413084F81E
:10241000423084F8433084F8443084F8453084F8FE
:10242000463084F8473084F83D30002010BD80F8F5
:102430003C30FEF76BFCD7E70120704760B310B566
:10244000044690F83D3013B3022384F83D30214612
:1024500051F8040BFFF782FF012384F8483084F819
:102460003E3084F83F3084F8403084F8413084F8BE
:10247000423084F8433084F8443084F8453084F89E
:10248000463084F8473084F83D30002010BD80F895
:102490003C30FFF761FFD7E70120704730B4036A93
:1024A000026A22F0100202624468826922F080729D
:1024B00022F4E6420D6842EA052223F020038D68EB
:1024C00043EA0513124DA84219D0114DA84207D076
:1024D00005F5A055A84203D005F58065A84207D1AF
:1024E00024F440644D6944EA85048D6944EA850416
:1024F000446082614A688263036230BC704723F0A3
:102500008003CD6843EA051323F04003DDE700BFF5
:10251000002C014038B590F83C30012B00F095803C
:1025200004460D46012380F83C30142A00F28880CE
:10253000DFE802F00B8686861F86868634868686CE
:10254000488686865D86868671000068FFF7A0FD56
:102550002268936943F0080393612268936923F02A
:10256000040393612268936929690B4393610020F6
:1025700067E00068FFF792FF2268936943F4006305
:1025800093612268936923F480639361226893695D
:10259000296943EA01239361002052E00068FFF7B4
:1025A000B7FD2268D36943F00803D3612268D36979
:1025B00023F00403D3612268D36929690B43D361F3
:1025C00000203EE00068FFF7DDFD2268D36943F498
:1025D0000063D3612268D36923F48063D3612268E6
:1025E000D369296943EA0123D361002029E0006807
:1025F000FFF7F6FD2268536D43F008035365226828
:10260000536D23F0040353652268536D29690B430E
:102610005365002015E00068FFF70EFE2268536D39
:1026200043F4006353652268536D23F4806353655C
:102630002268536D296943EA01235365002000E0B5
:102640000120002384F83C3038BD0220FCE710B4A0
:10265000846824F47F4C42EA03220A4342EA0C02D3
:1026600082605DF8044B704790F83C30012B76D0C7
:1026700010B50446012380F83C30022380F83D3039
:1026800002689068374B034093600B68602B4CD016
:1026900029D8402B54D00CD9502B22D1CA68496874
:1026A0002068FFF7F7FD50212068FFF71AFE002091
:1026B00005E0202B0DD009D9302B0AD001200123B1
:1026C00084F83D30002384F83C3010BD0BB1102B52
:1026D00005D119462068FFF704FE0020EFE701202E
:1026E000EDE70120EBE7B3F5805F34D0B3F5005F91
:1026F0000CD1CB684A6889682068FFF7A8FF226878
:10270000936843F4804393600020D8E7702B24D172
:10271000CB684A6889682068FFF799FF2268936848
:1027200043F0770393600020C9E7CA6849682068CE
:10273000FFF7C3FD60212068FFF7D3FD0020BEE74F
:10274000CA6849682068FFF7A5FD40212068FFF7A7
:10275000C8FD0020B3E70020B1E70120AFE7022069
:10276000704700BF8800FEFF90F83C30012B2FD04F
:1027700030B4012380F83C30022380F83D300268F9
:1027800053689468134DAA421DD023F070030D685E
:102790002B43536003680F4A934206D0B3F1804F36
:1027A00003D002F5A052934204D124F080048A6839
:1027B00014439C60012380F83D30002380F83C30B6
:1027C000184630BC704723F470034D682B43DCE798
:1027D00002207047002C014090F83C30012B3BD088
:1027E00010B4012380F83C30CB6823F440738A682E
:1027F000134323F480634A68134323F400630A6895
:10280000134323F480530A69134323F400534A69A2
:10281000134323F480438A6A134323F470238A69A1
:1028200043EA024302680D4CA24207D053640023DE
:1028300080F83C3018465DF8044B704723F4700371
:102840004C6A43EA045323F08073CC69234323F09A
:102850000073096A0B43E9E702207047002C01402E
:10286000026852E8003F23F4907342E800310029E7
:10287000F6D1026802F1080353E8003F23F0010398
:10288000083242E800310029F3D1036E012B06D053
:102890002023C0F8803000230366836670470268F7
:1028A00052E8003F23F0100342E800310029F6D13E
:1028B000EEE7000010B5044601688368026913431F
:1028C00042691343C269134308688C4A02401343A8
:1028D0000B602268536823F44053E1680B43536054
:1028E000A1692268864B9A4201D0236A19439368F2
:1028F00023F430630B4393602368824A93421CD0D5
:10290000814A93422DD07E4A934243D010227C4983
:102910008B4260D0E069B0F5004F00F08C80082A4F
:1029200000F2E580DFE812F0B400CA00B200E30074
:10293000CD00E300E300E300D00002F55842D2F8F6
:10294000882002F00302032A09D8DFE802F002041B
:1029500038060122DBE70422D9E70822D7E7102254
:10296000D5E702F5E632D2F8882002F00C020C2AF4
:102970000ED8DFE802F0070D0D0D090D0D0D260D27
:102980000D0D0B000022C2E70422C0E70822BEE7BB
:102990001022BCE702F5C832D2F8882002F4406267
:1029A000B2F5006F0FD005D87AB1B2F5806F0ED1B5
:1029B0000422ACE7B2F5406F0BD10822A7E7022250
:1029C000A5E70222A3E70222A1E700229FE7102247
:1029D0009DE710229BE7082A79D8DFE802F0087803
:1029E0002A782778787805004FF4004003E0FEF756
:1029F0005FFF00286DD0626802EB420383426AD811
:102A0000B0EB023F69D8010E00025308C0184FF026
:102A1000000341F10001FDF72BFCA0F540723B4B98
:102A20009A425CD82368D860002043E0FEF7E6FABB
:102A3000DFE73748DFE7082A53D8DFE802F007214D
:102A40000552245252520B00314803E0FEF730FF8A
:102A5000002848D06268530803EB4000B0FBF2F056
:102A6000A0F110024FF6EF739A423ED883B223F0E2
:102A70000F03C0F3420018432368D860002019E018
:102A8000FEF728FFE4E7FEF7B9FAE1E7204802E0A5
:102A9000FEF70EFF68B3636800EB5300B0FBF3F082
:102AA000A0F110024FF6EF739A4224D8236880B247
:102AB000D86000200023A366E36610BDFEF70AFF7E
:102AC000E8E7FEF79BFAE5E74FF40040E3E7012073
:102AD000F0E70020EEE70120ECE70120EAE7012023
:102AE000E8E70120E6E70020E4E70120E2E7012033
:102AF000E0E70020DEE70120DCE700BFF369FFEF3D
:102B0000008000400038014000440040FFFC0F00FE
:102B10000024F400436A13F0080F06D002685368DB
:102B200023F40043416B0B435360436A13F0010FDE
:102B300006D00268536823F40033816A0B43536064
:102B4000436A13F0020F06D00268536823F48033FF
:102B5000C16A0B435360436A13F0040F06D0026846
:102B6000536823F48023016B0B435360436A13F0D3
:102B7000100F06D00268936823F48053816B0B43D7
:102B80009360436A13F0200F06D00268936823F421
:102B90000053C16B0B439360436A13F0400F0AD09C
:102BA0000268536823F48013016C0B435360036C79
:102BB000B3F5801F0BD0436A13F0800F06D0026874
:102BC000536823F40023816C0B4353607047026801
:102BD000536823F4C003416C0B435360EBE72DE9CA
:102BE000F84305460E4617469946DDF820802C68C6
:102BF000E46936EA04030CBF4FF0010C4FF0000CFF
:102C0000BC4536D1B8F1FF3FF1D0FEF795F9A0EB06
:102C10000900404530D8B8F1000F2FD02B681A6852
:102C200012F0040FE3D0802EE1D0402EDFD0DA691D
:102C300012F0080F11D1DA6912F4006FD7D04FF4F7
:102C400000621A622846FFF70BFE2023C5F8843085
:102C5000002385F8783003200CE008241C62284605
:102C6000FFF7FEFDC5F88440002385F87830012089
:102C700000E00020BDE8F8830320FBE70320F9E72C
:102C80002DE9F04182B01E46C36F202B56D1044679
:102C90000D469046002955D00AB901204FE0002387
:102CA000C0F884302123C367FEF746F90746A4F82D
:102CB0005080A4F85280A368B3F5805F02D04FF033
:102CC000000818E0236913B14FF0000813E0A8468C
:102CD000002510E02023E367032030E038F8023BB2
:102CE0002268C3F308031385B4F8522092B2013A64
:102CF00092B2A4F85220B4F852309BB27BB1009645
:102D00003B46002280212046FFF769FF0028E1D1E1
:102D1000002DE3D0236815F8012B1A85E4E700960F
:102D20003B46002240212046FFF759FF10B92023DF
:102D3000E36704E02023E367032000E0022002B001
:102D4000BDE8F0810120FAE730B583B004460023E6
:102D5000C0F88430FEF7F0F805462268126812F0D9
:102D6000080F0FD123681B6813F0040F26D120230E
:102D7000E367C4F8803000202066606684F878003D
:102D800003B030BD6FF07E430093034600224FF442
:102D900000112046FFF723FF0028E3D0226852E805
:102DA000003F23F0800342E800310029F6D12023C0
:102DB000E367002384F878300320E1E76FF07E4377
:102DC00000932B4600224FF480012046FFF707FFB7
:102DD0000028CCD0226852E8003F23F4907342E8E8
:102DE00000310029F6D1226802F1080353E8003FC0
:102DF00023F00103083242E800310029F3D12023F7
:102E0000C4F88030002384F878300320B8E768B332
:102E100010B50446C36F03B32423E3672268136825
:102E200023F001031360636AE3B92046FFF742FD14
:102E3000012811D02268536823F49043536022681C
:102E4000936823F02A0393602268136843F0010318
:102E500013602046FFF778FF10BD80F87830FDF74B
:102E6000A5FFD9E72046FFF755FEDEE701207047B2
:102E7000034AD2F8883043F47003C2F888307047B0
:102E800000ED00E000F1080343604FF0FF32826084
:102E9000C360036100230360704700230361704730
:102EA00043684B609A688A60516099600861036862
:102EB00001330360704730B40D68B5F1FF3F11D0A6
:102EC00000F108031C465B681A68AA42FAD96368D5
:102ED0004B6099608C606160086103680133036036
:102EE00030BC70470469F2E70369416882688A6010
:102EF000416851605A68824206D0002202611A6815
:102F0000013A1A601868704782685A60F5E710B590
:102F1000044601F027FCA26BE36B9A4204D0002424
:102F200001F042FC204610BD0124F9E710B504462B
:102F300001F018FCA36B23B9012401F035FC2046F5
:102F400010BD0024F9E770B504461546866B026C87
:102F50005AB903681BB100200136A66370BD8068B2
:102F600000F0E8FF0023A360F6E76DB9406801F0C8
:102F7000EFFD226C636813446360A268934219D327
:102F8000236863602846E7E7C06801F0E1FD226C32
:102F90005142E3689B1AE3602268934202D2A3681D
:102FA0000B44E360022D01D00020D5E726B1013E9D
:102FB0000020D1E72846CFE70020CDE70346026C8A
:102FC0006AB110B50846D9681144D9609C68A1421D
:102FD00001D31968D960D96801F0BAFD10BD7047F6
:102FE00038B5054601F0BEFB95F8454064B201E0F6
:102FF000013C64B2002C0ADD6B6A43B105F1240088
:1030000000F0EEFE0028F3D000F07EFFF0E7FF2393
:1030100085F8453001F0C8FB01F0A4FB95F8444069
:1030200064B201E0013C64B2002C0ADD2B6943B1BB
:1030300005F1100000F0D4FE0028F3D000F064FF8A
:10304000F0E7FF2385F8443001F0AEFB38BD38B51A
:10305000E0B10D46044601F085FB2368E26B216C6C
:1030600001FB0230A0600020A0636360013A02FB14
:103070000133E360FF2384F8443084F84530FDB920
:10308000236963B901F090FB012038BD4FF0500374
:1030900083F31188BFF36F8FBFF34F8FFEE704F107
:1030A000100000F09DFE0028ECD04FF0E0234FF020
:1030B0008052C3F8042DBFF34F8FBFF36F8FE1E74A
:1030C00004F11000FFF7DEFE04F12400FFF7DAFE42
:1030D000D8E738B51D46049C0B4649B92460E06327
:1030E000236401212046FFF7B2FF84F84C5038BD1D
:1030F0002260F4E740B94FF0500383F31188BFF327
:103100006F8FBFF34F8FFEE710B584B01C46844627
:1031100053B192B189B94FF0500383F31188BFF3D3
:103120006F8FBFF34F8FFEE74FF0500383F311888B
:10313000BFF36F8FBFF34F8FFEE76AB15023039346
:10314000039B502B13D04FF0500383F31188BFF330
:103150006F8FBFF34F8FFEE70029EFD04FF0500382
:1031600083F31188BFF36F8FBFF34F8FFEE7039B8D
:10317000012384F8463000949DF818306046FFF72C
:10318000A8FF204604B010BDF0B585B0019288B10B
:103190000F461D460446B1B1022D20D1E36B012B31
:1031A0001DD04FF0500383F31188BFF36F8FBFF32F
:1031B0004F8FFEE74FF0500383F31188BFF36F8FFB
:1031C000BFF34F8FFEE7036C002BE5D04FF05003A9
:1031D00083F31188BFF36F8FBFF34F8FFEE700F0CB
:1031E00099FE064658B9019B002B48D04FF050037A
:1031F00083F31188BFF36F8FBFF34F8FFEE7002675
:103200003DE02A4639462046FFF79DFE636A7BB9BA
:1032100048B14FF0E0234FF08052C3F8042DBFF3C4
:103220004F8FBFF36F8F01F0BFFA012005B0F0BDE3
:1032300004F1240000F0D4FD0028F4D04FF0E02386
:103240004FF08052C3F8042DBFF34F8FBFF36F8F41
:10325000E9E701F0A9FA0020E8E702A800F006FE7D
:10326000012619E0002384F8443021E0002384F88B
:10327000453023E02046FFF7B3FE00F091FC01F05B
:1032800071FAA26BE36B9A42BBD3022DB9D0019BBA
:10329000002BDED0002EE0D001F086FA00F0D2FB49
:1032A00001F060FA94F8442052B2B2F1FF3FD9D055
:1032B00094F8452052B2B2F1FF3FD7D001F074FA32
:1032C00001A902A800F0DEFDD8B92046FFF71FFED5
:1032D0000028CFD0019904F1100000F04DFD2046E8
:1032E000FFF77EFE00F05CFC0028C8D14FF0E02321
:1032F0004FF08052C3F8042DBFF34F8FBFF36F8F91
:10330000BDE72046FFF76CFE00F04AFC00208DE789
:103310002DE9F84390B10F4616461C460546B1B15B
:10332000022C20D1EB6B012B1DD04FF0500383F307
:103330001188BFF36F8FBFF34F8FFEE74FF050033D
:1033400083F31188BFF36F8FBFF34F8FFEE7036CDA
:10335000002BE5D04FF0500383F31188BFF36F8F3C
:10336000BFF34F8FFEE701F023FBEFF311894FF01E
:10337000500383F31188BFF36F8FBFF34F8FAA6B96
:10338000EB6B9A4206D3022C04D0002089F31188FB
:10339000BDE8F88395F845804FFA88F8AB6B224674
:1033A00039462846FFF7CFFDB8F1FF3F06D008F1B8
:1033B00001035BB285F845300120E7E76B6A0BB982
:1033C0000120E3E705F1240000F00AFD18B126B161
:1033D00001203060DAE70120D8E70120D6E7F0B518
:1033E00085B0019290B10F460446C1B100F092FD44
:1033F000064600BB019B002B5ED04FF0500383F3C9
:103400001188BFF36F8FBFF34F8FFEE74FF050036C
:1034100083F31188BFF36F8FBFF34F8FFEE7036C09
:10342000002BE3D04FF0500383F31188BFF36F8F6D
:10343000BFF34F8FFEE700263EE039462046FFF7F8
:10344000BDFD013DA563236923B901F0ADF901205C
:1034500005B0F0BD04F1100000F0C2FC0028F4D06B
:103460004FF0E0234FF08052C3F8042DBFF34F8F8D
:10347000BFF36F8FE9E701F097F90020E8E702A8B2
:1034800000F0F4FC012621E0002384F8443029E018
:10349000002384F845302BE02046FFF7A1FD00F023
:1034A0007FFB09E02046FFF79BFD00F079FB2046FB
:1034B000FFF73CFD00283FD101F054F9A56B002D2A
:1034C000BBD1019B002BD6D0002ED8D001F06CF9D7
:1034D00000F0B8FA01F046F994F844305BB2B3F169
:1034E000FF3FD1D094F845305BB2B3F1FF3FCFD06E
:1034F00001F05AF901A902A800F0C4FC0028D1D1BA
:103500002046FFF713FD0028C6D0019904F12400DE
:1035100000F032FC2046FFF763FD00F041FB00287D
:10352000CAD14FF0E0234FF08052C3F8042DBFF30F
:103530004F8FBFF36F8FBFE7002089E70023072B72
:103540000CD8074A52F833200AB10133F7E7044A8E
:1035500042F8331002EBC30358607047704700BF56
:103560004802002070B504460D46164601F0FAF8F0
:1035700094F844305BB2B3F1FF3F0DD094F845307E
:103580005BB2B3F1FF3F0BD001F00EF9A36B5BB15F
:103590002046FFF725FD70BD002384F84430EDE799
:1035A000002384F84530EFE73246294604F1240031
:1035B00000F0FAFBECE70000084B1B681B6823B91E
:1035C000074B4FF0FF321A607047044B1B68DB68F3
:1035D000DB685A68024B1A60704700BF8C020020FB
:1035E000340700202DE9F04780460D4617469946DE
:1035F000089EDDF824A00A9C9200A521206B01F012
:10360000B5FA236B07F18042013A03EB820727F0FA
:103610000707B5B34FF0000CBCF10F0F0BD815F82E
:103620000C2004EB0C0383F8342015F80C3013B194
:103630000CF1010CF0E7002384F84330372E00D959
:103640003726E662E66400252565201DFFF725FC88
:1036500004F11800FFF721FC2461C6F13806A661C9
:103660006462656584F858504A464146384601F020
:103670004BF82060BAF1000F01D0CAF80040BDE855
:10368000F087002384F83430D8E7000038B50024F0
:1036900007E004EB840293000E481844FFF7F2FBA6
:1036A0000134372CF5D90C4D2846FFF7EBFB0B4CBA
:1036B0002046FFF7E7FB0A48FFF7E4FB0948FFF75E
:1036C000E1FB0948FFF7DEFB084B1D60084B1C605F
:1036D00038BD00BF94020020080700201C0700200E
:1036E000400700206C070020580700208C020020B3
:1036F0009002002010B5044601F034F8224A136805
:1037000001331360214B1B685BB1214B1B686BB904
:103710001E4B1B68DA6AE36A9A4207D81B4B1C608F
:1037200004E01A4B1C601368012B29D0194A136856
:10373000013313606364E06A174B1B68984201D938
:10374000154B186000EB8000211D144B03EB80002B
:10375000FFF7A6FB01F028F80D4B1B687BB10B4B64
:103760001B68DA6AE36A9A4209D24FF0E0234FF00D
:103770008052C3F8042DBFF34F8FBFF36F8F10BD7E
:10378000FFF784FFD2E700BFF40600208802002084
:1037900054070020000700200407002094020020A6
:1037A00010B5044690F8593063B1012B11D0022BAB
:1037B0000ED04FF0500383F31188BFF36F8FBFF328
:1037C0004F8FFEE7006B00F023FF204600F020FF44
:1037D00010BD00F01DFFFBE70F4B1B68D3B110B508
:1037E00000F0C0FF0D4BDB68DC68201DFFF77CFBA1
:1037F0000B4A1368013B1360074A1368013B1360CF
:1038000000F0D2FF2046FFF7CBFF034B1B68002BD5
:10381000E6D110BD704700BFF80600206C070020FD
:10382000F406002008B5FFF7D7FF074B1B68012BF4
:10383000F9D94FF0E0234FF08052C3F8042DBFF3C5
:103840004F8FBFF36F8FEEE79402002070B50446F0
:103850000D46174B1E68174B18680430FFF744FBE2
:10386000B4F1FF3F0DD03444124B1B685C60A6429C
:1038700010D9114B18680F4B19680431FFF71BFB67
:1038800070BD002DEFD00B4B196804310B48FFF7CA
:1038900007FBF5E70A4B1868064B19680431FFF778
:1038A0000AFB084B1B68A342EAD9064B1C60E7E7FA
:1038B0008007002088020020900200205807002086
:1038C0008C0200203407002030B587B00B9C7CB1FF
:1038D0000C9DB5B15C250495049D5C2D1AD04FF06C
:1038E000500383F31188BFF36F8FBFF34F8FFEE751
:1038F0004FF0500383F31188BFF36F8FBFF34F8FE7
:10390000FEE74FF0500383F31188BFF36F8FBFF3CF
:103910004F8FFEE7049D0C9D2C63022485F85940CF
:1039200000240394029505AC01940A9C0094FFF7CF
:1039300059FE0C98FFF7DEFE059807B030BD2DE963
:10394000F04385B00746884614461E46900000F0B6
:10395000E1FD00B381465C2000F0DCFD0546B0B11E
:10396000C0F83090E5B1002385F8593003930295F3
:103970000D9B01930C9B00933346224641463846EB
:10398000FFF730FE2846FFF7B5FE012005E0484668
:1039900000F03EFEE6E74FF0FF3005B0BDE8F083F3
:1039A0004FF0FF30F9E7000010B588B0002405940F
:1039B000069407AA06A905A800F02EFD059B029310
:1039C000069B019300942346079A18491848FFF76D
:1039D0007BFF184B186040B100F060FB012806D057
:1039E000B0F1FF3F18D008B010BD0020F6E74FF04F
:1039F000500383F31188BFF36F8FBFF34F8F0E4BCC
:103A00004FF0FF321A600D4B01221A600C4B00225E
:103A10001A6000F041FFE6E74FF0500383F311888E
:103A2000BFF36F8FBFF34F8FFEE700BF845D0008C9
:103A300025380008300700203407002054070020F4
:103A400080070020024A136801331360704700BFEB
:103A5000FC060020014B1868704700BF800700205B
:103A6000034618B12BB103F134007047054B1B68B6
:103A7000F8E74FF0500383F31188BFF36F8FBFF364
:103A80004F8FFEE788020020F8B53A4B1B68002BE9
:103A900069D1394B1D6801351D60C5B9374B1B68AD
:103AA0001B6843B14FF0500383F31188BFF36F8F4E
:103AB000BFF34F8FFEE7314A1168314B1868106031
:103AC0001960304A136801331360FFF775FD2E4B00
:103AD0001B68AB423DD900272C4B1B68DB6A03EB0C
:103AE00083039A002A4B9B58012B00D90127294BAD
:103AF0001B68002B3CD001273AE001271F4B1B68B5
:103B00001B6843B31D4B1B68DB68DC6863689D4220
:103B100026D3261D3046FFF7E7F9A36A1BB104F14F
:103B20001800FFF7E1F9E36A1B4A1268934201D9D2
:103B3000194A136003EB83039A003146144810447A
:103B4000FFF7AEF9E26A114B1B68DB6A9A42D4D2E6
:103B5000D4E70027D2E70C4B4FF0FF321A60BBE7E7
:103B6000094A1360B8E70D4A136801331360002750
:103B70003846F8BDFC060020800700208C0200209B
:103B8000900200203807002034070020880200201F
:103B90009402002084070020040700203C07002036
:103BA00038B5354B1B6843B94FF0500383F3118888
:103BB000BFF36F8FBFF34F8FFEE700F0D3FD2E4BA7
:103BC0001A68013A1A601B68002B4FD12B4B1B68F7
:103BD0000BB900244BE00024294B1B681BB3284B76
:103BE000DB68DC6804F11800FFF77EF9251D284624
:103BF000FFF77AF9E06A234B1B68984201D9214B01
:103C0000186000EB800029461F4B03EB8000FFF794
:103C100047F9E26A1D4B1B68DB6A9A42DCD31C4BF6
:103C200001221A60D8E70CB1FFF7C6FC194B1C68DB
:103C300084B9174B1C68D4B14FF0E0234FF0805289
:103C4000C3F8042DBFF34F8FBFF36F8F01240EE035
:103C5000013C07D0FFF718FF0028F9D00C4B0122D8
:103C60001A60F5E70B4B00221A60E2E7002400F02F
:103C70009BFD204638BD00BFFC060020F406002056
:103C80004007002004070020940200208802002042
:103C9000840700203C07002010B5A8B10446104B53
:103CA0001B6843B14FF0500383F31188BFF36F8F4C
:103CB000BFF34F8FFEE7FFF7C5FE00212046FFF759
:103CC000C5FDFFF76DFF48B94FF0E0234FF080527C
:103CD000C3F8042DBFF34F8FBFF36F8F10BD00BF2C
:103CE000FC0600201F4B1B681BB11F4B01221A60F2
:103CF00070471D4B00221A601C4B1B6803EB8301AD
:103D00008A001B498A585AB90BB1013BF6E74FF0BC
:103D1000500383F31188BFF36F8FBFF34F8FFEE71C
:103D200003EB830082000A4450684068506003EB54
:103D3000830C4FEA8C020832114488420BD003EB0B
:103D4000830291000A4A0A445268D168094A116004
:103D5000064A13607047406862469100044A0A446C
:103D60005060ECE7FC0600208407002004070020D8
:103D7000940200208802002058B110B50C46094A70
:103D800011681831FFF797F801212046FFF75EFD13
:103D900010BD4FF0500383F31188BFF36F8FBFF353
:103DA0004F8FFEE78802002038B570B10D461446EB
:103DB0000A4A11681831FFF773F80CB14FF0FF355C
:103DC00021462846FFF742FD38BD4FF0500383F3EC
:103DD0001188BFF36F8FBFF34F8FFEE7880200207B
:103DE00038B5C368DC6824B304F118052846FFF72A
:103DF0007BF8184B1B682BBB251D2846FFF774F872
:103E0000E06A154B1B68984201D9134B186000EB10
:103E100080002946114B03EB8000FFF741F8E26A6E
:103E20000F4B1B68DB6A9A4211D901200D4B1860B9
:103E300038BD4FF0500383F31188BFF36F8FBFF38A
:103E40004F8FFEE729460848FFF72AF8E7E70020EA
:103E5000EEE700BFFC0600200407002094020020CB
:103E6000880200208407002040070020034B1B68C5
:103E70000360034B1B684360704700BF3807002096
:103E800080070020F8B5C8B10C460546F9B100F02E
:103E900069FC1B4B19686B68C81A2268B2F1FF3FB6
:103EA00026D0184E36682F68B74201D08B4224D9ED
:103EB000824215D80023236001241AE04FF05003FA
:103EC00083F31188BFF36F8FBFF34F8FFEE74FF07F
:103ED000500383F31188BFF36F8FBFF34F8FFEE75B
:103EE0005B1A134423602846FFF7C0FF002400E05C
:103EF000002400F059FC2046F8BD0124F9E700BF7A
:103F00008007002038070020014B01221A6070470B
:103F100084070020054B1B6833B1054B1B680BB1B0
:103F2000002070470220704701207047540700208E
:103F3000FC06002000283BD038B504461E4B1B6809
:103F4000834208D04FF0500383F31188BFF36F8F83
:103F5000BFF34F8FFEE7036D43B94FF0500383F378
:103F60001188BFF36F8FBFF34F8FFEE7013B0365EF
:103F7000C16AC26C91421DD00BB1002038BD051D35
:103F80002846FEF7B1FFE06CE062C0F13803A361A0
:103F90000A4B1B68984201D9084B186000EB80005F
:103FA0002946074B03EB8000FEF77AFF0120E5E787
:103FB000002070470020E1E788020020040700206D
:103FC00094020020064B1A6813682BB90123036082
:103FD00023B9D368186870470023F8E700207047BA
:103FE0008807002008B54160006191420CD8D21AC0
:103FF00083699A4201D3012008BD011D094B18684D
:10400000FEF759FF0020F7E79A4201D2994206D203
:10401000011D054B1868FEF74EFF0020ECE701205C
:10402000EAE700BF8C0700208807002030B583B086
:1040300000F098FB114B1B681BB100F0B5FB03B0FF
:1040400030BD0F4D2846FEF71DFF0E4C2046FEF7F3
:1040500019FF0D4B1D600D4B1C60002300930C4B92
:104060000C4A10210A20FFF745F8044B186000287D
:10407000E3D00949FFF762FADFE700BFAC08002090
:104080003008002044080020880700208C0700200A
:104090005C080020900700208C5D000810B588B0F7
:1040A000FFF7C4FF124B1B68CBB1002405940694A4
:1040B00007AA06A905A800F0BBF9059B0293069B79
:1040C0000193022300932346079A0A490A48FFF7FF
:1040D000FBFB0A4B186010B1012008B010BD4FF077
:1040E000500383F31188BFF36F8FBFF34F8FFEE749
:1040F000AC080020945D000801440008B0080020CE
:10410000B8B19C4603461848006858B300B585B05E
:1041100000910192029305291CDCFFF7FBFE0228A7
:1041200010D000231A4669460F480068FFF72CF8A4
:1041300015E04FF0500383F31188BFF36F8FBFF387
:104140004F8FFEE70023069A694607480068FFF78D
:104150001BF804E0002362466946FFF7D9F805B072
:104160005DF804FB00207047AC08002070B582B0F9
:104170001B4B1B681A6862B3DB681E68DC68251D70
:104180002846FEF7B1FE236A2046984794F8283067
:1041900013F0040FECD0A36933449E4207D263604E
:1041A000246129460E4B1868FEF785FEE0E70021E2
:1041B00000910B4632462046FFF7A2FF0028D7D1D8
:1041C0004FF0500383F31188BFF36F8FBFF34F8F0E
:1041D000FEE7044A106802490860136002B070BD2F
:1041E000880700208C07002038B50546FFF732FC11
:1041F0000446074B1B68834205D800232B60044B01
:104200001C60204638BDFFF7B1FF01232B60F6E7A5
:104210005808002070B582B006460D461749096857
:10422000C968CC68201DFEF75FFE94F828C01CF01A
:10423000040F08D12CF0010C84F828C0236A204612
:10424000984702B070BDA16933462A4631442046E2
:10425000FFF7C8FE0028F1D0002100910B4632463E
:104260002046FFF74DFF0028E8D14FF0500383F3BD
:104270001188BFF36F8FBFF34F8FFEE788070020D1
:1042800070B582B006460C46FFF7DCFB01A8FFF7CD
:10429000ABFF019B33BB05460CB9B04219D224B128
:1042A000124A12681268DAB901242246711B104BB7
:1042B0001868FFF757F9FFF773FCA8B94FF0E02330
:1042C0004FF08052C3F8042DBFF34F8FBFF36F8FB1
:1042D0000AE0FFF765FC29463046FFF79BFF03E045
:1042E0001C46E2E7FFF75CFC02B070BD8C070020C3
:1042F000AC08002010B588B002E0049B002B0FDA58
:10430000002204A93D4B1868FFF769F8002873D014
:10431000049B002BF1DA07990698059B9847ECE778
:10432000069C636913B1201DFEF7DEFD03A8FFF7AD
:104330005BFF049B092BE3D8DFE803F0050505309C
:1043400037500505303794F8283043F0010384F8DE
:104350002830059BA169024619442046FFF742FE1A
:104360000028CDD0236A2046984794F8283013F0CF
:10437000040FC5D0A269002100910B4605980244A4
:104380002046FFF7BDFE0028BAD14FF0500383F35B
:104390001188BFF36F8FBFF34F8FFEE794F828307B
:1043A00023F0010384F82830AAE794F8283043F07A
:1043B000010384F828300599A16131B10346024612
:1043C00001442046FFF70EFE9AE74FF0500383F3B7
:1043D0001188BFF36F8FBFF34F8FFEE794F828303B
:1043E00013F0020F04D023F0010384F8283087E78C
:1043F000204600F00DF983E708B010BDAC0800209E
:1044000000B583B001A8FFF7DDFD0199FFF738FF84
:10441000FFF770FFF6E70000034B0360034B0B60F0
:1044200080231360704700BFB40A0020B408002046
:10443000034B0360034B0B604FF4807313607047B2
:10444000100F0020100B0020134A12F0070F1FD08E
:10445000D11D21F00701C1F53B63083313440A461F
:104460000E480260002141601344083B23F007031B
:104470000B48036059601960991A51601360094B29
:104480001960094B1960094B4FF000421A607047E0
:1044900040F6B833E4E700BF700F00203C1B00205B
:1044A0006C0F0020301B00202C1B0020281B00203C
:1044B000164B1A461B688342FBD3516802EB010C72
:1044C000844509D0416800EB010C634509D00360C5
:1044D000904219D010607047406801445160104606
:1044E000F0E710B40A4C2468A3420BD05B6819446F
:1044F000416013681B680360904200D010605DF853
:10450000044B70470460F7E7704700BF3C1B002076
:104510006C0F002070B50546FFF794FA364B1B6808
:10452000A3B1364B1B681D424ED135B1083515F08D
:10453000070F02D025F007050835002D46D0304B77
:104540001B68AB4251D32F4A146804E0FFF77CFF8D
:10455000E7E722461C466368AB4202D22368002B81
:10456000F7D1254B1B68A34241D016680836236853
:10457000136063685B1B102B10D9601910F0070FD4
:1045800008D04FF0500383F31188BFF36F8FBFF350
:104590004F8FFEE743606560FFF78AFF6268184946
:1045A0000B689B1A0B60184909688B4201D21649A7
:1045B0000B60124B1B681343636000232360134A94
:1045C00013680133136002E0002600E00026FFF7C5
:1045D000E7FA16F0070F0CD04FF0500383F3118861
:1045E000BFF36F8FBFF34F8FFEE70026EFE7002684
:1045F000EDE7304670BD00BF6C0F0020281B002087
:104600002C1B00203C1B0020301B0020341B0020F2
:10461000002834D038B50446A0F1080550F8043C11
:10462000174A1268134208D14FF0500383F31188E0
:10463000BFF36F8FBFF34F8FFEE750F8081C41B1F7
:104640004FF0500383F31188BFF36F8FBFF34F8F89
:10465000FEE723EA020340F8043CFFF7F3F954F8BD
:10466000041C084A13680B4413602846FFF720FF18
:10467000054A136801331360FFF792FA38BD70479B
:10468000281B00202C1B0020381B002082B0002398
:1046900001930D4B1B68B3F1FF3F08D04FF050035F
:1046A00083F31188BFF36F8FBFF34F8FFEE74FF097
:1046B000500383F31188BFF36F8FBFF34F8F019BBC
:1046C000002BFCD002B070470C00002008480068A6
:1046D000006880F308884FF0000080F3148862B609
:1046E00061B6BFF34F8FBFF36F8F00DF00BF0000D5
:1046F00008ED00E0DFF80C00016841F47001016092
:104700007047000088ED00E04FF0807340F8043CF3
:1047100021F0010140F8081C054B40F80C3C40F822
:10472000202C6FF0020340F8243C4438704700BF4F
:104730008D4600080000000000000000000000009E
:10474000074B19680868B0E8F04F80F30988BFF399
:104750006F8F4FF0000080F311887047AFF3008037
:10476000880200204FF0500383F31188BFF36F8F4E
:10477000BFF34F8F0B4A136801331360012B00D036
:1047800070474FF0E023D3F8043D13F0FF0FF7D04C
:104790004FF0500383F31188BFF36F8FBFF34F8F38
:1047A000FEE700BF0C000020094B1B6843B94FF027
:1047B000500383F31188BFF36F8FBFF34F8FFEE772
:1047C000013B034A13600BB983F31188704700BFA4
:1047D0000C000020000000000000000000000000AD
:1047E000EFF30980BFF36F8F154B1A681EF0100F9F
:1047F00008BF20ED108A20E9F04F10602DE9090074
:104800004FF0500080F31188BFF34F8FBFF36F8FCD
:10481000FFF768FA4FF0000080F3118809BC1968AF
:104820000868B0E8F04F1EF0100F08BFB0EC108A17
:1048300080F30988BFF36F8F704700BFAFF300802C
:104840008802002008B54FF0500383F31188BFF3AE
:104850006F8FBFF34F8FFFF717F928B14FF0E023A9
:104860004FF08052C3F8042D002383F3118808BD54
:104870004FF0E022002313619361054B1B6805494B
:10488000A1FB03139B09013B53610723136170478D
:1048900008000020D34D62104FF0E023D3F8002D24
:1048A0003D4B9A421CD04FF0E023D3F8002D3B4BF8
:1048B0009A421ED030B583B0394B1A78D2B20192E9
:1048C000FF221A701B78DBB28DF803309DF803309D
:1048D00003F05003334A1370334B07221A601BE076
:1048E0004FF0500383F31188BFF36F8FBFF34F8FE7
:1048F000FEE74FF0500383F31188BFF36F8FBFF3D0
:104900004F8FFEE7284A1368013B13609DF8033080
:104910005B00DBB28DF803309DF8033013F0800F9D
:10492000F0D1214B1B68032B08D04FF0500383F3C9
:104930001188BFF36F8FBFF34F8FFEE71B021A4A38
:10494000136003F4E0631360019BDBB2144A13703D
:104950004FF0E024D4F8203D43F47003C4F8203D28
:10496000D4F8203D43F07043C4F8203DFFF780FFAA
:1049700000250E4B1D60FFF7BDFED4F8343F43F019
:104980004043C4F8343FFFF7A1FEFFF7ABF9FFF750
:104990007DFE284603B030BD71C20F4170C20F4189
:1049A00000E400E0441B0020481B00200C00002015
:1049B000EFF305830F2B0FD9114A9B5CDBB2114A31
:1049C00012789A4208D94FF0500383F31188BFF34D
:1049D0006F8FBFF34F8FFEE74FF0E023D3F80C3D0E
:1049E00003F4E063084A1268934208D94FF0500379
:1049F00083F31188BFF36F8FBFF34F8FFEE77047CC
:104A0000F0E300E0441B0020481B002010B50346E3
:104A10000C4A0D490D48006840B10C480068034439
:104A2000521A934206D8094A136010BD0748084C31
:104A30000460F2E700F062F80C2303604FF0FF30EF
:104A4000F3E700BF00C00020000400004C1B002062
:104A5000601B002070B50C461646002506E0AFF33B
:104A60000080214601F8010B01350C46B542F6DB0A
:104A7000304670BD70B50C461646002504E014F8AB
:104A8000010BFBF711FE0135B542F8DB304670BD76
:104A90004FF0FF3070474FF400534B6000207047D9
:104AA0000120704700207047DFF834D0FEF7E0F9AE
:104AB0000C480D490D4A002302E0D458C450043379
:104AC000C4188C42F9D30A4A0A4C002301E013604F
:104AD0000432A242FBD300F017F8FBF721FFFEE7F8
:104AE00000C000200000002078000020505E000878
:104AF00078000020601B0020FEE70000014B1868D2
:104B0000704700BF1000002070B50D4D0D4C641BA8
:104B1000A4100026A64209D10B4D0C4C01F032F82E
:104B2000641BA4100026A64205D170BD55F8043BB5
:104B300098470136EEE755F8043B98470136F2E70F
:104B4000405E0008405E0008405E0008445E0008C9
:104B50000A44914200F1FF3300D1704710B511F8BB
:104B6000014B03F8014F9142F9D110BD02440346B5
:104B7000934200D1704703F8011BF9E70FB40A4BC9
:104B800013B51C6824B1A36913B9204600F05EFA7E
:104B900005AB049AA1680193204600F067FC02B0BF
:104BA000BDE8104004B070471000002070B50E46FC
:104BB000054618B183690BB900F048FAAB69AC68D7
:104BC00013B9284600F042FA2C4B9C4220D16C6865
:104BD000636EDB0705D4A389980502D4A06D00F0AD
:104BE000D3FAA38919071DD52369DBB1013EA36858
:104BF00016F8011F013BA36039BB002B38DA2246AF
:104C00000A21284600F048F8013011D00A2511E0A9
:104C10001B4B9C4201D1AC68DAE71A4B9C4208BF9F
:104C2000EC68D5E72146284600F088F80028DDD05A
:104C30004FF0FF35636EDA0705D4A3899B0502D4D4
:104C4000A06D00F0A2FA284670BD002B04DAA2691C
:104C50009A4206DC0A2904D023685A1C2260197083
:104C6000C5E72246284600F017F80130BFD1DFE73C
:104C700023680A255A1C22601D70DBE7C05D00080E
:104C8000E05D0008A05D0008024B01461868FFF7D0
:104C90008DBF00BF10000020F8B50E461446054633
:104CA00018B183690BB900F0D1F9214B9C422BD18B
:104CB0006C68A369A360A3891A072FD523696BB316
:104CC00023692068C01A6369F6B28342374604DC60
:104CD0002146284600F026F930BBA368013BA360BB
:104CE00023685A1C22601E7063690130834204D01D
:104CF000A389DB0706D50A2E04D12146284600F0F9
:104D000011F988B93846F8BD0A4B9C4201D1AC680C
:104D1000CFE7094B9C4208BFEC68CAE7214628460A
:104D200000F00CF80028CBD04FF0FF37EAE700BFC7
:104D3000C05D0008E05D0008A05D0008324B70B562
:104D40001D6806460C4625B1AB6913B9284600F02C
:104D50007DF92E4B9C420FD16C68A389B4F90C20CD
:104D600019072CD4DD0611D40923336042F0400327
:104D7000A3814FF0FF303EE0254B9C4201D1AC684F
:104D8000EBE7244B9C4208BFEC68E6E7580712D5D6
:104D9000616B41B104F14403994202D0304600F006
:104DA0005BFA00236363A38923F02403A381002318
:104DB000636023692360A38943F00803A381236907
:104DC0004BB9A38903F42073B3F5007F03D02146C8
:104DD000304600F001FAA089B4F90C2010F001036C
:104DE0000AD00023A36063695B42A361236943B9CE
:104DF00010F08000BAD170BD810758BF6369A3600D
:104E0000F4E70020F7E700BF10000020C05D0008B5
:104E1000E05D0008A05D00088A892DE9F0410546A3
:104E200010070C4658D44B68002B05DC0B6C002B8C
:104E300002DC0020BDE8F081E66A002EF9D00023F4
:104E400012F480522F682B6032D0606DA3895A070C
:104E500005D56368C01A636B0BB1236CC01A0023BD
:104E60000246E66A216A2846B047431CA38906D158
:104E700029681D292CD82A4ACA40D60728D50022DD
:104E80006260D9042269226004D5421C01D12B68DA
:104E900003B96065616B2F600029CAD004F1440337
:104EA000994202D0284600F0D7F900206063C1E79C
:104EB000216A01232846B047411CC7D12B68002B2B
:104EC000C4D01D2B01D0162B01D12F60B1E7A389CF
:104ED00043F04003A381ADE70F69002FA9D09307EA
:104EE0000E6808BF4B690F6018BF0023A6EB0708C8
:104EF0008B60B8F1000F9CDD216AA66A43463A46F2
:104F00002846B047002806DCA38943F04003A3816C
:104F10004FF0FF308EE70744A8EB0008E9E700BF39
:104F20000100402038B50B6905460C4613B9002531
:104F3000284638BD18B183690BB900F087F8144BC7
:104F40009C421BD16C68B4F90C30002BEFD0626E20
:104F5000D00704D4990502D4A06D00F015F92846B5
:104F60002146FFF759FF636EDA070546E0D4A389AF
:104F70009B05DDD4A06D00F008F9D9E7054B9C42F4
:104F800001D1AC68DFE7044B9C4208BFEC68DAE76C
:104F9000C05D0008E05D0008A05D0008002310B5BA
:104FA0000446C0E90033C0E904338360818143666D
:104FB000C2818361194608225C30FFF7D7FD054B9B
:104FC0006362054BA362054BE362054B24622363D6
:104FD00010BD00BF155A0008375A00086F5A000864
:104FE000935A0008014900F0AFB800BF254F0008F0
:104FF00070B568224D1E55430E4605F1740100F050
:1050000097F9044640B10021C0E900160C30A060B9
:1050100005F16802FFF7AAFD204670BD014800F0C7
:10502000B3B800BF511B0020014800F0AEB800BF6C
:10503000511B0020014800F0A7B800BF521B002000
:10504000014800F0A2B800BF521B002010B5044672
:10505000FFF7F0FFA3691BB1BDE81040FFF7F0BFF9
:10506000C4E912332365134B134A1B68A262A3429F
:1050700004BF0123A361204600F020F860602046B1
:1050800000F01CF8A060204600F018F80022E06054
:1050900004216068FFF782FFA06801220921FFF761
:1050A0007DFFE06802221221FFF778FF0123A36150
:1050B000D2E700BF9C5D0008E54F0008F8B5074641
:1050C000FFF7ACFF1E4B1E68B36913B93046FFF7FC
:1050D000BDFF4836D6E90134013B03D533680BB335
:1050E0003668F7E7B4F90C50D5B9164BE36004F114
:1050F0005800656600F047F8FFF796FFC4E90155D0
:10510000C4E904552560A5610822294604F15C0024
:10511000FFF72CFDC4E90D55C4E912552046F8BD32
:105120006834D9E704213846FFF762FF044630604F
:105130000028D5D1FFF778FF0C233B60EEE700BFD6
:105140009C5D00080100FFFF2DE9F84306468846F4
:1051500000F148040027D4E90195B9F1010905D50A
:105160002468002CF7D13846BDE8F883AB89012BC1
:1051700007D9B5F90E30013303D029463046C04770
:1051800007436835E9E770477047704770B50E46CA
:10519000B1F90E10002996B014461D4608DAB6F98A
:1051A0000C3000222A601A0610D44FF480630EE0FF
:1051B0006A4600F095FC0028F1DB019A02F4704287
:1051C000A2F500535A425A412A60EEE740230020DC
:1051D000236016B070BD00008B8973B59D0706462D
:1051E0000C4607D504F14703236023610123636163
:1051F00002B070BD01AB6A46FFF7C8FF00990546D3
:10520000304600F095F848B9B4F90C309A05EFD45F
:1052100023F0030343F00203A381E3E70D4BB362E2
:10522000A389206043F08003A381009B6361019BFD
:1052300020615BB1B4F90E10304600F063FC28B178
:10524000A38923F0030343F00103A381A08905434D
:10525000A581CDE7E54F000837B5002944D051F8C6
:10526000043C0190002BA1F10404B8BFE41800F045
:105270006BFC1E4A0198136833B96360146003B075
:10528000BDE8304000F066BCA34208D9256861192A
:105290008B4201BF19685B6849192160EDE71A4626
:1052A0005B680BB1A342FAD911685518A5420BD11E
:1052B000246821445418A3421160E0D11C685B6843
:1052C000536021441160DAE702D90C230360D6E76A
:1052D000256861198B4204BF19685B68636004BF6D
:1052E000491921605460CAE703B030BD541B002047
:1052F00070B50E4E0C463168054611B900F07AFBC8
:1053000030602146284600F075FB431C0AD0C41CBF
:1053100024F00304A04207D0211A284600F06AFBBB
:10532000013001D14FF0FF34204670BD581B0020E2
:105330002DE9F041CD1C25F0030508350C2D38BFB3
:105340000C25002D074601DBA94205D90C233B6043
:1053500000263046BDE8F0812E4E00F0F5FB3368A4
:105360001C4634BB29463846FFF7C2FF431C04469F
:105370004DD134682646002E40D123683146384648
:1053800004EB030800F036FB80453AD12168033571
:105390006D1A25F0030508350C2D38BF0C2529465C
:1053A0003846FFF7A5FF01302BD023682B4423603C
:1053B0000EE02268521B1ED40B2A16D96119A34293
:1053C000256018BF5960636808BF316062514B6047
:1053D000384604F10B0600F0BDFB26F00706231D3E
:1053E000F21AB6D09B1BA350B3E76268A3420CBF6E
:1053F00032605A60ECE723466468B2E73446766868
:10540000B9E70C233B60384600F0A4FBA1E7256018
:10541000DEE700BF541B00209368013B002B10B453
:10542000936008DA9469A34201DB0A2903D15DF88D
:10543000044BFFF731BC1368581C10601970084604
:105440005DF8044B7047F8B506460F461446D5186C
:10545000AC4201D1002007E014F8011B3A46304667
:10546000FFF7DAFF431CF3D1F8BD00002DE9F04F40
:105470000D469DB014469846064618B183690BB98F
:10548000FFF7E4FD894B9D421BD175686B6ED90710
:1054900005D4AB899A0502D4A86DFFF775FEAB89D8
:1054A0001B0701D52B69EBB929463046FFF746FCAF
:1054B000C0B16B6EDC070ED54FF0FF301DB0BDE8FC
:1054C000F08F7B4B9D4201D1B568DFE7794B9D4260
:1054D00008BFF568DAE7AB899805EDD4A86DFFF74A
:1054E00054FEE9E70023099320238DF82930CDF8F5
:1054F0000C803023DFF8C0818DF82A304FF001098D
:1055000023469A4613F8012B0AB1252AF9D1BAEBA2
:10551000040B0BD05B46224629463046FFF793FF2B
:10552000013000F0AA80099A5A4409929AF8003092
:10553000002B00F0A28000234FF0FF32CDE90523BD
:105540000AF1010A049307938DF853301A935446D5
:10555000052214F8011B5848FAF73AFE049AD8B904
:10556000D10644BF20238DF85330130744BF2B23AB
:105570008DF853309AF800302A2B15D0079A5446EC
:1055800000204FF00A0C214611F8013B303B092B5B
:105590004ED9B0B1079214E0A0EB080309FA03F367
:1055A00013430493A246D2E7039B191D1B68039182
:1055B000002BBBBF5B4242F0020207930793B8BFC8
:1055C000049223782E2B0CD163782A2B35D1039BA0
:1055D0001A1D1B680392002BB8BF4FF0FF33023433
:1055E0000593DFF8E4A0217803225046FAF7F0FD96
:1055F00040B14023A0EB0A0003FA00F0049B0343F0
:105600000134049314F8011B2C488DF8281006224D
:10561000FAF7DEFD00283FD0294B1BBB039B073365
:1056200023F0070308330393099B3B44099367E77F
:105630000CFB02320C460120A5E700230134059340
:1056400019464FF00A0C204610F8012B303A092A6F
:1056500003D9002BC5D00591C3E70CFB01210446FB
:105660000123F0E703AB00932A46164B04A930460A
:10567000AFF300800746781CD6D16B6ED90705D4EE
:10568000AB899A0502D4A86DFFF77FFDAB895B0655
:105690003FF512AF099811E703AB00932A46094B77
:1056A00004A9304600F080F8E4E700BFC05D0008C0
:1056B000E05D0008A05D0008005E00080A5E0008CA
:1056C0000000000047540008065E00082DE9F0477E
:1056D000164699468A680B69DDF820809342B8BF68
:1056E0001346336091F8432007460C460AB1013354
:1056F00033602368990642BF3368023333602568FC
:1057000015F0060506D104F1190AE36832689B1A00
:10571000AB4226DC94F84320131E226818BF0123F5
:1057200092062BD404F1430249463846C047013063
:105730001ED02368E568326803F00603042B08BF17
:10574000AD1AA36822690CBF25EAE57500259342CE
:10575000C4BF9B1AED1800261A34B5421AD1002096
:1057600008E00123524649463846C047013003D17C
:105770004FF0FF30BDE8F0870135C6E7E1185A1C4D
:10578000302081F84300224494F8451082F84310F9
:105790000233C7E70123224649463846C047013055
:1057A000E6D00136D9E700002DE9FF470F7E0C9DBA
:1057B000782F914680460C469A4601F1430207D85D
:1057C000622F0AD8002F00F0D880582F00F0A38055
:1057D00004F1420584F842703AE0A7F16303152B07
:1057E000F6D801A151F823F0415800085558000897
:1057F000D1570008D1570008D1570008D1570008E9
:1058000055580008D1570008D1570008D157000853
:10581000D15700086159000885580008435900080D
:10582000D1570008D157000883590008D157000804
:1058300085580008D1570008D15700084B59000877
:105840002B681A1D1B682A6004F1420584F8423057
:105850000123A3E020682968060601F104030AD5A4
:105860000E682B60002E03DA2D23764284F8433035
:105870005E480A2319E00E682B6010F0400F18BF35
:1058800036B2EFE72B682068191D2960010601D5A3
:105890001E6802E04606FBD51E8854486F2F0CBFD9
:1058A00008230A23002184F843106568A560002DB1
:1058B000A2BF216821F0040121600EB9002D4DD056
:1058C0001546B6FBF3F103FB1167C75D05F8017DD3
:1058D0003746BB420E46F4D9082B0BD12368DE07AE
:1058E00008D5236961689942DEBF302305F8013C81
:1058F00005F1FF35521B2261CDF800A04B4603AAEB
:1059000021464046FFF7E2FE01304CD14FF0FF3018
:1059100004B0BDE8F087354881F8457029682368F0
:1059200051F8046B29601D0614D5DF0744BF43F00E
:10593000200323601EB9236823F020032360102373
:10594000B0E7236843F0200323607823284884F8D5
:105950004530E3E7590648BFB6B2E6E71546BBE770
:105960002B6826686169181D286035061B6801D5FB
:10597000196002E07006FBD51980002323611546EB
:10598000BAE72B681A1D2A601D6862680021284644
:10599000FAF71EFC08B1401B6060636823610023B6
:1059A00084F84330A8E723692A4649464046D04751
:1059B0000130ABD023689B0713D4E068039B984267
:1059C000B8BF1846A4E70123324649464046D047AF
:1059D00001309BD00135E36803995B1AAB42F2DCDE
:1059E000EBE7002504F11906F5E700BF115E00089A
:1059F000225E000838B5064D0023044608462B6099
:105A0000FFF704F8431C02D12B6803B1236038BDB3
:105A10005C1B002010B50C46B1F90E1000F0A0F888
:105A20000028ABBF636DA3891B1823F48053ACBF60
:105A30006365A38110BD2DE9F0411F468B89DB050D
:105A400005460C46164605D5B1F90E100223002274
:105A500000F068F8A389B4F90E1023F48053A381F1
:105A600032463B462846BDE8F04100F017B810B575
:105A70000C46B1F90E1000F055F8431CA38915BF70
:105A8000606523F4805343F48053A38118BFA3813E
:105A900010BDB1F90E1000F013B8000038B5074D75
:105AA00004460846114600222A601A46FEF7E2FF25
:105AB000431C02D12B6803B1236038BD5C1B00205E
:105AC00038B5064D0023044608462B60FEF7E0FF7C
:105AD000431C02D12B6803B1236038BD5C1B00203E
