:020000040800F2
:1000000000C00020F952000807110008091100087B
:100010000B1100080D1100080F110008000000006E
:10002000000000000000000000000000914F0008E8
:1000300011110008000000003150000813110008E1
:100040004953000849530008495300084953000820
:100050004953000849530008495300084953000810
:100060004953000849530008495300084953000800
:1000700049530008495300084953000849530008F0
:1000800049530008495300084953000849530008E0
:1000900049530008495300084953000849530008D0
:1000A00049530008495300084953000849530008C0
:1000B00049530008000000000000000049530008F8
:1000C00049530008000000000000000049530008E8
:1000D000000000002911000849530008000000003A
:1000E00049530008495300080000000000000000C8
:1000F0000000000000000000000000000000000000
:10010000000000000000000000000000495300084B
:100110000000000000000000495300084953000897
:10012000495300084953000849530008495300083F
:10013000495300080000000000000000000000001B
:10014000495300084953000849530008495300081F
:10015000495300084953000849530008495300080F
:1001600049530008495300084953000800000000A3
:100170004953000849530008000000000000000037
:100180004953000849530008495300080000000083
:1001900010B5054C237833B9044B13B10448AFF3C1
:1001A00000800123237010BD7800002000000000B3
:1001B000D463000808B5034B1BB103490348AFF3F0
:1001C000008008BD000000007C000020D46300080F
:1001D00001F0FF01102A2BDB10F0070F08D010F8F8
:1001E000013B013A8B422DD010F0070F42B3F6D1FC
:1001F000F0B441EA012141EA014122F007047FF015
:1002000000070023F0E80256083C85EA010586EA6B
:10021000010685FA47F5A3FA87F586FA47F6A5FAA7
:1002200087F68EB9EED1F0BC01F0FF0102F00702B3
:1002300032B110F8013B013A83EA010313B1F8D15E
:100240000020704701387047002D06BF354603383F
:10025000073815F0010F07D1013015F4807F02BF78
:10026000013015F4C03F0130F0BC0138704700BFC9
:1002700070B54FF0FF0C4CF4E06C1CEA11541DBF3C
:100280001CEA135594EA0C0F95EA0C0F00F0DEF807
:100290002C4481EA030621EA4C5123EA4C5350EAEC
:1002A000013518BF52EA033541F4801143F480133D
:1002B00038D0A0FB02CE4FF00005E1FB02E506F0CE
:1002C0000042E0FB03E54FF00006E1FB03569CF023
:1002D000000F18BF4EF0010EA4F1FF04B6F5007F29
:1002E00064F5407404D25FEA4E0E6D4146EB06069B
:1002F00042EAC62141EA55514FEAC52040EA5E5024
:100300004FEACE2EB4F1FD0C88BFBCF5E06F1ED8CD
:10031000BEF1004F08BF5FEA500E50F1000041EB04
:10032000045170BD06F0004646EA010140EA0200B1
:1003300081EA0301B4EB5C04C2BFD4EB0C0541EAD3
:10034000045170BD41F480114FF0000E013C00F3E8
:10035000AB8014F1360FDEBF002001F0004170BD0C
:10036000C4F10004203C35DA0C341BDC04F1140425
:10037000C4F1200500FA05F320FA04F001FA05F2B1
:1003800040EA020001F0004221F0004110EBD3707E
:1003900021FA04F642EB06015EEA430E08BF20EAAA
:1003A000D37070BDC4F10C04C4F1200500FA04F34D
:1003B00020FA05F001FA04F240EA020001F00041DF
:1003C00010EBD37041F100015EEA430E08BF20EA52
:1003D000D37070BDC4F1200500FA05F24EEA020E9A
:1003E00020FA04F301FA05F243EA020321FA04F0C9
:1003F00001F0004121FA04F220EA020000EBD37080
:100400005EEA430E08BF20EAD37070BD94F0000F7F
:100410000FD101F00046400041EB010111F4801FB3
:1004200008BF013CF7D041EA060195F0000F18BF64
:10043000704703F00046520043EB030313F4801FA0
:1004400008BF013DF7D043EA0603704794EA0C0F5A
:100450000CEA135518BF95EA0C0F0CD050EA410670
:1004600018BF52EA4306D1D181EA030101F00041ED
:100470004FF0000070BD50EA410606BF1046194615
:1004800052EA430619D094EA0C0F02D150EA013621
:1004900013D195EA0C0F05D152EA03361CBF104662
:1004A00019460AD181EA030101F0004141F0FE4101
:1004B00041F470014FF0000070BD41F0FE4141F485
:1004C000780170BD81F0004102E000BF83F000437D
:1004D00030B54FEA41044FEA430594EA050F08BFDF
:1004E00090EA020F1FBF54EA000C55EA020C7FEAA3
:1004F000645C7FEA655C00F0E2804FEA5454D4EB20
:100500005555B8BF6D420CDD2C4480EA020281EAE9
:10051000030382EA000083EA010180EA020281EA21
:100520000303362D88BF30BD11F0004F4FEA013173
:100530004FF4801C4CEA113102D0404261EB410182
:1005400013F0004F4FEA03334CEA133302D0524208
:1005500063EB430394EA050F00F0A780A4F10104C4
:10056000D5F1200E0DDB02FA0EFC22FA05F28018FE
:1005700041F1000103FA0EF2801843FA05F35941E4
:100580000EE0A5F120050EF1200E012A03FA0EFC63
:1005900028BF4CF0020C43FA05F3C01851EBE3718D
:1005A00001F0004507D54FF0000EDCF1000C7EEBAA
:1005B00000006EEB0101B1F5801F1BD3B1F5001FE8
:1005C0000CD349085FEA30004FEA3C0C04F1010407
:1005D0004FEA445212F5800F80F09A80BCF1004F30
:1005E00008BF5FEA500C50F1000041EB045141EAB2
:1005F000050130BD5FEA4C0C404141EB0101013C7B
:1006000028BFB1F5801FE9D291F0000F04BF014669
:100610000020B1FA81F308BF2033A3F10B03B3F13B
:1006200020020CDA0C3208DD02F1140CC2F10C02CB
:1006300001FA0CF021FA02F10CE002F11402D8BF29
:10064000C2F1200C01FA02F120FA0CFCDCBF41EAF5
:100650000C019040E41AA2BF01EB0451294330BDC4
:100660006FEA04041F3C1CDA0C340EDC04F11404A1
:10067000C4F1200220FA04F001FA02F340EA030078
:1006800021FA04F345EA030130BDC4F10C04C4F1BE
:10069000200220FA02F001FA04F340EA030029469E
:1006A00030BD21FA04F0294630BD94F0000F83F4E8
:1006B000801306BF81F480110134013D4EE77FEACB
:1006C000645C18BF7FEA655C29D094EA050F08BF17
:1006D00090EA020F05D054EA000C04BF19461046F8
:1006E00030BD91EA030F1EBF0021002030BD5FEA3C
:1006F000545C05D14000494128BF41F0004130BD64
:1007000014F580043CBF01F5801130BD01F00045B7
:1007100045F0FE4141F470014FF0000030BD7FEA2A
:10072000645C1ABF194610467FEA655C1CBF0B4625
:10073000024650EA013406BF52EA033591EA030F3C
:1007400041F4002130BD00BF90F0000F04BF002134
:10075000704730B54FF4806404F132044FF0000567
:100760004FF0000150E700BF90F0000F04BF0021E0
:10077000704730B54FF4806404F1320410F0004546
:1007800048BF40424FF000013EE700BF42004FEA41
:10079000E2014FEA31014FEA02701FBF12F07F43BE
:1007A00093F07F4F81F06051704732F07F4208BF75
:1007B000704793F07F4F04BF41F40021704730B57C
:1007C0004FF4607401F0004521F000411CE700BFC8
:1007D00050EA010208BF704730B54FF000050AE04B
:1007E00050EA010208BF704730B511F0004502D54C
:1007F000404261EB41014FF4806404F132045FEA4E
:10080000915C3FF4D8AE4FF003025FEADC0C18BFF6
:1008100003325FEADC0C18BF033202EBDC02C2F1E8
:10082000200300FA03FC20FA02F001FA03FE40EA7A
:100830000E0021FA02F11444BDE600BF4A0011D2B5
:1008400012F5001211D20DD56FF47873B3EB62522A
:100850000ED44FEAC12343F0004343EA505323FA36
:1008600002F070474FF00000704750EA013002D1AB
:100870004FF0FF3070474FF00000704753B94AB94E
:10088000002908BF00281CBF4FF0FF314FF0FF3098
:1008900000F074B9ADF1080C6DE904CE00F006F873
:1008A000DDF804E0DDE9022304B070472DE9F047EC
:1008B000089D04468E46002B4DD18A42944669D944
:1008C000B2FA82F252B101FA02F3C2F1200120FA27
:1008D00001F10CFA02FC41EA030E94404FEA1C4875
:1008E000210CBEFBF8F61FFA8CF708FB16E341EA71
:1008F000034306FB07F199420AD91CEB030306F1F7
:10090000FF3080F01F81994240F21C81023E634417
:100910005B1AA4B2B3FBF8F008FB103344EA0344BB
:1009200000FB07F7A7420AD91CEB040400F1FF33D0
:1009300080F00A81A74240F207816444023840EA0D
:100940000640E41B00261DB1D4400023C5E9004346
:100950003146BDE8F0878B4209D9002D00F0EF80C9
:100960000026C5E9000130463146BDE8F087B3FAFC
:1009700083F6002E4AD18B4202D3824200F2F980E4
:10098000841A61EB030301209E46002DE0D0C5E9E7
:10099000004EDDE702B9FFDEB2FA82F2002A40F033
:1009A0009280A1EB0C014FEA1C471FFA8CFE012636
:1009B000200CB1FBF7F307FB131140EA01410EFBDA
:1009C00003F0884208D91CEB010103F1FF3802D281
:1009D000884200F2CB804346091AA4B2B1FBF7F07B
:1009E00007FB101144EA01440EFB00FEA64508D99E
:1009F0001CEB040400F1FF3102D2A64500F2BB80DB
:100A00000846A4EB0E0440EA03409CE7C6F1200729
:100A1000B34022FA07FC4CEA030C20FA07F401FA6F
:100A200006F31C43F9404FEA1C4900FA06F3B1FBF8
:100A3000F9F8200C1FFA8CFE09FB181140EA01415D
:100A400008FB0EF0884202FA06F20BD91CEB0101FA
:100A500008F1FF3A80F08880884240F28580A8F152
:100A600002086144091AA4B2B1FBF9F009FB1011A4
:100A700044EA014100FB0EFE8E4508D91CEB010142
:100A800000F1FF346CD28E456AD90238614440EAE5
:100A90000840A0FB0294A1EB0E01A142C846A64665
:100AA00056D353D05DB1B3EB080261EB0E0101FAEE
:100AB00007F722FA06F3F1401F43C5E9007100264B
:100AC0003146BDE8F087C2F12003D8400CFA02FCA1
:100AD00021FA03F3914001434FEA1C471FFA8CFEB1
:100AE000B3FBF7F007FB10360B0C43EA064300FBA1
:100AF0000EF69E4204FA02F408D91CEB030300F13F
:100B0000FF382FD29E422DD9023863449B1B89B2F5
:100B1000B3FBF7F607FB163341EA034106FB0EF37E
:100B20008B4208D91CEB010106F1FF3816D28B422B
:100B300014D9023E6144C91A46EA004638E72E46F7
:100B4000284605E70646E3E61846F8E64B45A9D2EF
:100B5000B9EB020864EB0C0E0138A3E74646EAE75E
:100B6000204694E74046D1E7D0467BE7023B61440C
:100B700032E7304609E76444023842E7704700BF75
:100B800070B588B0002403940494059406940794E7
:100B9000284BDA6C42F00402DA64DA6C02F00402E8
:100BA0000092009ADA6C42F00102DA64DA6C02F028
:100BB00001020192019ADA6C42F00202DA64DB6C03
:100BC00003F002030293029B22464FF4A0714FF000
:100BD000904001F048FF184D2246AB21284601F015
:100BE00042FF4FF4A07303930126049605940694E4
:100BF00003A94FF0904001F057FEAB2303930496F6
:100C00000594069403A9284601F04EFE4FF4C05304
:100C100003930494059403A94FF0904001F044FE1F
:100C2000502303930494059403A9284601F03CFE45
:100C300008B070BD001002400004004808B506E08E
:100C400000F0E8F900F03AFA012003F053FC024BFF
:100C50001B78002BF4D1F7E77402002008B50120BF
:100C600003F048FCFBE7000070B582B00C46079D1E
:100C70000195069E009603F090FA012806D02146C1
:100C8000074804F0A3FB012002B070BD286803F000
:100C900015FB0146034804F099FB0020F4E700BF70
:100CA00000640008F063000800B583B001904FF6BF
:100CB000FF73012201A9034802F00EFC019803B062
:100CC0005DF804FBE401002072B6FEE700B587B0D2
:100CD0000023009301930293039304930593184810
:100CE000184A026043608360C3600361042242616A
:100CF000037643760122C26180F820308362C362AA
:100D000080F83030436380F8383000F043FB90B90E
:100D10000D4B009306230193002302937F2203923D
:100D20000422049205936946054800F019FC20B995
:100D300007B05DF804FBFFF7C7FFFFF7C5FF00BF73
:100D400094000020000004500001802108B50F48E5
:100D50000F4B03604FF482734360002383604FF4B2
:100D60004072C260036143614FF400728261C361EB
:100D70000362436283620722C26203630823436300
:100D800001F088FF00B908BDFFF79EFFF8000020C2
:100D90000030014008B50B480B4B03604FF416536D
:100DA000436000238360C36003610C22426183615E
:100DB000C3610362436202F056FC00B908BDFFF74D
:100DC00083FF00BF5C0100200038014008B50B48DC
:100DD0000B4B03604FF4E133436000238360C36037
:100DE00003610C2242618361C3610362436202F0CA
:100DF0003AFC00B908BDFFF767FF00BFE40100201F
:100E00000044004000B597B04422002105A804F03A
:100E1000D5FA0023009301930293039304934FF4B4
:100E2000007001F083FE002831D101F06FFE1B4AF3
:100E3000D2F8903023F01803C2F8903014230593B1
:100E4000012307930B9300220C9260220D92022241
:100E50000F9210931193102312930723139314925C
:100E6000159205A800F0CAFE98B90F23009303233A
:100E7000019300230293039304930121684601F038
:100E8000F3F940B901F008FD17B05DF804FBFFF776
:100E90001BFFFFF719FFFFF717FF00BF001002400D
:100EA00000B583B000F0D2FDFFF7ACFFFFF768FE9E
:100EB000FFF70CFFFFF74AFFFFF76CFFFFF786FF16
:100EC0000E4804F009FB0E4B019308230093002306
:100ED0004FF400720B490C48FFF7C6FE0B4B019311
:100EE000072300930023802209490A48FFF7BCFE2C
:100EF000094804F0F1FA03F085F9FEE718640008E8
:100F00006C020020246400083D0C000870020020E0
:100F10002C6400085D0C0008346400080000000028
:100F200010B5012220214FF0904001F09CFD0A20D5
:100F300000F0AEFD002220214FF0904001F093FD23
:100F400000F0A0FD044640214FF0904001F084FDE8
:100F500030B900F097FD001B6428F4D900201AE096
:100F600000F090FD044640214FF0904001F074FDE8
:100F70000128F8D000F086FD001BFFF7E5FB07A372
:100F8000D3E90023FFF774F90022034BFFF770F950
:100F9000FFF754FC80B210BD0000E03F9CC420B0BD
:100FA0007268A13F10B5002240214FF0904001F03F
:100FB0005AFD094C00220121204601F054FD002277
:100FC0004FF480714FF0904001F04DFD00228021E0
:100FD000204601F048FD10BD0004004810B5012274
:100FE00040214FF0904001F03EFD094C00220121CC
:100FF000204601F038FD01224FF480714FF09040FF
:1010000001F031FD00228021204601F02CFD10BDB1
:101010000004004808B5FFF783FF042800D908BD85
:10102000FFF7C0FF01220221074801F01CFDFFF776
:1010300077FF0428FBD900220221034801F013FDA9
:10104000FFF7CCFFEBE700BF0004004810B500221B
:1010500040214FF0904001F006FD094C012211465D
:10106000204601F000FD01224FF480714FF09040C6
:1010700001F0F9FC00228021204601F0F4FC10BDB3
:101080000004004810B5012240214FF0904001F0CB
:10109000EAFC094C00220121204601F0E4FC002278
:1010A0004FF480714FF0904001F0DDFC012280216F
:1010B000204601F0D8FC10BD0004004810B51021F6
:1010C0004FF0904001F0C8FC04464FF480514FF0BF
:1010D000904001F0C1FC012C08D001280BD0012C5C
:1010E00001D101280CD0FFF75DFF10BD0128F4D01D
:1010F000FFF7ACFFF9E7012CF1D0FFF7C3FFF4E7EE
:10110000FFF76CFFF1E7FEE7FEE7FEE7FEE7FEE72D
:10111000704708B500F0AAFC03F02AFB012800D1B3
:1011200008BD03F0B7FFFBE708B5024801F068FE11
:1011300008BD00BF5C01002000B583B00D4B1A6EE6
:1011400042F001021A661A6E02F001020092009A41
:101150009A6D42F080529A659B6D03F08053019323
:10116000019B00220F216FF0010001F039FD03B057
:101170005DF804FB0010024010B59CB0044600214D
:101180001791189119911A911B91542202A804F0F9
:1011900015F922681E4B9A4201D01CB010BD4FF4C5
:1011A000804302934FF080531493012303930493DD
:1011B00010230593072306930223079308934FF008
:1011C0008073099302A801F0F3F9F0B9114BDA6CBE
:1011D00042F40052DA64DA6C02F400520092009A8F
:1011E000DA6C42F00102DA64DB6C03F00103019374
:1011F000019B782317930B2318930023199317A9A6
:101200004FF0904001F050FBC7E7FFF75DFDDDE7D1
:10121000000004500010024000B589B00023039381
:1012200004930593069307930268144B9A4202D0E5
:1012300009B05DF804FB03F560431A6E42F4805276
:101240001A661A6E02F480520192019ADA6C42F028
:101250000102DA64DB6C03F001030293029B822338
:10126000039302230493032306930523079303A9FF
:101270004FF0904001F018FBDAE700BF003001406A
:1012800070B59EB00446002119911A911B911C91D2
:101290001D91542204A804F091F823683A4A93421D
:1012A00004D03A4A934236D01EB070BD0123049355
:1012B00004A801F07DF958BB354B1A6E42F4804208
:1012C0001A661A6E02F480420092009ADA6C42F0BA
:1012D0000102DA64DB6C03F001030193019B4FF41C
:1012E000C063199302231A9300241B9403231C93B5
:1012F00007231D9319A94FF0904001F0D5FA22461B
:101300000521252001F06CFC252001F0A1FCCBE794
:10131000FFF7DAFCD0E70223049304A801F048F9B0
:1013200000282ED11A4B9A6D42F400329A659A6DBC
:1013300002F400320292029ADA6C42F00102DA649C
:10134000DB6C03F001030393039B04231993022630
:101350001A9600251B9503241C9407231D9319A995
:101360004FF0904001F0A0FA4FF4004319931A9601
:101370001B951C941D9419A94FF0904001F094FA0C
:1013800092E7FFF7A1FCCDE70038014000440040A0
:101390000010024030B583B000230193002800F014
:1013A000D3800446436D13B323689A6812F0005F3C
:1013B00005D09A6822F0204222F03F029A6022680B
:1013C000936813F0805F1FD1936823F0104323F0DC
:1013D0003F0343F0805393605C4B1B689B095C4A5E
:1013E000A2FB03239B0901335B00019309E0FFF794
:1013F000C3FE0023A36584F85030D5E7019B013B71
:101400000193019B002BF9D12268936813F0805F50
:1014100071D1636D43F010036365A36D43F0010365
:10142000A3650120936813F0040300D00123616DCC
:1014300011F0100F40F08180002B7ED1636D23F4FA
:10144000817343F002036365936813F0010F0BD1BE
:10145000404B9B6813F0010F06D163683E498A68D0
:1014600022F47C1213438B60627E636B43EA423347
:10147000E2681343A268134394F8202043EA02432E
:10148000012A3AD0A26A22B102F47072E16A0A43D8
:1014900013432168CD68314A2A401343CB60226848
:1014A000936813F0080300D00123ABB9217E94F8B0
:1014B00030305B0043EA8131D36823F4804323F06A
:1014C00002030B43D36094F83830012B1AD0226802
:1014D000136923F0010313612369012B24D02268CF
:1014E000136B23F00F031363636D23F0030343F0C7
:1014F0000103636526E0002094E7626A013A43EA4B
:101500004243BFE721680B6923F4FF6323F0040320
:10151000E26B256C2A43656C2A43A56C2A4313436E
:1015200043F001030B61D7E721680B6B23F00F0336
:10153000E269013A13430B63D6E7636D43F010038E
:101540006365012003B030BD0120FBE708000020E7
:10155000632D3E05000004500003045007C0F0FF57
:10156000F0B583B00022019290F85020012A00F0DB
:101570003B820346012280F850200068826812F006
:10158000040F09D05A6D42F020025A650120002252
:1015900083F8502003B0F0BD4A68052A07D8023A04
:1015A000032A65D8DFE802F002665F610C2200F1D1
:1015B000300E100A800000F00C005EF8004002F0CF
:1015C0001F024FF01F0C0CFA02FC24EA0C0C0C68F2
:1015D000C4F3846404FA02F24CEA02024EF80020DA
:1015E0001C68A26812F0040200D00122A06810F06A
:1015F000080000D001200AB900283DD01868826890
:1016000012F0010F18D10A68CD68D0F8B040C2F3CB
:10161000120C24EA0C0405F0180CAC4D25FA0CFC55
:1016200002EA0C02C2F312022243C0F8B020C868DA
:10163000A74A904200F0B5800A68A6490A4200F025
:10164000CF81A549896801F0E074A448824200F086
:101650007981A348824200F09C81A248824200F036
:10166000AC81002093E71822A1E74FF480729EE737
:1016700006229CE712229AE70E688D681434720ED7
:10168000920002F00402A058C6F3045C072606FA92
:101690000CF620EA060005FA0CF52843A0504C6928
:1016A0001868C268C2F3C102520004FA02F20D695E
:1016B000042D0ED00E68603050F825708A4C3C40E6
:1016C00006F0F8463243144344F0004440F8254005
:1016D00094E7026E046EC4F384640A68C2F31205D0
:1016E00085BBC2F38462944234D01C68626E606E23
:1016F000C0F384600A68C2F3120585BBC2F384623A
:10170000904234D01C68A26EA06EC0F384600A6858
:10171000C2F3120585BBC2F38462904234D01C68C8
:10172000E26EE06EC0F384600A68C2F3120585BB06
:10173000C2F3846290427FF461AFE26E22F0004215
:10174000E2665BE792FAA2F212B1B2FA82F2CAE75B
:101750002022C8E7026E22F000420266C5E792FA34
:10176000A2F212B1B2FA82F2CAE72022C8E7626E90
:1017700022F000426266C5E792FAA2F212B1B2FA12
:1017800082F2CAE72022C8E7A26E22F00042A266D7
:10179000C5E792FAA2F212B1B2FA82F2CAE72022A7
:1017A000C8E71C680A68C2F31205002D39D1900EF3
:1017B000013000F01F0009288CBF00200120002804
:1017C00067D0002D3CD1900E0130800600F0F8402B
:1017D000002D41D1960E013606F01F0C012606FAA7
:1017E0000CF63043002D46D1920E013202F01F025A
:1017F00002EB420212050243886804F11406550EFA
:10180000AD0005F004057459C2F304524FF0070C03
:101810000CFA02FC24EA0C0C90404CEA00007051D7
:101820000AE792FAA2F048B1B0FA80F0013000F075
:101830001F0009288CBF00200120C0E72020F5E709
:1018400092FAA2F030B1B0FA80F00130800600F0D8
:10185000F840BDE72020F8E792FAA2F64EB1B6FABA
:1018600086F6013606F01F064FF0010C0CFA06F65C
:10187000B7E72026F5E792FAA2F242B1B2FA82F275
:10188000013202F01F0202EB42021205B3E72022EE
:10189000F6E75DBB900E0130800600F0F8408DBB8E
:1018A000960E013606F01F0C012606FA0CF63043A0
:1018B000BDBB920E013202F01F0202EB42021E3A41
:1018C000120542F00072024396E700BFFFFF0700D7
:1018D00000007F400000088000030450000052C751
:1018E000000084CB0100008000F0FF0392FAA2F018
:1018F00030B1B0FA80F00130800600F0F840CEE759
:101900002020F8E792FAA2F64EB1B6FA86F6013632
:1019100006F01F064FF0010C0CFA06F6C7E720266A
:10192000F5E792FAA2F25AB1B2FA82F2013202F06B
:101930001F0202EB42021E3A120542F00072C2E799
:101940002022F3E711F4000F7FF483AE1968274AD1
:10195000914201D000201AE644F400022448816834
:1019600021F0E0710A438260224A126892092249FA
:10197000A1FB02129209013202EB42029200019293
:1019800002E0019A013A0192019A002AF9D100205D
:10199000FDE511F0807F7FF460AE1968134A914233
:1019A00001D00020F3E544F080721148816821F0F5
:1019B000E0710A4382600020E9E511F4800F11D143
:1019C00019680A4A914201D00020E0E544F48002FF
:1019D0000748816821F0E0710A4382600020D6E563
:1019E0000020D4E50020D2E50220D3E50000045019
:1019F0000003045008000020632D3E05104B1B78A7
:101A00000BB90120704710B504464FF47A70B0FB53
:101A1000F3F30C4A1068B0FBF3F001F027F968B952
:101A20000F2C01D901200AE0002221464FF0FF309F
:101A300001F0D6F8044B1C60002000E0012010BD2E
:101A400000000020080000200400002010B5032042
:101A500001F0B4F80F20FFF7D1FF10B101242046A8
:101A600010BD0446FFF768FBF9E70000034B1B7845
:101A7000034A11680B441360704700BF0000002048
:101A800078020020014B1868704700BF78020020E0
:101A900038B50446FFF7F6FF0546B4F1FF3F02D024
:101AA000044B1B781C44FFF7EDFF401BA042FAD308
:101AB00038BD00BF0000002030B583B00446204B85
:101AC0009B6D13F0805F0BD001F028F8B0F5007F1C
:101AD00017D0802C1FD82DD0702C2DD000211BE0CA
:101AE000174DAB6D43F08053AB65AB6D03F0805386
:101AF0000193019B01F012F8AB6D23F08053AB65AD
:101B0000E4E7802C03D9A02C03D9022104E00021B2
:101B100002E0012100E003210A4A136823F00703D1
:101B20000B431360136803F007038B4206D10020B8
:101B300003B030BD0221EFE70121EDE70120F7E717
:101B40000010024000200240284A9368D26802F048
:101B5000030213F00C030AD00C2B06D0042B1FD069
:101B6000082B20D00020024610E0012AF6D11F4A9F
:101B7000126812F0080F0CD11C4AD2F89420C2F35C
:101B800003221B4951F8222043B100200C2B0DD019
:101B90007047164A1268C2F30312F2E71046F5E7DF
:101BA00014480022F2E714480022EFE70F4BDB68ED
:101BB00003F00303022B16D0032B00D10E4A0B496E
:101BC000C868C0F30210431CC868C0F3062002FBBB
:101BD00000F0B0FBF3F0CB68C3F3416301335B006B
:101BE000B0FBF3F0D4E7034AE9E700BF001002407E
:101BF000686400080024F40000127A00002800F055
:101C00001C83F0B583B00446964B9D6805F00C0527
:101C1000DE6806F00306036813F0100F5AD0E5B132
:101C20000C2D18D0A369002B00F0BB808D4A1368DF
:101C300043F001031360FFF725FF0746894B1B683C
:101C400013F0020F40F09A80FFF71CFFC01B022820
:101C5000F4D90320FCE2012EE4D1824B1B6813F07F
:101C6000020F03D0A369002B00F0E982206A7D4BAC
:101C70001B6813F0080F5BD07A4B1B6803F0F0036E
:101C800098425CD8774B1A6842F008021A601A68CA
:101C900022F0F002216A0A431A605A6822F47F4255
:101CA000E16942EA01225A60002D60D0FFF74CFF43
:101CB0006C4B9B68C3F303136B4AD35C03F01F03A5
:101CC000D8406A4B18606A4B1868FFF797FE0028E7
:101CD00040F0BE82236813F0010F00F08180082DD0
:101CE00075D00C2D71D06368B3F5803F00F09780FC
:101CF000B3F5A02F00F099805A4B1A6822F4803275
:101D00001A601A6822F480221A606368002B00F0BF
:101D10009980FFF7B7FE0746524B1B6813F4003F4C
:101D20005ED1FFF7AFFEC01B6428F5D903208FE218
:101D30004C4BD3F894301B0903F0F003A0E7FFF7F6
:101D4000BBFE002840F07D82464B1A6842F0080234
:101D50001A601A6822F0F002216A0A431A605A686F
:101D600022F47F42E16942EA01225A609EE7206A3A
:101D7000FFF7A2FE002899D0012069E2394B1A68CA
:101D800042F008021A601A6822F0F002216A0A433F
:101D90001A605A6822F47F42E16942EA01225A60DD
:101DA00098E7304A136823F001031360FFF76AFED7
:101DB00007462C4B1B6813F0020F8BD0FFF762FE17
:101DC000C01B0228F5D9032042E2032E8BD1254BFC
:101DD0001B6813F4003F03D06368002B00F03382CC
:101DE000236813F0020F58D0042D45D00C2D41D09C
:101DF000E368002B77D01B4A136843F480731360A9
:101E0000FFF740FE0646174B1B6813F4806F61D145
:101E1000FFF738FE801B0228F5D9032018E2114A8B
:101E2000136843F4803313606FE703F18043A3F535
:101E30003C331A6842F480221A601A6842F48032F5
:101E40001A6062E7FFF71EFE0746064B1B6813F495
:101E5000003FC5D0FFF716FEC01B6428F5D903204C
:101E6000F6E100BF001002405064000808000020A6
:101E700004000020022EBBD1A44B1B6813F4806F1A
:101E800003D0E368002B00F0E081A04A536823F000
:101E9000F853216943EA01635360236813F0080F84
:101EA0004CD063699BB3994AD2F8943043F0010354
:101EB000C2F89430FFF7E6FD0646944BD3F8943011
:101EC00013F0020F3AD1FFF7DDFD801B0228F4D991
:101ED0000320BDE18D4A536823F0F853216943EA9A
:101EE00001635360D9E7894A136823F48073136050
:101EF000FFF7C8FD0646854B1B6813F4806FCCD0F6
:101F0000FFF7C0FD801B0228F5D90320A0E17F4A1E
:101F1000D2F8943023F00103C2F89430FFF7B2FDF9
:101F200006467A4BD3F8943013F0020F06D0FFF731
:101F3000A9FD801B0228F4D9032089E1236813F04E
:101F4000040F7AD0714B9B6D13F0805F36D16F4BCD
:101F50009A6D42F080529A659B6D03F08053019315
:101F6000019B01266A4B1B6813F4807F28D0A3686D
:101F7000012B39D0052B3FD0644BD3F8902022F0B1
:101F80000102C3F89020D3F8902022F00402C3F895
:101F90009020A368002B3DD0FFF774FD07465B4BF4
:101FA000D3F8903013F0020F46D1FFF76BFDC01B42
:101FB00041F288339842F2D9032049E10026D1E763
:101FC000534A136843F480731360FFF75BFD0746C1
:101FD0004F4B1B6813F4807FC9D1FFF753FDC01B23
:101FE0000228F5D9032033E1484AD2F8903043F073
:101FF0000103C2F89030CCE7444BD3F8902042F074
:102000000402C3F89020D3F8902042F00102C3F8F4
:102010009020BEE7FFF736FD07463C4BD3F89030E3
:1020200013F0020F08D0FFF72DFDC01B41F28833DB
:102030009842F2D903200BE1E6B9236813F0200F90
:1020400035D0636AE3B1314AD2F8983043F00103E6
:10205000C2F89830FFF716FD06462C4BD3F898309F
:1020600013F0020F23D1FFF70DFD801B0228F4D9D6
:102070000320EDE0254A936D23F080539365DCE760
:10208000224AD2F8983023F00103C2F89830FFF7C3
:10209000F9FC06461D4BD3F8983013F0020F06D01A
:1020A000FFF7F0FC801B0228F4D90320D0E0A36ADC
:1020B000002B00F0CC80022B17D00C2D00F0CC8030
:1020C000124A136823F080731360FFF7DBFC0446A9
:1020D0000E4B1B6813F0007F00F0A880FFF7D2FCC6
:1020E000001B0228F4D90320B2E0084BDB6803F0A0
:1020F0000301E26A91420DD00C2D00F0AB80034B3E
:102100001B6813F0806F2FD00120A1E00010024067
:102110000070004003F07002216B0139B2EB011F27
:10212000EAD103F4FE42616BB2EB012FE4D103F07C
:102130007842A16BB2EBC16FDED103F4C001E26B58
:102140005208013AB1EB425FD6D103F0C063226C72
:102150005208013AB3EB426FCED1404B1B6813F0EB
:10216000007F49D0002073E03C4A136823F080735D
:102170001360FFF787FC0546384B1B6813F0007FA0
:1021800006D0FFF77FFC401B0228F5D903205FE053
:10219000324AD36832491940E36A206B013843EA76
:1021A0000013606B43EA0023E06B4008013843EA08
:1021B0004053206C4008013843EA4063A06B43EA77
:1021C000C0630B43D360136843F080731360D3681C
:1021D00043F08073D360FFF755FC04461F4B1B6828
:1021E00013F0007F06D1FFF74DFC001B0228F5D944
:1021F00003202DE000202BE0184B1A6842F080727B
:102200001A60DA6842F08072DA60FFF73BFC04463D
:10221000124B1B6813F0007F06D1FFF733FC031B42
:10222000022BF5D9032013E0002011E00B4AD168FE
:102230000C4B0B40D36000200AE0012070470120C6
:1022400006E0012004E0012002E0012000E000207F
:1022500003B0F0BD0120FBE70120F9E700100240C8
:102260008C809D01FCFFEEFE002800F0AF8070B571
:102270000D460446594B1B6803F007038B420BD2F3
:10228000564A136823F007030B431360136803F0E7
:1022900007038B4240F09C80236813F0020F0CD0A0
:1022A000A2684F4B9B6803F0F0039A4205D94C4952
:1022B0008B6823F0F0031A438A60236813F0010F40
:1022C00039D06368032B09D0022B26D063BB444A64
:1022D000126812F0020F06D1012076E0404A12681F
:1022E00012F0007F76D03E498A6822F00302134341
:1022F0008B60FFF7C7FB0646394B9B6803F00C0366
:102300006268B3EB820F16D0FFF7BCFB801B41F273
:1023100088339842F0D9032057E0314A126812F40A
:10232000003FE0D1012050E02D4A126812F4806F86
:10233000D9D1012049E0236813F0020F0CD0A26824
:10234000274B9B6803F0F0039A4205D224498B681F
:1023500023F0F0031A438A60204B1B6803F0070345
:10236000AB420AD91D4A136823F007032B431360BD
:10237000136803F00703AB422ED1236813F0040F58
:1023800006D0174A936823F4E063E1680B43936037
:10239000236813F0080F07D0114A936823F46053A1
:1023A000216943EAC1039360FFF7CEFB0C4B9B68A6
:1023B000C3F303130B4AD35C03F01F03D8400A4B4B
:1023C00018600A4B1868FFF719FB70BD01207047B1
:1023D0000120FAE70120F8E70120F6E7002002409B
:1023E0000010024050640008080000200400002093
:1023F000014B1868704700BF0800002008B5FFF7C0
:10240000F7FF054B9B68C3F30223044AD35C03F038
:102410001F03D84008BD00BF0010024060640008E0
:1024200008B5FFF7E5FF054B9B68C3F3C223044AD9
:10243000D35C03F01F03D84008BD00BF001002406A
:1024400060640008F8B504460F46584BDB6813F08B
:10245000030F18D0554BDB6803F003030268934267
:1024600002D001252846F8BD002A00F09D804F4B80
:10247000DB68C3F3021301334268934201D00125A4
:10248000F0E7002509E00368022B56D0032B5BD050
:10249000012B41D00125002DE4D1444A136823F0DB
:1024A00080631360FFF7EEFA0646404B1B6813F09B
:1024B000006F05D0FFF7E6FA831B022BF5D9032541
:1024C000002DCFD1002F4DD138490B6923F078432F
:1024D00023F4FE43A068E268D20642EA00221343D6
:1024E0000B61324A136843F080631360FFF7CAFA46
:1024F00006462E4B1B6813F0006F05D1FFF7C2FA9A
:10250000831B022BF5D90325002DABD1274A136974
:10251000A1690B431361A5E7244A126812F0020F68
:102520001ED02248C26822F073026168013943EA72
:1025300001131343C3600025ADE71C4A126812F46F
:10254000806FEED10125A6E7184A126812F4003F09
:10255000E7D1164A126812F4802FE2D101259AE7DA
:10256000012598E7012F0FD01048026922F0C062C0
:1025700022F4FE42A16863695B08013B5B0643EA03
:10258000012313430361ACE70848026922F4C00247
:1025900022F4FE42A16823695B08013B5B0543EA24
:1025A0000123134303619CE701255BE70010024010
:1025B0002DE9F04182B00446036813F4006F25D082
:1025C000C36BB3F5000F06D0B3F5400F12D04BB17B
:1025D000012637461CE0AE4AD36843F48033D3600B
:1025E000002708E000210430FFF72CFF074610B158
:1025F00006460DE00027A64AD2F8883023F44003AF
:10260000E16B0B43C2F88830002601E00026374614
:10261000236813F4003F6BD09D4B9B6D13F0805FDC
:102620004CD19B4B9A6D42F080529A659B6D03F0A2
:1026300080530193019B4FF00108964A136843F4BD
:1026400080731360FFF71EFA0546924B1B6813F464
:10265000807F05D1FFF716FA401B0228F5D9032722
:10266000002F40D18A4BD3F8903013F4407315D02B
:10267000226D9A4212D0864AD2F8903023F44073E9
:10268000D2F8901041F48031C2F89010D2F8901036
:1026900021F48031C2F89010C2F8903013F0010F8D
:1026A0000FD1002F40F0C980794AD2F8903023F43E
:1026B0004073216D0B43C2F8903015E04FF00008D5
:1026C000BBE7FFF7DFF90546714BD3F8903013F005
:1026D000020FE6D1FFF7D6F9401B41F2883398424A
:1026E000F2D90327DDE73E46B8F1000F40F0A7809E
:1026F000236813F0010F08D0654AD2F8883023F020
:102700000303216A0B43C2F88830236813F0020FD9
:1027100008D05F4AD2F8883023F00C03616A0B437B
:10272000C2F88830236813F0200F08D0584AD2F836
:10273000883023F44063A16A0B43C2F888302368D1
:1027400013F4007F08D0524AD2F8883023F4402393
:10275000616B0B43C2F88830236813F4806F08D094
:102760004B4AD2F8883023F44013A16B0B43C2F8D4
:102770008830236813F0400F08D0454AD2F88830DB
:1027800023F44053E16A0B43C2F88830236813F402
:10279000807F08D03E4AD2F8883023F44033216B42
:1027A0000B43C2F88830236813F4005F0FD0384A17
:1027B000D2F8883023F04063216C0B43C2F8883094
:1027C000236CB3F1006F40D0B3F1806F42D0236827
:1027D00013F4802F0FD02E4AD2F8883023F04063B4
:1027E000616C0B43C2F88830636CB3F1006F39D071
:1027F000B3F1806F3BD0236813F4804F0CD0244A90
:10280000D2F8883023F04053A16C0B43C2F88830D3
:10281000A36CB3F1805F32D0236813F4004F08D06B
:102820001B4AD2F8883023F08043E16C0B43C2F896
:102830008830304602B0BDE8F0813E4654E7144A85
:10284000936D23F08053936552E7D36843F480136C
:10285000D360BCE70121201DFFF7F4FD0028B6D0AE
:102860000646B4E7D36843F48013D360C3E701217D
:10287000201DFFF7E7FD0028BDD00646BBE702217B
:10288000201DFFF7DFFD0028C6D00646C4E700BFC5
:102890000010024000700040024A136843F0040335
:1028A0001360704700100240F0B583B0002362E06F
:1028B00085685E000324B44025EA0405CC68B44072
:1028C0002C438460446824EA0C0C4C68C4F3001464
:1028D0009C4044EA0C0444605EE0DD08083550F892
:1028E000256003F007044FEA840C0F2404FA0CF46B
:1028F00026EA040E0C6904FA0CF444EA0E0440F8CB
:10290000254060E0022400E0002404FA0EF42C4389
:102910000CF1020C4C4D45F82C404C4CA568D443AE
:1029200025EA02064F6817F4801F01D042EA050627
:10293000464DAE60ED6804EA05064F6817F4001FC7
:1029400001D042EA0506414DEE606D6804EA0506D5
:102950004F6817F4003F01D042EA05063B4D6E6018
:102960002D682C404E6816F4803F01D042EA0504E1
:10297000364A146001330A6832FA03F462D04FF029
:10298000010C0CFA03FC1CEA0202F3D04C6804F0C0
:102990000304013C012C8BD94C6804F00304032C84
:1029A0000CD0C4685D004FF0030C0CFA05FC24EA5F
:1029B0000C0C8C68AC4044EA0C04C4604C6804F015
:1029C0000304022C89D004684FEA430E4FF0030C35
:1029D0000CFA0EFC24EA0C0C4C6804F0030404FA14
:1029E0000EF444EA0C0404604C6814F4403FC1D077
:1029F000174C256E45F001052566246E04F0010490
:102A00000194019C4FEA930C0CF102050E4C54F812
:102A1000255003F003044FEA840E0F2404FA0EF449
:102A200025EA0405B0F1904F3FF46EAF094CA04287
:102A300006D004F58064A0423FF464AF072464E745
:102A4000012462E703B0F0BD000001400004014032
:102A500000100240000400480369194201D001201F
:102A60007047002070470AB18161704781627047EA
:102A700090F82530DBB2022B06D00423C363002379
:102A800080F82430012070470268136823F00E0399
:102A900013600268136823F001031360436C03F0B2
:102AA0001C03016C012202FA03F34B6080F825201D
:102AB000002380F824301846704708B590F8253078
:102AC000DBB2022B03D00423C363012008BD0268DC
:102AD000136823F00E0313600268136823F00103E8
:102AE0001360436C03F01C03016C012202FA03F330
:102AF0004B6080F82520002380F82430836B13B1CD
:102B000098470020E2E70020E0E70000024A13684F
:102B100043F480731360704700700040024B1868E4
:102B200000F4C060704700BF00700040B0F5007F47
:102B30000FD01F4B1B6803F4C063B3F5806F34D014
:102B40001B4A136823F4C06343F4806313600020BE
:102B50007047174B1B6803F4C063B3F5007F20D0A8
:102B6000134A136823F4C06343F400731360114BDA
:102B70001B68322202FB03F30F4AA2FB03239B0CC8
:102B8000013300E0013B0A4A526912F4806F01D020
:102B9000002BF7D1064B5B6913F4806F03D1002043
:102BA000704700207047032070470020704700BF27
:102BB000007000400800002083DE1B43074AD368F2
:102BC00023F4E0631B041B0C000200F4E0600343E9
:102BD00043F0BF6343F40033D360704700ED00E07F
:102BE00000B5194BDB68C3F30223C3F1070CBCF13A
:102BF000040F28BF4FF0040C03F1040EBEF1060FC2
:102C000018D9033B4FF0FF3E0EFA0CFC21EA0C01F1
:102C100099400EFA03F322EA0303194300280BDB61
:102C20000901C9B200F1604000F5614080F800136D
:102C30005DF804FB0023E5E700F00F000901C9B2CD
:102C4000024B1954F4E700BF00ED00E014ED00E082
:102C5000002807DB00F01F02400901239340024ACD
:102C600042F82030704700BF00E100E00138B0F1C9
:102C7000807F0BD24FF0E0235861054AF02182F8A3
:102C800023100020986107221A61704701207047C5
:102C900000ED00E000286AD010B50446436A33B95D
:102CA0004368B3F5827F05D00023C36102E00023AF
:102CB000036143610023A36294F85D30002B4DD083
:102CC000022384F85D302268136823F04003136008
:102CD000E368B3F5E06F47D90022B3F5706F04D015
:102CE000B3F5E06F01D00023A362636803F482733D
:102CF000A16801F404410B43216901F002010B4377
:102D0000616901F001010B43A16901F400710B43FA
:102D1000E16901F038010B43216A01F080010B43A6
:102D2000A16A01F4005120680B430360638B03F038
:102D30000403616A01F010010B43616B01F00801AB
:102D40000B43E16801F470610B43216813434B604E
:102D500000202066012384F85D3010BD84F85C30CB
:102D60002046FEF759FAABE74FF48052B5E7012051
:102D70007047026852E8003F23F4907342E8003144
:102D80000029F6D1026802F1080353E8003F23F05E
:102D90000103083242E800310029F3D1036E012B10
:102DA00006D02023C0F88030002303668366704776
:102DB000026852E8003F23F0100342E80031002986
:102DC000F6D1EEE7704708B5026852E8003F23F0FD
:102DD000400342E800310029F6D12023C3670023D5
:102DE000C366FFF7EFFF08BD704708B5806A002390
:102DF000A0F85A30A0F85230FFF7F6FF08BD704730
:102E000070B504460168CB6908688D6840F60F020A
:102E10001A4005D113F0200F02D010F0200F20D15E
:102E20002AB115F0010222D1AD4E30421FD1226EDF
:102E3000012A00F0AB8013F4801F03D015F4800F3B
:102E400040F0528113F0800F03D010F0800F40F05B
:102E5000528113F0400F03D010F0400F40F0528128
:102E600070BDA36E002BFBD020469847F8E713F007
:102E7000010F09D010F4807F06D001250D62D4F82F
:102E800084102943C4F8841013F0020F09D042B112
:102E9000216802250D62D4F8841041F00401C4F8C1
:102EA000841013F0040F09D042B1216804250D628B
:102EB000D4F8841041F00201C4F8841013F0080F14
:102EC0000BD010F0200F00D13AB122680821116216
:102ED000D4F884200A43C4F8842013F4006F0CD083
:102EE00010F0806F09D022684FF400611162D4F8AD
:102EF000842042F02002C4F88420D4F88420002AE0
:102F0000AED013F0200F06D010F0200F03D0A36E28
:102F10000BB120469847D4F8842023689B6813F0AF
:102F2000400F02D112F0280F29D02046FFF721FFD1
:102F300023689B6813F0400F1DD0226802F108033C
:102F400053E8003F23F04003083242E800310029F3
:102F5000F3D1636F5BB1634A9A63606FFFF7ADFDB6
:102F600000283FF47DAF606F836B984778E7204679
:102F7000FFF73AFF74E72046FFF736FF70E7204679
:102F8000FFF732FF0023C4F8843069E713F0100F15
:102F90003FF451AF10F0100F3FF44DAF10230B6210
:102FA00023689B6813F0400F5FD0616F0A68536815
:102FB0009BB2002B49D0B4F85800984245D9A4F8E8
:102FC0005A300B681B6813F0200F31D1226852E889
:102FD000003F23F4807342E800310029F6D12268D3
:102FE00002F1080353E8003F23F00103083242E8EE
:102FF00000310029F3D1226802F1080353E8003FB1
:1030000023F04003083242E800310029F3D12023A5
:10301000C4F8803000232366226852E8003F23F082
:10302000100342E800310029F6D1606FFFF720FD60
:1030300002236366B4F85810B4F85A309BB2C91A28
:1030400089B22046FFF7DBFE0AE7B4F85810994230
:103050007FF406AF136813F0200F3FF401AF022393
:1030600063662046FFF7CBFEFAE6B4F85810B4F8D2
:103070005A309BB2C91A89B2B4F85A309BB2002BAD
:103080003FF4EEAE00293FF4EBAE226852E8003F79
:1030900023F4907342E800300028F6D1226802F150
:1030A000080353E8003F23F00103083242E80030F0
:1030B0000028F3D12023C4F8803000232366A366C0
:1030C000226852E8003F23F0100342E80030002855
:1030D000F6D1022363662046FFF791FEC0E600BFEB
:1030E00020010004EB2D00084FF480130B622046F2
:1030F00000F0EAFAB4E6E36E002B3FF4B1AE2046EE
:103100009847ADE62046FFF75EFEA9E610B50446F7
:10311000016883680269134342691343C269134318
:1031200008688C4A024013430B602268536823F4FA
:103130004053E1680B435360A1692268864B9A4271
:1031400001D0236A1943936823F430630B439360DF
:103150002368824A93421CD0814A93422DD07E4AF2
:10316000934243D010227C498B4260D0E069B0F595
:10317000004F00F08C80082A00F2E580DFE812F0B2
:10318000B400CA00B200E300CD00E300E300E300B6
:10319000D00002F55842D2F8882002F00302032A38
:1031A00009D8DFE802F0020438060122DBE7042236
:1031B000D9E70822D7E71022D5E702F5E632D2F8A0
:1031C000882002F00C020C2A0ED8DFE802F0070D6E
:1031D0000D0D090D0D0D260D0D0D0B000022C2E782
:1031E0000422C0E70822BEE71022BCE702F5C8327D
:1031F000D2F8882002F44062B2F5006F0FD005D8F3
:103200007AB1B2F5806F0ED10422ACE7B2F5406F0F
:103210000BD10822A7E70222A5E70222A3E7022298
:10322000A1E700229FE710229DE710229BE7082AD2
:1032300079D8DFE802F008782A78277878780500CE
:103240004FF4004003E0FFF7D9F800286DD0626822
:1032500002EB420383426AD8B0EB023F69D8010E09
:1032600000025308C0184FF0000341F10001FDF7C0
:1032700005FBA0F540723B4B9A425CD82368D860AE
:10328000002043E0FEF760FCDFE73748DFE7082A6D
:1032900053D8DFE802F007210552245252520B00A6
:1032A000314803E0FFF7AAF8002848D062685308C5
:1032B00003EB4000B0FBF2F0A0F110024FF6EF7309
:1032C0009A423ED883B223F00F03C0F34200184362
:1032D0002368D860002019E0FFF7A2F8E4E7FEF7C2
:1032E00033FCE1E7204802E0FFF788F868B3636841
:1032F00000EB5300B0FBF3F0A0F110024FF6EF73B8
:103300009A4224D8236880B2D86000200023A366A4
:10331000E36610BDFFF784F8E8E7FEF715FCE5E784
:103320004FF40040E3E70120F0E70020EEE7012042
:10333000ECE70120EAE70120E8E70120E6E70020CA
:10334000E4E70120E2E70120E0E70020DEE70120DA
:10335000DCE700BFF369FFEF008000400038014068
:1033600000440040FFFC0F000024F400436A13F007
:10337000080F06D00268536823F40043416B0B43E7
:103380005360436A13F0010F06D00268536823F4B8
:103390000033816A0B435360436A13F0020F06D077
:1033A0000268536823F48033C16A0B435360436A55
:1033B00013F0040F06D00268536823F48023016BD6
:1033C0000B435360436A13F0100F06D002689368F2
:1033D00023F48053816B0B439360436A13F0200FF7
:1033E00006D00268936823F40053C16B0B439360CB
:1033F000436A13F0400F0AD00268536823F4801325
:10340000016C0B435360036CB3F5801F0BD0436A10
:1034100013F0800F06D00268536823F40023816CF8
:103420000B43536070470268536823F4C003416C38
:103430000B435360EBE72DE9F84305460E4617466C
:103440009946DDF820802C68E46936EA04030CBF55
:103450004FF0010C4FF0000CBC4536D1B8F1FF3FE6
:10346000F1D0FEF70FFBA0EB0900404530D8B8F1D2
:10347000000F2FD02B681A6812F0040FE3D0802EB3
:10348000E1D0402EDFD0DA6912F0080F11D1DA69ED
:1034900012F4006FD7D04FF400621A622846FFF78B
:1034A00068FC2023C5F88430002385F87830032099
:1034B0000CE008241C622846FFF75BFCC5F884403A
:1034C000002385F87830012000E00020BDE8F88373
:1034D0000320FBE70320F9E72DE9F04182B01E4607
:1034E000C36F202B56D104460D469046002955D077
:1034F0000AB901204FE00023C0F884302123C367BC
:10350000FEF7C0FA0746A4F85080A4F85280A368DA
:10351000B3F5805F02D04FF0000818E0236913B1C3
:103520004FF0000813E0A846002510E02023E367D1
:10353000032030E038F8023B2268C3F30803138508
:10354000B4F8522092B2013A92B2A4F85220B4F8E0
:1035500052309BB27BB100963B4600228021204630
:10356000FFF769FF0028E1D1002DE3D0236815F8AB
:10357000012B1A85E4E700963B46002240212046B5
:10358000FFF759FF10B92023E36704E02023E36726
:10359000032000E0022002B0BDE8F0810120FAE73C
:1035A00030B583B004460023C0F88430FEF76AFAD1
:1035B00005462268126812F0080F0FD123681B68B5
:1035C00013F0040F26D12023E367C4F880300020D5
:1035D0002066606684F8780003B030BD6FF07E43EB
:1035E0000093034600224FF400112046FFF723FF0B
:1035F0000028E3D0226852E8003F23F0800342E82D
:1036000000310029F6D12023E367002384F87830C5
:103610000320E1E76FF07E4300932B4600224FF436
:1036200080012046FFF707FF0028CCD0226852E82F
:10363000003F23F4907342E800310029F6D122685C
:1036400002F1080353E8003F23F00103083242E887
:1036500000310029F3D12023C4F88030002384F8FE
:1036600078300320B8E768B310B50446C36F03B3DE
:103670002423E3672268136823F001031360636A5D
:10368000E3B92046FFF742FD012811D022685368B4
:1036900023F4904353602268936823F02A039360D5
:1036A0002268136843F0010313602046FFF778FF98
:1036B00010BD80F87830FDF7E3FDD9E72046FFF72D
:1036C00055FEDEE70120704770470000034AD2F83C
:1036D000883043F47003C2F88830704700ED00E092
:1036E00000F1080343604FF0FF328260C360036162
:1036F00000230360704700230361704743684B60F9
:103700009A688A60516099600861036801330360B8
:10371000704730B40D68B5F1FF3F11D000F10803D8
:103720001C465B681A68AA42FAD963684B609960C4
:103730008C606160086103680133036030BC7047CE
:103740000469F2E70369416882688A6041685160F0
:103750005A68824206D0002202611A68013A1A6051
:103760001868704782685A60F5E710B5044601F0A2
:1037700021FCA26BE36B9A4204D0002401F03CFCD4
:10378000204610BD0124F9E710B5044601F012FCF3
:10379000A36B23B9012401F02FFC204610BD0024A7
:1037A000F9E770B504461546866B026C5AB9036892
:1037B0001BB100200136A66370BD806800F0E8FFF1
:1037C0000023A360F6E76DB9406801F0E9FD226CC3
:1037D000636813446360A268934219D323686360EB
:1037E0002846E7E7C06801F0DBFD226C5142E36840
:1037F0009B1AE3602268934202D2A3680B44E36001
:10380000022D01D00020D5E726B1013E0020D1E7EE
:103810002846CFE70020CDE70346026C6AB110B519
:103820000846D9681144D9609C68A14201D319683F
:10383000D960D96801F0B4FD10BD704738B50546B0
:1038400001F0B8FB95F8454064B201E0013C64B278
:10385000002C0ADD6B6A43B105F1240000F0EEFE96
:103860000028F3D000F07EFFF0E7FF2385F8453015
:1038700001F0C2FB01F09EFB95F8444064B201E008
:10388000013C64B2002C0ADD2B6943B105F1100044
:1038900000F0D4FE0028F3D000F064FFF0E7FF232F
:1038A00085F8443001F0A8FB38BD38B5E0B10D46CD
:1038B000044601F07FFB2368E26B216C01FB0230C0
:1038C000A0600020A0636360013A02FB0133E36063
:1038D000FF2384F8443084F84530FDB9236963B987
:1038E00001F08AFB012038BD4FF0500383F31188AB
:1038F000BFF36F8FBFF34F8FFEE704F1100000F0AE
:103900009DFE0028ECD04FF0E0234FF08052C3F82A
:10391000042DBFF34F8FBFF36F8FE1E704F1100069
:10392000FFF7DEFE04F12400FFF7DAFED8E738B532
:103930001D46049C0B4649B92460E06323640121C1
:103940002046FFF7B2FF84F84C5038BD2260F4E700
:1039500040B94FF0500383F31188BFF36F8FBFF36B
:103960004F8FFEE710B584B01C46844653B192B128
:1039700089B94FF0500383F31188BFF36F8FBFF302
:103980004F8FFEE74FF0500383F31188BFF36F8F23
:10399000BFF34F8FFEE76AB150230393039B502B75
:1039A00013D04FF0500383F31188BFF36F8FBFF331
:1039B0004F8FFEE70029EFD04FF0500383F31188BB
:1039C000BFF36F8FBFF34F8FFEE7039B012384F894
:1039D000463000949DF818306046FFF7A8FF204657
:1039E00004B010BDF0B585B0019288B10F461D46F8
:1039F0000446B1B1022D20D1E36B012B1DD04FF055
:103A0000500383F31188BFF36F8FBFF34F8FFEE72F
:103A10004FF0500383F31188BFF36F8FBFF34F8FC5
:103A2000FEE7036C002BE5D04FF0500383F31188C1
:103A3000BFF36F8FBFF34F8FFEE700F099FE06468E
:103A400058B9019B002B48D04FF0500383F31188E5
:103A5000BFF36F8FBFF34F8FFEE700263DE02A468E
:103A600039462046FFF79DFE636A7BB948B14FF0A7
:103A7000E0234FF08052C3F8042DBFF34F8FBFF304
:103A80006F8F01F0B9FA012005B0F0BD04F12400F8
:103A900000F0D4FD0028F4D04FF0E0234FF0805226
:103AA000C3F8042DBFF34F8FBFF36F8FE9E701F029
:103AB000A3FA0020E8E702A800F006FE012619E0BC
:103AC000002384F8443021E0002384F8453023E0CB
:103AD0002046FFF7B3FE00F091FC01F06BFAA26BF9
:103AE000E36B9A42BBD3022DB9D0019B002BDED0F1
:103AF000002EE0D001F080FA00F0D2FB01F05AFA7B
:103B000094F8442052B2B2F1FF3FD9D094F8452046
:103B100052B2B2F1FF3FD7D001F06EFA01A902A86C
:103B200000F0DEFDD8B92046FFF71FFE0028CFD0F9
:103B3000019904F1100000F04DFD2046FFF77EFED4
:103B400000F05CFC0028C8D14FF0E0234FF0805219
:103B5000C3F8042DBFF34F8FBFF36F8FBDE720462F
:103B6000FFF76CFE00F04AFC00208DE72DE9F843DA
:103B700090B10F4616461C460546B1B1022C20D125
:103B8000EB6B012B1DD04FF0500383F31188BFF373
:103B90006F8FBFF34F8FFEE74FF0500383F3118811
:103BA000BFF36F8FBFF34F8FFEE7036C002BE5D0A1
:103BB0004FF0500383F31188BFF36F8FBFF34F8F24
:103BC000FEE701F01DFBEFF311894FF0500383F383
:103BD0001188BFF36F8FBFF34F8FAA6BEB6B9A42C5
:103BE00006D3022C04D0002089F31188BDE8F883A5
:103BF00095F845804FFA88F8AB6B2246394628463F
:103C0000FFF7CFFDB8F1FF3F06D008F101035BB22B
:103C100085F845300120E7E76B6A0BB90120E3E73F
:103C200005F1240000F00AFD18B126B10120306032
:103C3000DAE70120D8E70120D6E7F0B585B0019298
:103C400090B10F460446C1B100F092FD064600BB9C
:103C5000019B002B5ED04FF0500383F31188BFF31C
:103C60006F8FBFF34F8FFEE74FF0500383F3118840
:103C7000BFF36F8FBFF34F8FFEE7036C002BE3D0D2
:103C80004FF0500383F31188BFF36F8FBFF34F8F53
:103C9000FEE700263EE039462046FFF7BDFD013D28
:103CA000A563236923B901F0A7F9012005B0F0BD90
:103CB00004F1100000F0C2FC0028F4D04FF0E02323
:103CC0004FF08052C3F8042DBFF34F8FBFF36F8FB7
:103CD000E9E701F091F90020E8E702A800F0F4FC20
:103CE000012621E0002384F8443029E0002384F8F1
:103CF00045302BE02046FFF7A1FD00F07FFB09E0F7
:103D00002046FFF79BFD00F079FB2046FFF73CFDC6
:103D100000283FD101F04EF9A56B002DBBD1019BCE
:103D2000002BD6D0002ED8D001F066F900F0B8FAFA
:103D300001F040F994F844305BB2B3F1FF3FD1D0C9
:103D400094F845305BB2B3F1FF3FCFD001F054F9A6
:103D500001A902A800F0C4FC0028D1D12046FFF739
:103D600013FD0028C6D0019904F1240000F032FCB4
:103D70002046FFF763FD00F041FB0028CAD14FF059
:103D8000E0234FF08052C3F8042DBFF34F8FBFF3F1
:103D90006F8FBFE7002089E70023072B0CD8074A65
:103DA00052F833200AB10133F7E7044A42F83310DE
:103DB00002EBC30358607047704700BF7C020020CD
:103DC00070B504460D46164601F0F4F894F84430F8
:103DD0005BB2B3F1FF3F0DD094F845305BB2B3F165
:103DE000FF3F0BD001F008F9A36B5BB12046FFF752
:103DF00025FD70BD002384F84430EDE7002384F8EE
:103E00004530EFE73246294604F1240000F0FAFB82
:103E1000ECE70000084B1B681B6823B9074B4FF009
:103E2000FF321A607047044B1B68DB68DB685A6816
:103E3000024B1A60704700BFC002002068070020D4
:103E40002DE9F04780460D4617469946089EDDF855
:103E500024A00A9C9200A521206B01F0AFFA236BED
:103E600007F18042013A03EB820727F00707B5B359
:103E70004FF0000CBCF10F0F0BD815F80C2004EB21
:103E80000C0383F8342015F80C3013B10CF1010C3D
:103E9000F0E7002384F84330372E00D93726E66256
:103EA000E66400252565201DFFF725FC04F11800B8
:103EB000FFF721FC2461C6F13806A66164626565DE
:103EC00084F858504A464146384601F04BF8206085
:103ED000BAF1000F01D0CAF80040BDE8F087002316
:103EE00084F83430D8E7000038B5002407E004EB4C
:103EF000840293000E481844FFF7F2FB0134372C7C
:103F0000F5D90C4D2846FFF7EBFB0B4C2046FFF78D
:103F1000E7FB0A48FFF7E4FB0948FFF7E1FB094824
:103F2000FFF7DEFB084B1D60084B1C6038BD00BF6F
:103F3000C80200203C070020500700207407002022
:103F4000A00700208C070020C0020020C40200202F
:103F500010B5044601F02EF8224A136801331360AD
:103F6000214B1B685BB1214B1B686BB91E4B1B6857
:103F7000DA6AE36A9A4207D81B4B1C6004E01A4BCA
:103F80001C601368012B29D0194A13680133136090
:103F90006364E06A174B1B68984201D9154B18609F
:103FA00000EB8000211D144B03EB8000FFF7A6FB04
:103FB00001F022F80D4B1B687BB10B4B1B68DA6AD2
:103FC000E36A9A4209D24FF0E0234FF08052C3F8DF
:103FD000042DBFF34F8FBFF36F8F10BDFFF784FF2A
:103FE000D2E700BF28070020BC020020880700207D
:103FF0003407002038070020C802002010B504460E
:1040000090F8593063B1012B11D0022B0ED04FF034
:10401000500383F31188BFF36F8FBFF34F8FFEE719
:10402000006B00F023FF204600F020FF10BD00F0E1
:104030001DFFFBE70F4B1B68D3B110B500F0BAFFB3
:104040000D4BDB68DC68201DFFF77CFB0B4A136817
:10405000013B1360074A1368013B136000F0CCFF7B
:104060002046FFF7CBFF034B1B68002BE6D110BDAA
:10407000704700BF2C070020A00700202807002061
:1040800008B5FFF7D7FF074B1B68012BF9D94FF095
:10409000E0234FF08052C3F8042DBFF34F8FBFF3DE
:1040A0006F8FEEE7C802002070B504460D46174B2F
:1040B0001E68174B18680430FFF744FBB4F1FF3F4C
:1040C0000DD03444124B1B685C60A64210D9114BD2
:1040D00018680F4B19680431FFF71BFB70BD002DEA
:1040E000EFD00B4B196804310B48FFF707FBF5E7DE
:1040F0000A4B1868064B19680431FFF70AFB084B96
:104100001B68A342EAD9064B1C60E7E7B40700200E
:10411000BC020020C40200208C070020C002002046
:104120006807002030B587B00B9C7CB10C9DB5B101
:104130005C250495049D5C2D1AD04FF0500383F349
:104140001188BFF36F8FBFF34F8FFEE74FF050031F
:1041500083F31188BFF36F8FBFF34F8FFEE74FF0EC
:10416000500383F31188BFF36F8FBFF34F8FFEE7C8
:10417000049D0C9D2C63022485F85940002403946F
:10418000029505AC01940A9C0094FFF759FE0C9827
:10419000FFF7DEFE059807B030BD2DE9F04385B08E
:1041A0000746884614461E46900000F0E1FD00B325
:1041B00081465C2000F0DCFD0546B0B1C0F83090CF
:1041C000E5B1002385F85930039302950D9B0193C7
:1041D0000C9B00933346224641463846FFF730FE9B
:1041E0002846FFF7B5FE012005E0484600F03EFEF8
:1041F000E6E74FF0FF3005B0BDE8F0834FF0FF3049
:10420000F9E7000010B588B000240594069407AAC9
:1042100006A905A800F02EFD059B0293069B0193BD
:1042200000942346079A18491848FFF77BFF184B5C
:10423000186040B100F060FB012806D0B0F1FF3FEC
:1042400018D008B010BD0020F6E74FF0500383F3FC
:104250001188BFF36F8FBFF34F8F0E4B4FF0FF32BC
:104260001A600D4B01221A600C4B00221A6000F0FC
:104270003BFFE6E74FF0500383F31188BFF36F8FE6
:10428000BFF34F8FFEE700BF98640008814000082D
:10429000640700206807002088070020B40700207A
:1042A000024A136801331360704700BF30070020D3
:1042B000014B1868704700BFB4070020034618B1CF
:1042C0002BB103F134007047054B1B68F8E74FF042
:1042D000500383F31188BFF36F8FBFF34F8FFEE757
:1042E000BC020020F8B53A4B1B68002B69D1394B52
:1042F0001D6801351D60C5B9374B1B681B6843B18C
:104300004FF0500383F31188BFF36F8FBFF34F8FCC
:10431000FEE7314A1168314B186810601960304A65
:10432000136801331360FFF775FD2E4B1B68AB421A
:104330003DD900272C4B1B68DB6A03EB83039A00F3
:104340002A4B9B58012B00D90127294B1B68002BB6
:104350003CD001273AE001271F4B1B681B6843B381
:104360001D4B1B68DB68DC6863689D4226D3261DF5
:104370003046FFF7E7F9A36A1BB104F11800FFF715
:10438000E1F9E36A1B4A1268934201D9194A1360A2
:1043900003EB83039A00314614481044FFF7AEF94B
:1043A000E26A114B1B68DB6A9A42D4D2D4E7002739
:1043B000D2E70C4B4FF0FF321A60BBE7094A13609B
:1043C000B8E70D4A13680133136000273846F8BD7B
:1043D00030070020B4070020C0020020C4020020E3
:1043E0006C07002068070020BC020020C8020020E3
:1043F000B8070020380700207007002038B5354B7B
:104400001B6843B94FF0500383F31188BFF36F8FDC
:10441000BFF34F8FFEE700F0CDFD2E4B1A68013A37
:104420001A601B68002B4FD12B4B1B680BB9002463
:104430004BE00024294B1B681BB3284BDB68DC686E
:1044400004F11800FFF77EF9251D2846FFF77AF9D9
:10445000E06A234B1B68984201D9214B186000EB9E
:10446000800029461F4B03EB8000FFF747F9E26A03
:104470001D4B1B68DB6A9A42DCD31C4B01221A607D
:10448000D8E70CB1FFF7C6FC194B1C6884B9174B71
:104490001C68D4B14FF0E0234FF08052C3F8042DD4
:1044A000BFF34F8FBFF36F8F01240EE0013C07D0A5
:1044B000FFF718FF0028F9D00C4B01221A60F5E72E
:1044C0000B4B00221A60E2E7002400F095FD204625
:1044D00038BD00BF300700202807002074070020E7
:1044E00038070020C8020020BC020020B8070020C6
:1044F0007007002010B5A8B10446104B1B6843B1EB
:104500004FF0500383F31188BFF36F8FBFF34F8FCA
:10451000FEE7FFF7C5FE00212046FFF7C5FDFFF7C8
:104520006DFF48B94FF0E0234FF08052C3F8042DDF
:10453000BFF34F8FBFF36F8F10BD00BF3007002058
:104540001F4B1B681BB11F4B01221A6070471D4B8C
:1045500000221A601C4B1B6803EB83018A001B4975
:104560008A585AB90BB1013BF6E74FF0500383F379
:104570001188BFF36F8FBFF34F8FFEE703EB83000C
:1045800082000A4450684068506003EB830C4FEA95
:104590008C020832114488420BD003EB8302910055
:1045A0000A4A0A445268D168094A1160064A1360EF
:1045B0007047406862469100044A0A445060ECE744
:1045C00030070020B807002038070020C80200206C
:1045D000BC02002058B110B50C46094A11681831C8
:1045E000FFF797F801212046FFF75EFD10BD4FF061
:1045F000500383F31188BFF36F8FBFF34F8FFEE734
:10460000BC02002038B570B10D4614460A4A116844
:104610001831FFF773F80CB14FF0FF3521462846EB
:10462000FFF742FD38BD4FF0500383F31188BFF30D
:104630006F8FBFF34F8FFEE7BC02002038B5C36811
:10464000DC6824B304F118052846FFF77BF8184B03
:104650001B682BBB251D2846FFF774F8E06A154B35
:104660001B68984201D9134B186000EB8000294663
:10467000114B03EB8000FFF741F8E26A0F4B1B6818
:10468000DB6A9A4211D901200D4B186038BD4FF0FA
:10469000500383F31188BFF36F8FBFF34F8FFEE793
:1046A00029460848FFF72AF8E7E70020EEE700BFB1
:1046B0003007002038070020C8020020BC0200207C
:1046C000B807002074070020034B1B680360034BEE
:1046D0001B684360704700BF6C070020B4070020D0
:1046E000F8B5C8B10C460546F9B100F063FC1B4BA8
:1046F00019686B68C81A2268B2F1FF3F26D0184EBD
:1047000036682F68B74201D08B4224D9824215D82F
:104710000023236001241AE04FF0500383F3118833
:10472000BFF36F8FBFF34F8FFEE74FF0500383F35C
:104730001188BFF36F8FBFF34F8FFEE75B1A1344EF
:1047400023602846FFF7C0FF002400E0002400F0AB
:1047500053FC2046F8BD0124F9E700BFB407002050
:104760006C070020014B01221A607047B807002037
:10477000054B1B6833B1054B1B680BB1002070471C
:104780000220704701207047880700203007002072
:1047900000283BD038B504461E4B1B68834208D026
:1047A0004FF0500383F31188BFF36F8FBFF34F8F28
:1047B000FEE7036D43B94FF0500383F31188BFF355
:1047C0006F8FBFF34F8FFEE7013B0365C16AC26C79
:1047D00091421DD00BB1002038BD051D2846FEF7C3
:1047E000B1FFE06CE062C0F13803A3610A4B1B68C3
:1047F000984201D9084B186000EB80002946074B0E
:1048000003EB8000FEF77AFF0120E5E70020704708
:104810000020E1E7BC02002038070020C802002089
:10482000064B1A6813682BB90123036023B9D368B8
:10483000186870470023F8E700207047BC07002085
:1048400008B54160006191420CD8D21A83699A423E
:1048500001D3012008BD011D094B1868FEF759FF5F
:104860000020F7E79A4201D2994206D2011D054B7A
:104870001868FEF74EFF0020ECE70120EAE700BFD2
:10488000C0070020BC07002030B583B000F092FBC9
:10489000114B1B681BB100F0AFFB03B030BD0F4DD7
:1048A0002846FEF71DFF0E4C2046FEF719FF0D4B64
:1048B0001D600D4B1C60002300930C4B0C4A102113
:1048C0000A20FFF745F8044B18600028E3D0094997
:1048D000FFF762FADFE700BFE0080020640800206D
:1048E00078080020BC070020C007002090080020A6
:1048F000C4070020A064000810B588B0FFF7C4FF0B
:10490000124B1B68CBB100240594069407AA06A994
:1049100005A800F0BBF9059B0293069B01930223B7
:1049200000932346079A0A490A48FFF7FBFB0A4B04
:10493000186010B1012008B010BD4FF0500383F390
:104940001188BFF36F8FBFF34F8FFEE7E0080020A1
:10495000A86400085D4C0008E4080020B8B19C463B
:1049600003461848006858B300B585B0009101921D
:10497000029305291CDCFFF7FBFE022810D0002360
:104980001A4669460F480068FFF72CF815E04FF00B
:10499000500383F31188BFF36F8FBFF34F8FFEE790
:1049A0000023069A694607480068FFF71BF804E0F1
:1049B000002362466946FFF7D9F805B05DF804FBAD
:1049C00000207047E008002070B582B01B4B1B68C8
:1049D0001A6862B3DB681E68DC68251D2846FEF78E
:1049E000B1FE236A2046984794F8283013F0040F4C
:1049F000ECD0A36933449E4207D263602461294608
:104A00000E4B1868FEF785FEE0E7002100910B468B
:104A100032462046FFF7A2FF0028D7D14FF05003BF
:104A200083F31188BFF36F8FBFF34F8FFEE7044A04
:104A3000106802490860136002B070BDBC07002016
:104A4000C007002038B50546FFF732FC0446074B87
:104A50001B68834205D800232B60044B1C60204652
:104A600038BDFFF7B1FF01232B60F6E78C0800206B
:104A700070B582B006460D4617490968C968CC680A
:104A8000201DFEF75FFE94F828C01CF0040F08D12B
:104A90002CF0010C84F828C0236A2046984702B005
:104AA00070BDA16933462A4631442046FFF7C8FE4F
:104AB0000028F1D0002100910B4632462046FFF736
:104AC0004DFF0028E8D14FF0500383F31188BFF366
:104AD0006F8FBFF34F8FFEE7BC07002070B582B029
:104AE00006460C46FFF7DCFB01A8FFF7ABFF019B76
:104AF00033BB05460CB9B04219D224B1124A126830
:104B00001268DAB901242246711B104B1868FFF7AE
:104B100057F9FFF773FCA8B94FF0E0234FF080522C
:104B2000C3F8042DBFF34F8FBFF36F8F0AE0FFF779
:104B300065FC29463046FFF79BFF03E01C46E2E791
:104B4000FFF75CFC02B070BDC0070020E008002049
:104B500010B588B002E0049B002B0FDA002204A9F4
:104B60003D4B1868FFF769F8002873D0049B002BB1
:104B7000F1DA07990698059B9847ECE7069C63696C
:104B800013B1201DFEF7DEFD03A8FFF75BFF049BBA
:104B9000092BE3D8DFE803F005050530375005059C
:104BA000303794F8283043F0010384F82830059B0F
:104BB000A169024619442046FFF742FE0028CDD0E5
:104BC000236A2046984794F8283013F0040FC5D084
:104BD000A269002100910B46059802442046FFF788
:104BE000BDFE0028BAD14FF0500383F31188BFF304
:104BF0006F8FBFF34F8FFEE794F8283023F0010347
:104C000084F82830AAE794F8283043F0010384F8A8
:104C100028300599A16131B103460246014420467E
:104C2000FFF70EFE9AE74FF0500383F31188BFF3AE
:104C30006F8FBFF34F8FFEE794F8283013F0020F09
:104C400004D023F0010384F8283087E7204600F0E1
:104C50000DF983E708B010BDE008002000B583B06F
:104C600001A8FFF7DDFD0199FFF738FFFFF770FF9F
:104C7000F6E70000034B0360034B0B6080231360D7
:104C8000704700BFE80A0020E8080020034B0360DB
:104C9000034B0B604FF4807313607047440F002088
:104CA000440B0020134A12F0070F1FD0D11D21F032
:104CB0000701C1F53B63083313440A460E480260FE
:104CC000002141601344083B23F007030B480360B5
:104CD00059601960991A51601360094B1960094BAA
:104CE0001960094B4FF000421A60704740F6B83324
:104CF000E4E700BFA40F0020701B0020A00F0020DD
:104D0000641B0020601B00205C1B0020164B1A4611
:104D10001B688342FBD3516802EB010C844509D028
:104D2000416800EB010C634509D00360904219D043
:104D3000106070474068014451601046F0E710B4BD
:104D40000A4C2468A3420BD05B6819444160136885
:104D50001B680360904200D010605DF8044B704700
:104D60000460F7E7704700BF701B0020A00F002011
:104D700070B50546FFF794FA364B1B68A3B1364B66
:104D80001B681D424ED135B1083515F0070F02D012
:104D900025F007050835002D46D0304B1B68AB4287
:104DA00051D32F4A146804E0FFF77CFFE7E722465F
:104DB0001C466368AB4202D22368002BF7D1254B17
:104DC0001B68A34241D016680836236813606368E5
:104DD0005B1B102B10D9601910F0070F08D04FF093
:104DE000500383F31188BFF36F8FBFF34F8FFEE73C
:104DF00043606560FFF78AFF626818490B689B1A79
:104E00000B60184909688B4201D216490B60124B9E
:104E10001B681343636000232360134A1368013344
:104E2000136002E0002600E00026FFF7E7FA16F024
:104E3000070F0CD04FF0500383F31188BFF36F8F2F
:104E4000BFF34F8FFEE70026EFE70026EDE7304681
:104E500070BD00BFA00F00205C1B0020601B002065
:104E6000701B0020641B0020681B0020002834D029
:104E700038B50446A0F1080550F8043C174A1268FA
:104E8000134208D14FF0500383F31188BFF36F8FA3
:104E9000BFF34F8FFEE750F8081C41B14FF05003AD
:104EA00083F31188BFF36F8FBFF34F8FFEE723EAC1
:104EB000020340F8043CFFF7F3F954F8041C084AD5
:104EC00013680B4413602846FFF720FF054A136858
:104ED00001331360FFF792FA38BD70475C1B002066
:104EE000601B00206C1B002082B0002301930D4B3F
:104EF0001B68B3F1FF3F08D04FF0500383F31188D4
:104F0000BFF36F8FBFF34F8FFEE74FF0500383F374
:104F10001188BFF36F8FBFF34F8F019B002BFCD025
:104F200002B070470C00002008480068006880F359
:104F300008884FF0000080F3148862B661B6BFF3B2
:104F40004F8FBFF36F8F00DF00BF000008ED00E060
:104F5000DFF80C00016841F4700101607047000047
:104F600088ED00E04FF0807340F8043C21F001012F
:104F700040F8081C054B40F80C3C40F8202C6FF022
:104F8000020340F8243C4438704700BFE94E000853
:104F9000074B19680868B0E8F04F80F30988BFF341
:104FA0006F8F4FF0000080F311887047AFF30080DF
:104FB000BC0200204FF0500383F31188BFF36F8FC2
:104FC000BFF34F8F0B4A136801331360012B00D0DE
:104FD00070474FF0E023D3F8043D13F0FF0FF7D0F4
:104FE0004FF0500383F31188BFF36F8FBFF34F8FE0
:104FF000FEE700BF0C000020094B1B6843B94FF0CF
:10500000500383F31188BFF36F8FBFF34F8FFEE719
:10501000013B034A13600BB983F31188704700BF4B
:105020000C00002000000000000000000000000054
:10503000EFF30980BFF36F8F154B1A681EF0100F46
:1050400008BF20ED108A20E9F04F10602DE909001B
:105050004FF0500080F31188BFF34F8FBFF36F8F75
:10506000FFF76EFA4FF0000080F3118809BC196851
:105070000868B0E8F04F1EF0100F08BFB0EC108ABF
:1050800080F30988BFF36F8F704700BFAFF30080D4
:10509000BC02002008B54FF0500383F31188BFF322
:1050A0006F8FBFF34F8FFFF71DF928B14FF0E0234B
:1050B0004FF08052C3F8042D002383F3118808BDFC
:1050C0004FF0E022002313619361054B1B680549F3
:1050D000A1FB03139B09013B536107231361704735
:1050E00008000020D34D62104FF0E023D3F8002DCC
:1050F0003D4B9A421CD04FF0E023D3F8002D3B4BA0
:105100009A421ED030B583B0394B1A78D2B2019290
:10511000FF221A701B78DBB28DF803309DF8033044
:1051200003F05003334A1370334B07221A601BE01D
:105130004FF0500383F31188BFF36F8FBFF34F8F8E
:10514000FEE74FF0500383F31188BFF36F8FBFF377
:105150004F8FFEE7284A1368013B13609DF8033028
:105160005B00DBB28DF803309DF8033013F0800F45
:10517000F0D1214B1B68032B08D04FF0500383F371
:105180001188BFF36F8FBFF34F8FFEE71B021A4AE0
:10519000136003F4E0631360019BDBB2144A1370E5
:1051A0004FF0E024D4F8203D43F47003C4F8203DD0
:1051B000D4F8203D43F07043C4F8203DFFF780FF52
:1051C00000250E4B1D60FFF7C3FED4F8343F43F0BB
:1051D0004043C4F8343FFFF7A7FEFFF7B1F9FFF7EC
:1051E00083FE284603B030BD71C20F4170C20F412B
:1051F00000E400E0781B00207C1B00200C00002055
:10520000EFF305830F2B0FD9114A9B5CDBB2114AD8
:1052100012789A4208D94FF0500383F31188BFF3F4
:105220006F8FBFF34F8FFEE74FF0E023D3F80C3DB5
:1052300003F4E063084A1268934208D94FF0500320
:1052400083F31188BFF36F8FBFF34F8FFEE7704773
:10525000F0E300E0781B00207C1B002010B5034623
:105260000C4A0D490D48006840B10C4800680344E1
:10527000521A934206D8094A136010BD0748084CD9
:105280000460F2E700F062F80C2303604FF0FF3097
:10529000F3E700BF00C0002000040000801B0020D6
:1052A000981B002070B50C461646002506E0AFF3AB
:1052B0000080214601F8010B01350C46B542F6DBB2
:1052C000304670BD70B50C461646002504E014F853
:1052D000010BFBF7E9FC0135B542F8DB304670BD48
:1052E0004FF0FF3070474FF400534B600020704781
:1052F0000120704700207047DFF834D0FEF7E6F950
:105300000C480D490D4A002302E0D458C450043320
:10531000C4188C42F9D30A4A0A4C002301E01360F6
:105320000432A242FBD300F017F8FBF7B9FDFEE709
:1053300000C0002000000020780000206065000808
:1053400078000020941B0020FEE70000014B186845
:10535000704700BF1000002070B50D4D0D4C641B50
:10536000A4100026A64209D10B4D0C4C01F032F8D6
:10537000641BA4100026A64205D170BD55F8043B5D
:1053800098470136EEE755F8043B98470136F2E7B7
:105390005065000850650008506500085465000815
:1053A0000A44914200F1FF3300D1704710B511F863
:1053B000014B03F8014F9142F9D110BD024403465D
:1053C000934200D1704703F8011BF9E70FB40A4B71
:1053D00013B51C6824B1A36913B9204600F05EFA26
:1053E00005AB049AA1680193204600F067FC02B067
:1053F000BDE8104004B070471000002070B50E46A4
:10540000054618B183690BB900F048FAAB69AC687E
:1054100013B9284600F042FA2C4B9C4220D16C680C
:10542000636EDB0705D4A389980502D4A06D00F054
:10543000D3FAA38919071DD52369DBB1013EA368FF
:1054400016F8011F013BA36039BB002B38DA224656
:105450000A21284600F048F8013011D00A2511E051
:105460001B4B9C4201D1AC68DAE71A4B9C4208BF47
:10547000EC68D5E72146284600F088F80028DDD002
:105480004FF0FF35636EDA0705D4A3899B0502D47C
:10549000A06D00F0A2FA284670BD002B04DAA269C4
:1054A0009A4206DC0A2904D023685A1C226019702B
:1054B000C5E72246284600F017F80130BFD1DFE7E4
:1054C00023680A255A1C22601D70DBE7D46400089B
:1054D000F4640008B4640008024B01461868FFF742
:1054E0008DBF00BF10000020F8B50E4614460546DB
:1054F00018B183690BB900F0D1F9214B9C422BD133
:105500006C68A369A360A3891A072FD523696BB3BD
:1055100023692068C01A6369F6B28342374604DC07
:105520002146284600F026F930BBA368013BA36062
:1055300023685A1C22601E7063690130834204D0C4
:10554000A389DB0706D50A2E04D12146284600F0A0
:1055500011F988B93846F8BD0A4B9C4201D1AC68B4
:10556000CFE7094B9C4208BFEC68CAE721462846B2
:1055700000F00CF80028CBD04FF0FF37EAE700BF6F
:10558000D4640008F4640008B4640008324B70B5B9
:105590001D6806460C4625B1AB6913B9284600F0D4
:1055A0007DF92E4B9C420FD16C68A389B4F90C2075
:1055B00019072CD4DD0611D40923336042F04003CF
:1055C000A3814FF0FF303EE0254B9C4201D1AC68F7
:1055D000EBE7244B9C4208BFEC68E6E7580712D57E
:1055E000616B41B104F14403994202D0304600F0AE
:1055F0005BFA00236363A38923F02403A3810023C0
:10560000636023692360A38943F00803A3812369AE
:105610004BB9A38903F42073B3F5007F03D021466F
:10562000304600F001FAA089B4F90C2010F0010313
:105630000AD00023A36063695B42A361236943B975
:1056400010F08000BAD170BD810758BF6369A360B4
:10565000F4E70020F7E700BF10000020D464000842
:10566000F4640008B46400088A892DE9F041054615
:1056700010070C4658D44B68002B05DC0B6C002B34
:1056800002DC0020BDE8F081E66A002EF9D000239C
:1056900012F480522F682B6032D0606DA3895A07B4
:1056A00005D56368C01A636B0BB1236CC01A002365
:1056B0000246E66A216A2846B047431CA38906D100
:1056C00029681D292CD82A4ACA40D60728D5002285
:1056D0006260D9042269226004D5421C01D12B6882
:1056E00003B96065616B2F600029CAD004F14403DF
:1056F000994202D0284600F0D7F900206063C1E744
:10570000216A01232846B047411CC7D12B68002BD2
:10571000C4D01D2B01D0162B01D12F60B1E7A38976
:1057200043F04003A381ADE70F69002FA9D0930791
:105730000E6808BF4B690F6018BF0023A6EB07086F
:105740008B60B8F1000F9CDD216AA66A43463A4699
:105750002846B047002806DCA38943F04003A38114
:105760004FF0FF308EE70744A8EB0008E9E700BFE1
:105770000100402038B50B6905460C4613B90025D9
:10578000284638BD18B183690BB900F087F8144B6F
:105790009C421BD16C68B4F90C30002BEFD0626EC8
:1057A000D00704D4990502D4A06D00F015F928465D
:1057B0002146FFF759FF636EDA070546E0D4A38957
:1057C0009B05DDD4A06D00F008F9D9E7054B9C429C
:1057D00001D1AC68DFE7044B9C4208BFEC68DAE714
:1057E000D4640008F4640008B4640008002310B511
:1057F0000446C0E90033C0E9043383608181436615
:10580000C2818361194608225C30FFF7D7FD054B42
:105810006362054BA362054BE362054B246223637D
:1058200010BD00BF6562000887620008BF62000803
:10583000E3620008014900F0AFB800BF75570008E7
:1058400070B568224D1E55430E4605F1740100F0F7
:1058500097F9044640B10021C0E900160C30A06061
:1058600005F16802FFF7AAFD204670BD014800F06F
:10587000B3B800BF851B0020014800F0AEB800BFE0
:10588000851B0020014800F0A7B800BF861B002040
:10589000014800F0A2B800BF861B002010B50446E6
:1058A000FFF7F0FFA3691BB1BDE81040FFF7F0BFA1
:1058B000C4E912332365134B134A1B68A262A34247
:1058C00004BF0123A361204600F020F86060204659
:1058D00000F01CF8A060204600F018F80022E060FC
:1058E00004216068FFF782FFA06801220921FFF709
:1058F0007DFFE06802221221FFF778FF0123A361F8
:10590000D2E700BFB064000835580008F8B5074674
:10591000FFF7ACFF1E4B1E68B36913B93046FFF7A3
:10592000BDFF4836D6E90134013B03D533680BB3DC
:105930003668F7E7B4F90C50D5B9164BE36004F1BB
:105940005800656600F047F8FFF796FFC4E9015577
:10595000C4E904552560A5610822294604F15C00CC
:10596000FFF72CFDC4E90D55C4E912552046F8BDDA
:105970006834D9E704213846FFF762FF04463060F7
:105980000028D5D1FFF778FF0C233B60EEE700BF7E
:10599000B06400080100FFFF2DE9F8430646884681
:1059A00000F148040027D4E90195B9F1010905D5B2
:1059B0002468002CF7D13846BDE8F883AB89012B69
:1059C00007D9B5F90E30013303D029463046C04718
:1059D00007436835E9E770477047704770B50E4672
:1059E000B1F90E10002996B014461D4608DAB6F932
:1059F0000C3000222A601A0610D44FF480630EE0A7
:105A00006A4600F095FC0028F1DB019A02F470422E
:105A1000A2F500535A425A412A60EEE74023002083
:105A2000236016B070BD00008B8973B59D070646D4
:105A30000C4607D504F1470323602361012363610A
:105A400002B070BD01AB6A46FFF7C8FF009905467A
:105A5000304600F095F848B9B4F90C309A05EFD407
:105A600023F0030343F00203A381E3E70D4BB3628A
:105A7000A389206043F08003A381009B6361019BA5
:105A800020615BB1B4F90E10304600F063FC28B120
:105A9000A38923F0030343F00103A381A0890543F5
:105AA000A581CDE73558000837B5002944D051F815
:105AB000043C0190002BA1F10404B8BFE41800F0ED
:105AC0006BFC1E4A0198136833B96360146003B01D
:105AD000BDE8304000F066BCA34208D925686119D2
