:020000040800F2
:1000000000000220796A00081D1B00081F1B000861
:10001000211B0008231B0008251B0008000000000E
:100020000000000000000000000000001167000850
:10003000271B000800000000B1670008291B00080A
:10004000C96A0008C96A0008C96A0008C96A0008C4
:10005000C96A0008C96A0008C96A0008C96A0008B4
:10006000C96A0008C96A0008C96A0008C96A0008A4
:10007000C96A0008C96A0008C96A0008C96A000894
:10008000C96A0008C96A0008C96A000800000000BF
:10009000000000000000000000000000C96A000825
:1000A000C96A0008C96A0008C96A0008C96A000864
:1000B000C96A0008C96A0008C96A00080D1B00085F
:1000C000C96A0008C96A0008C96A0008C96A000844
:1000D000C96A0008C96A0008C96A0008000000006F
:1000E000C96A0008C96A0008C96A0008000000005F
:1000F000000000000000000000000000C96A0008C5
:1001000000000000C96A0008C96A0008C96A00083E
:1001100000000000000000000000000000000000DF
:10012000C96A0008C96A0008C96A0008C96A0008E3
:10013000C96A000800000000000000000000000084
:10014000000000000000000000000000C96A000874
:10015000C96A0008C96A0008C96A0008C96A0008B3
:10016000C96A0008C96A0008000000000000000019
:10017000000000000000000000000000000000007F
:1001800000000000C96A0008000000000000000034
:08019000C96A0008C96A0008F1
:1001A00010B5054C237833B9044B13B10448AFF3B1
:1001B00000800123237010BD7400002000000000A7
:1001C000D882000808B5034B1BB103490348AFF3BD
:1001D000008008BD0000000078000020D8820008E0
:1001E000034613F8012B002AFBD1181A0138704777
:1001F00001F0FF01102A2BDB10F0070F08D010F8D8
:10020000013B013A8B422DD010F0070F42B3F6D1DB
:10021000F0B441EA012141EA014122F007047FF0F4
:1002200000070023F0E80256083C85EA010586EA4B
:10023000010685FA47F5A3FA87F586FA47F6A5FA87
:1002400087F68EB9EED1F0BC01F0FF0102F0070293
:1002500032B110F8013B013A83EA010313B1F8D13E
:100260000020704701387047002D06BF354603381F
:10027000073815F0010F07D1013015F4807F02BF58
:10028000013015F4C03F0130F0BC0138704700BFA9
:1002900081F0004102E000BF83F0004330B54FEA37
:1002A00041044FEA430594EA050F08BF90EA020FA4
:1002B0001FBF54EA000C55EA020C7FEA645C7FEA37
:1002C000655C00F0E2804FEA5454D4EB5555B8BF5A
:1002D0006D420CDD2C4480EA020281EA030382EACB
:1002E000000083EA010180EA020281EA0303362D5D
:1002F00088BF30BD11F0004F4FEA01314FF4801C30
:100300004CEA113102D0404261EB410113F0004F41
:100310004FEA03334CEA133302D0524263EB4303F8
:1003200094EA050F00F0A780A4F10104D5F1200E96
:100330000DDB02FA0EFC22FA05F2801841F10001F1
:1003400003FA0EF2801843FA05F359410EE0A5F1C5
:1003500020050EF1200E012A03FA0EFC28BF4CF0F6
:10036000020C43FA05F3C01851EBE37101F00045AC
:1003700007D54FF0000EDCF1000C7EEB00006EEBB9
:100380000101B1F5801F1BD3B1F5001F0CD3490843
:100390005FEA30004FEA3C0C04F101044FEA44529A
:1003A00012F5800F80F09A80BCF1004F08BF5FEA21
:1003B000500C50F1000041EB045141EA050130BD01
:1003C0005FEA4C0C404141EB0101013C28BFB1F513
:1003D000801FE9D291F0000F04BF01460020B1FA5E
:1003E00081F308BF2033A3F10B03B3F120020CDA31
:1003F0000C3208DD02F1140CC2F10C0201FA0CF00F
:1004000021FA02F10CE002F11402D8BFC2F1200C73
:1004100001FA02F120FA0CFCDCBF41EA0C01904029
:10042000E41AA2BF01EB0451294330BD6FEA040472
:100430001F3C1CDA0C340EDC04F11404C4F120025D
:1004400020FA04F001FA02F340EA030021FA04F36F
:1004500045EA030130BDC4F10C04C4F1200220FAC6
:1004600002F001FA04F340EA0300294630BD21FA04
:1004700004F0294630BD94F0000F83F4801306BFCA
:1004800081F480110134013D4EE77FEA645C18BFBE
:100490007FEA655C29D094EA050F08BF90EA020F55
:1004A00005D054EA000C04BF1946104630BD91EA4D
:1004B000030F1EBF0021002030BD5FEA545C05D150
:1004C0004000494128BF41F0004130BD14F580048F
:1004D0003CBF01F5801130BD01F0004545F0FE4103
:1004E00041F470014FF0000030BD7FEA645C1ABF38
:1004F000194610467FEA655C1CBF0B46024650EA6F
:10050000013406BF52EA033591EA030F41F400219A
:1005100030BD00BF90F0000F04BF0021704730B520
:100520004FF4806404F132044FF000054FF00001F5
:1005300050E700BF90F0000F04BF0021704730B5B6
:100540004FF4806404F1320410F0004548BF40428B
:100550004FF000013EE700BF42004FEAE2014FEAE0
:1005600031014FEA02701FBF12F07F4393F07F4FBB
:1005700081F06051704732F07F4208BF704793F0BE
:100580007F4F04BF41F40021704730B54FF46074D1
:1005900001F0004521F000411CE700BF50EA0102D4
:1005A00008BF704730B54FF000050AE050EA01027D
:1005B00008BF704730B511F0004502D5404261EBED
:1005C00041014FF4806404F132045FEA915C3FF42E
:1005D000D8AE4FF003025FEADC0C18BF03325FEACB
:1005E000DC0C18BF033202EBDC02C2F1200300FA7C
:1005F00003FC20FA02F001FA03FE40EA0E0021FAA1
:1006000002F11444BDE600BF70B54FF0FF0C4CF48E
:10061000E06C1CEA11541DBF1CEA135594EA0C0F40
:1006200095EA0C0F00F0DEF82C4481EA030621EA7B
:100630004C5123EA4C5350EA013518BF52EA0335B6
:1006400041F4801143F4801338D0A0FB02CE4FF068
:100650000005E1FB02E506F00042E0FB03E54FF098
:100660000006E1FB03569CF0000F18BF4EF0010E90
:10067000A4F1FF04B6F5007F64F5407404D25FEA8C
:100680004E0E6D4146EB060642EAC62141EA55513F
:100690004FEAC52040EA5E504FEACE2EB4F1FD0C81
:1006A00088BFBCF5E06F1ED8BEF1004F08BF5FEAFF
:1006B000500E50F1000041EB045170BD06F00046B1
:1006C00046EA010140EA020081EA0301B4EB5C045E
:1006D000C2BFD4EB0C0541EA045170BD41F4801156
:1006E0004FF0000E013C00F3AB8014F1360FDEBF7B
:1006F000002001F0004170BDC4F10004203C35DA57
:100700000C341BDC04F11404C4F1200500FA05F3D9
:1007100020FA04F001FA05F240EA020001F000427A
:1007200021F0004110EBD37021FA04F642EB0601F0
:100730005EEA430E08BF20EAD37070BDC4F10C041A
:10074000C4F1200500FA04F320FA05F001FA04F2DE
:1007500040EA020001F0004110EBD37041F10001CA
:100760005EEA430E08BF20EAD37070BDC4F12005D5
:1007700000FA05F24EEA020E20FA04F301FA05F23D
:1007800043EA020321FA04F001F0004121FA04F2E5
:1007900020EA020000EBD3705EEA430E08BF20EAB5
:1007A000D37070BD94F0000F0FD101F000464000EF
:1007B00041EB010111F4801F08BF013CF7D041EA71
:1007C000060195F0000F18BF704703F00046520075
:1007D00043EB030313F4801F08BF013DF7D043EA46
:1007E0000603704794EA0C0F0CEA135518BF95EAFC
:1007F0000C0F0CD050EA410618BF52EA4306D1D183
:1008000081EA030101F000414FF0000070BD50EAA1
:10081000410606BF1046194652EA430619D094EA2B
:100820000C0F02D150EA013613D195EA0C0F05D115
:1008300052EA03361CBF104619460AD181EA030169
:1008400001F0004141F0FE4141F470014FF0000021
:1008500070BD41F0FE4141F4780170BD70B54FF0BC
:10086000FF0C4CF4E06C1CEA11541DBF1CEA13553C
:1008700094EA0C0F95EA0C0F00F0A7F8A4EB05041E
:1008800081EA030E52EA03354FEA013100F0888015
:100890004FEA03334FF0805545EA131343EA1263DE
:1008A0004FEA022245EA111545EA10654FEA002693
:1008B0000EF000419D4208BF964244F1FD0404F54C
:1008C000407402D25B084FEA3202B61A65EB0305A8
:1008D0005B084FEA32024FF480104FF4002CB6EB65
:1008E000020E75EB030E22BFB61A754640EA0C00E5
:1008F0005B084FEA3202B6EB020E75EB030E22BF25
:10090000B61A754640EA5C005B084FEA3202B6EB65
:10091000020E75EB030E22BFB61A754640EA9C0024
:100920005B084FEA3202B6EB020E75EB030E22BFF4
:10093000B61A754640EADC0055EA060E18D04FEAB2
:10094000051545EA16754FEA06164FEAC30343EA52
:1009500052734FEAC2025FEA1C1CC0D111F4801F1F
:100960000BD141EA00014FF000004FF0004CB6E718
:1009700011F4801F04BF01430020B4F1FD0C88BFB7
:10098000BCF5E06F3FF6AFAEB5EB030C04BFB6EBC2
:10099000020C5FEA500C50F1000041EB045170BDB5
:1009A0000EF0004E4EEA113114EB5C04C2BFD4EBE2
:1009B0000C0541EA045170BD41F480114FF0000E66
:1009C000013C90E645EA060E8DE60CEA135594EAE2
:1009D0000C0F08BF95EA0C0F3FF43BAF94EA0C0FE5
:1009E0000AD150EA01347FF434AF95EA0C0F7FF45A
:1009F00025AF104619462CE795EA0C0F06D152EAAE
:100A000003353FF4FDAE1046194622E750EA410691
:100A100018BF52EA43067FF4C5AE50EA41047FF4A2
:100A20000DAF52EA43057FF4EBAE12E74FF0FF3C07
:100A300006E000BF4FF0010C02E000BF4FF0010CD8
:100A40004DF804CD4FEA410C7FEA6C5C4FEA430C51
:100A500018BF7FEA6C5C1BD001B050EA410C0CBFA0
:100A600052EA430C91EA030F02BF90EA020F002002
:100A7000704710F1000F91EA030F58BF994208BF69
:100A800090422CBFD8176FEAE37040F00100704726
:100A90004FEA410C7FEA6C5C02D150EA013C07D17D
:100AA0004FEA430C7FEA6C5CD6D152EA033CD3D0C8
:100AB0005DF8040B704700BF8446104662468C46C2
:100AC0001946634600E000BF01B5FFF7B7FF0028F5
:100AD00048BF10F1000F01BD4DF808EDFFF7F4FF1E
:100AE0000CBF012000205DF808FB00BF4DF808EDA9
:100AF000FFF7EAFF34BF012000205DF808FB00BFCC
:100B00004DF808EDFFF7E0FF94BF012000205DF8ED
:100B100008FB00BF4DF808EDFFF7CEFF94BF0120A2
:100B200000205DF808FB00BF4DF808EDFFF7C4FF9B
:100B300034BF012000205DF808FB00BF4FEA410CE4
:100B40007FEA6C5C02D150EA013C0AD14FEA430CC7
:100B50007FEA6C5C02D152EA033C02D14FF0000004
:100B600070474FF0010070474FEA410212F5001242
:100B700015D211D56FF47873B3EB625212D94FEAE4
:100B8000C12343F0004343EA505311F0004F23FACE
:100B900002F018BF404270474FF00000704750EA23
:100BA000013005D111F0004008BF6FF000407047E0
:100BB0004FF00000704700BF4FEA4102B2F1E0433E
:100BC00024BFB3F5001CDCF1FE5C0DD901F0004C34
:100BD0004FEAC0024CEA5070B2F1004F40EB830084
:100BE00008BF20F00100704711F0804F21D113F1B0
:100BF0003872BCBF01F00040704741F480114FEAE9
:100C00005252C2F11802C2F1200C10FA0CF320FA71
:100C100002F018BF40F001004FEAC1234FEAD3238E
:100C200003FA0CFC40EA0C0023FA02F34FEA4303F8
:100C3000CCE77FEA625307D150EA01331EBF4FF081
:100C4000FE4040F44000704701F0004040F0FE409C
:100C500040F40000704700BF53B94AB9002908BFEB
:100C600000281CBF4FF0FF314FF0FF3000F074B987
:100C7000ADF1080C6DE904CE00F006F8DDF804E0F3
:100C8000DDE9022304B070472DE9F047089D0446D2
:100C90008E46002B4DD18A42944669D9B2FA82F22F
:100CA00052B101FA02F3C2F1200120FA01F10CFA6B
:100CB00002FC41EA030E94404FEA1C48210CBEFBA3
:100CC000F8F61FFA8CF708FB16E341EA034306FB2C
:100CD00007F199420AD91CEB030306F1FF3080F0BB
:100CE0001F81994240F21C81023E63445B1AA4B208
:100CF000B3FBF8F008FB103344EA034400FB07F7AA
:100D0000A7420AD91CEB040400F1FF3380F00A81EA
:100D1000A74240F207816444023840EA0640E41BDF
:100D200000261DB1D4400023C5E900433146BDE88B
:100D3000F0878B4209D9002D00F0EF800026C5E92D
:100D4000000130463146BDE8F087B3FA83F6002E45
:100D50004AD18B4202D3824200F2F980841A61EBBD
:100D6000030301209E46002DE0D0C5E9004EDDE7DB
:100D700002B9FFDEB2FA82F2002A40F09280A1EBC3
:100D80000C014FEA1C471FFA8CFE0126200CB1FB18
:100D9000F7F307FB131140EA01410EFB03F0884211
:100DA00008D91CEB010103F1FF3802D2884200F29E
:100DB000CB804346091AA4B2B1FBF7F007FB101130
:100DC00044EA01440EFB00FEA64508D91CEB0404CE
:100DD00000F1FF3102D2A64500F2BB800846A4EB29
:100DE0000E0440EA03409CE7C6F12007B34022FA14
:100DF00007FC4CEA030C20FA07F401FA06F31C4343
:100E0000F9404FEA1C4900FA06F3B1FBF9F8200C4F
:100E10001FFA8CFE09FB181140EA014108FB0EF095
:100E2000884202FA06F20BD91CEB010108F1FF3AE5
:100E300080F08880884240F28580A8F102086144F1
:100E4000091AA4B2B1FBF9F009FB101144EA0141FF
:100E500000FB0EFE8E4508D91CEB010100F1FF34AA
:100E60006CD28E456AD90238614440EA0840A0FB42
:100E70000294A1EB0E01A142C846A64656D353D018
:100E80005DB1B3EB080261EB0E0101FA07F722FA3C
:100E900006F3F1401F43C5E9007100263146BDE865
:100EA000F087C2F12003D8400CFA02FC21FA03F3C8
:100EB000914001434FEA1C471FFA8CFEB3FBF7F049
:100EC00007FB10360B0C43EA064300FB0EF69E426E
:100ED00004FA02F408D91CEB030300F1FF382FD207
:100EE0009E422DD9023863449B1B89B2B3FBF7F6AF
:100EF00007FB163341EA034106FB0EF38B4208D988
:100F00001CEB010106F1FF3816D28B4214D9023EC8
:100F10006144C91A46EA004638E72E46284605E7E6
:100F20000646E3E61846F8E64B45A9D2B9EB0208B7
:100F300064EB0C0E0138A3E74646EAE7204694E747
:100F40004046D1E7D0467BE7023B614432E730467A
:100F500009E76444023842E7704700BFFEE7FEE756
:100F600030B58BB000240594069407940894099436
:100F70000194224B1A6B42F004021A631A6B02F0BE
:100F800004020192019A02941A6B42F080021A63E1
:100F90001A6B02F080020292029A03941A6B42F0DA
:100FA00001021A631A6B02F001020392039A04947D
:100FB0001A6B42F002021A631B6B03F002030493E4
:100FC000049B0F4D22462021284601F0D2FC4FF40D
:100FD000005305934FF404130693079405A9094899
:100FE00001F0E0FB20230593012306930794089466
:100FF00005A9284601F0D6FB0BB030BD00380240F1
:10100000000002400008024008B5064B1B68002B98
:10101000FBD0044B00221A60034800F061FD00F091
:1010200053FDF2E7A4030020A803002008B56422C2
:101030000B490C4803F098FE0DE009490A4805F0F9
:1010400085FD0A4B00221A70094800F029FD4FF473
:101050007A7004F00DFE054B1B78002BEDD1F3E701
:10106000DC02002024020020F0820008D8020020C8
:101070000083000808B54FF40051084801F072FCE5
:101080000028F8D14FF0FF3307220549054803F047
:10109000CEFDC82004F0ECFDEDE700BF00080240E3
:1010A000188300086C02002070B582B00C46079DC2
:1010B0000195069E009604F0D2FB012806D0214639
:1010C000074805F043FD012002B070BD286804F018
:1010D000B3FC0146034805F039FD0020F4E700BFEA
:1010E000308300082083000810B50446006804F02F
:1010F000EBFB206804F0A0FC0146034805F026FD48
:101100000023236010BD00BF4883000810B52DEDFB
:10111000028B174C0021204603F0A8FB0421204637
:1011200003F0A4FB0821204603F0A0FB0C2120467D
:1011300003F09CFB9FED0F8AB3EE011AF3EE030A56
:10114000B0EE480A00F0FCFB41F2883004F090FD5C
:10115000B3EE011AF3EE030AB0EE480A00F04AFCBF
:1011600041F2883004F084FD0348FFF7BDFFFEE73D
:10117000940100200000B442B402002000B583B006
:1011800001904FF6FF73012201A9034803F04FFDC0
:10119000019803B05DF804FB6C02002072B6FEE714
:1011A00008B50E480E4B03600E4B4360002383606E
:1011B000C3604FF48042026143618361C361036293
:1011C00001F08EFE40B9002211461F2001F000FC04
:1011D0001F2001F035FC08BDFFF7E0FFA000002054
:1011E00000580040A086010008B50B480B4B036077
:1011F0004FF40073436000238360C36003614FF4C6
:10120000FA5242618361C3610123036202F032FD3D
:1012100000B908BDFFF7C2FFF4000020003C004009
:1012200008B50D480D4B03604FF4827343600023F3
:101230008360C360036143614FF400728261C361E4
:101240000362436283620A23C36203F011F800B9A8
:1012500008BDFFF7A3FF00BF3C010020003800409D
:1012600000B58FB000230A930B930C930D93089352
:1012700009930193029303930493059306930793B1
:101280002C482D4A0260B3224260836042F20F7202
:10129000C2600361836103F055F9002839D14FF42E
:1012A00080530A930AA9234803F051FA002832D147
:1012B000204803F073F900282FD1002308930993E5
:1012C00008A91C4803F04AFB48BB60230193002295
:1012D00002920392059201A9164803F0BDF900BBE2
:1012E00004220DEB0201134803F0B6F9D8B9082225
:1012F00001A9104803F0B0F9B8B90C2201A90D48B2
:1013000003F0AAF998B90B4800F08AFD0FB05DF818
:1013100004FBFFF743FFFFF741FFFFF73FFFFFF736
:101320003DFFFFF73BFFFFF739FFFFF737FFFFF701
:1013300035FF00BF940100200004004000B58FB0CD
:1013400000230A930B930C930D9308930993019335
:101350000293039304930593069307932248234A29
:101360000260B3224260836042F20F72C260036186
:10137000836103F0E7F858BB4FF480530A930AA93E
:10138000194803F0E4F928BB174803F007F918BB24
:1013900000230893099308A9134803F0DFFAE8B97A
:1013A00060230193002202920392059201A90E4844
:1013B00003F052F9A0B904220DEB02010A4803F030
:1013C0004BF978B9084800F02BFD0FB05DF804FB2D
:1013D000FFF7E4FEFFF7E2FEFFF7E0FEFFF7DEFEB9
:1013E000FFF7DCFEFFF7DAFEDC010020000800401A
:1013F00008B50A480A4B03604FF4E1334360002309
:101400008360C36003610C2242618361C36103F0A6
:10141000DEFB00B908BDFFF7C1FE00BF6C02002073
:101420000044004008B50A480A4B03604FF41653C5
:10143000436000238360C36003610C2242618361C7
:10144000C36103F0C4FB00B908BDFFF7A7FE00BFEE
:10145000240200200010014000B595B03022002188
:1014600008A805F06BFB00230393049305930693F0
:10147000079301931E4A116C41F080511164126C64
:1014800002F080520192019A02931A4A116841F4C3
:1014900040411160126802F440420292029A022115
:1014A000089101220B9210220C920E910F93109230
:1014B0004FF4A873119304231293139308A800F018
:1014C00043FD80B90F230393022104910023059368
:1014D0004FF480520692079303A800F09BFF20B9B7
:1014E00015B05DF804FBFFF759FEFFF757FE00BF8C
:1014F000003802400070004000B583B001F0E8FA07
:10150000FFF7AAFFFFF72CFDFFF74AFEFFF76CFE7F
:10151000FFF786FEFFF7A4FEFFF710FFFFF768FF57
:10152000FFF780FF224805F097FB224B0193082329
:10153000009300234FF400721F492048FFF7B4FDC9
:101540001F4B019307230093002380221D491E484F
:10155000FFF7AAFD1D4B01930623009300234FF4D0
:1015600000721B491B48FFF79FFD1B4B019305238E
:1015700000930023802219491948FFF795FD194B64
:101580000193042400940023802217491748FFF791
:101590008BFD174B019300940023802215491648B8
:1015A000FFF782FD154805F057FB04F0E9F9FEE767
:1015B0005C830008B4020020688300080D11000855
:1015C0009C00002070830008751000089000002027
:1015D0007883000809100008B80200208083000802
:1015E0005D0F000898000020888300085F0F000846
:1015F00094000020908300082D10000898830008B4
:1016000010B5B4281DD8014607EE900AF8EEE77A27
:101610009FED117A67EE877A9FED107A77EE877AE1
:10162000FDEEE77A17EE904AA4F1C80240F2B63315
:101630009A420BD817EE902A094805F087FAA0B213
:1016400010BD084805F008FB0020F9E7064805F042
:1016500003FB0020F4E700BF8EE3A84000004843EE
:1016600000840008B4830008DC8300080000000048
:1016700038B52DED028BB0EE408A21EE011A60EEF6
:10168000A00A71EE207A17EE900AFEF765FF41EC92
:10169000100B06F09BFA51EC100BFFF78DFA08EED9
:1016A000900A68EEA87A17EE900AFEF755FF0446F6
:1016B0000D4602460B4645A1D1E90001FEF7ECFDBF
:1016C00000223B4BFFF7CAF841EC100B06F04AFA38
:1016D00051EC100B2EA3D3E90023FEF795FFFFF783
:1016E00043FA344B186022462B462BA1D1E9000166
:1016F000FEF7D2FD2AA3D3E90023FFF7AFF841ECB0
:10170000100B06F02FFA51EC100BFFF72DFAFEF735
:1017100011FF1FA3D3E90023FEF776FFFFF724FA9A
:10172000254B18600022254B20462946FEF7B6FDC2
:101730001DA3D3E90023FEF7AFFD04460D4618EEC6
:10174000900AFEF709FF00221D4BFEF75DFF0246DF
:101750000B4620462946FFF781F841EC100B06F0B6
:1017600001FA51EC100BFFF7FFF9FEF7E3FE08A3B7
:10177000D3E90023FEF748FFFFF7F6F9114B186095
:10178000BDEEC88A104B83ED008ABDEC028B38BDDC
:10179000F8C1631ADCA54C400000000000A07840AE
:1017A00000000000006078400000000000206C4055
:1017B00000807640C8020020CC0200200000624079
:1017C00000003840C4020020C002002000000000D9
:1017D00000107740F8B52DED028B07460D461646F2
:1017E00007EE902AB8EE677ADFED1B7A87EE278A3C
:1017F00000240BE0042D22D0082D25D03B68174A89
:1018000012681A64142001F08FF90134322C20D8A8
:1018100007EE904AF8EE677A67EE887AFCEEE77A90
:1018200017EE901A31440D4B19600D4805F08EF9F2
:10183000002DDFD13B68094A12685A63E2E73B6832
:10184000064A12689A63DDE73B68044A1268DA6365
:10185000D8E7BDEC028BF8BD00004842D40200205E
:101860002484000810B51B4CC82200212046FFF735
:10187000B1FFC82204212046FFF7ACFF5A20FFF732
:10188000BFFE024600212046FFF7A4FF4FF47A7006
:1018900001F04AF91920FFF7B3FE02460021204665
:1018A000FFF798FF4FF47A7001F03EF941F288306B
:1018B00004F0DEF90020FFF7A3FE024600212046D7
:1018C000FFF788FF4FF47A7001F02EF90248FFF716
:1018D0000BFC10BDDC010020D002002010B55A2006
:1018E000FFF78EFE0246144C00212046FFF772FFE0
:1018F0004FF47A7001F018F90020FFF781FE0246DC
:1019000000212046FFF766FF4FF47A7001F00CF9D2
:1019100041F2883004F0ACF91E20FFF771FE024658
:1019200000212046FFF756FF4FF47A7001F0FCF8D3
:101930000248FFF7D9FB10BDDC010020BC020020EB
:1019400030B583B0FFF794FE224B1878FFF758FEAE
:101950000246214C00212046FFF73CFF4FF47A70ED
:1019600001F0E2F81D4B01930825009500234FF488
:1019700000721B491B48FFF797FB4FF47A7004F085
:1019800077F9194B1878FFF73BFE024604212046F1
:10199000FFF720FF4FF47A7001F0C6F8134B187868
:1019A000FFF72EFE024629462046FFF713FF4FF4AD
:1019B0007A7001F0B9F80E4B1878FFF721FE024655
:1019C0000C212046FFF706FF4FF47A7001F0ACF8C7
:1019D00003B030BDC002002094010020D0020020DE
:1019E0007883000865180008C4020020C80200209F
:1019F000CC02002010B582B0FFF73AFE204B1878D9
:101A0000FFF7FEFD02461F4C00212046FFF7E2FED5
:101A10004FF47A7001F088F81B4B0193092300936F
:101A200000234FF4007219491948FFF73DFB4FF4AA
:101A30007A7004F01DF9174B1878FFF7E1FD0246A4
:101A400004212046FFF7C6FE4FF47A7001F06CF8CF
:101A5000114B1878FFF7D4FD024608212046FFF706
:101A6000B9FE4FF47A7001F05FF80C4B1878FFF76D
:101A7000C7FD02460C212046FFF7ACFE02B010BDA8
:101A8000C002002094010020BC02002080830008D6
:101A9000DD180008C4020020C8020020CC0200208B
:101AA00010B50146064C204605F0DEF82046FEF74C
:101AB00097FB82B22146034803F01FF910BD00BF17
:101AC000400300202402002008B56423024A782144
:101AD000024801F0E3FA08BDA8030020A00000209E
:101AE00008B50146014805F031F808BD3C840008FE
:101AF0000268044B9A4200D07047034B01221A60DF
:101B0000FAE700BF00580040A403002008B50248CF
:101B100001F0E0FF08BD00BFA0000020FEE7FEE7E7
:101B2000FEE7FEE7FEE7704708B500F0EBFF04F0C4
:101B3000DDF9012800D108BD04F06CFEFBE70000D0
:101B400000B583B0002200920D4B596C41F48041E6
:101B50005964596C01F48041009100990192196C0B
:101B600041F0805119641B6C03F080530193019B79
:101B70000F216FF0010000F02BFF03B05DF804FBB4
:101B8000003802402DE9F04188B00023039304930C
:101B900005930693079302681C4B9A4202D008B043
:101BA000BDE8F08100250195194C236B43F0020339
:101BB0002363236B03F002030193019B4FF48063C3
:101BC00003934FF01208CDF81080032706970423E3
:101BD0000793104E03A9304600F0E4FD4FF4007364
:101BE0000393CDF81080059506970923079303A961
:101BF000304600F0D7FD0295236C43F48003236444
:101C0000236C03F480030293029BC8E70058004052
:101C100000380240000402402DE9F04190B000235A
:101C20000B930C930D930E930F93059306930793C9
:101C3000089309930A930268384B9A4202D010B075
:101C4000BDE8F08101230593C02307931023069379
:101C50000223089305A800F0B3FC00285AD1002401
:101C600001942F4B1A6C42F400421A641A6C02F46D
:101C700000420192019A02941A6B42F001021A6327
:101C80001A6B02F001020292029A03941A6B42F05C
:101C900002021A631A6B02F002020392039A04947E
:101CA0001A6B42F004021A631B6B03F004030493E3
:101CB000049B10230B9302250C950D940E9406277C
:101CC0000F970BA9174800F06DFD4FF48058CDF821
:101CD0002C800C950D940E9407230F930BA912489A
:101CE00000F060FD4FF400630B930C950D940E947F
:101CF00005230F930D4E0BA9304600F053FDCDF890
:101D00002C800C950D940E940F970BA9304600F083
:101D100049FD94E7FFF742FAA1E700BF003C00400D
:101D20000038024000000240000402400008024067
:101D3000F0B589B0002303930493059306930793AA
:101D400002681F4B9A4201D009B0F0BD00240094F4
:101D500003F500331A6C42F480421A641A6C02F4E0
:101D600080420092009A01941A6B42F004021A63B6
:101D70001A6B02F004020192019A02941A6B42F06B
:101D800002021A631B6B03F002030293029B0823F7
:101D9000039302270497032606960525079503A9B2
:101DA000084800F0FFFC4FF4005303930497059498
:101DB0000696079503A9044800F0F4FCC4E700BFA9
:101DC00000380040000802400004024082B003686E
:101DD000104A934204D0104A93420ED002B070478A
:101DE000002300930D4B1A6C42F002021A641B6C24
:101DF00003F002030093009BF0E700230193074BDD
:101E00001A6C42F004021A641B6C03F00403019381
:101E1000019BE3E700040040000800400038024056
:101E200030B589B000230393049305930693079379
:101E30000368244A934204D0234A93422BD009B02A
:101E400030BD00250095214B1A6B42F001021A6348
:101E50001A6B02F001020092009A01951A6B42F08F
:101E600002021A631B6B03F002030193019BC02360
:101E7000039302240494079403A9154800F092FCEC
:101E800003230393049405950695079403A9114829
:101E900000F088FCD3E7002302930C4B1A6B42F04E
:101EA00002021A631B6B03F002030293029BC0231E
:101EB000039302230493079303A9064800F072FCDE
:101EC000BDE700BF000400400008004000380240A9
:101ED000000002400004024000B589B000230393D3
:101EE00004930593069307930268154B9A4202D018
:101EF00009B05DF804FB0021019103F5FA331A6C77
:101F000042F400321A641A6C02F400320192019A0F
:101F100002911A6B42F001021A631B6B03F001037A
:101F20000293029B0C23039302230493032306933F
:101F30000723079303A9034800F034FCD8E700BF48
:101F40000044004000000240002800F0E08170B52D
:101F500082B00446036813F0010F3BD09F4B9B688F
:101F600003F00C03042B2CD09C4B9B6803F00C0358
:101F7000082B21D06368B3F5803F4FD0B3F5A02F75
:101F800052D0964B1A6822F480321A601A6822F4F2
:101F900080221A606368002B50D000F0BFFD054618
:101FA0008E4B1B6813F4003F14D100F0B7FD401BAB
:101FB0006428F5D90320B1E1884B5B6813F4800FE6
:101FC000D8D0864B1B6813F4003F03D06368002B06
:101FD00000F09F81236813F0020F54D07F4B9B6861
:101FE00013F00C0F3ED07D4B9B6803F00C03082BC5
:101FF00033D0E368002B68D0794B01221A6000F0DF
:102000008DFD0546754B1B6813F0020F54D100F08F
:1020100085FD401B0228F5D903207FE16F4A136834
:1020200043F480331360B5E76C4B1A6842F48022A6
:102030001A601A6842F480321A60ABE700F06EFD55
:102040000546664B1B6813F4003FC3D000F066FDE5
:10205000401B6428F5D9032060E1604B5B6813F4F2
:10206000800FC6D15D4B1B6813F0020F03D0E368ED
:10207000012B40F05081594A136823F0F80321697D
:1020800043EAC1031360236813F0080F42D0636969
:102090006BB3534B0122C3F8802E00F03FFD054681
:1020A0004E4B5B6F13F0020F34D100F037FD401B35
:1020B0000228F5D9032031E1484A136823F0F803D8
:1020C000216943EAC1031360DDE7454B00221A6032
:1020D00000F024FD0546414B1B6813F0020FD2D0DF
:1020E00000F01CFD401B0228F5D9032016E13C4BF3
:1020F0000022C3F8802E00F011FD0546374B5B6FC0
:1021000013F0020F06D000F009FD401B0228F5D99C
:10211000032003E1236813F0040F77D02F4B1B6CCF
:1021200013F0805F33D1002301932C4B1A6C42F0E3
:1021300080521A641B6C03F080530193019B0125AC
:10214000284B1B6813F4807F23D0A368012B34D065
:10215000052B38D0214B1A6F22F001021A671A6F33
:1021600022F004021A67A368002B3DD000F0D6FCD1
:1021700006461A4B1B6F13F0020F46D100F0CEFC3F
:10218000801B41F288339842F3D90320C6E0002532
:10219000D6E7144A136843F48073136000F0BEFC62
:1021A0000646104B1B6813F4807FCED100F0B6FCBE
:1021B000801B0228F5D90320B0E0084A136F43F0D2
:1021C00001031367CFE7054B1A6F42F004021A6749
:1021D0001A6F42F001021A67C5E700BF00380240DB
:1021E000000047420070004000F098FC0646524B49
:1021F0001B6F13F0020F08D000F090FC801B41F21F
:1022000088339842F3D9032088E0EDB9A369002B05
:1022100000F08380484A926802F00C02082A51D0EC
:10222000022B17D0454B00221A6600F077FC0446BB
:10223000414B1B6813F0007F42D000F06FFC001B85
:102240000228F5D9032069E03B4A136C23F0805340
:102250001364DBE7394B00221A6600F05FFC054689
:10226000354B1B6813F0007F06D000F057FC401B75
:102270000228F5D9032051E0E369226A1343626A18
:1022800043EA8213A26A5208013A43EA0243E26A2D
:1022900043EA0263284A5360284B01221A6600F081
:1022A0003DFC0446244B1B6813F0007F06D100F070
:1022B00035FC001B0228F5D903202FE000202DE07B
:1022C00000202BE0012B2BD01B4B5B6803F480011B
:1022D000E269914226D103F03F02216A8A4223D16A
:1022E000616A47F6C0721A40B2EB811F1ED103F437
:1022F0004031A26A5208013AB1EB024F18D103F003
:102300007063E26AB3EB026F14D1002006E0012093
:102310007047012002E0012000E0002002B070BD03
:102320000120FBE70120F9E70120F7E70120F5E7AD
:102330000120F3E70120F1E70038024000004742A6
:1023400008B5314B9B6803F00C03042B57D0082BC6
:1023500057D12D4B5A6802F03F025B6813F4800F8F
:102360002AD0294B5968C1F3881C4FEA4C11B1EBB4
:102370000C006EEB0E0E4FEA8E1343EA9063810160
:10238000091A63EB0E03DB0043EA5173C90011EB3A
:102390000C0C43F10003590200234FEA4C2041EAA0
:1023A000DC51FEF759FC184B5B68C3F30143013362
:1023B0005B00B0FBF3F025E0134B5968C1F3881CB8
:1023C0004FEA4C11B1EB0C006EEB0E0E4FEA8E1380
:1023D00043EA90638101091A63EB0E03DB0043EAD1
:1023E0005173C90011EB0C0C43F100039902002357
:1023F0004FEA8C2041EA9C51FEF72EFCD3E70348BC
:1024000000E0034808BD00BF0038024000127A0017
:102410000024F400002800F09B8070B50D460446AF
:102420004F4B1B6803F007038B4208D2CBB24C4AD8
:102430001370136803F007038B4240F08B8023680E
:1024400013F0020F17D013F0040F04D0454A93681D
:1024500043F4E0539360236813F0080F04D0414A1B
:10246000936843F4604393603E4A936823F0F0031B
:10247000A1680B439360236813F0010F32D06368A7
:10248000012B21D09A1E012A25D9364A126812F052
:10249000020F61D033498A6822F0030213438B6034
:1024A00000F03CFB06462F4B9B6803F00C03626870
:1024B000B3EB820F16D000F031FB801B41F2883362
:1024C0009842F0D9032042E0264A126812F4003FF5
:1024D000E0D101203BE0234A126812F0007FD9D1FD
:1024E000012034E01E4B1B6803F00703AB4207D901
:1024F000EAB21B4B1A701B6803F00703AB422DD1E5
:10250000236813F0040F06D0164A936823F4E053AF
:10251000E1680B439360236813F0080F07D0114A5A
:10252000936823F46043216943EAC1039360FFF792
:1025300007FF0C4B9B68C3F303130B4AD35CD840D3
:102540000A4B18600A4B186800F09CFA002070BD16
:10255000012070470120FAE70120F8E70120F6E7A3
:10256000003C02400038024050840008080000206F
:1025700004000020014B1868704700BF08000020CD
:1025800008B5FFF7F7FF044B9B68C3F38223034AA8
:10259000D35CD84008BD00BF00380240608400080A
:1025A00008B5FFF7E7FF044B9B68C3F34233034AC8
:1025B000D35CD84008BD00BF0038024060840008EA
:1025C00030B583B00446036813F0050F0ED12368BD
:1025D00013F0020F38D1236813F0080F00F09D802C
:1025E000227D4F4BC3F8E021002097E04D4B0022A5
:1025F0009A6600F093FA05464B4B1B6813F0006F88
:1026000006D000F08BFA431B022BF5D9032085E09E
:102610006368A26843EA8213E26843EA0273424AAB
:10262000C2F884303F4B01229A6600F077FA0546E3
:102630003D4B1B6813F0006FC9D100F06FFA401BCF
:102640000228F5D9032069E000230193364B1A6C68
:1026500042F080521A641B6C03F080530193019B7B
:10266000324A136843F48073136000F057FA05464A
:102670002E4B1B6813F4807F06D100F04FFA431BEA
:10268000022BF5D9032049E0274B1B6F13F440734D
:1026900014D0226902F440729A420FD0224B1A6F72
:1026A00022F440721F490120C1F8400E0020C1F8F9
:1026B000400E1A671B6F13F0010F12D1236903F448
:1026C0004072B2F5407F1DD0174A936823F4F81387
:1026D000936015490B6F2269C2F30B0213430B671A
:1026E00079E700F01BFA05460F4B1B6F13F0020F42
:1026F000E4D100F013FA401B41F288339842F3D939
:1027000003200BE008498A6822F4F81223F0704392
:1027100023F4407313438B60DBE7002003B030BD2C
:10272000001047420000474200380240007000405D
:10273000012801D000207047164B9B6813F400035A
:1027400002D02BB314487047124B5B6813F4800F10
:1027500015D0104BD3F8843003F03F030F48B0FB83
:10276000F3F30C4AD2F88400C0F3881003FB00F0A6
:10277000D2F88430C3F30273B0FBF3F07047054B1B
:10278000D3F8843003F03F030548B0FBF3F3E8E7E8
:1027900000207047003802400080BB0000127A0021
:1027A0000024F40000230F2B00F2D28070B582B019
:1027B00060E085685E000324B44025EA0405CC6827
:1027C000B4402C438460456825EA02054C68C4F394
:1027D00000129A402A4342605AE0DC08083450F85C
:1027E000246003F0070295000F22AA4026EA020E99
:1027F0000A69AA4042EA0E0240F824205CE0042262
:1028000000E0002202FA0EF22A430234514D45F84C
:102810002420514A94686FEA0C0224EA0C054E68A1
:1028200016F4801F01D04CEA04054B4CA560E46807
:1028300002EA04054E6816F4001F01D04CEA0405B4
:10284000454CE560646802EA04054E6816F4003FF2
:1028500001D04CEA0405404C6560246822404D6874
:1028600015F4803F01D04CEA04023B4C2260013356
:102870000F2B6BD801229A400C6804EA020C32EA52
:102880000404F4D14C6804F00304013C012C90D9F9
:102890004A6802F00302032A09D0C4685D000322DB
:1028A000AA4024EA02048A68AA402243C2604A6815
:1028B00002F00302022A90D004684FEA430E03227A
:1028C00002FA0EF224EA02044A6802F0030202FA53
:1028D0000EF2224302604A6812F4403FC7D0002241
:1028E00001921E4A546C44F480445464526C02F4C5
:1028F00080420192019A9C08A51C164A52F8255064
:1029000003F003024FEA820E0F2202FA0EF225EACA
:102910000205134A90423FF474AF02F58062904280
:102920000ED002F5806290420CD002F58062904297
:102930000AD002F5806290423FF461AF072261E75E
:1029400001225FE702225DE703225BE702B070BD70
:10295000704700BF00380140003C01400038024091
:10296000000002400369194201D001207047002095
:1029700070470AB18161704709048161704790F81E
:102980003530DBB2022B03D0802343650120704732
:10299000052380F835300268136823F001031360C3
:1029A0000020704790F8350070470000074AD36850
:1029B00023F4E0631B041B0C000200F4E0600343FB
:1029C00043F0BF6343F40033D360704700ED00E091
:1029D00000B5194BDB68C3F30223C3F1070CBCF14C
:1029E000040F28BF4FF0040C03F1040EBEF1060FD4
:1029F00018D9033B4FF0FF3E0EFA0CFC21EA0C0104
:102A000099400EFA03F322EA0303194300280BDB73
:102A10000901C9B200F1604000F5614080F800137F
:102A20005DF804FB0023E5E700F00F000901C9B2DF
:102A3000024B1954F4E700BF00ED00E014ED00E094
:102A4000002807DB00F01F02400901239340024ADF
:102A500042F82030704700BF00E100E00138B0F1DB
:102A6000807F0BD24FF0E0235861054AF02182F8B5
:102A700023100020986107221A61704701207047D7
:102A800000ED00E010B504460E4B18784FF47A7351
:102A9000B3FBF0F30C4A1068B0FBF3F0FFF7DEFF76
:102AA00068B90F2C01D901200AE0002221464FF01D
:102AB000FF30FFF78DFF054B1C60002000E0012078
:102AC00010BD00BF0000002008000020040000200E
:102AD00008B50B4B1A6842F400721A601A6842F487
:102AE00080621A601A6842F480721A600320FFF74D
:102AF0005DFF0F20FFF7C6FFFFF722F8002008BD9B
:102B0000003C0240034A1168034B1B780B441360DE
:102B1000704700BF0C04002000000020014B186823
:102B2000704700BF0C04002038B50446FFF7F6FFDD
:102B30000546B4F1FF3F02D0044B1B781C44FFF75D
:102B4000EDFF401BA042FAD338BD00BF00000020BB
:102B500003685A6912F0800F01D000221A61704791
:102B600090F83E30DBB2402B10D00369B3F5804FB4
:102B70001BD0036D002B39D1436CC3F3C81302681B
:102B800003F0060343F0F00313617047036D2BB9A4
:102B9000436C026803F0FE0313617047436C0268E4
:102BA00043F00103DBB21361704790F83D30DBB2B4
:102BB000212B0FD0436C026843F00103DBB2136199
:102BC000436B6BB1DB6B5BB10268536843F400632A
:102BD00053607047436C026803F0FE031361EFE734
:102BE000836B33B1DB6B002BEED102E0036D012B65
:102BF00000D07047436CC3F3C813026803F00603A8
:102C000043F0F1031361F4E7436C0268DBB2136134
:102C1000436B3BB1DB6B2BB10268536843F4006339
:102C200053607047836B002BFBD0DB6B002BF3D121
:102C3000F7E710B48BB090F83E30DAB2C16A046B9B
:102C400090F83D30DBB2222B0BD0002309930368B0
:102C50005A6909929B690993099B0BB05DF8044B73
:102C60007047036D0BB9402A17D0036D1BB9036978
:102C7000B3F5404F19D0438D9BB2002B25D1029361
:102C800003685A6902929A690292029A1A6842F497
:102C900000721A6000230365DFE7009303685A6936
:102CA00000929B690093009BD7E700230193036880
:102CB0005A6901929A690192019A1A6842F48072E3
:102CC0001A60036D01330365C7E7438D9BB2012B87
:102CD00025D0438D9BB2022B7BD00268136843F44E
:102CE0008063136003685A6812F4006F0ED011F508
:102CF000803F07D0012905D0082903D0102901D031
:102D0000202903D15A6842F480525A600023089364
:102D100003685A6908929B690893089BBAE711F502
:102D2000803F11D0082934D0202932D0122C2ED047
:102D3000042940D002293ED010293CD002681368F3
:102D400023F4806313603BE00268136823F480631C
:102D5000136003685A6812F4006F0CD01A6822F4EA
:102D600080621A600023039303685A6903929B6987
:102D70000393039B8EE7002204925A6904929A6996
:102D80000492049A1A6842F400721A6082E70129D8
:102D9000CED00268136823F4806313600023069387
:102DA00003685A6906929A690692069A1A6842F46A
:102DB00000721A606EE70268136843F48063136060
:102DC0000023059303685A6905929B690593059B47
:102DD00060E704290ED002290CD010290AD002681D
:102DE000136823F4806313600268136843F400637C
:102DF000136004E00268136843F48063136003689F
:102E00005A6812F4006F0ED011F5803F07D00129E7
:102E100005D0082903D0102901D0202903D15A68F0
:102E200042F480525A600023079303685A6907925C
:102E30009B690793079B2DE7438D9BB25BB1426A69
:102E4000036812781A61436A01334362438D9BB26F
:102E5000013B9BB243857047438D9BB25BB10368D6
:102E60001A69436A1A70436A01334362438D9BB205
:102E7000013B9BB24385704782B0002301930E4B08
:102E80001B68DB080D4AA2FB03231B0A03EB830329
:102E90000193019B013B0193019B33B103681B68C4
:102EA00013F4007FF5D1002004E0036C43F020030D
:102EB0000364012002B070470800002089B5F814AF
:102EC000C36AB3F52A0F04D0C36AB3F12A4F03D003
:102ED00070470123C36270470823C362F8E700000C
:102EE000002800F0CC8070B5044690F83D30002BEF
:102EF00077D0242384F83D302268136823F001033F
:102F000013602268136843F4004313602268136857
:102F100023F400431360FFF733FB62685A4B9A4275
:102F200064D85A4B98428CBF00230123002B40F0F9
:102F3000A8805749A1FB00318B0C25686A6822F0F4
:102F40003F0242EA91426A6021680A6A22F03F0227
:102F500066684D4DAE424FD8013313430B62216872
:102F6000CA6922F44F4222F0FF026668464B9E4235
:102F70004CD8431E7600B3FBF6F3013340F6FC70E9
:102F8000034278D0C3F30B031343CB6121680B6872
:102F900023F0C003E269206A024313430B602168F7
:102FA0008B6823F4034323F0FF032269E0680243A4
:102FB00013438B602168CB6823F0FF036269A0692B
:102FC00002431343CB602268136843F0010313608C
:102FD00000202064202384F83D30206384F83E00E4
:102FE00070BD80F83C30FEF7CDFD82E7294B98425A
:102FF0008CBF0023012399E74FF4967505FB03F37B
:10300000254DA5FB03539B090133A6E7A368BBB974
:10301000451E06EB460CB5FBFCF50135C5F30B056B
:10302000B5FA85F56D0945BBC3B9013806EB460312
:10303000B0FBF3F30133C3F30B0343F40043A3E703
:10304000451E06EB860C0CEB8C0CB5FBFCF5013534
:10305000C5F30B05B5FA85F56D09E4E7013806EB14
:10306000860303EB8303B0FBF3F30133C3F30B03DA
:1030700043F4404388E7042386E7012384E70120E3
:1030800070470120ACE700BFA08601007F841E00CE
:1030900083DE1B43FF083D00D34D621030B482B085
:1030A0000024019490F83D40E4B2202C58D12F4CDC
:1030B0002468E4082E4DA5FB0454240A04EB840480
:1030C00004EB84040194019C013C0194019C002CBC
:1030D0003AD00468A56915F0020FF4D190F83C507D
:1030E000012D41D0012580F83C50256815F0010FD5
:1030F00003D1256845F00105256005682C6824F496
:1031000000642C60222480F83D40102480F83E406A
:103110000024046442624385438D0385154BC362DA
:10312000416480F83C400268536843F4E0635360B4
:103130000268136843F4806313600268136843F401
:103140008073136020460CE000230363202280F884
:103150003D2080F83E30036C13430364022000E0FE
:10316000022002B030BC70470220FAE708000020BD
:1031700089B5F8140000FFFF7047704708B590F854
:103180003D30DAB2438D9BB283B1416A036809785E
:103190001961436A01334362438D9BB2013B9BB289
:1031A0004385438D9BB20BB9292A00D008BD026824
:1031B000536823F48063536021230363282380F83A
:1031C0003D30FFF7DAFFF1E7704708B590F83D3082
:1031D000DAB2438D9BB283B103681969436A1970EF
:1031E000436A01334362438D9BB2013B9BB24385EB
:1031F000438D9BB20BB92A2A00D008BD02685368E0
:1032000023F48063536022230363282380F83D3036
:10321000FFF7DAFFF1E7704700B583B090F83D3073
:1032200003F02803282B0CD0002301930268516976
:10323000019192690192019A80F83C3003B05DF8E7
:1032400004FB0268536823F48063536011F0040F99
:103250000BD0002311F0800F09D18289002180F862
:103260003C101946FFF7D7FFE8E70123F2E7028B8E
:10327000F4E77047704708B5C26A90F83D30DBB29A
:10328000212B00D008BD438D9BB263B1426A036815
:1032900012781A61436A01334362438D9BB2013B4A
:1032A0009BB24385EEE7082A04D0202A02D012F50B
:1032B000803F19D10268536823F4E06353600268C9
:1032C000136843F40073136000230363202380F822
:1032D0003D3090F83E30DBB2402B15D0002380F813
:1032E0003E30FFF749FFCDE70268536823F4E063FF
:1032F000536011230363002380F83E30202380F8BD
:103300003D30FFF739FFBDE7002380F83E30FFF77F
:10331000B1FFB7E708B590F83D30026D9AB9C36CBC
:10332000012B08D0836CC3F3072302681361036D7C
:103330000133036508BD836C0268DBB21361036D62
:1033400002330365F6E7DBB2026D012A23D0026D7A
:10335000022A3ED1222B26D0428D92B20AB1212BD5
:103360002AD0428D92B2002AE4D1212BE2D1026808
:10337000536823F4E06353600268136843F40073F6
:10338000136000230363202280F83D2080F83E3044
:10339000FFF770FFCEE7836C0268DBB21361036D49
:1033A00001330365C6E70268136843F48073136052
:1033B000036D01330365BDE7426A036812781A6141
:1033C000436A01334362438D9BB2013B9BB2438509
:1033D000B0E7FFF7BDFBADE710B590F83D30DBB2CD
:1033E00090F83E20D2B2C46A018D09B9212B04D0D5
:1033F000212B3BD0402A37D010BD082C04D0202CE4
:1034000002D014F5803F19D10268536823F4E063B9
:1034100053600268136843F400731360002303636E
:10342000202380F83D3090F83E30DBB2402B15D0A1
:10343000002380F83E30FFF79FFEDDE70268536807
:1034400023F4E063536011230363002380F83E30CC
:10345000202380F83D30FFF78FFECDE7002380F872
:103460003E30FFF707FFC7E7222BC5D1438D9BB244
:103470002BB90268536823F480635360BCE790F86B
:103480003E30DBB2402B0CD0426A036812781A61DE
:10349000436A01334362438D9BB2013B9BB2438538
:1034A000AAE7FFF737FFA7E7704708B5C26A438D61
:1034B0009BB2042B14D0438D9BB2032B22D0438D9F
:1034C0009BB2022B39D003681A69436A1A70436AA7
:1034D00001334362438D9BB2013B9BB2438510E0B5
:1034E0000268536823F48063536003681A69436A6F
:1034F0001A70436A01334362438D9BB2013B9BB216
:10350000438508BD01684B6823F480634B60042A3F
:1035100006D0022A04D00268136823F48063136083
:1035200003681A69436A1A70436A01334362438D20
:103530009BB2013B9BB24385E3E7012A0BD0102AE3
:1035400009D0042A3AD0022A38D001680B6843F423
:1035500000730B6004E001680B6823F480630B6068
:1035600003681969436A1970416A4B1C4362438DB1
:103570009BB2013B9BB2438503681B694B70436A56
:1035800001334362438D9BB2013B9BB2438501688B
:103590004B6823F440734B60202380F83D3090F853
:1035A0003E30DBB2402B0FD0002380F83E30082A9B
:1035B00011D0202A0FD0122303630EE001680B689C
:1035C00043F480630B60CBE7002380F83E30036355
:1035D000FFF76AFF95E700230363FEF789FA90E798
:1035E000704738B590F83D30DBB2222B00D038BDA3
:1035F0000446C56A438D9BB2032B15D903681A692B
:10360000436A1A70436A01334362438D9BB2013BA4
:103610009BB24385438D9BB2032BE8D1026853686C
:1036200023F480635360E2E7C26A022A01D0012BCF
:1036300005D92268536823F480635360D7E7FFF706
:103640001BFC002835D12268136823F480631360C3
:103650002268536823F4E063536023681A69636A3D
:103660001A70636A01336362638D9BB2013B9BB244
:103670006385202384F83D3094F83E30DBB2402B44
:1036800009D0002384F83E30082D0CD0202D0AD01C
:103690001223236309E0002384F83E30236320468D
:1036A000FFF702FFA3E7002323632046FEF720FA7B
:1036B0009DE72268536823F4E063536023681A6926
:1036C000636A1A70636A01336362638D9BB2013B64
:1036D0009BB26385202384F83D30002384F83E307C
:1036E0002046FFF77DFF82E77047000000B583B0FA
:1036F00000230193806B90F83D20D2B2324B1B68BF
:10370000DB083249A1FB03131B0A03EB8303C3EB62
:10371000C3030193019B43B1019B013B01930368E8
:103720001B6813F4007FF5D103E0036C43F0200322
:103730000364436B0BB10021D963836B0BB1002190
:10374000D96301680B6823F480630B600023438511
:10375000436B0BB100211965836B0BB10021196517
:1037600001680B6823F001030B6090F83D30DBB279
:10377000602B0ED002F02802282A14D0202380F8D3
:103780003D30002380F83E30FFF72AFF03B05DF89C
:1037900004FB202380F83D30002380F83E30036492
:1037A000FFF7A2FFF2E70268136843F0010313601A
:1037B0000268136843F480631360002303632823C3
:1037C00080F83D30E0E700BF0800002089B5F8141C
:1037D00010B5044690F83D30DBB290F83E20D2B2EE
:1037E000102A36D0402A34D003F02802282A38D0B4
:1037F0002268526812F4006F07D1602B05D0202395
:1038000084F83D30002384F83E300023236323688E
:103810005A6812F4006F48D05A6822F400625A6065
:10382000626B92F83530DBB2012B20D0444B13652C
:10383000606BFFF7A4F8002849D02268136823F0D2
:1038400001031360202384F83D30606B036D9847BB
:103850003DE0222BC8D121680A6822F400620A6088
:10386000C2E700232363282384F83D30CFE7A36B0E
:10387000334A1A65A06BFFF782F840B323685A6990
:1038800012F0400F05D01A69636A1A70636A013337
:1038900063622268136823F001031360202384F815
:1038A0003D30A06B036D984711E094F83D20D2B2F3
:1038B000602A1FD05A6912F0400F05D01A69636A56
:1038C0001A70636A013363622046FFF789FE236C36
:1038D00013F00F0F04D02268536823F4E0635360A1
:1038E00094F83D30DBB2226C12F0040F01D0282B8B
:1038F00018D010BD202284F83D20002222645A698D
:1039000012F0400F05D01A69636A1A70636A0133B6
:1039100063622268136823F0010313602046FFF7F7
:10392000E3FED4E7074BE36200232363202284F8FD
:103930003D2084F83E302046FFF79BFCD9E700BFCE
:10394000ED3600080000FFFF30B583B0044690F864
:103950003D50EDB20268536823F4E06353600023E6
:10396000019303685A6901921A6842F001021A60D1
:10397000019B0268136823F48063136003685A682C
:1039800012F4006F38D0222D21D02A2D1FD0426B87
:103990001268526892B24285428D92B21AB1026C9C
:1039A00042F0040202645A6822F400625A60606BBA
:1039B000FEF7F8FF01281FD0636B444A1A65606B5D
:1039C000FEF7DDFFC0B1606B036D984714E0A26B9A
:1039D0001268526892B26285628D92B21AB1226CFC
:1039E00042F0040222645A6822F400625A60A06B1A
:1039F000FEF7D8FF012842D1638D9BB233B3236811
:103A00005A6912F0040F0AD01A69636A1A70636A5D
:103A100001336362638D9BB2013B9BB26385236874
:103A20005A6912F0400F0AD01A69636A1A70636A01
:103A300001336362638D9BB2013B9BB26385638DEF
:103A40009BB21BB1236C43F004032364236C13BBB0
:103A50002A2D25D094F83D30DBB2282B29D0236BBA
:103A6000222B01D0222D19D100232363202284F898
:103A70003D2084F83E302046FFF7A6FB0EE0A36B06
:103A8000124A1A65A06BFEF77AFF0028B4D0A06B2B
:103A9000036D9847B0E72046FFF79AFE03B030BDAC
:103AA00000232363282384F83D302046FFF78CFB56
:103AB000D0E7074BE36200232363202284F83D20F4
:103AC00084F83E302046FFF7D4FBE7E7ED360008E8
:103AD0000000FFFFF8B5044602685568C66A90F812
:103AE0003E30DBB290F83D10C8B2102B13D0402B03
:103AF00011D0236C002B7AD05369002113F0020FF0
:103B000078D015F4007F75D0236C03B191692046FD
:103B1000FFF782FBF8BDD2F818C0516911F0010718
:103B200005D1B6F52A0FF5D0B6F12A4FF2D017B16C
:103B300015F4007F29D111F0080F02D015F4007F91
:103B40002AD111F0020F02D015F4007F28D11CF009
:103B5000040F31D0526812F4006FDBD111F0800FE6
:103B600005D015F4806F02D011F0040F1CD011F0B5
:103B7000040FCFD015F4007FCCD0212818D0402BD3
:103B8000C8D12046FFF7C6FBC4E72046FFF798F9E7
:103B90002046FEF7E5FFBDE72046FFF735F8B9E719
:103BA0002046FFF746F8B5E72046FFF715FCB1E7DA
:103BB0002046FFF760FBADE7536813F4006FA9D10F
:103BC00011F0400F05D015F4806F02D011F0040FF2
:103BD00009D011F0040F9DD015F4007F9AD0204633
:103BE000FFF763FC96E72046FFF7FBFC92E791693D
:103BF000536983E713F0100F02D015F4007F18D13A
:103C000021281AD0292818D013F0400F05D015F418
:103C1000806F02D013F0040F28D013F0040F3FF48C
:103C200079AF15F4007F3FF475AF2046FFF714F924
:103C300070E72046FFF788FE6CE713F0800F05D091
:103C400015F4806F02D013F0040F0BD013F0040FA3
:103C50003FF460AF15F4007F3FF45CAF2046FFF700
:103C6000EBF857E72046FFF789FA53E72046FFF7BE
:103C7000ACFA4FE7002800F0BF8038B5044690F852
:103C80004130002B51D0022284F841202168CB69B9
:103C900023F47B6323F00F03CB6123681A6263690B
:103CA000934263D0E368002B46D11025A368202BF4
:103CB00000D86D000120FEF73BFD2369B3F5007FBE
:103CC0003CD0B0FBF5F000EB800043006069B3FB33
:103CD000F0F30533494AA2FB0323C3F3C002C2EB4E
:103CE000D3035B0811029A1EFD2A41D822690A43B8
:103CF000216813430B622168CB6923F47B6323F0B3
:103D00000F036268A0680243E0680243A0690243AF
:103D1000134343F40063CB61236A012B2ED00020B0
:103D20006064012384F8413038BD80F84030344B62
:103D30004363FDF771FFA6E72025B7E7E36853B1BA
:103D4000AD00B0FBF5F000EB800043006069B3FB11
:103D5000F0F30533BEE7ED00B0FBF5F000EB8000BB
:103D600043006069B3FBF0F30533B3E70021BAE722
:103D7000636C43F0100363640120D5E7214B636358
:103D80002268214B9A421FD04FF04022D36923F47E
:103D90007B6323F00F03D36122681B4B9A4215D03B
:103DA0004FF0402302221A622268174B9A4210D029
:103DB0004FF04025EB699BB26268B2F5007F0AD0F4
:103DC000C2B94FF4807008E0104ADFE7A3F58063C2
:103DD000E8E70E4DEEE74FF48070B4F808C0A18913
:103DE000228B40EA0C0001430A43134343F400636F
:103DF000EB6194E70020F0E701207047CDCCCCCCFC
:103E0000873E000899400008003800400034004018
:103E1000704708B5426A03681288DA60436A023361
:103E20004362438D9BB2013B9BB24385438D9BB262
:103E300003B108BD0268536823F0A0035360012357
:103E400080F84130FFF7E4FFF3E7704708B50368F7
:103E5000DA68C36A1A80C36A0233C362438E9BB2B4
:103E6000013B9BB24386438E9BB203B108BD0268FF
:103E7000536823F060035360012380F84130FFF75B
:103E8000E4FFF3E7704710B584B004460268936816
:103E9000039390F84130DBB2042B06D094F8413004
:103EA000DBB2032B2CD004B010BD039B13F0010F29
:103EB00003D0536813F0400F1FD1039B13F0400F42
:103EC000ECD023685A6812F0200FE7D05A6822F02D
:103ED00060025A60002301932368DA6801929B68AC
:103EE0000193019B012384F84130636C43F002038A
:103EF00063642046FFF7C6FFD0E7FFF7A7FFDCE7C4
:103F0000039B13F0020F04D023685B6813F0800F4B
:103F10001DD1039B13F0080FC5D023685A6812F017
:103F2000200FC0D05A6822F0A0025A6000230293EA
:103F300023689B680293029B012384F84130636CE1
:103F400043F0040363642046FFF79CFFABE7204681
:103F5000FFF75FFFDDE7704708B5436A9A1C4262CE
:103F600002681B88D360438D9BB2013B9BB24385A3
:103F7000438D9BB23BB90268536823F0A0035360A2
:103F8000438E9BB203B108BD012380F84130FFF797
:103F9000E2FFF8E708B50268154B9A421CD04FF0D3
:103FA0004023DA68C36A991CC1621A80438E9BB2AF
:103FB000013B9BB24386438E9BB263B902680C4BB4
:103FC0009A420CD04FF04022536823F060035360B4
:103FD000438D9BB22BB108BDA3F58063E1E7054A91
:103FE000F2E7012380F84130FFF7B5FFF3E700BFA8
:103FF000003800400034004008B5436A9A1C426211
:104000001A880168134B994218D04FF04023DA60A8
:10401000438D9BB2013B9BB24385438D9BB263B9F9
:1040200002680C4B9A420CD04FF04022536823F0A8
:10403000A0035360438E9BB22BB108BDA3F58063F0
:10404000E5E7054AF2E7012380F84130FFF783FFF7
:10405000F3E700BF003800400034004008B50368B3
:10406000DA68C36A991CC1621A80438E9BB2013B15
:104070009BB24386438E9BB23BB90268536823F0E0
:1040800060035360438D9BB203B108BD012380F8E8
:104090004130FFF760FFF8E710B586B004460368CB
:1040A0009A680592704A93426FD04FF0402291680F
:1040B00004915B680393536802936368B3F5007FD0
:1040C00001D0002B70D1059B13F0020F03D0039B8E
:1040D00013F0800F5CD1049B13F0010F03D0029BFF
:1040E00013F0400F58D1049B13F0400F24D0029BD3
:1040F00013F0200F20D022685B4B9A4250D04FF033
:104100004022536823F0600353602268536823F011
:10411000A0035360002300932368DA6800929B6831
:104120000093009B012384F84130636C43F0020349
:1041300063642046FFF7A6FE059B13F0080F22D00C
:10414000039B13F0200F1ED02268536823F0A003B6
:1041500053602268444B9A4224D04FF04022536867
:1041600023F0600353600023019323689B6801934D
:10417000019B012384F84130636C43F004036364C2
:104180002046FFF77FFE06B010BDA2F580628EE7E5
:104190002046FFF7E1FE9EE72046FFF7FBFEA2E781
:1041A000324AAEE7314ADAE7049B13F0020F03D03C
:1041B000029B13F0800F4AD1059B13F0010F03D02F
:1041C000039B13F0400F46D1059B13F0400F1CD00A
:1041D000039B13F0200F18D02268536823F060036C
:1041E00053602268204B9A4239D04FF040225368E6
:1041F00023F0A0035360012384F84130636C43F043
:10420000020363642046FFF73DFE049B13F0080F92
:10421000B9D0029B13F0200FB5D02268124B9A42FE
:104220001FD04FF04022536823F0A0035360226850
:10423000536823F060035360012384F84130636CBA
:1042400043F0040363642046FFF71CFE9BE720460F
:10425000FFF7D2FEB0E72046FFF700FFB4E7034ABE
:10426000C5E7024ADFE700BF0038004000340040E5
:1042700000285AD010B50446436A33B94368B3F5F1
:10428000827F05D00023C36102E000230361436104
:104290000023A36294F85130002B40D0022384F80D
:1042A00051302268136823F040031360636803F4FD
:1042B0008273A26802F404421343E26802F40062CB
:1042C0001343226902F002021343626902F0010201
:1042D0001343A26902F400721343E26902F0380248
:1042E0001343226A02F080021343A26A02F40052CE
:1042F000216813430B60638B03F00403626A02F0CE
:104300001002216813434B602268D36923F40063D1
:10431000D36100206065012384F8513010BD84F81A
:1043200050302046FDF704FDB8E70120704700003B
:1043300070B4036A026A22F001020262466882696E
:1043400022F073020C6844EA020523F002028B6833
:1043500013430D4CA04209D00B4CA0420DD0466037
:1043600085614A684263036270BC704723F00803AA
:10437000CA68134323F00403EEE726F440764A6943
:1043800032438E691643EAE70000014030B4036A05
:10439000026A22F4807202624568C26922F07302E6
:1043A0000C68224323F400738C6843EA04230F4C07
:1043B000A04209D00D4CA0420ED04560C2614A68AF
:1043C000C263036230BC704723F40063CC6843EAE5
:1043D000042323F48063EDE725F440554C6945EA56
:1043E00004158C6945EA0415E7E700BF00000140A9
:1043F00030B4036A026A22F4805202624468C269DD
:1044000022F4E6420D6842EA052223F400538D6847
:1044100043EA0533074DA84206D04460C2614A68AA
:104420000264036230BC704724F480444D6944EA5E
:104430008514F2E70000014010B4036A046A24F016
:1044400001040462846924F0F00C4CEA021223F0A7
:104450000A030B43826103625DF8044B704710B49A
:10446000036A046A24F010040462846924F4704C22
:104470004CEA023223F0A00343EA01138261036293
:104480005DF8044B7047836823F070030B4343F0DF
:1044900007038360704770470368294A90420ED033
:1044A000B0F1804F0BD0A2F57C42904207D002F5CC
:1044B0008062904203D002F58062904203D123F0E3
:1044C00070034A6813431E4A90421AD0B0F1804FDD
:1044D00017D0A2F57C42904213D002F58062904240
:1044E0000FD002F5806290420BD002F59A329042D2
:1044F00007D002F58062904203D002F580629042BC
:1045000003D123F44073CA68134323F080034A693C
:10451000134303608B68C3620B688362084B984245
:104520000AD001234361036913F0010F03D003692B
:1045300023F00103036170470B690363F1E700BFD8
:104540000000014040B310B5044690F83D30F3B18F
:10455000022384F83D30214651F8040BFFF79CFFFD
:10456000012384F8463084F83E3084F83F3084F8E4
:10457000403084F8413084F8423084F8433084F885
:10458000443084F8453084F83D30002010BD80F878
:104590003C30FDF71BFCDBE70120704740B310B552
:1045A000044690F83D30F3B1022384F83D302146B3
:1045B00051F8040BFFF770FF012384F8463084F8AC
:1045C0003E3084F83F3084F8403084F8413084F83D
:1045D000423084F8433084F8443084F8453084F81D
:1045E0003D30002010BD80F83C30FFF754FFDBE782
:1045F0000120704730B4036A026A22F0100202629E
:104600004468826922F4E6420D6842EA052223F0FA
:1046100020038D6843EA05130E4DA84209D00D4DC5
:10462000A8420ED0446082614A688263036230BC53
:10463000704723F08003CD6843EA051323F040035D
:10464000EDE724F440644D6944EA85048D6944EA49
:104650008504E7E70000014038B590F83C30012BB5
:1046600066D004460D46012380F83C300C2A5AD807
:10467000DFE802F0075959591B595959305959590E
:1046800044000068FFF754FE2268936943F0080372
:1046900093612268936923F004039361226893690C
:1046A00029690B43936100203EE00068FFF7A2FFF9
:1046B0002268936943F4006393612268936923F449
:1046C0008063936122689369296943EA01239361B6
:1046D000002029E00068FFF759FE2268D36943F003
:1046E0000803D3612268D36923F00403D3612268ED
:1046F000D36929690B43D361002015E00068FFF7F7
:1047000077FE2268D36943F40063D3612268D369DA
:1047100023F48063D3612268D369296943EA0123C2
:10472000D361002000E00120002384F83C3038BD34
:104730000220FCE710B4846824F47F4C42EA032290
:104740000A4342EA0C0282605DF8044B704790F81D
:104750003C30012B78D010B50446012380F83C3062
:10476000022380F83D300268936823F47F4323F0EE
:10477000770393600B68602B4CD029D8402B54D022
:104780000CD9502B22D1CA6849680068FFF754FE43
:1047900050212068FFF777FE002005E0202B0DD088
:1047A00009D9302B0AD00120012384F83D300023A1
:1047B00084F83C3010BD0BB1102B05D11946206890
:1047C000FFF761FE0020EFE70120EDE70120EBE7B6
:1047D000B3F5805F34D0B3F5005F0CD1CB684A6885
:1047E00089680068FFF7A6FF2268936843F4804356
:1047F00093600020D8E7702B24D1CB684A68896881
:104800000068FFF797FF2268936843F0770393608F
:104810000020C9E7CA6849680068FFF720FE6021E8
:104820002068FFF730FE0020BEE7CA6849680068CC
:10483000FFF702FE40212068FFF725FE0020B3E7C6
:104840000020B1E70120AFE70220704701F01F010F
:10485000012303FA01FC036A23EA0C030362036ADF
:1048600002FA01F10B4303627047000010B50446E1
:104870000846002932D194F83E30DBB2013B18BF24
:104880000123002B63D1002841D1022384F83E305C
:10489000012201462068FFF7D9FF23682E4A934280
:1048A00045D023682C4A934246D0B3F1804F43D081
:1048B000A2F57C4293423FD002F5806293423BD006
:1048C00002F58062934237D002F59A32934233D098
:1048D0001A6842F001021A60002037E0042908D06B
:1048E00008290DD094F84130DBB2013B18BF0123F9
:1048F000C7E794F83F30DBB2013B18BF0123C0E7A4
:1049000094F84030DBB2013B18BF0123B9E704281B
:1049100005D0082807D0022384F84130B8E70223E5
:1049200084F83F30B4E7022384F84030B0E75A6C93
:1049300042F400425A64B4E79A6802F00702062A79
:1049400007D01A6842F001021A60002010BD012051
:10495000FCE70020FAE700BF0000014090F83C307F
:10496000012B35D010B4012380F83C30022380F8AD
:104970003D3003685A689C6822F0700C0A6842EA6D
:104980000C025A600368134A934212D0B3F1804F6D
:104990000FD0A2F57C4293420BD002F58062934285
:1049A00007D002F58062934203D002F59A32934217
:1049B00004D124F080044A6814439C60012380F8E9
:1049C0003D30002380F83C3018465DF8044B7047BA
:1049D0000220704700000140026802F10C0353E816
:1049E000003F23F490730C3242E800310029F3D1E8
:1049F000026802F1140353E8003F23F0010314326C
:104A000042E800310029F3D1036B012B05D02023AC
:104A100080F84230002303637047026802F10C0300
:104A200053E8003F23F010030C3242E80031002924
:104A3000F3D1ECE738B504460268136923F4405318
:104A4000C1680B43136183680269134342691343CE
:104A5000C2691A430168CB6823F4164323F00C03A0
:104A60001343CB600268536923F4407381690B439D
:104A700053610368314A934206D002F58062934243
:104A800002D0FDF77DFD01E0FDF78AFDE369B3F596
:104A9000004F29D00021031849411B1841F10001A2
:104AA000C90041EA5371DB00181863684FEA8302BA
:104AB0004FEA937341F10001FCF7CEF8204DA5FBBE
:104AC00000325109642303FB11031B013233A5FBA0
:104AD00003235B0903F0F00202EB011203F00F0362
:104AE000216813448B6038BD0023021843EB030197
:104AF000121841F10001C90041EA5271D2001018A8
:104B000041F10001626892185B41FCF7A5F80C4D79
:104B1000A5FB00325109642303FB1103DB00323390
:104B2000A5FB03235B095A0002F4F87202EB0112A1
:104B300003F00703216813448B60D4E700100140A1
:104B40001F85EB512DE9F04383B005460E4617460D
:104B50009946DDF828802C68246836EA04030CBFE7
:104B60004FF0010C4FF0000CBC4528D1B8F1FF3FCD
:104B7000F1D0FDF7D3FFA0EB0900404523D8B8F1F1
:104B8000000F22D02B68DA6812F0040FE3D0802ED9
:104B9000E1D0402EDFD01A6812F0080FDBD00024DD
:104BA00001941A6801925B680193019B2846FFF704
:104BB00013FF08236B6485F84040012000E00020CB
:104BC00003B0BDE8F0830320FAE70320F8E760B301
:104BD00010B5044690F8413013B3242384F84130D3
:104BE0002268D36823F40053D3602046FFF722FFE6
:104BF0002268136923F4904313612268536923F0F8
:104C00002A0353612268D36843F40053D360002021
:104C10006064202384F8413084F84230606310BD22
:104C200080F84030FDF758F9D7E7012070472DE9AB
:104C3000F04182B01E4690F84130DBB2202B56D1B5
:104C400004460D469046002955D00AB901204FE090
:104C500000234364212380F84130FDF75FFF0746BE
:104C6000A4F82480A4F82680A368B3F5805F02D05E
:104C70004FF0000814E023692BB34FF000080FE059
:104C8000202384F84130032032E038F8023B2268C8
:104C9000C3F308035360E28C92B2013A92B2E28409
:104CA000E38C9BB293B100963B46002280212046C4
:104CB000FFF748FF0028E3D1002DE6D015F8012BBF
:104CC00023685A60E7E7A8460025E9E700963B46D7
:104CD000002240212046FFF735FF18B9202384F831
:104CE000413005E0202384F84130032000E0022019
:104CF00002B0BDE8F0810120FAE790F84130DBB264
:104D0000202B10D189B192B101628284C284002328
:104D10004364212280F841200168CA6842F0800281
:104D2000CA60184670470220704701207047012072
:104D3000704781628285C28500234364222380F804
:104D40004230036923B10268D36843F48073D360AF
:104D50000268536943F0010353610268D36843F06A
:104D60002003D3600020704708B590F84230DBB2D2
:104D7000202B08D149B10AB9012008BD00230363E3
:104D8000FFF7D7FFF9E70220F7E70120F5E700007A
:104D9000034AD2F8883043F47003C2F88830704771
:104DA00000ED00E000F1080343604FF0FF32826045
:104DB000C3600361002303607047002303617047F1
:104DC00043684B609A688A60516099600861036823
:104DD00001330360704730B40D68B5F1FF3F11D067
:104DE00000F108031C465B681A68AA42FAD9636896
:104DF0004B6099608C6061600861036801330360F7
:104E000030BC70470469F2E70369416882688A60D0
:104E1000416851605A68824206D0002202611A68D5
:104E2000013A1A601868704782685A60F5E710B551
:104E3000044601F07FFCA26BE36B9A4204D000248D
:104E400001F09AFC204610BD0124F9E710B5044694
:104E500001F070FCA36B23B9012401F08DFC204606
:104E600010BD0024F9E770B504461546866B026C48
:104E70005AB903681BB100200136A66370BD806873
:104E800001F044F80023A360F6E76DB9406801F033
:104E900047FE226C636813446360A268934219D38F
:104EA000236863602846E7E7C06801F039FE226C9A
:104EB0005142E3689B1AE3602268934202D2A368DE
:104EC0000B44E360022D01D00020D5E726B1013E5E
:104ED0000020D1E72846CFE70020CDE70346026C4B
:104EE0006AB110B50846D9681144D9609C68A142DE
:104EF00001D31968D960D96801F012FE10BD70475E
:104F000038B5054601F016FC95F8454064B201E05D
:104F1000013C64B2002C0ADD6B6A43B105F1240048
:104F200000F04AFF0028F3D000F0DAFFF0E7FF239B
:104F300085F8453001F020FC01F0FCFB95F8444079
:104F400064B201E0013C64B2002C0ADD2B6943B17C
:104F500005F1100000F030FF0028F3D000F0C0FF92
:104F6000F0E7FF2385F8443001F006FC38BD38B582
:104F7000E0B10D46044601F0DDFB2368E26B216CD5
:104F800001FB0230A0600020A0636360013A02FBD5
:104F90000133E360FF2384F8443084F84530FDB9E1
:104FA000236963B901F0E8FB012038BD4FF05003DD
:104FB00083F31188BFF36F8FBFF34F8FFEE704F1C8
:104FC000100000F0F9FE0028ECD04FF0E0234FF085
:104FD0008052C3F8042DBFF34F8FBFF36F8FE1E70B
:104FE00004F11000FFF7DEFE04F12400FFF7DAFE03
:104FF000D8E738B51D46049C0B4649B92460E063E8
:10500000236401212046FFF7B2FF84F84C5038BDDD
:105010002260F4E740B94FF0500383F31188BFF3E7
:105020006F8FBFF34F8FFEE710B584B01C468446E8
:1050300053B192B189B94FF0500383F31188BFF394
:105040006F8FBFF34F8FFEE74FF0500383F311884C
:10505000BFF36F8FBFF34F8FFEE76AB15023039307
:10506000039B502B13D04FF0500383F31188BFF3F1
:105070006F8FBFF34F8FFEE70029EFD04FF0500343
:1050800083F31188BFF36F8FBFF34F8FFEE7039B4E
:10509000012384F8463000949DF818306046FFF7ED
:1050A000A8FF204604B010BDF0B585B0019288B1CC
:1050B0000F461D460446B1B1022D20D1E36B012BF2
:1050C0001DD04FF0500383F31188BFF36F8FBFF3F0
:1050D0004F8FFEE74FF0500383F31188BFF36F8FBC
:1050E000BFF34F8FFEE7036C002BE5D04FF050036A
:1050F00083F31188BFF36F8FBFF34F8FFEE700F08C
:10510000F5FE064658B9019B002B48D04FF05003DE
:1051100083F31188BFF36F8FBFF34F8FFEE7002635
:105120003DE02A4639462046FFF79DFE636A7BB97B
:1051300048B14FF0E0234FF08052C3F8042DBFF385
:105140004F8FBFF36F8F01F017FB012005B0F0BD4B
:1051500004F1240000F030FE0028F4D04FF0E023EA
:105160004FF08052C3F8042DBFF34F8FBFF36F8F02
:10517000E9E701F001FB0020E8E702A800F062FE89
:10518000012619E0002384F8443021E0002384F84C
:10519000453023E02046FFF7B3FE00F0EDFC01F0C0
:1051A000C9FAA26BE36B9A42BBD3022DB9D0019B23
:1051B000002BDED0002EE0D001F0DEFA00F02EFC55
:1051C00001F0B8FA94F8442052B2B2F1FF3FD9D0BE
:1051D00094F8452052B2B2F1FF3FD7D001F0CCFA9B
:1051E00001A902A800F03AFED8B92046FFF71FFE39
:1051F0000028CFD0019904F1100000F0A9FD20464D
:10520000FFF77EFE00F0B8FC0028C8D14FF0E02385
:105210004FF08052C3F8042DBFF34F8FBFF36F8F51
:10522000BDE72046FFF76CFE00F0A6FC00208DE7EE
:105230002DE9F84390B10F4616461C460546B1B11C
:10524000022C20D1EB6B012B1DD04FF0500383F3C8
:105250001188BFF36F8FBFF34F8FFEE74FF05003FE
:1052600083F31188BFF36F8FBFF34F8FFEE7036C9B
:10527000002BE5D04FF0500383F31188BFF36F8FFD
:10528000BFF34F8FFEE701F07BFBEFF311894FF087
:10529000500383F31188BFF36F8FBFF34F8FAA6B57
:1052A000EB6B9A4206D3022C04D0002089F31188BC
:1052B000BDE8F88395F845804FFA88F8AB6B224635
:1052C00039462846FFF7CFFDB8F1FF3F06D008F179
:1052D00001035BB285F845300120E7E76B6A0BB943
:1052E0000120E3E705F1240000F066FD18B126B1C6
:1052F00001203060DAE70120D8E70120D6E7F0B5D9
:1053000085B0019290B10F460446C1B100F0EEFDA8
:10531000064600BB019B002B5ED04FF0500383F389
:105320001188BFF36F8FBFF34F8FFEE74FF050032D
:1053300083F31188BFF36F8FBFF34F8FFEE7036CCA
:10534000002BE3D04FF0500383F31188BFF36F8F2E
:10535000BFF34F8FFEE700263EE039462046FFF7B9
:10536000BDFD013DA563236923B901F005FA0120C4
:1053700005B0F0BD04F1100000F01EFD0028F4D0CF
:105380004FF0E0234FF08052C3F8042DBFF34F8F4E
:10539000BFF36F8FE9E701F0EFF90020E8E702A81B
:1053A00000F050FD012621E0002384F8443029E07C
:1053B000002384F845302BE02046FFF7A1FD00F0E4
:1053C000DBFB09E02046FFF79BFD00F0D5FB204604
:1053D000FFF73CFD00283FD101F0ACF9A56B002D93
:1053E000BBD1019B002BD6D0002ED8D001F0C4F940
:1053F00000F014FB01F09EF994F844305BB2B3F175
:10540000FF3FD1D094F845305BB2B3F1FF3FCFD02E
:1054100001F0B2F901A902A800F020FD0028D1D1C5
:105420002046FFF713FD0028C6D0019904F124009F
:1054300000F08EFC2046FFF763FD00F09DFB002886
:10544000CAD14FF0E0234FF08052C3F8042DBFF3D0
:105450004F8FBFF36F8FBFE7002089E70023072B33
:105460000CD8074A52F833200AB10133F7E7044A4F
:1054700042F8331002EBC30358607047704700BF17
:105480001004002070B504460D46164601F052F98E
:1054900094F844305BB2B3F1FF3F0DD094F845303F
:1054A0005BB2B3F1FF3F0BD001F066F9A36B5BB1C8
:1054B0002046FFF725FD70BD002384F84430EDE75A
:1054C000002384F84530EFE73246294604F12400F2
:1054D00000F056FCECE70000084B1B681B6823B982
:1054E000074B4FF0FF321A607047044B1B68DB68B4
:1054F000DB685A68024B1A60704700BF54040020F2
:10550000FC0800202DE9F04780460D4617469946D5
:10551000089EDDF824A00A9C9200A521206B01F0D2
:105520000DFB236B07F18042013A03EB820727F062
:105530000707B5B34FF0000CBCF10F0F0BD815F8EF
:105540000C2004EB0C0383F8342015F80C3013B155
:105550000CF1010CF0E7002384F84330372E00D91A
:105560003726E662E66400252565201DFFF725FC49
:1055700004F11800FFF721FC2461C6F13806A6618A
:105580006462656584F858504A464146384601F0E1
:10559000A5F82060BAF1000F01D0CAF80040BDE8BC
:1055A000F087002384F83430D8E7000038B50024B1
:1055B00007E004EB840293000E481844FFF7F2FB67
:1055C0000134372CF5D90C4D2846FFF7EBFB0B4C7B
:1055D0002046FFF7E7FB0A48FFF7E4FB0948FFF71F
:1055E000E1FB0948FFF7DEFB084B1D60084B1C6020
:1055F00038BD00BF5C040020D0080020E408002073
:10560000080900203409002020090020540400204B
:105610005804002010B5044601F08CF8224A1368A3
:1056200001331360214B1B685BB1214B1B686BB9C5
:105630001E4B1B68DA6AE36A9A4207D81B4B1C6050
:1056400004E01A4B1C601368012B29D0194A136817
:10565000013313606364E06A174B1B68984201D9F9
:10566000154B186000EB8000211D144B03EB8000EC
:10567000FFF7A6FB01F080F80D4B1B687BB10B4BCD
:105680001B68DA6AE36A9A4209D24FF0E0234FF0CE
:105690008052C3F8042DBFF34F8FBFF36F8F10BD3F
:1056A000FFF784FFD2E700BFBC08002050040020B1
:1056B0001C090020C8080020CC0800205C04002041
:1056C00010B5044690F8593063B1012B11D0022B6C
:1056D0000ED04FF0500383F31188BFF36F8FBFF3E9
:1056E0004F8FFEE7006B00F07DFF204600F07AFF51
:1056F00010BD00F077FFFBE70F4B1B68D3B110B56F
:1057000001F018F80D4BDB68DC68201DFFF77CFB0F
:105710000B4A1368013B1360074A1368013B13608F
:1057200001F02AF82046FFF7CBFF034B1B68002B44
:10573000E6D110BD704700BFC0080020340900202A
:10574000BC08002008B5FFF7D7FF074B1B68012BEB
:10575000F9D94FF0E0234FF08052C3F8042DBFF386
:105760004F8FBFF36F8FEEE75C04002070B50446E7
:105770000D46174B1E68174B18680430FFF744FBA3
:10578000B4F1FF3F0DD03444124B1B685C60A6425D
:1057900010D9114B18680F4B19680431FFF71BFB28
:1057A00070BD002DEFD00B4B196804310B48FFF78B
:1057B00007FBF5E70A4B1868064B19680431FFF739
:1057C0000AFB084B1B68A342EAD9064B1C60E7E7BB
:1057D000480900205004002058040020200900201F
:1057E00054040020FC08002030B587B00B9C7CB12D
:1057F0000C9DB5B15C250495049D5C2D1AD04FF02D
:10580000500383F31188BFF36F8FBFF34F8FFEE711
:105810004FF0500383F31188BFF36F8FBFF34F8FA7
:10582000FEE74FF0500383F31188BFF36F8FBFF390
:105830004F8FFEE7049D0C9D2C63022485F8594090
:1058400000240394029505AC01940A9C0094FFF790
:1058500059FE0C98FFF7DEFE059807B030BD2DE924
:10586000F04385B00746884614461E46900000F077
:105870003BFE00B381465C2000F036FE0546B0B129
:10588000C0F83090E5B1002385F8593003930295B4
:105890000D9B01930C9B00933346224641463846AC
:1058A000FFF730FE2846FFF7B5FE012005E0484629
:1058B00000F098FEE6E74FF0FF3005B0BDE8F0835A
:1058C0004FF0FF30F9E7000038B5044600F032FF32
:1058D00024B3251D2846FFF797FAA36A1BB104F1EC
:1058E0001800FFF791FA1F4A1368013313601E4B2B
:1058F0001B68A34215D01D4A1368013B1360204664
:10590000FFF7DEFEFFF7E8FD00F036FF184B1B68DF
:105910001BB1154B1B68A3420CD038BD124B1C6841
:10592000D7E729461348FFF74BFA134A13680133A8
:105930001360E9E7114B1B6843B14FF0500383F349
:105940001188BFF36F8FBFF34F8FFEE74FF0E02357
:105950004FF08052C3F8042DBFF34F8FBFF36F8F0A
:10596000DBE700BFC808002050040020BC0800206E
:105970001C09002034090020C0080020C4080020B1
:1059800010B588B000240594069407AA06A905A8B6
:1059900000F02EFD059B0293069B01930094234685
:1059A000079A18491848FFF71FFF184B186040B1B5
:1059B00000F060FB012806D0B0F1FF3F18D008B01E
:1059C00010BD0020F6E74FF0500383F31188BFF3BA
:1059D0006F8FBFF34F8F0E4B4FF0FF321A600D4B9E
:1059E00001221A600C4B00221A6000F03DFFE6E72E
:1059F0004FF0500383F31188BFF36F8FBFF34F8FC6
:105A0000FEE700BF6884000845570008F80800203A
:105A1000FC0800201C09002048090020024A1368E5
:105A200001331360704700BFC4080020014B1868A1
:105A3000704700BF48090020034618B12BB103F19D
:105A400034007047054B1B68F8E74FF0500383F3B1
:105A50001188BFF36F8FBFF34F8FFEE75004002014
:105A6000F8B53A4B1B68002B69D1394B1D680135DD
:105A70001D60C5B9374B1B681B6843B14FF050031D
:105A800083F31188BFF36F8FBFF34F8FFEE7314A67
:105A90001168314B186810601960304A136801337F
:105AA0001360FFF719FD2E4B1B68AB423DD9002751
:105AB0002C4B1B68DB6A03EB83039A002A4B9B5831
:105AC000012B00D90127294B1B68002B3CD0012753
:105AD0003AE001271F4B1B681B6843B31D4B1B6833
